:020000040000FA
:10000000F8330020F5030000FD0300001502000096
:1000100001040000030400000504000000000000CB
:1000200000000000000000000000000007040000C5
:1000300009040000000000000B0400000D04000093
:100040000F1000000F040000211200000F04000038
:100050000F0400000F040000DD0B00000F0400007F
:100060000F0400000F0400000F0400000F04000044
:100070000F0400000F0400000F0400000F04000034
:100080000F0400001D1000000F0400000F0400000A
:10009000411000000F0400000F0400000F040000D6
:1000A0000F0400000F0400000F0400000F04000004
:1000B0000F0400000F04000000000000000000001A
:1000C0000F0400000F0400000F0400000F040000E4
:1000D0000F0400000F0400000F0400002D120000A8
:1000E0000F0400000F0400000F04000000000000D7
:1000F000000000000F040000000000000F040000DA
:1001000000000000000000000000000000000000EF
:1001100000000000000000000000000000000000DF
:1001200000000000000000000000000000000000CF
:1001300000000000000000000000000000000000BF
:1001400000000000000000000000000000000000AF
:10015000000000000000000000000000000000009F
:10016000000000000000000000000000000000008F
:10017000000000000000000000000000000000007F
:10018000000000000000000000000000000000006F
:10019000000000000000000000000000000000005F
:1001A000000000000000000000000000000000004F
:1001B000000000000000000000000000000000003F
:1001C000000000000000000000000000000000002F
:1001D000000000000000000000000000000000001F
:1001E000000000000000000000000000000000000F
:1001F00000000000000000000000000000000000FF
:10020000DFF80CD000F016FB00480047A15D0000AD
:10021000F8330020094B1EF0040F1CBFEFF30980D8
:100220001847EFF308800649064A884201D89042F1
:1002300002D88D464FF0000018470000910D0000D5
:10024000F8330020F813002030B450E8012F93B2A7
:10025000C48923448489A34228BF1B1B0489A34269
:1002600002BFBFF32F8F002007E0C3EA020340E87C
:100270000134002CE9D14FF001000A6030BC704716
:1002800050E8012FC2EA024240E801210029F7D1DB
:10029000704730B450E8022F1FFAA2F3C488A3427B
:1002A00002BFBFF32F8F00200DE0C489234484894F
:1002B000A34228BF1B1BC2EA034340E80234002CC0
:1002C000E8D14FF001000A6030BC704750E8022FBF
:1002D000C2EA224240E802210029F7D170470346D2
:1002E00053E8022FD988B2EB324F4FF0000017BF0E
:1002F00092B241EA014142EA014104E05A68B2EB9C
:10030000324F08BF012043E80212002AE8D17047AB
:1003100030B4044654E8000F0D4644E80053002B67
:10032000F8D1156030BC704730B4044654E8000F73
:1003300040EA010544E80053002BF7D1156030BCBA
:10034000704730B4044654E8000F00EA010544E861
:100350000053002BF7D1156030BC704730B4044611
:1003600054E8000F80EA010544E80053002BF7D160
:10037000156030BC704730B4044654E8000F00EB01
:10038000010544E80053002BF7D1156030BC7047DD
:1003900030B4044654E8000FA0EB010544E80053D4
:1003A000002BF7D1156030BC704770B404464FF095
:1003B000000054E8006F0D68AE4207BF44E8002318
:1003C000012044E800630E60002B1CBF0020F0E712
:1003D00070BC704730B4044654E8000F88422CBF0C
:1003E000451A054644E80053002BF5D1156030BC92
:1003F000704700000648804706480047FEE7FEE7D2
:10040000FEE7FEE7FEE7FEE7FEE7FEE7FEE7FEE7C4
:1004100045100000010200002DE9F05F05460020B4
:1004200092469B4688460646814640241BE0284665
:1004300041464746224600F0ABF953465A46C01A99
:10044000914110D311461846224600F016F82D1A95
:1004500067EB01084F4622460120002100F00DF80D
:1004600017EB00094E41201EA4F10104DFDC4846D1
:1004700031462A464346BDE8F09F202A04DB203A55
:1004800000FA02F1002070479140C2F1200320FAE7
:1004900003F31943904070470048704700B50000CF
:1004A00010B50446FFF7F8FF0068005D00F001009A
:1004B00010BD2DE9FE43994615468846074601AC16
:1004C000022942D3002D40D000200290A8F1010063
:1004D0004FF0FF36009022E000FB057201FB057033
:1004E00011464A469047002805DC54F8260030445F
:1004F00044F8260013E060682A4600FB057154F8B2
:10050000040C00FB057007E00B7890F800C001F8C0
:1005100001CB00F8013B521E002AF5D1764254F877
:10052000040C61688842D7DC4B462A463846FFF700
:10053000C0FF54F8040C4B46A8EB0001401C00FB24
:1005400005702A46491EFFF7B4FFBDE8FE8310B5CB
:10055000431A934209D28318881803E010F8011D4A
:1005600003F8011D521EF9D210BD40EA01039B079A
:1005700003D009E008C9121F08C0042AFAD203E018
:1005800011F8013B00F8013B521EF9D210BDD2B266
:1005900001E000F8012B491EFBD270470022F6E76C
:1005A00010B513460A4604461946FFF7F0FF2046E9
:1005B00010BD421C10F8011B0029FBD1801A7047A6
:1005C00010B5002200E0521C835C8C5CA34201D178
:1005D000002BF8D1D8B2E1B2401A10BD034611F891
:1005E000012B00F8012B002AF9D11846704730B5CD
:1005F00005460020034600E05B1C934205D2EC5CFC
:10060000C85C201A01D1002CF6D130BD0FB400B562
:100610008DB010A909900B9000914FF0FF300A9017
:1006200000200C9005480690054807906A4609A8E6
:100630000F9900F0D1F80DB05DF814FBF50700003C
:10064000130800002DE9FF5F1D464FF0FF3BD5E981
:10065000014691465F464FF00008A9697F1C01984A
:100660008847296A824688470028F6D1BAF1FF3FB9
:100670000CD024F4C064002E19DD600614D5BAF144
:100680002B0F09D0BAF12D0F0ED103E0584604B05C
:10069000BDE8F09F44F48064A9697F1C01988847F5
:1006A000761E8246002E02DDBAF1300F03D0B9F17A
:1006B000000F26D032E0A969761E44F400747F1C36
:1006C000019888478246002E05DDBAF1780F06D0E2
:1006D000BAF1580F03D0B9F1000F10D01EE0B9F1F4
:1006E000000F02D0B9F1100F18D1A969761E24F4B9
:1006F00000747F1C019888478246102002E0082081
:1007000000E00A20814609E008FB0908A969761E75
:1007100044F400747F1C019888478246002E05DD52
:100720004946504600F044F80028EDDAE96901989E
:100730008847A00502D46FF00100A8E7E00725D1A3
:10074000600613D5600502D5C8F1000000E0404600
:1007500029680A1D2A600968220501D5087015E07C
:10076000220701D5088011E008600FE02868011D0C
:1007700029600068210502D580F8008006E0210785
:1007800002D5A0F8008001E0C0F8008038467EE77E
:10079000202A04DB203A21FA02F00021704721FAD6
:1007A00002F3D040C2F1200291400843194670473D
:1007B0003A2800D2303820F02002412A01D3A2F199
:1007C0003700884201D34FF0FF3070470268114470
:1007D0001378016018467047D1600449516104499B
:1007E000116200211161114600F036B8CD070000FA
:1007F000A1040000426842B1016811F8013B23B135
:10080000521EC0E90012184670470121C160881EBF
:10081000704742685AB1C368016843B983688B4224
:1008200005D0491E521CC0E90012002070474FF04D
:10083000FF307047064C074D06E0E06840F00103CA
:1008400094E8070098471034AC42F6D3FFF7DCFC7D
:10085000BCC20000DCC200002DE9F34F8BB04FF0AA
:10086000000801F10C000C464FF0010B46460DF15B
:10087000080A01906269012101989047051E2DD058
:10088000252D2CD0216A8847C0B1626901210198C9
:100890009047216A88470028F7D1411E6269019874
:1008A000904700E0761CA1690B988847216A884729
:1008B0000028F7D1E1690B988847DBE7A1690B981D
:1008C00088470746A84201D1761CD3E7E1690B9817
:1008D00088477F1C02D1B8F1000F6FD046E1002796
:1008E00062693D463946019890472A2804D16269D9
:1008F0000121019890470125DFF884926269012166
:1009000001989047A0F130010A290AD24F45E5DC51
:1009100007EB870100EB4107303FDFD445F01005BE
:10092000ECE7E90601D46FF000476C280AD04C28A8
:1009300014D0682815D06A280DD074281CD07A28C5
:100940001AD01DE062690121019890476C2802D0FD
:1009500045F0040514E045F002050DE045F02005E2
:100960000AE06269012101989047682802D045F0A9
:10097000080505E045F4006562690121019890478A
:10098000C4E9015765283DD019DC58287AD00CDC21
:10099000452837D004DC252826D0412831D131E044
:1009A00046282FD047282CD12CE05B2877D061280F
:1009B00028D063287CD0642823D15AE0D0E06F2867
:1009C00048D008DC66281DD067281BD0692821D0B4
:1009D0006E2816D127E0702845D0732868D0752876
:1009E00047D078280DD14DE0A1690B98884705467E
:1009F00025283FF469AFE1690B9888476D1C3FF4E7
:100A00006AAFB3E023466A466FF001000B99AFF37B
:100A100000809EE045F040006060A80723464FF04C
:100A2000000236D43EE0E8077FF447AF2068011D9E
:100A300021600068290501D506701BE7290701D54B
:100A4000068017E7A90703D5F117C0E9006111E790
:100A500006600FE745F040006060A80723464FF0AE
:100A6000080216D41EE040F60E0125EA010060607F
:100A700016E045F040006060A80723464FF00A02E8
:100A800007D40FE045F040006060A80708D5234672
:100A900010226FF001000B99AFF3008059E007E0DE
:100AA000234610226FF001000B99FFF7CBFD50E0B9
:100AB0004FF000094F464B46632802D05B2806D012
:100AC00040E0E80601D40120A06001273AE0626915
:100AD0000121019890475E2805D14FF00109626914
:100AE000494601989047216939B900210A46534681
:100AF00043F82120491C0829FADBB0B3216969B900
:100B0000C11700EBD16253110AEB830122F01F02DF
:100B1000821A01200B68904003430B606269012137
:100B2000019890475D28E8D1B9F1000F09D0002065
:100B3000514651F82020D24341F82020401C08287B
:100B4000F7DB02AB224600976FF001000B99AFF381
:100B5000008000280CDA401C08D1BBF1000F05D042
:100B60004FF0FF300DB0BDE8F08FFFE74046F9E7EA
:100B7000E90701D108F1010806444FF0000B79E6BE
:100B8000CCCCCC0C70B58C1810F8015B15F00703B9
:100B900001D110F8013B2A1106D110F8012B03E016
:100BA00010F8016B01F8016B5B1EF9D12B0705D41E
:100BB0000023521E0DD401F8013BFAE710F8013B67
:100BC000CB1A921C03E013F8015B01F8015B521E83
:100BD000F9D5A142D8D3002070BD00002DE9F04F17
:100BE00000268DB0DFF8A081B14604964FF48075E1
:100BF000012437460596284607F0E8F838B1D8F8BA
:100C00000403204203D0284607F0D6F826432D1DC2
:100C100064007F1CADB2082FEDD34FF4BE742046A4
:100C200007F0D4F848B1204607F0C6F846F0004671
:100C300004AA0221002007F0A9F8544C16F0FF0F77
:100C400015D00127002537420DD008EB8501D1F8DA
:100C50001005D1F81015C0F3052054F82520C1F374
:100C6000014102B190477F006D1C082DEBD3002E8F
:100C70007EDA0020CDF82890411E0DF1100B07AA56
:100C8000CDF82C9042F82010401C91460228F9D350
:100C900000252E46A11911F8607F91F9000027F078
:100CA000C008401C40D007A9404605F087FB40B370
:100CB0004FEA971A404602F001FE54F820701FB127
:100CC000BAF1030F03D006E0BAF1030F2CD10AA941
:100CD000404605F07BFB02A8CDF8088006F0FAFF3D
:100CE000029900EB8100D0F8000704A9C0F301408D
:100CF0000290404605F062FB0028029802D00228CC
:100D000002D011E003280FD1BAF1030F08D10298E5
:100D1000022833D00221404606F0B6FF6D1CEDB22A
:100D200017B151464046B847761C042EB2D3002D69
:100D300021D001AA0221002007F028F800205A46FD
:100D40000DF1040152F8206051F82030B34217D061
:100D500000200AAE4FEA090351F8207042F82070D3
:100D600056F8207043F82070401C0228F4D300E0AD
:100D700001E0002D8CD10DB0BDE8F08F0321CAE752
:100D8000401C0228DED3F6E700600040380A00204D
:100D90001CB5824607F0BEFB07F04EF90028FBD1D8
:100DA00036485FEA0A05076836483749344EA0EBF3
:100DB00001004FEAD0004FF0010808EB00447088B2
:100DC0001ED0002821D0204630A1AA6907F06EFA73
:100DD0007088002819D0D5E90201CDE90001D5E9D4
:100DE000002320462FA107F079FA708868B1E869DE
:100DF0000090D5E90423204638A107F066FA04E004
:100E000018B120463FA107F04DFA1C48001D0068AC
:100E1000800705D5708818B12046474907F042FA87
:100E2000DFF81891002500BF08FA05F0384208D015
:100E300059F825202AB1708818B1204640A107F042
:100E400035FA6D1C1A2DEFD3380608D5708830B1ED
:100E50000A480C30026820463CA107F027FA380403
:100E600008D5708830B105481030026820463FA18F
:100E700007F01CFA504600F087F8000028ED00E06B
:100E8000B0020020A4C300003CC30000484152440B
:100E9000204641554C542061742030782530385814
:100EA00000000000202052303A20203078253038D1
:100EB00058202052313A20203078253038582020D0
:100EC00052323A2020307825303858202052333A98
:100ED0002020307825303858000000002020523182
:100EE000323A2030782530385820204C523A202091
:100EF00030782530385820205053523A2030782509
:100F000030385800537461636B2076696F6C61747C
:100F1000696F6E3A20737461636B20706F696E74D1
:100F20006572206F75747369646520737461636B97
:100F300020617265612E000020B60000540100207F
:100F400043617573653A2025732E00004D656D4D24
:100F5000616E616765204661756C742041646472DE
:100F60006573733A20307825303858004275732005
:100F70004661756C7420416464726573733A203005
:100F80007825303858000000BFF34F8F05480168BE
:100F9000054A01F4E06111430160BFF34F8F00BFC8
:100FA000FDE700000CED00E00400FA0500F01F0270
:100FB000012191404009800000F1E020C0F880123A
:100FC000704700F01F02012191404009800000F1AC
:100FD000E020C0F80011704700F01F02012191408D
:100FE0004009800000F1E020C0F800127047490776
:100FF000090E002806DA00F00F0000F1E02080F86A
:10100000141D704700F1E02080F80014704710B5FF
:1010100008F044F8BDE8104007F0C2BE07480021C0
:10102000C0F84011C0F84411C0F84811C0F84C1184
:10103000C0F80011C0F8041109F00CB9001001400B
:1010400009F05AB830B54FF0805000228300D0F834
:101050003011C3F80C21C3F81021624B1A60624BA7
:101060001B68624C2360604B1B1D1B68241D2360A2
:101070005D4B08331B68241D23605B4B0C331B68DE
:10108000241D2360584B10331B68241D2360564BCE
:1010900014331B68241D2360534B18331B68534CB7
:1010A00020342360504B1C331B68241D23604E4B9F
:1010B00020331B68241D23604B4B24331B68241DE5
:1010C0002360494B28331B68241D2360464B2C3377
:1010D0001B68241D2360444B30331B68434C403451
:1010E0002360414B34331B68241D23603E4B38334F
:1010F0001B68241D23603C4B3C331B68241D23606C
:10110000394B40331B68241D23600124082902D178
:10111000D0F8343113B1082904D006E0354B3449F6
:10112000196005E0D0F8343113B1082904D006E085
:10113000314BFB21196005E0D0F8343113B1082997
:1011400008D00EE090F858322C48016863F3030190
:10115000016002E0D0F834311BB929494FF4007026
:10116000086028480168C90702D06FF001010160DA
:101170002548016841F470010160BFF34F8FBFF350
:101180006F8F4FF01021D1F80002002803DBD1F857
:101190000402002822DA1D4B1C601D480468002C44
:1011A000FCD01224C1F800420568002DFCD0C1F823
:1011B000044201680029FCD01A6001680029FCD0B3
:1011C000BFF34F8F10487C380168124A01F4E06188
:1011D00011430160BFF34F8F00BFFDE70F490E4879
:1011E000086030BD380500400404001020C50040F0
:1011F000488103008C56004018F50040E40E004082
:10120000409602400004004088ED00E004E5014003
:1012100000E401400400FA050090D00358020020C9
:101220000148006800470000A40000202DE9F05F9D
:101230005448D0F8045300242E464FF0010913E01F
:1012400096FAA6F0B0FA80F7B80000F580708046F4
:1012500007F026FD28B1404607F02AFD09FA07F0FD
:10126000044309FA07F08643002EE9D106F04AF953
:10127000002869D0444AD078F0BBA00264D5434925
:1012800040F2A978C1F80080081D036813F0FF0C34
:1012900002D0036803EA0C0C40F2AA7AC1F800A05D
:1012A000036813F0FF0301D00668334040F2AB7BC4
:1012B000C1F800B0066816F0FF0601D007683E408E
:1012C00040F2AC770F60076817EA0C0709D0D2F834
:1012D00010C04CEA070CC2F810C0C1F800800760CB
:1012E000076840F2AD770F6007681F4009D01369A7
:1012F00043EA0743136100E026E0C1F800A007605D
:10130000036840F2AE730B60036833400BD0DE0716
:1013100001D044F40004DE0601D544F00104C1F814
:1013200000B003600068106930F0011102D005F0D0
:1013300080710C4310F0011F06D0690504D520F020
:10134000011044F480641061C4F3C05624F4000416
:101350004F46DFF83C8009E094FAA4F0B0FA80F53B
:1013600058F82500804707FA05F08443002CF3D194
:1013700009F070FA002E03D0BDE8F05F03F0DCBD89
:10138000BDE8F09F00700240740000200078024029
:10139000A8AE0000C11700EBD161074B4A1153F80A
:1013A000222021F01F01411A01208840024201D071
:1013B000012070470020704700E100E00FB41CB529
:1013C0000A46521ECDE9000207A9054B6A46069857
:1013D00000F02CF8009A002111701CBC5DF814FB81
:1013E0008F1800000FB4084B10B504A902AA039887
:1013F00000F01CF8044602A9002000F053FA204631
:1014000010BC5DF814FB0000A518000002E008C83D
:10141000121F08C1002AFAD170477047002001E06E
:1014200001C1121F002AFBD1704700002DE9FF4FB8
:101430008DB00F460546002606E025280BD0DDE9D5
:101440000F1290476D1C761C28780028F5D111B03A
:101450003046BDE8F08F0024A246A1460122EC49A7
:1014600000E0044315F8013F203B02FA03F0084274
:10147000F7D128782A2810D06FF02F022878A0F111
:101480003001092914D80AEB8A0102EB410144F02A
:10149000020400EB010A6D1CF0E701CF5FEA000ACD
:1014A00003D544F40054CAF1000A44F002046D1C50
:1014B00028782E2817D115F8010F44F004042A28A3
:1014C0000ED06FF02F022878A0F1300109290AD838
:1014D00009EB890102EB410100EB01096D1CF2E708
:1014E00057F8049B6D1C28786C280FD006DC4C281C
:1014F00017D068280DD06A2814D104E0742810D0C1
:101500007A280FD10DE044F400140AE044F480146A
:1015100001E044F440146978814202D104F580145A
:101520006D1C6D1C2A786E2A1FD00CDC632A31D00A
:1015300004DC002A8BD0582A11D1A3E0642A68D099
:10154000692A0CD165E0732A2ED004DC6F2A73D08F
:10155000702A04D19BE0752A6FD0782A6ED010468D
:10156000DDE90F129047761C50E1C4F302500228C7
:1015700006D0032809D0042801CF09D0066045E130
:1015800001CFF117C0E9006140E101CF06803DE1E4
:1015900006703BE117F8040B8DF8000000208DF871
:1015A0000100EB46012003E057F804BB4FF0FF3089
:1015B00061074FF0000102D40DE008F101018846F7
:1015C00049450FDA8045F8DB1BF808100029F4D1F3
:1015D00008E008F1010188468142FADB1BF8081097
:1015E0000029F6D1DDE90F23AAEB08008146214648
:1015F00000F036F9304400EB080604E0DDE90F1294
:101600001BF8010B9047B8F10108F7D22146484674
:10161000F7E00A21C4F302534FF0000B0891022BAC
:1016200004D001CFC117032B09D00AE0FF1D27F01A
:101630000707F7E8020108E032E01FE020E000B20F
:10164000C117042B01D140B2C117031E71F1000371
:1016500007DA4FF0000CD0EB0C006CEB01012D23EE
:1016600002E0230504D52B238DF82430012303E069
:10167000E30701D02023F7E7984658E00A2110E05D
:1016800010210EE010204FF0000B08900CE010210C
:101690004FF0000B44F004044FF00809089103E0F8
:1016A00008214FF0000B0891C4F30253022B04D021
:1016B00001CF0021032B06D006E0FF1D27F007070E
:1016C000F7E8020103E080B2042B00D1C0B24FF072
:1016D000000823072BD5702A07D0DDF820C08CF036
:1016E000100C5CEA0B0C05D00EE040238DF8243082
:1016F000012308E050EA010306D030238DF824309E
:101700008DF8252002239846DDF820C08CF0080CC7
:101710005CEA0B0C0BD150EA010301D1630706D53B
:1017200030238DF824304FF00108A9F10109582A1F
:1017300004D038A20B9208AA0A920BE03AA2F9E769
:101740005B46089AFEF768FE0B9B9B5C0A9A521E4A
:101750000A92137050EA0102F2D10A98ADEB000030
:1017600000F1200B600702D524F4803401E04FF033
:101770000109D94502DDA9EB0B0000E0002000EBD8
:101780000B0141440890AAEB010AE00306D4DDE90D
:101790000F232146504600F063F806444FF000093D
:1017A00008E009A911F80900DDE90F12904709F1D5
:1017B0000109761CC145F4DBE0030CD5DDE90F23FC
:1017C0002146504600F04CF8064404E0DDE90F12D3
:1017D00030209047761C0899481E08900029F5DCB7
:1017E00008E00A980A990078491C0A91DDE90F126D
:1017F0009047761CBBF10001ABF1010BF1DC2146F7
:101800005046DDE90F2300F019F806446D1C1BE675
:1018100009280100303132333435363738396162C6
:10182000636465660000000030313233343536378A
:101830003839414243444546000000002DE9F0415B
:10184000044600251E461746880404D405E03946A0
:101850002020B0476D1C641EF9D52846BDE8F081F4
:101860002DE9F041044600251E469046C80301D5E7
:10187000302700E02027880404D505E0414638469B
:10188000B0476D1C641EF9D52846BDE8F0814A6852
:10189000002A06D00A68531C0B6010704868401E6E
:1018A000486070470A68531C0B6010707047022034
:1018B00001F0DCB870B50024064D06E0686801212F
:1018C00010F8340007F0B8FA641C28788442F5D385
:1018D000002070BDB0000020F8B515460C46064645
:1018E000052A01D20720F8BD07F09EFB18B907F0C2
:1018F00061FB0028F7D1124900224E600C708D6008
:10190000C1E90422C1E906220E4D0DE006EBC40038
:101910002968009181788DF8011000780A4A69469B
:1019200007F0D6FA0028DED1641EE4B2EED2BDE89C
:10193000F84004480021054A001D00F05FB800008F
:10194000B000002054AF0000AD5100001D4C00005D
:1019500072B606F0DFFD00BF06F06EFB0028FBD17B
:10196000144D154915486A88081AC4082AB101207F
:1019700000EB044012A106F095FC14480068C00773
:1019800000D000BE6888022805D3022000EB044086
:101990000FA106F087FCBFF34F8F0C48E4380168B5
:1019A0000F4A01F4E06111430160BFF34F8F00BFA4
:1019B000FDE70000C0020020C4C300003CC30000DB
:1019C000466174616C206572726F7200F0ED00E028
:1019D00053797374656D207265736574000000003F
:1019E0000400FA050EB500210091CDE901106A4608
:1019F00044F20100FFF7ACFF0EBD0000074B9B78DF
:101A000023B12AB120B10068037C1BB108207047C4
:101A1000072070474174426100207047140B00207A
:101A200070B507F0C5FF104800240B210470447006
:101A30000E4D817014206C602C706C70FFF7B6FA3C
:101A400007211420FFF7D3FA1420FFF7BAFA084849
:101A5000046007211120FFF7CAFA0548001F00683B
:101A6000A860002070BD0000140B0020D0000020F2
:101A7000081501402DE9F843DFF8709099F802301D
:101A80005BB350B3052902D20720BDE8F883436950
:101A90001BB3437C012B22D0002704460025884637
:101AA0001646284600F000FF684609F0DFF8C0B18E
:101AB000012101700E4944600968C0E90218C0E9BB
:101AC00004769DF8000089F80100002000F0EEFE89
:101AD0001420FFF781FA2846D7E70820D5E70F46FC
:101AE000DBE70425002000F0E1FEF4E7140B002002
:101AF000041501400649897839B130B1416921B1F5
:101B000000210174022108F085BB08207047000005
:101B1000140B002070B505460548046905E0294608
:101B2000204602F019F820680468002CF7D170BD37
:101B3000F800002070B5094804690CE0267A0025F9
:101B400005E02946204600F019FD6D1CEDB2B542B6
:101B5000F7D320680468002CF0D170BDF800002095
:101B600070B50A4804690DE0267A002506E00022D7
:101B70002946204600F040FD6D1CEDB2B542F6D37B
:101B800020680468002CEFD170BD0000F800002030
:101B900070B50849054606200C6907E0294620462D
:101BA00001F0DAFF062803D121680C68002CF5D17A
:101BB00070BD0000F80000200068806F70470000D2
:101BC0007CB504680B46154694F820100C34C90700
:101BD00005D0A16929B1206AA0B311207CBD0820DD
:101BE0007CBDE16EA9420CD31846A16EFEF7AFFC96
:101BF000E06E401BE066A06E65672844A06600208A
:101C00007CBDC4E9063203F000F805460F480069C0
:101C1000CDE90004E26E6AB1A16EA069FEF797FCFF
:101C2000E16EE069401AE061A0690844A06100200B
:101C3000C4E91B016946284600F0C0FA0028DFD13C
:101C400092207CBDFFE7C4E90832F9E7C0AF00008D
:101C50000068D0F880007047FEB504680546174656
:101C60000E4600200C3400F01FFE082E13D006DCB8
:101C7000012E10D0022E0ED0042E06D10BE0102E15
:101C800009D0202E07D0402E05D00624002000F0D9
:101C90000DFE2046FEBDE08A0FB1304300E0B043A8
:101CA000E082A1222021A270E1700021A180E180C8
:101CB00002212181E18A61812C6828460C3402F0DE
:101CC0008AFD064AA41CD2E90C120094CDE9011247
:101CD000694600F099FA0446D8E70000C0AF00005A
:101CE0003EB50D460168144691F8201011F0010F21
:101CF0000BD002F081FFA10609D000210095CDE9AB
:101D00000141694600F080FA3EBD08203EBD014910
:101D1000896AF3E7C0AF0000F8B5044600250FE07C
:101D2000002705E0007800F05DFA08B11120F8BD49
:101D30003946781CC7B2304600F09CF80028F1D133
:101D40002946681CC5B2204600F0A6F80600E7D177
:101D500000250DE0002703E00078214600F047FA57
:101D60003946781CC7B2304600F084F80028F3D119
:101D70002946681CC5B2204600F08EF80600E9D15D
:101D8000074800E0086801680029FBD104600548A5
:101D90006946806900906068026820469047F8BDF7
:101DA0000801002068AF00002DE9F04F87B04FF028
:101DB00000081D46934689460446DDF840A0464685
:101DC000CDF80C8000E0761C606801230022476893
:101DD000214603A8B8470028F5D140468DF8008079
:101DE0000027B84601903BE0606801236A46D0F8BE
:101DF00004C0214601A8E0476068012305AAD0F885
:101E000004C0214601A8E0479DF8141049451AD1A5
:101E1000D84514D19DF80000CAF8000005F8010B60
:101E20006A1C85F8009060689DF80030214645687E
:101E300001A89B1EA847002007B0BDE8F08F08F15D
:101E4000010000F0FF0860689DF800300022D0F823
:101E500004C0214601A89B1EE0479DF800000744EE
:101E6000B742C1D30520E7E7014800697047000089
:101E7000F800002042788A4201D80020704782781A
:101E800010440844704742788A4201D800207047C5
:101E90008278104408447047027A8A4201D80020B0
:101EA000704701EB4101093008447047027A8A42C9
:101EB00001D80020704701EB410109300844704708
:101EC00002484078002800D001207047F800002028
:101ED00010B5002000F05EF9BDE81040802000F051
:101EE00059B910B5002000F057F9BDE81040802026
:101EF00000F052B970B50D460146287806240B282B
:101F000015D009DC4FF0010607284AD2DFE800F0BF
:101F1000490D0F11492638000C2824D00D2824D053
:101F20000E282BD085283CD10FE0032013E000249D
:101F300037E0284804F05CF90028F8D0264806600D
:101F4000BFF36F8FBFF34F8FF1E72248001F007878
:101F5000032826D1042008F0D9FB22E0084600F02F
:101F600059F804461DE0002005E01C48006810F008
:101F7000010F03D0022008F0C9FBD8E70120FAE7DF
:101F8000E87803280DD01349091D0A6832B10023EF
:101F90000B6049689047040005D000E00E2405F06E
:101FA000D1FB204670BD08F0A9FB28B1A878002815
:101FB000F7D105F08AFBF4E74FF08050D0F83011EC
:101FC000082903D1D0F834010028EAD005F07AFBC3
:101FD000E7E700002C0100205C700240380400405C
:101FE000024A0146D2E9000210470000700D0020AD
:101FF00070B50C46054605F05FFBA84201D01020E5
:1020000070BD0348D4E90012C0E90212002070BD7F
:10201000280100207FB5054605208DF80000062424
:102020000DF1010005F066FB08F068FB294900206E
:1020300008609DF8010010F01F0006D001280FD0A5
:10204000022826D0032833D106E06946284607F047
:10205000D5FD044606282AD16846FFF799FD25E0FC
:102060009DF8050003A900F0A5FA050008D06A460E
:102070009DF80C1000F07EFA0446062802D016E007
:10208000102415E06A469DF80C10284607F0CAFE99
:102090000CE09DF80500010705D0694600F058F8EE
:1020A0000446062803D1684607F026FE044624B1FC
:1020B00005F048FB04B0204670BD08F01FFB30B1AE
:1020C00005F0FAFA0028F5D105F0FFFAF2E705F07D
:1020D000F9FAEFE730010020FEB5C08814460E463D
:1020E000A04201D2054600E01546844207D2802076
:1020F00005F00AF9B4FBF0F100FB114068B10020D3
:102100000096CDE90150002000F0CEFB694680200A
:1021100000F07AF8040002D006E00120F0E705495B
:102120008020FFF765FF0446002000F0BFFB20463B
:10213000FEBD0000FCAF000008B140210160014875
:1021400070470000C40D002004F088BF04F0BCBF3D
:1021500010B50C46010600F00F02092A09D200F062
:102160000BF8006828B141680A682146BDE81040B4
:102170001047102010BD0000010600F00F0001D52F
:10218000034901E00249483101EBC00070470000FB
:10219000280D002005F010B810B5044600F00F001F
:1021A000082805D2204605F029F8204605F0DCF87D
:1021B0002046BDE8104005F02FB8000070B50C4671
:1021C000054605F069F818B105480078022801D0E5
:1021D000082070BD21462846BDE8704005F05EB875
:1021E000F800002010B5FFF7C7FF006810BD10B55C
:1021F0000C46FFF7C1FF04601CB1616809684160CB
:1022000010BD0021FBE7000070B50C46054605F047
:1022100043F818B105480078022801D0082070BDA5
:1022200021462846BDE8704005F0CEB8F8000020F1
:10223000F8B5044600782A4D05280BD129480068D6
:102240002849C0B2091F096811F0FF0F04D1052801
:1022500002D1254C207818B3234F6946243F386AB1
:1022600003F097FF06001AD020683060002000F0CD
:102270001BFB6888E968401A401CF0801848002160
:102280000C3003F0D4FFB080002000F00FFB694653
:10229000386A03F09FFF0146204608F0D1FCF8BDE4
:1022A000AE6905E0316860888968884730684668AB
:1022B000002EF7D1002000F0F7FAE86808B960882E
:1022C0006880074801210C3003F09BFF002000F0DC
:1022D000EDFA0121204608F0B3FCE868F8BD0000E3
:1022E000F8000020847402408CAF000070B5764C7A
:1022F00005460178207809297AD007DC79D2DFE811
:1023000001F06A84B28D9FBBC283D700822927D097
:1023100017DC0A296ED00F296DD080293BD0812986
:1023200072D16A48FFF75CFE6848FFF7F3FB0D20A7
:1023300008F094FCFFF7FEFBFFF7CAFD606950B997
:1023400006E0832931D0842937D085295CD193E0F8
:102350005F48007A00B1012005F0F8F901207EE025
:10236000FFF7E8FB05F01EFA002007F05BFE574878
:10237000401CFFF7CFFB5548401CFFF731FE0E20F5
:1023800008F06CFC207800F075FA00283CD0BDE81D
:10239000704004F04FBD052803D0062803D007285D
:1023A00032D102205BE0082059E003282CD105F04F
:1023B00017FA002828D0042051E0032805D105F0A1
:1023C0000FFA10B1042007F02DFE05F093FA002853
:1023D0001AD0062043E0032801D0082803D13B4847
:1023E000801CFFF783FF002008F038FC646909E0D7
:1023F00060E009E060E044E02946204601F0ACFBE3
:1024000020684468002CF7D170BDFFF793FBFFF7FD
:1024100068FD022007F006FE012005E0082809D02B
:10242000052007F0FFFD032008F018FC2846FFF701
:10243000D7FD44E0022007F0F5FD05F0E3F8F2E7F0
:10244000032008F00BFC2148C01CFFF7C9FD1F4802
:10245000C01CFFF75FFB20780628A2D10720BDE84B
:10246000704007F0DFBD032007F0DCFD022008F01C
:10247000F5FB2846FFF74EFB2846BDE87040FFF706
:10248000AFBD0F2019E0A878FFF776FED0E9002352
:102490002946104698470028B6D0A8780107B3D03F
:1024A00000F00F010829AFD2BDE8704004F038BF3A
:1024B000082002E0092000E00A2008F0CFFB2846AF
:1024C000BDE87040FFF726BBF800002079AF0000A0
:1024D000B80D0020FFF7ACBEF8B5214C00250095E3
:1024E000204EA0684FF4006728B9211D306A03F020
:1024F00066FEA060C0B1818869B1C188B94200D3CD
:10250000C580C188ADF80210C188491CC18081888E
:10251000491E81801FE0FFF7E9FE1149306A091D5D
:1025200003F042FEA56019E0E068002817D0002003
:1025300000F0BAF96088B84200D365806088ADF8D1
:102540000200401C6080064801210C3003F080FE30
:10255000002000F0ABF96846FFF7C8FE0120F8BD87
:10256000F800002068AF00000148FFF761BE0000DE
:1025700068AF0000114642681368184770B50446FA
:1025800040680D46C2680AB1204690472046294659
:10259000FFF782FC05464678002408E021462846DD
:1025A000FFF768FC007804F007FE641CE4B2B44254
:1025B000F4D370BD2DE9F04180460E480E46056902
:1025C00014E02F7A00240DE021462846FFF764FC32
:1025D0000178414504D106B134702846BDE8F08148
:1025E000641CE4B2BC42EFD328680568002DE8D132
:1025F0000020F3E7F800002070B504464068154657
:102600000E4683681BB120469847062803D1204612
:1026100031460DB1072070BDFFF73EFC05464678F8
:10262000002408E021462846FFF724FC0078FFF745
:10263000B3FD641CE4B2B442F4D3002070BD034681
:1026400000205A681269002A01D0184610477047C6
:102650002DE9F8432E4C054608234FF484722B498C
:10266000206A03F083FD10B10320BDE8F8832948F8
:1026700004F0CEFF0028F8D12749087008614861AE
:1026800048212648FDF78AFF244848214830FDF7B5
:1026900085FF224878307DB195E80E00183080E83B
:1026A0000E00002004F046FC18B1852801D0FFF789
:1026B00099F91B4D002611E004F138010EC9EDE730
:1026C000002703E000782946FFF791FD3946781C82
:1026D000C7B24046FFF7CEFB0028F3D13146701C4D
:1026E000C6B22846FFF7D8FB5FEA0008E8D1606869
:1026F00000906946284601F02FFA040003D005F047
:10270000EBF82046B1E70020AFE70000200C0020E6
:1027100068AF0000D5240000F8000020280D00203C
:102720003CB0000030B1012807D0022808D105488C
:10273000FFF77EBD03480838FAE70248001FF7E7B5
:102740007047000098AF000010B504F0ADFF10B165
:1027500004F0A0FF08B1082010BD044804F0FAFB03
:1027600008B1FFF73FF9002010BD00009CAF00004A
:1027700070B50C460F4901EB800555F8240001782F
:1027800031B10020FFF7D8FC002255F8241006E0F4
:10279000801C70BD521CD2B2491C20F812300B783C
:1027A000002BF7D1022101EB4201C9B241F4407183
:1027B000018070BD3801002070B54FF0805086B0A8
:1027C000D0F8A810D0F8A40089B241F4404300909A
:1027D00009A20D2101A8FEF7F1FD01AD0024094E6B
:1027E00002E0285D3055641C2846FDF7E2FEA04259
:1027F000F7D806B070BD0000253034582530385861
:1028000000000000280E0020074803E0016811F0D6
:10281000010F07D00168C1F340010029F6D0034839
:10282000FFF706BD70470000380400406DAF0000A0
:10283000034808B5806800906846FFF7F9FC08BDBA
:1028400068AF00004FF0000150B106280BD2074AD4
:10285000105C002808D0064A52F820201AB100E087
:102860000020FFF785BF00207047000097B00000F0
:1028700038010020092808D2DFE800F00707050723
:10288000070505050500012070470020704709284D
:1028900008D2DFE800F0070705070707070705006C
:1028A000012070470020704700F002B800F008B81F
:1028B00072B602480168491C01607047500100204F
:1028C00003490868401E086000D162B670470000E6
:1028D0005001002070B5054608680C46411C04D024
:1028E00005F02DFA206805F0BBF96068411C02D0A4
:1028F000002105F0A3F92968A069C1F82405607DCD
:10290000227D29681043C1F86C05D4E900122868BB
:10291000C0F81425C0F80C15207D012814D1A0683A
:10292000411C02D0002105F089F9E068411C04D067
:1029300005F005FAE06805F093F9D4E90212286879
:10294000C0F80825C0F8101570BD70B505460868B8
:102950000C46411C04D005F0FCF9206805F08AF90A
:102960006068411C02D0002105F071F92968A06956
:10297000C1F82405607D217D2A680843C2F86C05F2
:10298000D4E900122868C0F80C15C0F81425207D81
:10299000012814D1A068411C02D0002105F057F98C
:1029A000E068411C04D005F0D4F9E06805F062F954
:1029B000D4E902122868C0F80825C0F8101570BDC7
:1029C000F0B500220D4BCA60C1E901230C4B0D4D3F
:1029D0001446EE1A0A600CE003EB0215EF683F792B
:1029E000FF2F05D0A04202D1A8680860F0BD641C8A
:1029F000521CB2EB161FEFD3F0BD000018B300005D
:102A00001CC300003CC30000102802D31038C0B221
:102A1000704740F0800070472DE9FC410646C00732
:102A20004FF000050ED0104F00240122385D0095B4
:102A300000231146019505F08BF8641C042CF4D397
:102A400000F04EF8B0070DD5074E0024361D0022C9
:102A5000305D032300951146019505F079F8641C5B
:102A6000042CF4D3BDE8FC81DCAD0000094908B5B5
:102A7000085C0090684605F01FF9D0F80425009B1B
:102A80000121994021EA0203C0F808351140C0F83D
:102A90000C1508BDDCAD00000249085C012105F001
:102AA00062B90000DCAD00000249085C002105F0BD
:102AB0005AB90000DCAD0000084908B5085C009078
:102AC000684605F0F9F8D0F804050099C84010F000
:102AD000010000D0012080F0010008BDDCAD000045
:102AE00010B500242046FFF7D7FF641C042CF9D34F
:102AF00010BD10B500242046FFF7D6FF641C042C3F
:102B0000F9D310BD10B50246064B4FF0FF3000213F
:102B10005C5C944201D1084610BD491C0429F7D3DE
:102B200010BD0000E0AD00002DE9F0470D468146E4
:102B3000FFF7E8FF0446042836D2DFF874801B480C
:102B40001C4EA8F10C0725B3012D0ED0022D2BD160
:102B500004EB440030444578002D25D0B9680029A5
:102B600022D02846BDE8F047084704EB4401755CD5
:102B70000E44717849B10E4A4FF40041093A806819
:102B8000FEF778FF08B987F80390B17808F80410C9
:102B9000E2E78068FEF7AEFF04EB4401314418F829
:102BA00004008D78A842D7D0BDE8F087E4AD0000DE
:102BB00054000020C0070020014908600020704731
:102BC0005800002008490E2806D00F2806D01628E5
:102BD00001D10020087070470120FBE7002204218A
:102BE0000248FFF739B80000300000208CAD00002B
:102BF00070B50023042810D20D4D00EB4004012ACB
:102C000002D101290CD00022094E00EB40003044D3
:102C100061B1012906D0022906D00723184670BDEC
:102C20000E30C2B22A55F9E74270F7E78270F5E735
:102C3000C007002070B506461E480024C0E90161A7
:102C4000B00720D50025012211462846FFF7D0FF06
:102C50006D1C0446042D02D2002CF4D013E094B96C
:102C600040F2666204211448FEF736FE04000AD1E1
:102C7000FEF720FE040006D10F48104A0021001F75
:102C8000FEF7BCFE0446F00712D00120FFF7C4FE99
:102C900074B909480A4A00210C38FEF7AFFE040057
:102CA00006D10548074A01210838FEF7A7FE044669
:102CB000204670BD48000020F0AD00004D2F000000
:102CC000DD560000AF1800002DE9F05F6E4C0546A0
:102CD00000266078B34618B184F801B002F0E6FC33
:102CE0006A4F4FF47A694FF4C87A4FF00108182DF3
:102CF00069D2DFE805F00C1313384754696E727B14
:102D0000727BC58484848484B3B6B9BCC5C502F023
:102D1000CDFC3868FEF7EEFE06465CE00020FFF7CB
:102D2000CBFE00284FF0000008D0FFF7B5FE022DC3
:102D300002D14FF4E16008E0484606E0FFF7B4FE38
:102D4000022D01D1C82000E05046410CC0034FF4D1
:102D5000FA72801841F10001257052000023FDF73E
:102D60005BFB01462AE00020FFF7A6FE00284FF09B
:102D7000000004D0FFF790FE4FF44870E5E7FFF73E
:102D800093FEDFE70020FFF797FE00284FF00000DA
:102D900002D0FFF781FECFE7FFF786FED4E70020E1
:102DA000FFF78AFE00284FF0000002D0FFF774FE04
:102DB00001E0FFF779FE257041F69A11002238688C
:102DC000FEF758FE064646E00020FFF74FFE25704E
:102DD00008E0002051E025703DE084F801800120EA
:102DE000FFF744FE002240F6CD41E8E784F8018079
:102DF0000120FFF73BFE00224FF48041DFE77868B7
:102E0000FEF778FE0646D5F1110000D02EB1022063
:102E1000FFF742FE84F802B01DE0012816D980B207
:102E2000C8214843C117C90341EA5041C0034FF4C8
:102E3000FA72801841F1000152000023FDF7ECFA0C
:102E4000014600227868FEF715FE06460220FFF7CD
:102E50002BFE84F802803046BDE8F09F02F026FC8D
:102E6000B9E702F023FCB4E702F020FC04E002F032
:102E70001DFC0020FFF718FE0120FFF715FEAAE752
:102E8000FFF737FEA7E7000048000020E4AD000090
:102E90002DE9F0470546861C90460F464FF0010984
:102EA0000020FFF701FD1B4C20683860D4E90001C9
:102EB000401AA16804F21C47081A0EE001213846A6
:102EC00003F09FF902F07EFE0146384603F099F9BF
:102ED000D4E90001401AA168081A401C8642EDD8C6
:102EE000B8F1000F03D0052065F3891002E0062039
:102EF00065F39F50A2682168114004EB8101C8600E
:102F00002068304420600020FFF7D0FC4846BDE830
:102F1000F0870000D00F002030B482680468531C92
:102F20008360A154D0E901128A4202D330BC04F07C
:102F300016BD30BC70470000034803C8814201D170
:102F40000120704700207047D00F00200078022138
:102F5000FFF7EABD4360CA699A420DD38A690260ED
:102F6000886918448861086F18440867C869C01ADE
:102F7000C86100D00120704701F1280202600020E2
:102F80008B67704770B50D46097800240F2931D240
:102F9000DFE801F031083131300B0F3030083031CB
:102FA0003131310000F065FB25E0294606F0EEFEE8
:102FB0000FE0064601F00FFC0146A878002481428C
:102FC00019D00106E9784FF0030004D531B9012189
:102FD0000CE004460FE021B101290CD00329F8D1FF
:102FE00009E0304600F054FB04460021304607F06B
:102FF0002FFE00E00624204670BD00002DE9F05FA2
:10300000DFF844960C7A884689F800400168164635
:103010004FF0000A054640F21F3254461F46A1F207
:103020001F304FF0020B914256D04CDC40F201327F
:10303000A1F20130914272D029DC40F2F120A1F2DC
:10304000F12281426CD015DC40F2EE22A1F2EE2397
:10305000914273D009DC4FF43B73E1B3994270D0D5
:10306000A1F50071ED395ED179E0012B68D0022B1A
:1030700059D199E0092A6FD004DC012A6DD0022AC7
:1030800051D1B7E00A2A69D00F2A4CD1DDE00E28D1
:1030900070D00EDC07286DD006DC01286BD0052827
:1030A0006AD006283FD116E10C2871D00D283AD1FC
:1030B0003FE11538092836D2DFE800F0F53535351F
:1030C00035F4F3F2F10013287ED010DCA0F10300F8
:1030D000102828D201E02BE074E1DFE800F0F0EFE7
:1030E000EEEDEC2424EBEAE9E82424E7E6E53728D2
:1030F0000CD00CDC292868D004DC142866D02828E1
:1031000011D112E22D2872D032280CD13DE2442890
:103110006ED006DC3E286CD03F2804D156E29FE0FA
:103120004AE04928F4D00020C5F800A0BDE8F09F8F
:1031300008212971002F04D82B6082E21DE000E0F5
:1031400027E00EB1297931700B2101242971012F5B
:1031500005D840F2ED2073E25AE03DE063E00EB1A5
:103160002979315598F81410641C2971BC4204D394
:103170002A6066E2BBE080E0A2E00EB12979315519
:10318000641C85F804B0BC4203D340F2EF2057E240
:10319000C4E00EB129793155641C85F804B0BC42F5
:1031A00002D34FF43C704BE20EB129793155641CC7
:1031B00085F804B0BC42CED20EB12879305598F8CB
:1031C00019002871641C02E08EE1B9E198E1BC426B
:1031D00002D340F2F22033E20EB128793055641C5C
:1031E00085F804A0BC4205D340F2F32028E2BAE1FE
:1031F00000E2E0E10EB12879305589F801A0641CA5
:103200000AE209202871BC4202D340F2FA2017E2F8
:103210000EB1287930550420641C2871BC4202D3B9
:1032200040F2FB200CE20EB12879305599F80110DC
:103230004046641CFEF73AFEC9F804000078287185
:10324000BC4202D34FF44070FAE10EB128793055F8
:10325000641C85F804A0BC4202D340F20130EFE1C7
:103260000EB128793055D9F80400641CBC4240786E
:10327000287102D340F20230E2E10EB128793055D4
:10328000D9F8040098F81410641C007881423AD1EF
:1032900085F804B0BC4213D340F20630D0E186E09A
:1032A0007AE06EE062E04FE012E106E1FAE0EEE083
:1032B000E2E0D6E0CAE0BDE0B0E0A4E098E08CE057
:1032C0000EB128793055641C85F804B0BC4202D395
:1032D00040F20730B4E10EB12879305598F8190062
:1032E000641C2871BC4202D34FF44270A8E10EB1B5
:1032F0002879305514F1010485F804A0BC4223D389
:1033000040F216309CE198F816108142F4D10A2060
:103310002871BC4202D340F20D3091E10EB1287900
:103320003055641C85F804A0BC4202D340F20E3034
:1033300086E10EB128793055641C85F804A0BC42A2
:10334000D5D340F20F307BE10EB128793055D9F852
:10335000040098F81410641C0078814275D105208F
:103360002871BC4202D340F21B3069E10EB12879CA
:1033700030552420641C2871BC4202D34FF447709E
:103380005EE10EB128793055641C85F804A0BC427A
:1033900002D340F21D3053E10EB128793055102090
:1033A000641C2871BC4202D340F21E3048E10EB1C9
:1033B000287930550120641C2871BC4202D340F2A8
:1033C0001F303DE10EB1287930550520641C28716D
:1033D000BC4202D340F2223032E10EB1287930559E
:1033E0002420641C2871BC4202D340F2233027E120
:1033F0000EB1287930550120641C2871BC4202D3DB
:103400004FF449701CE10EB1287930550320641C3B
:103410002871BC4202D340F2253011E10EB1287967
:10342000305598F81600641C2871BC4202D340F253
:10343000263005E10EB1287930550420641C28712E
:10344000BC4203D340F22930FAE05DE00EB12879A6
:1034500030552420641C2871BC4202D340F22A302B
:10346000EEE00EB128793055641C85F804B0BC42FA
:1034700002D340F22B30E3E00EB128793055641CC2
:1034800085F804B0BC4202D34FF44B70D8E00EB1C3
:10349000287930550520641C2871BC4202D340F2C3
:1034A0002F30CDE00EB1287930552420641C2871CE
:1034B000BC4202D34FF44C70C2E00EB128793055B3
:1034C0000620641C2871BC4202D340F23130B7E0C0
:1034D0000EB12879305598F81400641C2871BC424C
:1034E00002D340F23230ABE00EB12879305598F873
:1034F0001600641C2871BC4202D340F233309FE0B6
:103500000EB128793055641CD9F804104846497822
:1035100089F80210514689F803A075E00720287148
:10352000BC4202D340F247308AE00EB128793055D0
:103530000520641C2871BC4202D34FF452707FE016
:103540000EB12879305599F80310641CD9F804009D
:10355000FEF799FCC9F8080000782871BC4202D334
:103560004FF453706CE00EB128793055D9F804004F
:1035700098F81410641C0078814211D1032028713E
:10358000BC4202D340F251305AE00EB12879305596
:10359000641C40202871BC420DD340F25D304FE0E6
:1035A00098F816108142F4D185F804B0BC42ECD3EF
:1035B00040F2563044E00EB128793055641C85F84D
:1035C00004A0BC4202D340F25E3039E00EB128794B
:1035D0003055D9F8040098F81410641C0078814222
:1035E00024D1D8F82000BC420078287102D340F2E0
:1035F000633025E00EB128793055641C99F803102A
:103600004846491C89F803108278C9B2914285D393
:103610004178491C89F8011099F8011099F80000C7
:103620008142FFF4EEAD40F2733009E098F81610D5
:103630008142E3D185F804A0BC42DBD34FF45A7039
:103640002860012072E500001C01002008B1032061
:103650007047086810F80C1F202901D00620704719
:10366000D0F80210C160C1880182017A8174002003
:1036700070470268002102F10C0011845162D1628E
:103680009167D16741673432826681677047000075
:103690002DE9FC47046881460C3401F0B6FA074670
:1036A0002F4800268068CDE90004E069B0B1D4F865
:1036B00078804546404500D205462A4604F1280157
:1036C000A069FCF744FF206F2844C4E91C60A8EB04
:1036D0000500E06660192830A06627E0206F60676B
:1036E0002667E666216A304621B1626AA161C4E9B3
:1036F00007202CE0A06130E004F11802616A82E842
:103700004300E26E1AB38A4215D3A36E0A461946E5
:10371000FCF71DFFE16EE069091AE166A16E014444
:10372000A16660670021484607F092FA206A0028E7
:10373000E2D1A66111E0A16EFCF709FFE06E2067FF
:10374000E169091AE161A1690818A06105D069461B
:103750003846FEF733FDBDE8FC870020FBE700009C
:10376000C0AF00004360CA699A4204D38A6902600C
:103770000B67CB6103E001F1280202608B67002038
:10378000704700002DE9F0410546B1B1012912D082
:10379000022906D003293CD1BDE8F0410120FFF702
:1037A0007BB90120FFF780F9BDE8F04101221A49F9
:1037B0001A48FEF705BA032027E0194E19491A489E
:1037C0007288081A0323C00803EB0044032A07D3B6
:1037D0002846FEF7F1F90246204614A104F066FDE2
:1037E0000D4F2846FEF734FA02467088032804D3AA
:1037F0003B78204612A104F060FD012206490748EB
:10380000FEF7DEF90028ECD00220BDE8F041FFF71A
:103810002DB9BDE8F0810000310000208CAD000022
:10382000C0020020C4C300003CC30000427974659C
:10383000732077616974696E673A2025640000001F
:1038400052583A2073697A653A20256C752063686E
:1038500061723A202563000005494FF0FF320828C5
:1038600041F8202002D3084480F858207047000017
:10387000380A0020F0B54FF0FF3512B100230826BA
:1038800001E008230C260C4C05E000BF54F823701F
:103890007F1C04D05B1CB342F8D32846F0BD261829
:1038A0005DB286F8305044F82310002AF5D1E118B3
:1038B00081F85800F1E70000380A00200249084466
:1038C00090F9300070470000380A002070B5816818
:1038D00004468A7C002A4DD0C87C00284AD0121A9F
:1038E0000844D5B200F114016A1C1330FCF72FFE16
:1038F000A068C17C491EC174A068817C491E817486
:103900008DB308221C49206904F01CF8204602F0FF
:1039100005FC8178C078814211D1A06817A2C17CD2
:10392000431808212046143303F026F8204600F0FF
:1039300017F929462046BDE8704001F067B82046D7
:1039400000F022F9204600F00BF9A0680BA2C17C20
:10395000431808212046143303F00EF82046BDE832
:10396000704000F007B92069BDE87040044A03A127
:1039700003F0E8BF70BD0000543B00002573000059
:1039800054B2000070B504468068827CC17C521A33
:1039900012F0FF053AD0084400F115012A46143010
:1039A000FCF7D5FDA068817C491E8174204602F099
:1039B000B5FB8178C078814214D1A06814A2C17C83
:1039C000431808212046143302F0D6FF114A10A1F3
:1039D000206903F0B7FF6D1EE9B22046BDE87040D4
:1039E00001F014B8204600F0CFF8204600F0B8F8F7
:1039F000A06807A2C17C431808212046143302F0B6
:103A0000BBFF2046BDE8704000F0B4B870BD0000B8
:103A10002573000058B200002DE9F041044680688B
:103A20000F46D0F83C11C27C11F00106817CA1EB5D
:103A30000203DDB20AD07F2901D3002D7ED0A06819
:103A4000C17C08440021077566B113E07F297CD250
:103A5000002DF4D0831803F114012A46481CFCF70A
:103A600076FDECE7A068827C521CD2B28274A0681A
:103A7000143281544DB3204602F050FB8178C07857
:103A800081420ED1A06832A2C17C43180821204691
:103A9000143302F071FFA81BC1B2204600F0B6FF3C
:103AA00021E0204600F070F8A06829A2C17C4318EC
:103AB00008212046143302F05FFF204600F05AF838
:103AC0000121204601F080F80DE03EB1A068827C23
:103AD000521CD2B28274A068143281543A461DA19D
:103AE000206903F02FFFA168C87C401CC8742046E1
:103AF00000F079FF0028204603D0BDE8F04100F037
:103B000091BF01F040FB00281FD0204602F006FBC9
:103B10000546C078A978401A401EC1B2204600F080
:103B200003FF204600F07EFFE878A978401AC1B272
:103B3000204601F055F82878401E00E005E0C1B2AB
:103B40002046BDE8F04101F03FB8BDE8F08100003B
:103B500025730000256300004268126810470000CA
:103B60000069024A02A103F0EDBE00004CB2000061
:103B7000257300000069024A024903F0E3BE000019
:103B800043B20000703B00000069024A024903F0A2
:103B9000D9BE000040B20000703B00002DE9F04F9C
:103BA0004FF000099DB005464E464C46CDF81490A6
:103BB00000F0C4FD284601F04DFC284600F0C0FE90
:103BC000284600F010FF10B9284600F02BFFAA6825
:103BD0000C2308A901A8143202F07AF903460198CF
:103BE00040B15BB150A20221284602F0C5FE1DB0D3
:103BF000BDE8F08F284600F015FFF8E7514850491E
:103C00000027A1EB00080DF1200A834613E008D33A
:103C10004DA0009051A202212846089B02F0ACFE64
:103C2000E5E70BEBC704606801685AF82900FCF768
:103C3000C7FC18B17F1CB7EBD80FE8D94FF0000BC9
:103C4000CDF868B06068C7680FB1A968486060685F
:103C500009F101044FF0000880680DF15809069041
:103C60000198844237D25AF824003EA1FCF7A8FC00
:103C700050B35AF824003CA1FCF7A2FC20B3424602
:103C800008F101081AAB2146CDF80090069800F023
:103C900011FDB8F1000F1ED01A98E0B101685AF872
:103CA0002400FCF78DFC0028DAD11A98C16829B1EC
:103CB000A8F10101DDF818B02646059180684FF0A3
:103CC0000008641C0690CBE7A868D0F83C1141F0CE
:103CD0000201C0F83C11BBF1000F12D0CDF80090EA
:103CE0001AAB31465846059A00F0E4FCA9681A98C8
:103CF0000AEB860248600199C368891B28469847E9
:103D00000AE027B108AA28460199B84704E018A29A
:103D10000221284602F030FEA868D0F83C1121F0BC
:103D20000201C0F83C1162E76E6F74207465726D19
:103D3000696E617465643A2025630D0A0000000015
:103D40001CC30000DCC200003A20636F6D6D616E21
:103D500064206E6F7420666F756E64002573257322
:103D60000D0A00002D6800002D2D68656C700000A4
:103D7000506C656173652073706563696679206155
:103D800020737562636F6D6D616E642E0D0A0000A5
:103D90008068D0F83C01C0F3C00070472DE9F041C5
:103DA0000446C0688EB00D46406800263246006862
:103DB00001A904F099FC18B100200EB0BDE8F08113
:103DC0006DB1019804F066FCA168D1F82C01401C8B
:103DD000C1F82C0100F0070001287AD10126204605
:103DE00002F09CF905468078012804D9401EC1B232
:103DF000204600F0F5FE2878012804D9401EC1B203
:103E0000204600F003FE2046FFF7AAFE2EB132A2A4
:103E10000221204602F0B0FD5BE04FF000080023D5
:103E2000082202A9019804F044FC04980590BDF80A
:103E30000C00ADF81800BDF80E00ADF81A008DF8B2
:103E40001D800298082700F00300012802D00228F4
:103E500018D032E002983B46860AC0F3C2008DF8C3
:103E60001C00029808A9C0F38315AA00019804F069
:103E700020FC2069009005AB2A4608A9304604F0D2
:103E80005FFB1AE00298850DC0F3C2008DF81C009C
:103E9000082D01D22E4600E008263B46324608A9EE
:103EA000019804F006FC3744AD1B05AA314608A86A
:103EB000236904F01DFA002DEAD1019804F0EAFB11
:103EC000E068002201A94068006804F00DFC0028A9
:103ED000A5D0012071E700004C6F7374206C6F67F0
:103EE00073202D20696E637265617365206C6F6746
:103EF000206261636B656E64207175657565207302
:103F0000697A652E0D0A000030B44068046824699F
:103F1000A44630BC60477CB500250446019501AB42
:103F2000012269462046FFF7EFFF019800281BD0C9
:103F30009DF800007F28F2D804F0D5FBA0684178F6
:103F400021B1012965D0022967D16BE0217E9DF85E
:103F50000060B1420FD1817C39B12046FFF71EFECF
:103F60000221204600F0EAF87CBDC0F83851204616
:103F700000F058FDF4E7092E1CD004DC002ECED052
:103F8000082E04D11FE01B2E12D07F2E24D0FCF768
:103F900083FA0068805D10F03E0FC0D02046FFF726
:103FA000F7FE10B39DF800102046FFF735FDB6E789
:103FB000012135E02046FFF7EBFE0028AFD0204678
:103FC00000F0D6F8ABE72046FFF7E2FE0028A6D0C7
:103FD0002046FFF77BFCA2E72046FFF7D9FE00282A
:103FE0009DD02046FFF7CEFC99E7A1689DF8000020
:103FF0008A7C7F2A93D2CA7C8B18521CCA7418758B
:10400000A068C17C08440575A168887C401C887440
:1040100085E79DF800105B2901D0002100E0022116
:1040200041707CE7002141702046FFF7B1FE002877
:104030009AD09DF80000422840D01BDC332879D06C
:1040400012DC31286FD03228B1D1A168032048702A
:10405000A068D0F83C2101219143D0F83C2161F3C4
:104060000002C0F83C215AE7342853D041289ED1A1
:10407000012124E0462850D01BDC432823D04428CB
:1040800095D1204602F04AF806460078B179491CDD
:10409000884202D1B178012989D001284FF001016D
:1040A000204630D000F0B2FCA168C87C401EC87425
:1040B00035E748283AD04C2884D1C9E7002120466A
:1040C00001F0B6F82BE7204602F028F80646007803
:1040D0007178884203D1B178F278914284D07179B5
:1040E00088424FF00101204606D100F01DFC717995
:1040F000204600F08BFC01E000F066FDA068C17C6A
:10410000491CC1740BE700F06BFD7179204600F08B
:104110005BFDC9E7A16803204870204600F010FC51
:10412000FDE607E0FFE7A16803204870204600F0A5
:1041300030FCF4E6A168032048704DE7826802294C
:1041400011700BD18268002111758268D174826868
:10415000917403A20321036802F00EBC70470000B3
:1041600025730000002801D0FCF723BA7047000037
:104170002DE9F04FA7B04FF000080546CDF8248098
:10418000CDF8188080684746817CC1F17F01C9B2B3
:104190005FEA010B7BD0C27C00F114019430FCF784
:1041A000D6F9A8680024C17C084480F89440FCF744
:1041B00073F921900168A8680C23C27C0244D27C68
:1041C000895CC0F83841AA6801F0010912A920A849
:1041D000943201F07DFE1298FFF7C4FFC6B2A246EA
:1041E0001F940C94209818B14844401EB8426AD8D5
:1041F000B9F1000F01D0002605E012A850F8270001
:10420000FFF7B0FFC6B200240DA822460090641C40
:104210001FAB3946504600F04DFA1F9800286BD06E
:10422000016812A8324650F82700FCF7E0F9002890
:104230000C9802D00028E7D05EE0D8B11F98006843
:10424000FFF790FF0699C0B2884200D90690BBF1F3
:10425000000F2BD022A800900CAB424639465046A6
:1042600000F028FA1F98006882190C9800688319DA
:10427000002015E0601E09901F980068FFF772FF8C
:10428000C0B20690801B584510DAC0B20DE07FE046
:1042900013F800C0614506D1401C10F0FF0010D09B
:1042A000115C0029F4D1834500D983461F98B4F1ED
:1042B00001080C90A8D263A20421284602F05CFBFE
:1042C0001AE0FF20EFE700240DA822460090641CAE
:1042D0001FAB3946504600F0EDF9ECB31F980028AB
:1042E00056D0016812A850F82700FCF769F9002899
:1042F000EAD11F98D0F808A0BAF1000F09D01F9892
:1043000038B120997F1CFFB201EB09008742FFF40E
:1043100069AF0C9800283BD00998414640455FD1D1
:104320009AF8000038B10DA80A4600900CAB394647
:10433000504600F0BFF90C980068FFF713FFB04239
:1043400006D00C985A4600688119284600F0A2FA57
:104350002198A968026800E01DE0C87C0B181B7D4D
:10436000D25CD2071DD0897C884211D2284601F048
:10437000D5FEA9688478C87C401CC874284601F022
:10438000CDFE8078A04227D10121284600F01CFCF8
:1043900027B0BDE8F08F2BA20421284602F0ECFAEA
:1043A000F6E7D1F83C01C00711D0D1F83C0120F06C
:1043B0000100C1F83C0120212846FFF72DFBA86829
:1043C000D0F83C1141F00101C0F83C11E0E7202198
:1043D0002846FFF721FBDBE7284600F023FBD7E761
:1043E00000212846069A05F001FA0DF13409099CCE
:1043F0000EE01FAB224639465046CDF8009000F043
:1044000059F91F98069A0168284605F0EFF9641CCF
:104410004445EED917A2032128462B6802F0ACFAD6
:10442000AB6816A208212846143302F0A5FA2846E4
:1044300000F094FB0C985A4600688119284600F059
:1044400029FAA5E75461622066756E6374696F6E20
:104450003A20636F6D6D616E647320636F756E7467
:104460006572206F766572666C6F7765642E0D0AD3
:10447000000000000D0A25730000000025730000F5
:10448000002806D08868D0F83C1141F02001C0F81F
:104490003C11704770B5044640680D4690F82800FE
:1044A00030B1A0680068FDF725FB08B108280CD1E1
:1044B000012685B1606902F0A3FD61680022083120
:1044C000606902F059FD08B1062070BD606880F88F
:1044D0002960002070BD606890F8280048B9074A3C
:1044E0000021A068FDF78AFA6168002881F8286039
:1044F000F0D12046BDE8704005F0B8BADDA000005C
:1045000070B5044640680D46026060680022436052
:10451000606880F82820606880F829206068202280
:104520000830FCF714F82C61074A2946606902F04C
:1045300023FD050005D1E06804F00EFB206904F0BE
:104540000BFB284670BD000003A300001A60C06882
:104550001A4604F03FBA10B50446406902F050FD17
:10456000A0680068BDE81040FDF7C4BA7CB51A60C9
:10457000044600691A4604F06BFA050025D160690B
:10458000134A0178515C19B1001D05F0C9F802E029
:104590000C3004F04FFFC0B9FF20009001236A46A1
:1045A00001A9206904F0A0FA78B900980199C2B273
:1045B000606902F015FD0546606890F8290020B199
:1045C0001DB92069009904F07CFA28467CBD0000E2
:1045D000600000202DE9F8431E4615468846074630
:1045E00000241BE0786808EB04016B460268D2F8EF
:1045F0000CC02A46E047009804442D1A70B9B868E8
:10460000017803290AD000BFD0F83C118906FBD5F8
:10461000D0F83C1121F02001C0F83C11002DE1D16F
:10462000002E01D000983060BDE8F88370B5084CCA
:10463000050009D010342168002907D008682060DF
:10464000496828468847F6E70834F4E770BD00005B
:10465000EC070020054A012120B1012805D1917005
:10466000FFF7E4BF51700020FAE77047EC07002025
:1046700008B550686A4605A1FBF7C8FF04490098D1
:104680000E300968C0B2884708BD000025750000DB
:104690005800002008B550686A4604A1FBF7B6FF31
:1046A000034900980968C0B2884708BD2575000015
:1046B000580000202DE9F05F1C460A9E15464FF079
:1046C000000959B180B3017839B3426831462846B0
:1046D00090473068D8B12660BDE8F09F144915486E
:1046E000A1EB0008B5EBD80F11D2DFF84CA00026E3
:1046F000834609E00BEBC607786801685AF8250085
:10470000FBF75EFF30B1761CB6EBD80FF2D3C4F8DE
:104710000090E1E778682060DEE7406800EB021077
:10472000016809B11860D7E7FFE7C3F80090D3E745
:104730001CC30000DCC200005C0200202DE9F04137
:10474000856806460024287D002812D0A046FBF785
:10475000A3FE0746D0F8000004F1140104F101049F
:10476000695CE4B2415CC90705D0002CF4D185F83E
:104770001480BDE8F081641E14F0FF040FD0A87C03
:10478000021B04F11400291805F11400521CFBF758
:10479000DEFEB168887C001B8874B168C874B2689A
:1047A0003D68937CD01813300446002102E0491C78
:1047B000C9B2401E0778EF5DFF07F8D18442D8D018
:1047C0005B1A143302F80380B268907C401A90742C
:1047D000B168C874CDE710B50021FDF767FB002173
:1047E000FDF751FB007810BD2DE9F05F26484168C8
:1047F000F1B3DFF898B00E688146DBF800408768B7
:104800008078E11B21F07F45ED1CB0B9DFF8808096
:104810004FF48030C8F84403C8F804031120FCF7B3
:10482000C5FB1120FCF7CDFB4FF0010AC8F800A032
:104830002F2004F0F9FA89F802A0B54200D23546DB
:10484000124BE8193C3320F07F401860DBF8001071
:104850005A46091B21F07F41001B20F07F40C91CF4
:1048600081420FD9106818602F2004F0DDFA00E0B3
:1048700004E0BDE8F05F1120FCF7AEBBBDE8F05FDF
:1048800005F096B8BDE8F09FD00000200415014067
:10489000001001402DE9F0410446806815460F469E
:1048A000827CC17C531A2A44DEB27F2A37D8002D7D
:1048B00035D0084400F1140105F114021044721CB3
:1048C000FBF745FEA0682A46C17C084439461430EF
:1048D000FBF73DFEA0681430FFF744FCA16811A26D
:1048E0008874A068C17C431808212046143302F064
:1048F00043F8A068C17C2944C174204600F073F8D5
:1049000018B9204600F03FFC10B1204600F08AF8AC
:10491000002E04D02046BDE8F04100F01FB9BDE8EC
:10492000F081000025730000002904D00A460069C8
:1049300001A103F007B870471B5B2564420000002B
:1049400070B5054601F0EAFB0446007861788842BC
:1049500003D1A078E17888421AD0E178A07881422A
:1049600004D9081AC1B22846FFF7DEFF2078617823
:10497000884205D9401AC1B2284600F047F804E041
:10498000081AC1B2284600F01FF9A868817CC174DA
:1049900070BD70B5054601F0C1FB04460178807911
:1049A000401C814202D1A07801281BD0A0780128A8
:1049B00004D9401EC1B2284600F012F92078A1792E
:1049C000884206D9401A401EC1B2284600F01EF89F
:1049D00005E0081A401CC1B2284600F0F5F8A968A5
:1049E0000020C87470BD10B504460068FFF7BAFB1C
:1049F0000146A068C27C407B1144B1FBF0F200FB91
:104A0000121008B1002010BD012010BD002904D0F3
:104A10000A46006901A102F095BF70471B5B25643F
:104A2000440000000069024A024902F08BBF000006
:104A300046B20000703B00002DE9FC47002604460A
:104A40008DF8046080683546B146B04680219430C8
:104A5000FBF7A4FD4049206902F074FF206902F0D1
:104A60007EFF00276B46012201A92046FFF74CFA82
:104A70000098D8B19DF804001B2806D0A16891F8D1
:104A800094101B29EED152281FD0A26808F194017E
:104A9000505408F1010000F0FF08B8F1090F0AD9DD
:104AA000A168042081F89490BDE8FC872A494FF65C
:104AB000C0100D31884700980028D3D17F1CBFB2A9
:104AC000B7F57A7FCED30D20EEE7A16808F1940008
:104AD0004A4601F80090A16891F895005B2803D040
:104AE00081F894200B20DFE702206FF02F0309E00C
:104AF00005EB850503EB4505401C3D44C0B2ADB256
:104B0000802808D200F19407CF5D3B2FF0D1401CE4
:104B1000C0B2802809D30C20C6E700BF06EB86068A
:104B200003EB46063E44B6B2F1E700F19407CF5DD1
:104B3000002FF3D1FA20FA2E01D9087200E00E728C
:104B4000FA2D02D9A168887201E0A0688572A06878
:104B500080F894200020A7E764B2000070B50546F5
:104B600001F0DCFA04468078E178884201D1012620
:104B700000E000262846FFF736FF18B9284600F067
:104B800002FB10B12846FFF74DFF1EB16078217877
:104B9000401A12E0E078A178401AC1B2284600F02D
:104BA0001FF820786178884206D9401AC1B2284699
:104BB000BDE8704000F008B8081AC1B22846BDE848
:104BC0007040FFF723BF0000002904D00A460069A7
:104BD00001A102F0B7BE70471B5B256443000000D3
:104BE000002904D00A46006901A102F0ABBE70475B
:104BF0001B5B25644100000010B50121FDF756F94B
:104C00000021FDF740F9007810BD10B50121FDF736
:104C10004DF90121FDF737F9007810BD2DE9F04776
:104C20000025DFF88C803CE06068002100EBC506C1
:104C3000012032789146FBF720FCD4E9062300EAF4
:104C4000020701EA030C57EA0C0728D082438B4382
:104C50004846C4E9062304F0A5F932788246914615
:104C600001200021FBF709FCD4E9042300EA020437
:104C700001EA03074A4650460021FBF7FEFB444089
:104C80004F403C430BD17078012801D0012100E056
:104C90000021726881EA0A010AB1484690476D1CFA
:104CA000EDB298F8000044468542BDD3BDE8F087D8
:104CB000B000002010B50021024801F0B8FA80F3DE
:104CC000100010BDEC1300200E4910B50A784C7886
:104CD0000023A24212D0521CD2B20A70022A00D182
:104CE0000B70084A0B780C3252F823200260886857
:104CF000104420F07F408860012010BD0360002038
:104D000010BD0000D00000206FEA0061C90F61F300
:104D10001F1070470106044900D5903100F00F00C4
:104D200001EB0010704700000008002010B505F0EE
:104D30007BFD8020FFF7EEFF817B0124032902D059
:104D40000068002809D18020FFF7DEFF8440E1439E
:104D5000BDE81040014801F05ABA10BD80000020A3
:104D6000812003F04FBF822003F04CBF832003F06B
:104D700049BF842003F046BF852003F043BF86204F
:104D800003F040BF872003F03DBF000038B5882501
:104D900005F04AFD2846FFF7BDFF817B012403296A
:104DA00015D00068002811D12846FFF7ADFF8440D8
:104DB000E1430C4801F02BFA0B480A498068009047
:104DC0000C398DF8025049686846884738BD284636
:104DD000FFF79AFF8440E143BDE83840014801F005
:104DE00016BA00008000002060AE000038B505F063
:104DF0001BFD0020FFF78EFF817B0124032905D0D6
:104E0000006868B1BDE8384002F05FBC0020FFF7E1
:104E10007BFF8440E143BDE838400A4801F0F7B920
:104E20000020FFF771FF8440E143064801F0EFF9ED
:104E300005480449C0680C390090496868468847AD
:104E400038BD00008000002060AE0000012003F0AB
:104E5000F5BE022003F0F2BE032003F0EFBE0420F3
:104E600003F0ECBE052003F0E9BE062003F0E6BE29
:104E7000072003F0E3BE000038B5082405F0D4FC99
:104E80002046FFF747FF817B032915D000680028E3
:104E900012D12046FFF738FF01218140C94307485E
:104EA00001F0B5F906480549406900900C398DF8C4
:104EB000024049686846884738BD000080000020ED
:104EC00060AE000070B5134804680460BFF36F8FD4
:104ED000BFF34F8F02F016FB38B10F48016921F084
:104EE000011201F001111443016101266CB194FA21
:104EF000A4F0B0FA80F52846FDF786FD06FA05F124
:104F00008C43294605F00EFEF0E7BDE8704005F041
:104F1000A1BC00006C7402407400002010B5054C68
:104F2000A078FFF7F1FE0146A078BDE8104005F03B
:104F3000F9BD000074000020F8B51A4800681A4D49
:104F4000C6B2A878FFF7E0FE012404FA00F1288930
:104F5000EA68C04380B21043014202D0A87805F04D
:104F60003BFD06F08000A8700020FFF7CDFE04FA9C
:104F700000F68020FFF7C8FE04FA00F006430A4856
:104F8000F1430C3001F043F98020FFF7BDFE84406F
:104F9000A86804430548AC60006A009069686846E8
:104FA0008847F8BD807402407400002060AE0000A5
:104FB00038B5002000900F480068ADF80200882046
:104FC000FFF7A2FE012505FA00F40A4860380068E0
:104FD00040B1C10301D4401C04D00820FFF794FE67
:104FE00085402C43044988682043886049686846A6
:104FF000884738BD207502407400002070470000CB
:10500000F8B518480568284603F05EFEBFF36F8FB9
:10501000BFF34F8F144E154CE80506D50120607084
:10502000706A0090616868468847A8054FF00007DD
:1050300005D56770B06A0090616868468847680562
:105040000ED5607800280BD06770094901200860F0
:10505000582003F04BFEF06A00906168684688476C
:10506000F8BD00000074024060AE00007400002033
:1050700008750240054908B500204870887004484A
:105080004068009049686846884708BD7400002061
:1050900060AE00002DE9F05F17460E00814670D02B
:1050A00013B1F9B2FFF790FD0024FBF7F5F9824642
:1050B000006800E0641C315D415CC907FAD100253D
:1050C0003046FFF74FF8D9F80810001B4A7BD11B78
:1050D000814228D306EB040805E000BF18F805104C
:1050E0000A290CD06D1C8542F8D33119D9F810006B
:1050F00002F028FC4846BDE8F05FFFF793BCD9F802
:10510000100002F02CFC414600232A464846FFF7D7
:1051100061FA2C444846641CFFF784FCF9B2484607
:10512000FFF752FDE1E78B46DAF8001006EB0408C2
:1051300018F805000B5CDB0702D0AB460A2804D048
:10514000E819904201D26D1CF2E7D9F8100002F084
:1051500006FC414600235A464846FFF73BFA5C44AA
:10516000DAF8000000E0641C315D415CC907FAD147
:105170004846FFF757FCF9B24846FFF725FD9EE782
:10518000FFE7BDE8F09F10B504460068FEF7EAFFB0
:105190000146A068827C407B1144B1FBF0F200FB29
:1051A000121008B1002010BD012010BD2DE9F04102
:1051B0008046024601200021FBF75FF91A4F0546A1
:1051C0000E467868FCF796FC00280CD1174CD4E901
:1051D000062110462A4001EA06031A4305D0A843D7
:1051E000B143C4E90601BDE8F081404603F0DAFEB0
:1051F00030B1D4E9040128433143C4E9040105E096
:10520000D4E90410A943B043C4E90410D4E9060169
:1052100028433143C4E90601A1687868BDE8F0413C
:105220000022FCF727BC000054AF0000B0000020B3
:10523000FEB5002604460096019602968068E9B302
:10524000D0E94D128A4271D0D0F8300100286DD0DB
:105250002046FFF79EFBA068D0F83851002D68D09B
:10526000002309226946284603F023FAA1689DF825
:1052700008500098C1F83801A06800230922D0F82E
:105280003801694603F015FAA1689DF80820092342
:10529000D1F838011431521C03F00BFAA1689DF8C3
:1052A0000800C874A1689DF8080088749DF808007B
:1052B000A84202D22046FEF753FC00E00BE0A368B0
:1052C0002BA208212046143301F056FB2046FFF79D
:1052D0008AFB60BB42E0D0F83801002846D0204667
:1052E000FFF757FBA06800230922D0F83801694670
:1052F00003F0DFF9A0680199C0F83811A06800290F
:10530000857CB9D19430FEF72DFF0028A06805D028
:1053100000F194011430FBF761F900E00675A06814
:105320001430FEF71FFF8DF80800B7E71EE01AE003
:10533000FFE71430FEF716FF10F0FF05A068D0F865
:105340003011C0F83811A06805D000F11401943074
:10535000FBF744F990E780F894608DE72046FFF76B
:1053600012FF002802D02046FFF75CFBFEBD0000C4
:1053700025730000FEB50D46816804460026D1F86D
:10538000300138B300230922694603F092F90195F0
:10539000A06800230922D0F83001694603F091F992
:1053A0000196A068D0F830110091807C8DF808003B
:1053B000A068C0F83051002309226946284603F04E
:1053C00080F9A168092328468A7C1431521C03F015
:1053D00078F9FEBDC1F83051A068C0F8345100968C
:1053E0000196A068807C8DF80800E4E7FEB50446CD
:1053F0008068D0F83461002E28D000230922694645
:10540000304603F056F9A16801980025C1F834012F
:10541000009501952B46092269463046029503F016
:1054200050F9304603F017F9A168D1F8340170B192
:1054300000230922694603F03CF90095A068002387
:105440000922D0F83401694603F03BF9FEBDC1F8EA
:105450003051FEBDFEB5044680681430FEF782FE72
:1054600010F0FF05A0684FF00006C0F8386133D097
:10547000A068D0F83001E0B100230922694603F0AA
:1054800018F99DF80820AA4213D1A068092300F159
:105490009401D0F83001521C03F00BF9A06800F120
:1054A00094011430FBF78CF80028A06880F8946011
:1054B00012D000260A352946606903F09CF80100E5
:1054C000204604D003B0BDE8F040FFF753BFFFF71C
:1054D0008DFF761C082EEED3FEBD000000B589B00E
:1054E0001348FDF769FB08B1FCF77CFA202211494B
:1054F00001A8FBF72CF8062001900820029000205C
:105500008DF81800032000900A4801231A4601A9CB
:10551000403801F0A3FB08B1FCF764FA05484038B5
:1055200001F054FC002801D0FCF75CFA09B000BD82
:10553000C52B0000B0AD00002DE9FC5F0E008346D6
:10554000DDE90C47C6F1000098469246814600D43A
:105550000846012503E000BF90FBFAF06D1C5045A2
:10556000FADAA84500D9454624B1002E01DB7807B8
:1055700000D5641EB80702D5B8F1000F0AD0F807AD
:1055800008D13CB1A54205D220215846641EFDF742
:10559000C3FCF6E7002E02DA4E462D2102E0780722
:1055A00003D52B215846FDF7B7FC07F0030002286E
:1055B0000BD1B8F1000F08D13CB1A54205D2302182
:1055C0005846641EFDF7A8FCF6E7CDE900474346C0
:1055D00052463146584605F037F8BDE8FC9F0000BA
:1055E00070B50D46044600684FF4887103F0F0FA78
:1055F0004FF49071206803F0EBFA4FF49271206839
:1056000003F0E6FA4FF4A271206803F0E1FA206893
:105610001249C0F804132068690740F30730090EE7
:10562000002806DA00F00F0000F1E02080F8141DD9
:1056300003E000F1E02080F800142068012140F32D
:10564000073000F01F0291404009800000F1E02087
:10565000C0F88012C0F8001170BD000010030200F5
:10566000024600201268530713D502F003000128F8
:1056700002D002280CD105E0C2F383100B68801C15
:10568000184404E00223086803EB925210440860B7
:10569000012070470268134602E08A4204D0126873
:1056A000002AFAD10B600160704700000A4810B56B
:1056B000807860B1002401E0022C06D02046FDF77E
:1056C000EBF9641C042CF7D310BD0324F6E7BDE806
:1056D0001040FDF705BA000048000020034801799A
:1056E000C90702D00078FDF7EFBA704748000020E4
:1056F0002DE9F047394E002780463D46DFF8E0901F
:10570000D6F804A057E003D00446D0F81C8035E05A
:1057100099F8002002EB4201521CD2B289F8002015
:1057200009EBC10199F80230091D9A4201D189F8AB
:10573000005048680A780446012A12D0022A02D092
:10574000032A3BD108E004F035FD00B101272574A0
:1057500034E00574C06900E070680028F9D1706019
:105760002CE0207C50BB88686060C868A060086935
:10577000E0604869A061F07800B165606268B16876
:10578000184B501A20F07F40984202D2A16808447A
:1057900006E0881AA16820F07F40814202D9081AE9
:1057A000206000E0256065600120A560207420462F
:1057B000E56104F0E1FCB8F10000A4D199F8001013
:1057C00099F801008142A3D117B97168514502D0FF
:1057D0000120BDE8F0870020FBE70000D00000209A
:1057E000140B0020FFFF7F00014B00F0F9BD00000B
:1057F000B5590000014B00F0F3BD0000815B0000D3
:10580000014B00F0EDBD0000895B0000014B00F092
:10581000E7BD0000615C00007CB514460546012927
:1058200002D001F015FA38B102B02846BDE8704048
:105830000022114601F0C8B8616805A0CDE9000159
:1058400009A202212846236801F096F87CBD0000D9
:1058500020756E6B6E6F776E20706172616D65740E
:1058600065723A200000000025733A257325730DF8
:105870000A0000002DE9FC41074601F0E9F938B1C2
:1058800002B03846BDE8F0410022114601F09CB854
:105890001248134E801B050900241AE006EB041081
:1058A000C2681179FF2903D0527942B10DA207E0F5
:1058B00083680EA20821384601F05EF808E013A2C2
:1058C000CDE90021836814A20821384601F054F87C
:1058D000641CAC42E2D3BDE8FC8100003CC3000084
:1058E0001CC30000656E61626C65640025730D0A5F
:1058F000092D205374617475733A20646561637473
:105900006976617465640D0A0D0A0000646973614B
:10591000626C65640000000025730D0A092D205398
:1059200074617475733A2025730D0A092D2049445A
:105930003A2025640D0A0D0A0000000010B5044647
:1059400001F086F930B120460022BDE81040114632
:1059500001F03AB82046BDE8104002A2022101F051
:105960000BB800004E6F7420737570706F727465A1
:10597000642E0D0A0000000010B5044601F068F91D
:1059800030B120460022BDE81040114601F01CB89D
:105990002046BDE8104002A2022100F0EDBF000049
:1059A0004E6F7420737570706F727465642E0D0A7B
:1059B000000000002DE9FF4FC86881B01D46007946
:1059C00017004FF00006009057D0072245A1286825
:1059D000FAF70DFE78B1082244A12868FAF707FE0D
:1059E00000282FD02B6843A2019805B00221BDE802
:1059F000F04F00F0C1BF012F02D0022F08D008E005
:105A0000019805B041A2BDE8F04F022100F0B4BFFB
:105A10000126DFF8108100240A2258F82410686853
:105A2000FAF7E5FD10B1641C052CF5D3052C06D062
:105A300004F0FF090224002E51D0002419E03AA2FC
:105A40006B68D1E7012F4FF00009F6D0012446E042
:105A50004A462146009800F027FB48B9002120461D
:105A600002F04AFD034638A20221019800F084FFAB
:105A7000641C02F0EBFCA042EAD805B0BDE8F08F50
:105A80004FF0000A55F824B002F0E0FC80460026F2
:105A900009E00021304602F02FFD20225946FAF796
:105AA000A6FD58B1761C4645F3D3464508D04A4674
:105AB0005146009800F0F8FA30B10FE0B246F4E732
:105AC00055F8243029A205E00021504602F014FDCB
:105AD00003461DA20221019800F04EFF641CBC4247
