:020000040000FA
:10000000C8230020150200001D0200001F0200008E
:100010002102000023020000250200000000000071
:1000200000000000000000000000000027020000A7
:1000300029020000000000002B0200002D02000039
:100040002F0200001D030000190700002F0200000E
:100050002F0200002F0200002F0200002F020000DC
:100060002F0200002F0200002F0200002F020000CC
:100070002F0200002F0200002F0200002F020000BC
:100080002F0200002F0200002F0200002F020000AC
:10009000790300002F0200002F0200002F02000051
:1000A0002F0200002F020000ED0600002F020000CA
:1000B0002F0200002F0200000000000000000000DE
:1000C0002F0200002F0200002F0200002F0200006C
:1000D0002F0200002F0200002F020000000000008D
:1000E0000000000000000000000000000000000010
:1000F0000000000000000000000000000000000000
:1001000000000000000000000000000000000000EF
:1001100000000000000000000000000000000000DF
:1001200000000000000000000000000000000000CF
:1001300000000000000000000000000000000000BF
:1001400000000000000000000000000000000000AF
:10015000000000000000000000000000000000009F
:10016000000000000000000000000000000000008F
:10017000000000000000000000000000000000007F
:10018000000000000000000000000000000000006F
:10019000000000000000000000000000000000005F
:1001A000000000000000000000000000000000004F
:1001B000000000000000000000000000000000003F
:1001C000000000000000000000000000000000002F
:1001D000000000000000000000000000000000001F
:1001E000000000000000000000000000000000000F
:1001F00000000000000000000000000000000000FF
:10020000DFF80CD000F03CF8004800471D0A000061
:10021000C82300200648804706480047FEE7FEE75F
:10022000FEE7FEE7FEE7FEE7FEE7FEE7FEE7FEE7A6
:10023000D10300000102000040EA01039B0703D044
:1002400009E008C9121F08C0042AFAD203E011F815
:10025000013B00F8013B521EF9D27047D2B201E0D7
:1002600000F8012B491EFBD270470022F6E710B5BB
:1002700013460A4604461946FFF7F0FF204610BD14
:10028000064C074D06E0E06840F0010394E80700E3
:1002900098471034AC42F6D3FFF7B6FFCC180000F5
:1002A000EC18000000F01F0201219140400980007D
:1002B00000F1E020C0F88012704700F01F02012119
:1002C00091404009800000F1E020C0F880117047A3
:1002D00000F01F02012191404009800000F1E02060
:1002E000C0F80011704700F01F0201219140400941
:1002F000800000F1E020C0F8001270474907090EA5
:10030000002806DA00F00F0000F1E02080F8141D4C
:10031000704700F1E02080F80014704770B5144C6D
:10032000D4F80001002628B1D4F80403C00701D096
:10033000C4F80061D4F80C010E4D40B1D4F80403A8
:10034000000704D5C4F80C61286900B18047D4F8CF
:10035000100100280BD0D4F80403C00607D5C4F858
:100360001061E868002802D0BDE87040004770BD09
:10037000001000400C0000207CB5144C606A019015
:100380002078002821D00120FFF797FF656800261C
:1003900066600120FFF79CFFE169002915D0E8079E
:1003A00003D08DF8006068468847A80705D501206E
:1003B0008DF80000E16968468847680705D5022086
:1003C0008DF80000E169684688477CBD0C0000207C
:1003D000F0B5B5480023021D0178101D01254FF02E
:1003E000805406290BD11678360708D10678C6F353
:1003F0000316032E06D0042E04D0052E02D00629A3
:1004000007D00EE0B4F82463A84FC6F304263E607C
:1004100002E01678360704D10678C6F30316032ED9
:1004200002D0062904D00FE0A24FA14E7E670EE055
:100430001678360708D10678C6F30316032E06D0C1
:10044000042E04D0052E02D0062907D00EE0D4F8E1
:100450004462994FC6F342363E6002E01678360792
:1004600004D10678C6F30316032E02D0062906D05F
:1004700011E0924E376827F0807737600EE01678EB
:10048000360708D10678C6F30316032E06D0042ECD
:1004900004D0052E02D006290AD011E04FF0804684
:1004A000C6F80C31C6F81031834E361F336002E0B7
:1004B0001678360704D10678C6F30316032E02D049
:1004C000062905D00CE07C4F032664373E600AE025
:1004D0001678360704D10678C6F30316032E02D029
:1004E00006290DD014E0764F05263E60744E78360E
:1004F0003560734E083633603F263F1D3E6002E094
:100500001678360704D10678C6F30316052E02D0F6
:10051000062957D062E06B4E36686B4F3E60694EDD
:10052000361D36683F1D3E60664E083636683F1DF4
:100530003E60644E0C3636683F1D3E60614E10369C
:1005400036683F1D3E605F4E143636683F1D3E6084
:100550005C4E183636685C4F20373E60594E1C366C
:1005600036683F1D3E60574E203636683F1D3E6060
:10057000544E243636683F1D3E60524E283636684B
:100580003F1D3E604F4E2C3636683F1D3E604D4E3F
:10059000303636684C4F40373E604A4E3436366807
:1005A0003F1D3E60474E383636683F1D3E60454E23
:1005B0003C3636683F1D3E60424E403636683F1D31
:1005C0003E6002E01678360708D10678C6F30316B7
:1005D000032E06D0042E04D0052E02D0062907D003
:1005E00019E0D4F85812394A01F04F01116002E0C5
:1005F000117809070FD10078C0F30310032803D046
:10060000042801D0052806D131480168C90702D065
:100610006FF001010160D4F83001062808D1D4F848
:100620003401062804D12B48016841F4806101603F
:1006300022487438016841F470010160BFF34F8FA4
:10064000BFF36F8F4FF01021D1F80002002803DBB9
:10065000D1F80402002822DA1F4A15601F480468F6
:10066000002CFCD01524C1F800420568002DFCD0F8
:10067000C1F8044201680029FCD013600168002918
:10068000FCD0BFF34F8F0D48F0380168144A01F4D5
:10069000E06111430160BFF34F8F00BFFDE71249D6
:1006A00010480860F0BD0000E00F00F04035014048
:1006B0000DF0ADBA00C007403C050040FCED00E085
:1006C000105600400404001020C50040E40E004015
:1006D000000400403C17004004E5014000E40140F4
:1006E0000400FA050090D003540000200748D0F819
:1006F0004011002909D00021C0F840110448407879
:10070000032802D1034901200861704700A001407D
:100710000C00002000100040014800680047000065
:100720000400002002E008C8121F08C1002AFAD104
:1007300070477047002001E001C1121F002AFBD161
:100740007047006890FAA0F000BA00BA7047000045
:1007500072B609480068C00700D000BEBFF34F8FD3
:100760000548E4380168054A01F4E061114301607D
:10077000BFF34F8F00BFFDE7F0ED00E00400FA0586
:100780000EB500210091CDE901106A4644F2010046
:10079000FFF7DEFF0EBD0000F0B54FF08050D0F83F
:1007A0000411C1F307222949422A0AD1284A1368B1
:1007B00023F0010313600A6822F0010242F0807204
:1007C0000A60D0F80401C0F3072045283AD1214837
:1007D000407C052838D04FF07F431F4800681E4AF0
:1007E0001840121D12681A4090422BD11A4A083242
:1007F00010681368C0B2C3F3072C13681268C3F300
:100800000747160E144A0C321368DDB21368C3F39F
:10081000072413681268C3F30743120E60450BD018
:10082000B84209D0B04207D0A84205D0A04203D0B8
:10083000984201D0904205D1086820F0010040F0B4
:10084000807008600020F0BD044BC6E774170040BC
:1008500050160040400000201C1500400000FFFF23
:100860002DE9FC410646C0074FF000050ED0104FA1
:1008700000240122385D009500231146019500F007
:1008800075FC641C042CF4D300F01CF8B0070DD5E3
:10089000074E0024361D0022305D032300951146CB
:1008A000019500F063FC641C042CF4D3BDE8FC81CA
:1008B000C41800000249085C012100F074BC00006B
:1008C000C418000010B500242046FFF7F3FF641C95
:1008D000042CF9D310BD006890FAA0F000BA70475C
:1008E00070B50F4DA8680F4CC4F800020E48696936
:1008F000C07C88470E490D4808600021C4F81011DB
:1009000001202061D4F81021002AFBD0C4F8101176
:10091000A96841F00401C4F80012606070BD0000D5
:100920000C00002000100040A400002086030020DE
:10093000041500404FF080400021C0F80011012153
:10094000C0F80010D0F800110029FBD0704700005B
:1009500010B51CA08AB0006808901BA01BA10068FD
:100960000990D1E90001CDE906011822194968462C
:10097000FFF762FC00208DF8140003208DF81300AF
:100980000124154801908DF808408DF80140684613
:1009900000F00EF9002812D108A800F05BFA002838
:1009A0000DD109A800F08EFA002808D1082106A868
:1009B00000F0D6FA002802D10848047000200AB0DE
:1009C00010BD0000E7E7E7E7C2C2C2C2E7C2C3C486
:1009D000C5C6C7C8AC180000B10A00005800002006
:1009E00010B50D4C012020706070A070E070FFF712
:1009F00037FF2178112000F0CBFB6178122000F046
:100A0000C7FBA178132000F0C3FBE178BDE81040DC
:100A1000142000F0BDBB000000000020FFF7E0FF45
:100A2000FFF796FF08B1FFF7ABFEFFF783FF00F07B
:100A300007FB08B1FFF7A4FE0A480178427841EAB3
:100A400042018278C078920042EAC0000143064821
:100A5000417100F035FB08B1FFF792FE20BF40BFA7
:100A600020BFFBE7000000205800002070B50C49B3
:100A70004FF4705008600B4C00256570257000F035
:100A800073FD20210848FFF7F0FBE5621420256381
:100A9000FFF713FC05490320C1F80002002070BDD8
:100AA00008F501400C000020A803002000100040C1
:100AB00010B5007800285ED0012814D002285AD141
:100AC0002D4800F083F90028FAD02B482B4C4079B0
:100AD00000F00F0001280AD0022810D004283AD0D4
:100AE000082813D13FE0BDE8104000F049B8207855
:100AF00018B100212170112006E00121FAE7607889
:100B000038B300216170122000F042FB21781120DF
:100B100000F03EFB6178122000F03AFBA178132030
:100B200000F036FBE178142000F032FB124801217E
:100B30002538017021786278E37841EA4201A27891
:100B4000920042EAC30211434171BDE8104000F037
:100B5000B7BA0121D6E7A07818B10021A1701320FF
:100B6000D2E70121FAE7E07818B10021E170142002
:100B7000CAE70121FAE710BD7D0000200000002037
:100B8000094810B5007860B10120FFF796FB0748CF
:100B900000218162016241620120FFF799FB002080
:100BA00010BD082010BD00000C000020E401002052
:100BB0002DE9F04705007CD0744C207818B1FFF780
:100BC00055FF002876D16868E061182229467048F0
:100BD000FFF732FB0025656020216E48FFF745FBDB
:100BE000E562256300F0E8FD002877D06A494FF000
:100BF000E7300860091D4FF043300860091D674861
:100C00000860091D6648086000F0AEFC604A0020DC
:100C1000183202F5947100BF00EB800303EB401320
:100C2000134441F82030401C0828F5DB5D490020C2
:100C300001F5947200EB800303EB40130B4442F880
:100C40002030401C0828F5DB57480426066056482B
:100C500008380560554840F20221C0F80012554A94
:100C600053491160111D0860DFF84481091D08F126
:100C70000408C1F800804D481030091D0860091DA6
:100C80004D4808604A48F038091D08604A48001D70
:100C9000091D0860091D494808603D4F787C00F037
:100CA00007010120FFF72AFBB87C00F007011420A0
:100CB00001E010E010E0FFF721FB1420FFF708FB34
:100CC0004FF08059D9F804010127C0F307204228CA
:100CD00006D04BE002E00E20BDE8F0870720FBE7DE
:100CE000A078E8B3A06840F04000A0602A49022044
:100CF00044310860324903200860314808300660FA
:100D00002F490520383108602E4E40F20110C6F8F8
:100D100000022B48001F05604FF48030C6F8040322
:100D2000F76005211A20FFF7E9FA1A20FFF7D0FA39
:100D300020490839C1F80080081D06601C481D497B
:100D40002830103908601F491A4A10310C3A1160D6
:100D50001849183908601B480C30091D086000E06C
:100D600004E014494FF460705C39086065702770C6
:100D7000D9F80401C0F30720452804D112480168BE
:100D800041F4806101600020A6E700000C00002013
:100D9000A4000020A80300201C150040E743C32343
:100DA000A363E3131002002010A5004000A0004040
:100DB0000011004060F5014040A1004000100040DB
:100DC00008A5014000A001403C17004070B5054651
:100DD0001E48007880B385B31D4CA06A70B3012013
:100DE000FFF76BFA606A54F820100A782A7054F8FA
:100DF00020104978697054F820108978A97054F847
:100E000020100979297154F82010C978E97054F834
:100E10002010681D491DFFF70FFA606A401C6062D0
:100E2000082801D300206062A06A401EA062012051
:100E3000FFF74EFA002070BD01E002E003E0082059
:100E4000F9E70E20F7E70520F5E700000C00002089
:100E50003803002070B5184E0446707808B1112090
:100E600070BD44B14FF08050D0F80401C0F30720AA
:100E7000422802D012E00E2070BD0F483430407C72
:100E8000052814D04FF07F452046FFF75AFC284232
:100E900004D10A48006810F0FF0F0AD02068706380
:100EA000012000F045FCBDE87040FFF775BC044D23
:100EB000EAE7072070BD00000C0000202415004068
:100EC0000000FFFF70B5234D0446687808B111207B
:100ED00070BD44B14FF08050D0F80401C0F307203A
:100EE000422802D029E00E2070BD1A483430407CE0
:100EF00005282BD04FF07F462046FFF722FC3042DA
:100F00001BD11549086810F47F4F21D0086810F4F0
:100F10007F0F1DD00868000E1AD0091D0868000E4A
:100F200016D0086810F47F0F12D0086810F47F4FB5
:100F30000ED0086810F0FF0F0AD02068A8630220C6
:100F400000F0F6FBBDE87040FFF726BC034ED3E788
:100F5000072070BD0C000020241500400000FFFF9A
:100F600070B50C462249497809B1112070BD60B1B5
:100F7000082C3AD84FF08051D1F804111C4DC1F320
:100F800007213435422902D01CE00E2070BD697C57
:100F900005290FD04FF07F412CB1164A12680A4242
:100FA00001D102780AB3134A121D12680A4209D10C
:100FB000012105E01049EFE7425CB2B1491CC9B21A
:100FC000A142F9D301460A4822463C30FFF734F9E2
:100FD000C4F10801FF202C74C840A874042000F05C
:100FE000A7FBBDE87040FFF7D7BB072070BD00002E
:100FF0000C0000201C1500400000FFFF0E4810B53B
:101000000078A0B10D4CA06A98B10120FFF755F906
:10101000A06A401EA062606A401C6062082801D37A
:10102000002060620120FFF753F9002010BD082066
:1010300010BD4FF4807010BD0C000020E4010020B2
:1010400070B51A48417809B1112070BD184C4FF0A5
:10105000FF31C4F808130025C4F810511549C160C8
:10106000816841F00401C4F800121021C4F804138F
:10107000042141700D48104A3430817C11600E49C2
:10108000C07C28390860091F0C480860012094348E
:10109000FFF708F90120FFF71BF925676567E5678A
:1010A000012044F8900C002070BD00000C000020CE
:1010B00000100040BD1100003015004086030020E4
:1010C0002DE9F041264F0546387840B155B12878D2
:1010D00068B120280BD8234E317829B109E00820C7
:1010E000BDE8F0810E20FBE7F17C884201D90920A0
:1010F000F6E71D4CA06A082801D30420F0E76878C1
:10110000082801D30720EBE70120FFF7D6F8206A73
:101110002522294654F82000FFF78EF810486A78F7
:101120002C30815C491C01F003018154206A54F881
:101130002020401C08281171206201D30020206269
:10114000A06A401CA0620120FFF7C2F8707828B99D
:10115000307C18B9787808B900F060FA0020BFE751
:101160000C000020A4000020E401002070B541EA3A
:101170004201DDE904564FF0A04441EA830141EA0F
:10118000052104EB800041EA0641C0F8001770BD5C
:1011900001224FF0A043824011B1C3F808257047E7
:1011A000C3F80C25704701224FF0A043824011B1D3
:1011B000C3F808257047C3F80C2570472DE9F05F88
:1011C000554800220127006818B15448806A082851
:1011D00003D3BDE8F05FFFF783BBDFF83C9109F173
:1011E0000809D9F800004D49703101EB800609F17A
:1011F00004010C68494B35884E33AC42587805D110
:10120000B478B4EB500F01D1012200274008B07030
:1012100008689A4630804248424C017D19B19AF8DC
:101220000110C90710D0A1683F4B41F00801C3F875
:1012300000123C49394D007849694FF0000B2C35BC
:10124000B8B3012847D102E0FFF74AFB4EE0374828
:10125000836AB3F1000E2DD0436A50F823C09CF886
:101260000180D9F800C0E04524D196F803C0BCF154
:10127000010F0DD162B95B1C4362082B01D3C0F88A
:1012800024B0AEF101028262626842F00102626043
:101290000122F270426A50F82200A061007888476B
:1012A000A1690878287011F8052BA81CFEF7C4FF67
:1012B00006E009E086F803B00020884785F800B012
:1012C0009AF80100687006E0002088479AF800004C
:1012D000287085F801B005206070D9F80000144925
:1012E00008601348283805601248E060002F10D0CD
:1012F000B178D9F80000C0B200F044F9002808D055
:10130000606840F004006060BDE8F05F1420FEF704
:10131000EABFBDE8F09F0000001400403803002041
:10132000A40000200C00002000100040E401002078
:101330002C1500403913000010B5094CA06809496C
:1013400040F00400C1F8000207486169C07C88478A
:101350000749064808600748E0600420607010BD37
:101360000C00002000100040A40000208603002094
:1013700004150040BD11000070B5164CA068164A57
:10138000C2F80002A06A15490860154B091D98892A
:10139000823808601348012140F80C1F0021C0F872
:1013A0003411C0F83811104D4FF4E050286050143B
:1013B0002D1D2860C2F80C11187810B96169002041
:1013C00088470B49094808600A48E06003206070BC
:1013D00070BD00000C0000200010004040A500403F
:1013E000A400002000A0004004F501408603002076
:1013F000041500403514000010B50C4C606840F036
:1014000001006060FFF7FAFD0948806A30B11420DE
:10141000FEF769FFBDE8104000F000B900206070E1
:10142000BDE810401420FEF75EBF00000C00002055
:10143000E40100202DE9F047414A4FF4E0501060EC
:101440004049D1F80C31DFF8009100273F4CB9F842
:101450000E004E14DFF8F8800125E3B33D4B1B6806
:10146000CBB325611660D8F8041041F00101C8F82B
:101470000410D8F82010401A401CC8F82400FFF7C8
:10148000BDFD99F8000088B109F2E220017869B148
:101490004078410830480068C0B200F073F828B1C5
:1014A000D8F8040040F00400C8F804002B48806A13
:1014B00050B199F81000012806D01420FEF713FF50
:1014C000BDE8F04700F0AAB888F80170BDE8F04721
:1014D0001420FEF708BFD8F820C0BCF1010CC8F8F2
:1014E00020C00BD225611660401CC8F82400D8F833
:1014F000040040F00200C8F80400E5E7D8F808004E
:101500000F4640F00802C1F80022D8F81800D8F8B9
:101510001410007888471048114928380160114894
:10152000C8F80C00022088F8010025600448001F5C
:101530000660D4F84401002800D03D60BDE8F08783
:1015400008F5014000100040A400002000A0004069
:101550000C000020001400402C150040E401002085
:1015600064030020791300000549002008624862E6
:10157000886201F5AA7108624862886270470000BB
:10158000E40100202DE9F041224C07468846A06A7C
:1015900008283DD2A4F5257120460A780026006A65
:1015A00001F2E225012A03D04A7842B1C97C02E067
:1015B000297820292CD854F82020117002E054F802
:1015C00020100E7054F82000A91C10F8052BFEF70F
:1015D00033FE206A54F820104F700F49096854F800
:1015E0002020917054F8202082F80480697854F803
:1015F000202041F30001491C401CD17020620828C2
:1016000000D32662A06A401CA0620120BDE8F081E0
:101610000020FBE738030020481500402DE9F05F6B
:101620003D4C4FF00108C4F824803C48DFF8F0A09E
:10163000A0F5A077416A3B4D4FF0000B50F8211008
:10164000A161387807F5307610B1012843D10DE05B
:10165000087861698847A1690879307086F801B017
:1016600011F8052BB01CFEF7E7FD18E0C87820B391
:10167000387D10B300208146087830700879400624
:10168000000E7070CA78D2B100221043707011F849
:10169000052BB01CFEF7D0FDB9F1000F11D0A068EA
:1016A00040F00800C5F800021120C5F80403F889CD
:1016B00020620220C4F80CA00CE00120DBE701222C
:1016C000E3E7A068C5F800021020C5F80403164837
:1016D000E06040466070A069144A4178116040782B
:1016E000444608FA00F0111D08600B480F493430D9
:1016F0002439C07C0860081F06600120FEF7D2FD77
:101700000120FEF7E5FDC5F804B1C5F808B1C5F83C
:1017100010B12C60BDE8F09F0C000020E401002017
:101720007913000000100040F91300002C15004050
:1017300010B50446C00704D00F48FFF702F80F4960
:101740000860A00706D50C48001DFEF7FAFF0B49FC
:10175000091D086060070DD507480830FFF7BBF882
:1017600006490831086004480C30FFF7B4F8034913
:101770000C31086010BD0000400000201C15004026
:101780000A48017A0A4801600A48492251B10129F0
:1017900005D0032906D0042901D00020704730214C
:1017A000816200E08262012070470000A4000020F6
:1017B000101500400C00002070B500F041F8FFF754
:1017C000DFFF194C194922787AB1012A0BD0002287
:1017D0000240607AB8B1164B1D1F01280ED00228B6
:1017E00007D0002513E0134A00E0134A4A610122A2
:1017F000EEE74FF6FF761E60104B03E0FF261E60FB
:1018000040F207132B600A4B083B18600125496919
:101810001540E07C8847A089872801D3012000E09B
:101820000020284070BD0000A40000200C00002013
:101830003C150040811800005518000021100100DF
:1018400002480349807A086070470000A400002025
:101850000C150040084A074911600849497C491E97
:10186000090441EA0021014341F08070111D086024
:1018700070470000000101001415004040000020E6
:1018800007490648086007480749407C401E41EA6E
:1018900000400349091D086070470000060003006E
:1018A000141500404000002020000001010000004D
:1018B0000000000001020000FA0003000001022005
:1018C00000000000111213140D0E0F10EC18000090
:1018D0000000002058000000240700004419000008
:1018E00058000020702300003407000000000000B2
:1018F00000000000000000000000010000000000E7
:1019000013010000000000000000000000000000C3
:1019100000000000000000000000000000000000C7
:10192000000000000000000000000000E7E7E7E71B
:10193000C2C2C2C2E7C2C3C4C5C6C7C80805FF0247
:041940000090D00340
:0400000500000201F4
:00000001FF
