:020000040000FA
:10000000C8230020150200001D0200001F0200008E
:100010002102000023020000250200000000000071
:1000200000000000000000000000000027020000A7
:1000300029020000000000002B0200002D02000039
:100040002F0200001D030000190700002F0200000E
:100050002F0200002F0200002F0200002F020000DC
:100060002F0200002F0200002F0200002F020000CC
:100070002F0200002F0200002F0200002F020000BC
:100080002F0200002F0200002F0200002F020000AC
:10009000790300002F0200002F0200002F02000051
:1000A0002F0200002F020000ED0600002F020000CA
:1000B0002F0200002F0200000000000000000000DE
:1000C0002F0200002F0200002F0200002F0200006C
:1000D0002F0200002F0200002F020000000000008D
:1000E0000000000000000000000000000000000010
:1000F0000000000000000000000000000000000000
:1001000000000000000000000000000000000000EF
:1001100000000000000000000000000000000000DF
:1001200000000000000000000000000000000000CF
:1001300000000000000000000000000000000000BF
:1001400000000000000000000000000000000000AF
:10015000000000000000000000000000000000009F
:10016000000000000000000000000000000000008F
:10017000000000000000000000000000000000007F
:10018000000000000000000000000000000000006F
:10019000000000000000000000000000000000005F
:1001A000000000000000000000000000000000004F
:1001B000000000000000000000000000000000003F
:1001C000000000000000000000000000000000002F
:1001D000000000000000000000000000000000001F
:1001E000000000000000000000000000000000000F
:1001F00000000000000000000000000000000000FF
:10020000DFF80CD000F03CF800480047A9090000D6
:10021000C82300200648804706480047FEE7FEE75F
:10022000FEE7FEE7FEE7FEE7FEE7FEE7FEE7FEE7A6
:10023000D10300000102000040EA01039B0703D044
:1002400009E008C9121F08C0042AFAD203E011F815
:10025000013B00F8013B521EF9D27047D2B201E0D7
:1002600000F8012B491EFBD270470022F6E710B5BB
:1002700013460A4604461946FFF7F0FF204610BD14
:10028000064C074D06E0E06840F0010394E80700E3
:1002900098471034AC42F6D3FFF7B6FF08160000BB
:1002A0002816000000F01F02012191404009800043
:1002B00000F1E020C0F88012704700F01F02012119
:1002C00091404009800000F1E020C0F880117047A3
:1002D00000F01F02012191404009800000F1E02060
:1002E000C0F80011704700F01F0201219140400941
:1002F000800000F1E020C0F8001270474907090EA5
:10030000002806DA00F00F0000F1E02080F8141D4C
:10031000704700F1E02080F80014704770B5144C6D
:10032000D4F80001002628B1D4F80403C00701D096
:10033000C4F80061D4F80C010E4D40B1D4F80403A8
:10034000000704D5C4F80C61286900B18047D4F8CF
:10035000100100280BD0D4F80403C00607D5C4F858
:100360001061E868002802D0BDE87040004770BD09
:1003700000100040300000207CB5144C606A0190F1
:100380002078002821D00120FFF797FF656800261C
:1003900066600120FFF79CFFE169002915D0E8079E
:1003A00003D08DF8006068468847A80705D501206E
:1003B0008DF80000E16968468847680705D5022086
:1003C0008DF80000E169684688477CBD3000002058
:1003D000F0B5B5480023021D0178101D01254FF02E
:1003E000805406290BD11678360708D10678C6F353
:1003F0000316032E06D0042E04D0052E02D00629A3
:1004000007D00EE0B4F82463A84FC6F304263E607C
:1004100002E01678360704D10678C6F30316032ED9
:1004200002D0062904D00FE0A24FA14E7E670EE055
:100430001678360708D10678C6F30316032E06D0C1
:10044000042E04D0052E02D0062907D00EE0D4F8E1
:100450004462994FC6F342363E6002E01678360792
:1004600004D10678C6F30316032E02D0062906D05F
:1004700011E0924E376827F0807737600EE01678EB
:10048000360708D10678C6F30316032E06D0042ECD
:1004900004D0052E02D006290AD011E04FF0804684
:1004A000C6F80C31C6F81031834E361F336002E0B7
:1004B0001678360704D10678C6F30316032E02D049
:1004C000062905D00CE07C4F032664373E600AE025
:1004D0001678360704D10678C6F30316032E02D029
:1004E00006290DD014E0764F05263E60744E78360E
:1004F0003560734E083633603F263F1D3E6002E094
:100500001678360704D10678C6F30316052E02D0F6
:10051000062957D062E06B4E36686B4F3E60694EDD
:10052000361D36683F1D3E60664E083636683F1DF4
:100530003E60644E0C3636683F1D3E60614E10369C
:1005400036683F1D3E605F4E143636683F1D3E6084
:100550005C4E183636685C4F20373E60594E1C366C
:1005600036683F1D3E60574E203636683F1D3E6060
:10057000544E243636683F1D3E60524E283636684B
:100580003F1D3E604F4E2C3636683F1D3E604D4E3F
:10059000303636684C4F40373E604A4E3436366807
:1005A0003F1D3E60474E383636683F1D3E60454E23
:1005B0003C3636683F1D3E60424E403636683F1D31
:1005C0003E6002E01678360708D10678C6F30316B7
:1005D000032E06D0042E04D0052E02D0062907D003
:1005E00019E0D4F85812394A01F04F01116002E0C5
:1005F000117809070FD10078C0F30310032803D046
:10060000042801D0052806D131480168C90702D065
:100610006FF001010160D4F83001062808D1D4F848
:100620003401062804D12B48016841F4806101603F
:1006300022487438016841F470010160BFF34F8FA4
:10064000BFF36F8F4FF01021D1F80002002803DBB9
:10065000D1F80402002822DA1F4A15601F480468F6
:10066000002CFCD01524C1F800420568002DFCD0F8
:10067000C1F8044201680029FCD013600168002918
:10068000FCD0BFF34F8F0D48F0380168144A01F4D5
:10069000E06111430160BFF34F8F00BFFDE71249D6
:1006A00010480860F0BD0000E00F00F04035014048
:1006B0000DF0ADBA00C007403C050040FCED00E085
:1006C000105600400404001020C50040E40E004015
:1006D000000400403C17004004E5014000E40140F4
:1006E0000400FA050090D003780000200748D0F8F5
:1006F0004011002909D00021C0F840110448407879
:10070000032802D1034901200861704700A001407D
:100710003000002000100040014800680047000041
:100720002800002002E008C8121F08C1002AFAD1E0
:1007300070477047002001E001C1121F002AFBD161
:100740007047006890FAA0F000BA00BA7047000045
:1007500072B609480068C00700D000BEBFF34F8FD3
:100760000548E4380168054A01F4E061114301607D
:10077000BFF34F8F00BFFDE7F0ED00E00400FA0586
:100780000EB500210091CDE901106A4644F2010046
:10079000FFF7DEFF0EBD0000F0B54FF08050D0F83F
:1007A0000411C1F307222949422A0AD1284A1368B1
:1007B00023F0010313600A6822F0010242F0807204
:1007C0000A60D0F80401C0F3072045283AD1214837
:1007D000407C052838D04FF07F431F4800681E4AF0
:1007E0001840121D12681A4090422BD11A4A083242
:1007F00010681368C0B2C3F3072C13681268C3F300
:100800000747160E144A0C321368DDB21368C3F39F
:10081000072413681268C3F30743120E60450BD018
:10082000B84209D0B04207D0A84205D0A04203D0B8
:10083000984201D0904205D1086820F0010040F0B4
:10084000807008600020F0BD044BC6E774170040BC
:1008500050160040640000201C1500400000FFFFFF
:100860002DE9FC410646C0074FF000050ED0104FA1
:1008700000240122385D009500231146019500F007
:10088000E7FB641C042CF4D300F01CF8B0070DD572
:10089000074E0024361D0022305D032300951146CB
:1008A000019500F0D5FB641C042CF4D3BDE8FC8159
:1008B000001600000249085C012100F0E6BB0000C0
:1008C0000016000010B500242046FFF7F3FF641C5B
:1008D000042CF9D310BD006890FAA0F000BA70475C
:1008E0004FF080400021C0F800110121C0F8001035
:1008F000D0F800110029FBD07047000000B51BA004
:100900008BB0006808901AA01AA100680990D1E97C
:100910000001CDE90601182218496846FFF78CFC52
:1009200001208DF800008DF8080015480190002086
:100930008DF801004FF416718DF81400ADF80C100D
:10094000684600F0D3F800280DD108A800F020FA7E
:10095000002808D109A800F053FA002803D1082183
:1009600006A800F09BFA0BB000BD0000E7E7E7E740
:10097000C2C2C2C2E7C2C3C4C5C6C7C8E815000028
:10098000910A000030B408200F214FF0A043032249
:1009900003EB8004C4F80027401C8842F8D930BC1F
:1009A0000120FFF75DBF0000FFF7ECFFFFF798FFA6
:1009B000FFF7A4FF08B1FFF7E3FE214C214D224EC3
:1009C0000027E7701E4800F0EDFAA0BBA0794107B0
:1009D00003D000F00700042801D9012100E0002124
:1009E000112000F047FBA07900F00700012801D991
:1009F000052801D9012100E00021122000F03AFB76
:100A0000A07900F00700022801D9062801D90121A8
:100A100000E00021132000F02DFBA07900F007007A
:100A2000032801D8012100E00021142000F022FB5E
:100A3000A079401CA071691C30468847C1E70000BE
:100A400000000020E015000000D4300070B50C4913
:100A50004FF4705008600B4C00256570257000F055
:100A600017FC20210848FFF700FCE56214202563ED
:100A7000FFF723FC05490320C1F80002002070BDE8
:100A800008F5014030000020A803002000100040BD
:100A900010B50078002808D0012807D0022804D11A
:100AA000054800F031F90028FAD010BD00F006F832
:100AB000BDE8104000F062BA7C000020094810B583
:100AC000007860B10120FFF7F8FB07480021816240
:100AD000016241620120FFF7FBFB002010BD0820EE
:100AE00010BD000030000020E40100202DE9F04797
:100AF00005007CD0744C207818B1FFF7A7FF0028C0
:100B000076D16868E061182229467048FFF794FBA7
:100B10000025656020216E48FFF7A7FBE56225638D
:100B200000F0DEFC002877D06A494FF0E73008601B
:100B3000091D4FF043300860091D67480860091D12
:100B40006648086000F0A4FB604A0020183202F5F5
:100B5000947100BF00EB800303EB4013134441F892
:100B60002030401C0828F5DB5D49002001F5947217
:100B700000EB800303EB40130B4442F82030401C91
:100B80000828F5DB574804260660564808380560F3
:100B9000554840F20221C0F80012554A53491160ED
:100BA000111D0860DFF84481091D08F10408C1F82F
:100BB00000804D481030091D0860091D4D4808602F
:100BC0004A48F038091D08604A48001D091D0860A0
:100BD000091D494808603D4F787C00F0070101205D
:100BE000FFF78CFBB87C00F00701142001E010E057
:100BF00010E0FFF783FB1420FFF76AFB4FF08059EA
:100C0000D9F804010127C0F30720422806D04BE0A1
:100C100002E00E20BDE8F0870720FBE7A078E8B3EC
:100C2000A06840F04000A0602A49022044310860DA
:100C30003249032008603148083006602F490520FA
:100C4000383108602E4E40F20110C6F800022B48E1
:100C5000001F05604FF48030C6F80403F7600521DB
:100C60001A20FFF74BFB1A20FFF732FB2049083907
:100C7000C1F80080081D06601C481D492830103945
:100C800008601F491A4A10310C3A11601849183986
:100C900008601B480C30091D086000E004E014499E
:100CA0004FF460705C39086065702770D9F80401F2
:100CB000C0F30720452804D11248016841F480613F
:100CC00001600020A6E7000030000020A400002002
:100CD000A80300201C150040E743C323A363E313CC
:100CE0001002002010A5004000A0004000110040AC
:100CF00060F5014040A100400010004008A50140FF
:100D000000A001403C17004070B505461E48007821
:100D100080B385B31D4CA06A70B30120FFF7CDFAF4
:100D2000606A54F820100A782A7054F82010497824
:100D3000697054F820108978A97054F82010097946
:100D4000297154F82010C978E97054F82010681DF2
:100D5000491DFFF771FA606A401C6062082801D3E0
:100D600000206062A06A401EA0620120FFF7B0FA76
:100D7000002070BD01E002E003E00820F9E70E204A
:100D8000F7E70520F5E700003000002038030020D9
:100D900070B5184E0446707808B1112070BD44B18A
:100DA0004FF08050D0F80401C0F30720422802D051
:100DB00012E00E2070BD0F483430407C052814D05E
:100DC0004FF07F452046FFF7BCFC284204D10A487B
:100DD000006810F0FF0F0AD020687063012000F057
:100DE0003BFBBDE87040FFF7D7BC044DEAE70720A6
:100DF00070BD000030000020241500400000FFFFFF
:100E000070B5234D0446687808B1112070BD44B117
:100E10004FF08050D0F80401C0F30720422802D0E0
:100E200029E00E2070BD1A483430407C05282BD0B4
:100E30004FF07F462046FFF784FC30421BD1154916
:100E4000086810F47F4F21D0086810F47F0F1DD080
:100E50000868000E1AD0091D0868000E16D0086830
:100E600010F47F0F12D0086810F47F4F0ED008687E
:100E700010F0FF0F0AD02068A863022000F0ECFAFF
:100E8000BDE87040FFF788BC034ED3E7072070BD74
:100E900030000020241500400000FFFF70B50C4614
:100EA0002249497809B1112070BD60B1082C3AD8A7
:100EB0004FF08051D1F804111C4DC1F30721343596
:100EC000422902D01CE00E2070BD697C05290FD09C
:100ED0004FF07F412CB1164A12680A4201D10278C4
:100EE0000AB3134A121D12680A4209D1012105E012
:100EF0001049EFE7425CB2B1491CC9B2A142F9D333
:100F000001460A4822463C30FFF796F9C4F1080131
:100F1000FF202C74C840A874042000F09DFABDE89E
:100F20007040FFF739BC072070BD00003000002082
:100F30001C1500400000FFFF0E4810B50078A0B15E
:100F40000D4CA06A98B10120FFF7B7F9A06A401EC6
:100F5000A062606A401C6062082801D300206062C1
:100F60000120FFF7B5F9002010BD082010BD4FF497
:100F7000807010BD30000020E4010020074810B54B
:100F8000407808B1112010BD0548806A18B100F002
:100F9000D9F9002010BD4FF4807010BD3000002042
:100FA000E40100202DE9F041264F0546387840B194
:100FB00055B1287868B120280BD8234E317829B153
:100FC00009E00820BDE8F0810E20FBE7F17C8842B3
:100FD00001D90920F6E71D4CA06A082801D3042096
:100FE000F0E76878082801D30720EBE70120FFF736
:100FF00064F9206A2522294654F82000FFF71CF9DD
:1010000010486A782C30815C491C01F0030181543E
:10101000206A54F82020401C08281171206201D356
:1010200000202062A06A401CA0620120FFF750F956
:10103000707828B9307C18B9787808B900F082F94E
:101040000020BFE730000020A4000020E4010020C1
:1010500070B541EA4201DDE904564FF0A04441EA8F
:10106000830141EA052104EB800041EA0641C0F812
:10107000001770BD01224FF0A043824011B1C3F8A8
:1010800008257047C3F80C25704701224FF0A04394
:10109000824011B1C3F808257047C3F80C2570478A
:1010A00070B5164CA068164AC2F80002A06A15492D
:1010B0000860154B091D9889823808601348012182
:1010C00040F80C1F0021C0F83411C0F83811104D41
:1010D0004FF4E050286050142D1D2860C2F80C1108
:1010E000187810B96169002088470B4909480860E1
:1010F0000A48E0600320607070BD000030000020EE
:101100000010004040A50040A400002000A00040C6
:1011100004F5014086030020041500405D11000025
:1011200010B50C4C606840F001006060FFF704FFF0
:101130000948806A30B11420FFF7D5F8BDE81040A7
:1011400000F000B900206070BDE810401420FFF7E7
:10115000CAB8000030000020E40100202DE9F0476B
:10116000414A4FF4E05010604049D1F80C31DFF8AB
:10117000009100273F4CB9F80E004E14DFF8F880BC
:101180000125E3B33D4B1B68CBB325611660D8F84E
:10119000041041F00101C8F80410D8F82010401ADA
:1011A000401CC8F82400FFF7C7FE99F8000088B17A
:1011B00009F2E220017869B14078410830480068BE
:1011C000C0B200F073F828B1D8F8040040F0040071
:1011D000C8F804002B48806A50B199F81000012823
:1011E00006D01420FFF77FF8BDE8F04700F0AAB85A
:1011F00088F80170BDE8F0471420FFF774B8D8F8FC
:1012000020C0BCF1010CC8F820C00BD225611660CB
:10121000401CC8F82400D8F8040040F00200C8F8C8
:101220000400E5E7D8F808000F4640F00802C1F8CE
:101230000022D8F81800D8F8141000788847104811
:101240001149283801601148C8F80C00022088F8BC
:10125000010025600448001F0660D4F844010028FE
:1012600000D03D60BDE8F08708F501400010004067
:10127000A400002000A00040300000200014004026
:101280002C150040E401002064030020A1100000A0
:101290000549002008624862886201F5AA71086267
:1012A0004862886270470000E40100202DE9F041A7
:1012B000224C07468846A06A08283DD2A4F525712D
:1012C00020460A780026006A01F2E225012A03D0AE
:1012D0004A7842B1C97C02E0297820292CD854F8F8
:1012E0002020117002E054F820100E7054F82000F5
:1012F000A91C10F8052BFEF79FFF206A54F8201058
:101300004F700F49096854F82020917054F820203C
:1013100082F80480697854F8202041F30001491CC8
:10132000401CD1702062082800D32662A06A401CAD
:10133000A0620120BDE8F0810020FBE73803002017
:10134000481500402DE9F05F3D4C4FF00108C4F80E
:1013500024803C48DFF8F0A0A0F5A077416A3B4D1F
:101360004FF0000B50F82110A161387807F5307666
:1013700010B1012843D10DE0087861698847A1695F
:101380000879307086F801B011F8052BB01CFEF713
:1013900053FF18E0C87820B3387D10B30020814691
:1013A0000878307008794006000E7070CA78D2B1A3
:1013B00000221043707011F8052BB01CFEF73CFFA3
:1013C000B9F1000F11D0A06840F00800C5F8000284
:1013D0001120C5F80403F88920620220C4F80CA08B
:1013E0000CE00120DBE70122E3E7A068C5F800027A
:1013F0001020C5F804031648E06040466070A069FC
:10140000144A417811604078444608FA00F0111DF2
:1014100008600B480F4934302439C07C0860081F2D
:1014200006600120FEF73EFF0120FEF751FFC5F8E0
:1014300004B1C5F808B1C5F810B12C60BDE8F09F43
:1014400030000020E4010020A11000000010004046
:10145000211100002C15004010B50446C00704D02F
:101460000F48FFF76EF90F490860A00706D50C4832
:10147000001DFFF766F90B49091D086060070DD5CF
:1014800007480830FFF727FA064908310860044882
:101490000C30FFF720FA03490C31086010BD000042
:1014A000640000201C1500400A48017A0A480160C7
:1014B0000A48492251B1012905D0032906D004293F
:1014C00001D0002070473021816200E0826201205B
:1014D00070470000A40000201015004030000020DC
:1014E00070B500F041F8FFF7DFFF194C1949227879
:1014F0007AB1012A0BD000220240607AB8B1164BB3
:101500001D1F01280ED0022807D0002513E0134A22
:1015100000E0134A4A610122EEE74FF6FF761E60B3
:10152000104B03E0FF261E6040F207132B600A4BAE
:10153000083B1860012549691540E07C8847A0896F
:10154000872801D3012000E00020284070BD000062
:10155000A4000020300000203C150040A915000028
:101560007D1500002110010002480349807A0860BF
:1015700070470000A40000200C150040084A0749ED
:1015800011600849497C491E090441EA00210143D0
:1015900041F08070111D08607047000000010100DB
:1015A00014150040640000200749064808600748F9
:1015B0000749407C401E41EA00400349091D08607C
:1015C000704700000600030014150040640000206E
:1015D00020000001000000000000000000000000EA
:1015E0000338FDD870470000010000000000000033
:1015F00001020000FA0003000001022000000000C8
:10160000111213140D0E0F102816000000000020F8
:101610007C00000024070000A41600007C000020CD
:101620004C23000034070000080000000001000007
:101630000011000000000000000000000000000099
:10164000000000000000000000000000000000009A
:101650000000000000000000000001000000000089
:101660001301000000000000000000000000000066
:10167000000000000000000000000000000000006A
:10168000000000000000000000000000E7E7E7E7BE
:10169000C2C2C2C2E7C2C3C4C5C6C7C80805FF02EA
:0416A0000090D003E3
:0400000500000201F4
:00000001FF
