:020000040002F8
:10600000B0540020C1630200C9630200CB630200E8
:10601000CD630200CF630200D163020000000000E4
:10602000000000000000000000000000D363020038
:10603000D563020000000000D7630200D9630200AC
:1060400091670200DB630200F1690200DB6302007A
:10605000DB630200DB63020079650200DB630200A0
:10606000DB630200DB630200DB630200DB63020030
:10607000DB630200DB630200DB630200DB63020020
:10608000DB630200E9670200DB630200DB630200FE
:106090000D680200DB63020011680200DB6302008E
:1060A000DB630200DB630200DB630200DB630200F0
:1060B000DB630200DB630200000000000000000060
:1060C000DB630200DB630200DB630200DB630200D0
:1060D000DB630200DB630200DB630200DB630200C0
:1060E000DB630200DB630200DB63020000000000F0
:1060F00000000000DB63020000000000DB63020020
:10610000000000000000000000000000000000008F
:10611000000000000000000000000000000000007F
:10612000000000000000000000000000000000006F
:10613000000000000000000000000000000000005F
:10614000000000000000000000000000000000004F
:10615000000000000000000000000000000000003F
:10616000000000000000000000000000000000002F
:10617000000000000000000000000000000000001F
:10618000000000000000000000000000000000000F
:1061900000000000000000000000000000000000FF
:1061A00000000000000000000000000000000000EF
:1061B00000000000000000000000000000000000DF
:1061C00000000000000000000000000000000000CF
:1061D00000000000000000000000000000000000BF
:1061E00000000000000000000000000000000000AF
:1061F000000000000000000000000000000000009F
:10620000DFF80CD000F07AF900480047B1A702008F
:10621000B054002030B450E8012F93B2C489234415
:106220008489A34228BF1B1B0489A34202BFBFF37A
:106230002F8F002007E0C3EA020340E80134002C5E
:10624000E9D14FF001000A6030BC704750E8012FDF
:10625000C2EA024240E801210029F7D1704730B478
:1062600050E8022F1FFAA2F3C488A34202BFBFF373
:106270002F8F00200DE0C48923448489A34228BFC6
:106280001B1BC2EA034340E80234002CE8D14FF064
:1062900001000A6030BC704750E8022FC2EA224277
:1062A00040E802210029F7D17047034653E8022F46
:1062B000D988B2EB324F4FF0000017BF92B241EADB
:1062C000014142EA014104E05A68B2EB324F08BF93
:1062D000012043E80212002AE8D1704730B4044696
:1062E00054E8000F0D4644E80053002BF8D1156028
:1062F00030BC704730B4044654E8000F40EA010552
:1063000044E80053002BF7D1156030BC704730B41F
:10631000044654E8000F00EA010544E80053002B4E
:10632000F7D1156030BC704730B4044654E8000F14
:1063300080EA010544E80053002BF7D1156030BC1A
:10634000704730B4044654E8000F00EB010544E800
:106350000053002BF7D1156030BC704730B40446B1
:1063600054E8000FA0EB010544E80053002BF7D1DF
:10637000156030BC704770B404464FF0000054E81C
:10638000006F0D68AE4207BF44E80023012044E8D7
:1063900000630E60002B1CBF0020F0E770BC70474C
:1063A00030B4044654E8000F88422CBF451A054615
:1063B00044E80053002BF5D1156030BC7047000055
:1063C0000648804706480047FEE7FEE7FEE7FEE78F
:1063D000FEE7FEE7FEE7FEE7FEE7FEE715680200E0
:1063E000016202002DE9F05F0546002092469B46BF
:1063F00088460646814640241BE0284641464746DB
:10640000224600F06BF853465A46C01A914110D309
:1064100011461846224600F016F82D1A67EB0108BF
:106420004F4622460120002100F00DF817EB00092D
:106430004E41201EA4F10104DFDC484631462A46C5
:106440004346BDE8F09F202A04DB203A00FA02F11F
:10645000002070479140C2F1200320FA03F3194352
:106460009040704700487047E40E030040EA010383
:106470009B0703D009E008C9121F08C0042AFAD2FA
:1064800003E011F8013B00F8013B521EF9D27047BE
:10649000D2B201E000F8012B491EFBD27047002266
:1064A000F6E710B513460A4604461946FFF7F0FF13
:1064B000204610BD421C10F8011B0029FBD1801A98
:1064C000704730B504460020034600E05B1C934251
:1064D00003D2E05CCD5C401BF8D030BD202A04DB49
:1064E000203A21FA02F00021704721FA02F3D0404D
:1064F000C2F120029140084319467047064C074DEF
:1065000006E0E06840F0010394E807009847103483
:10651000AC42F6D3FFF778FEE8230300082403001B
:1065200070B58C1810F8015B15F0070301D110F855
:10653000013B2A1106D110F8012B03E010F8016B82
:1065400001F8016B5B1EF9D12B0705D40023521E05
:106550000DD401F8013BFAE710F8013BCB1A921C6D
:1065600003E013F8015B01F8015B521EF9D5A1426B
:10657000D8D3002070BD00002DE9F04F00268DB06B
:10658000DFF8A081B14604964FF4807501243746A8
:106590000596284605F04CFB38B1D8F80403204294
:1065A00003D0284605F03AFB26432D1D64007F1CCE
:1065B000ADB2082FEDD34FF4BE74204605F038FB82
:1065C00048B1204605F02AFB46F0004604AA022105
:1065D000002005F00DFB544C16F0FF0F15D00127DD
:1065E000002537420DD008EB8501D1F81005D1F810
:1065F0001015C0F3052054F82520C1F3014102B164
:1066000090477F006D1C082DEBD3002E7EDA002012
:10661000CDF82890411E0DF1100B07AACDF82C9053
:1066200042F82010401C91460228F9D300252E463E
:10663000A11911F8607F91F9000027F0C008401CF3
:1066400040D007A9404604F0FCFB40B34FEA971A3C
:10665000404602F017F954F820701FB1BAF1030F49
:1066600003D006E0BAF1030F2CD10AA9404604F08A
:10667000F0FB02A8CDF8088005F05EFA029900EB65
:106680008100D0F8000704A9C0F301400290404601
:1066900004F0D7FB0028029802D0022802D011E0B3
:1066A00003280FD1BAF1030F08D10298022833D082
:1066B0000221404605F01AFA6D1CEDB217B15146A1
:1066C0004046B847761C042EB2D3002D21D001AA33
:1066D0000221002005F08CFA00205A460DF1040139
:1066E00052F8206051F82030B34217D000200AAE93
:1066F0004FEA090351F8207042F8207056F82070D4
:1067000043F82070401C0228F4D300E001E0002D83
:106710008CD10DB0BDE8F08F0321CAE7401C0228E0
:10672000DED3F6E700600040342B002000F01F02AB
:10673000012191404009800000F1E020C0F8801262
:10674000704700F01F02012191404009800000F1D4
:10675000E020C0F80011704700F01F0201219140B5
:106760004009800000F1E020C0F80012704749079E
:10677000090E002806DA00F00F0000F1E02080F892
:10678000141D704700F1E02080F8001470470000ED
:1067900070B54FF48076304604F096FC114CB50588
:1067A00060B1304604F097FC0120C5F80803607919
:1067B00020B9012060712168002088474FF482765B
:1067C000304604F081FC00280AD0304604F083FCF7
:1067D0000220C5F808032168BDE870400120084781
:1067E00070BD00001823002007480021C0F84011A8
:1067F000C0F84411C0F84811C0F84C11C0F800119D
:10680000C0F8041109F024BB0010014009F06EBA71
:1068100005F0D6BF30B54FF0805000228300D0F88D
:106820003011C3F80C21C3F81021624B1A60624B7F
:106830001B68624C2360604B1B1D1B68241D23607A
:106840005D4B08331B68241D23605B4B0C331B68B6
:10685000241D2360584B10331B68241D2360564BA6
:1068600014331B68241D2360534B18331B68534C8F
:1068700020342360504B1C331B68241D23604E4B77
:1068800020331B68241D23604B4B24331B68241DBD
:106890002360494B28331B68241D2360464B2C334F
:1068A0001B68241D2360444B30331B68434C403429
:1068B0002360414B34331B68241D23603E4B383327
:1068C0001B68241D23603C4B3C331B68241D236044
:1068D000394B40331B68241D23600124082902D151
:1068E000D0F8343113B1082904D006E0354B3449CF
:1068F000196005E0D0F8343113B1082904D006E05E
:10690000314BFB21196005E0D0F8343113B108296F
:1069100008D00EE090F858322C48016863F3030168
:10692000016002E0D0F834311BB929494FF40070FE
:10693000086028480168C90702D06FF001010160B2
:106940002548016841F470010160BFF34F8FBFF328
:106950006F8F4FF01021D1F80002002803DBD1F82F
:106960000402002822DA1D4B1C601D480468002C1C
:10697000FCD01224C1F800420568002DFCD0C1F8FB
:10698000044201680029FCD01A6001680029FCD08B
:10699000BFF34F8F10487C380168124A01F4E06160
:1069A00011430160BFF34F8F00BFFDE70F490E4851
:1069B000086030BD380500400404001020C50040C8
:1069C000488103008C56004018F50040E40E00405A
:1069D000409602400004004088ED00E004E50140DC
:1069E00000E401400400FA050090D00310240020C8
:1069F00001480068004700002023002002E008C88A
:106A0000121F08C1002AFAD170477047002001E028
:106A100001C1121F002AFBD170470000012120286C
:106A200003DA81400548014003E0402802DA2038BB
:106A3000814009B10120704700207047FC06FFBD6E
:106A40002DE9F843804643F2020659B9694607F03A
:106A5000DBF9B04202D008B100F0A0F99DF80000C7
:106A6000800744D40021404607F00AFA05003ED0D2
:106A7000112D3CD01F482049401AC708022000EBC6
:106A800007440D2D0AD00B2D1DD0B5421FD11B4937
:106A900020464246BDE8F84305F0CEBA20464246BD
:106AA000174905F0C9FA1321404676DF00281ED0A9
:106AB00005F00EFF024601B020464346BDE8F04314
:106AC00010A105F0C0BA204642461C49E2E728461C
:106AD00005F0FEFE0246012000EB0740434618A1E8
:106AE00005F0B1FA2846BDE8F84300F057B9BDE813
:106AF000F88300005024030018240300F415030059
:106B00008015030073645F626C655F6761705F642A
:106B10006973636F6E6E656374282920726574757E
:106B2000726E6564202573206F6E20636F6E6E5FDA
:106B300068616E646C652025642E000040160300B9
:106B4000417373657274696E672E20706D5F636F39
:106B50006E6E5F7365637572652829207265747542
:106B6000726E6564202573206F6E20636F6E6E5F9A
:106B700068616E646C652025642E000010B560B1FC
:106B800059B102780B785208B2EB530F05D10622A7
:106B9000401C491CFFF795FC08B1002010BD0120E6
:106BA00010BD800701D00020704701207047C368E6
:106BB0008B4206D811440069491E814201D8012048
:106BC00070470020704710B501220221002001F01B
:106BD00055FC08B1072810D107220221012001F03D
:106BE0004DFC08B1072808D100210A22084601F00F
:106BF00045FC08B1072800D1002010BD10B504469F
:106C00002C21FFF74CFC012020714FF4967020617D
:106C100044F25060606110BD70B58CB015460E46F0
:106C200000236C46C3F10F01415CE1545B1C102B47
:106C3000F8D30D2104F11000FFF731FC0020C0F162
:106C40000F02315C2244401C11740328F7D36846BC
:106C500046DF0020C0F10F01214491F82010295493
:106C6000401C0328F6D30CB070BD022001F008BB15
:106C70000149C97800F074BEE022002070B50024FC
:106C8000064D06E06868012110F8340005F084FE26
:106C9000641C28788442F5D3002070BD282300208E
:106CA000F8B515460C460646052A01D20720F8BD60
:106CB00005F06AFF18B905F02DFF0028F7D1124939
:106CC00000224E600C708D60C1E90422C1E90622E9
:106CD0000E4D0DE006EBC4002968009181788DF817
:106CE000011000780A4A694605F0A2FE0028DED1AC
:106CF000641EE4B2EED2BDE8F84004480021054A23
:106D0000001D00F09FB8000028230020500B030056
:106D1000E9990200218E020072B605F03BFA00BF2D
:106D200005F06CF80028FBD111481249401AC4083C
:106D3000012000EB044010A105F07AF91148006829
:106D4000C00700D000BE022000EB04400EA105F0F9
:106D50006FF9BFF34F8F0B48E43801680E4A01F416
:106D6000E06111430160BFF34F8F00BFFDE70000FA
:106D7000A824030018240300466174616C20657226
:106D8000726F7200F0ED00E053797374656D2072DC
:106D900065736574000000000400FA050EB500215B
:106DA0000091CDE901106A4644F20100FFF7B4FFFB
:106DB0000EBD000010B502280ED108480849401A3F
:106DC000C108032000EB0140044606A105F030F99C
:106DD000204610A105F02CF9012010BDA8240300C5
:106DE00018240300506F776572206D616E616765CE
:106DF0006D656E742077616E747320746F20726598
:106E000073657420746F20444655206D6F64652E41
:106E100000000000506F776572206D616E616765DC
:106E20006D656E7420616C6C6F77656420746F2083
:106E3000726573657420746F20444655206D6F64CD
:106E4000652E0000074B9B7823B12AB120B1006862
:106E5000037C1BB1082070470720704741744261D2
:106E600000207047102C002070B508F009F9104878
:106E700000240B21047044700E4D817014206C604E
:106E80002C706C70FFF752FC07211420FFF76FFC89
:106E90001420FFF756FC0848046007211120FFF773
:106EA00066FC0548001F0068A860002070BD000057
:106EB000102C002048230020081501402DE9FC4734
:106EC000DFF8789099F8023073B368B3052902D2DD
:106ED0000720BDE8FC87436933B3437C012B25D0F1
:106EE000002704460025884616468DF8005068465F
:106EF00000F038F801A809F041FAC8B10121017089
:106F00000F4944600968C0E90218C0E904769DF899
:106F1000040089F801009DF8000000F047F81420F3
:106F2000FFF71AFC2846D4E70820D2E70F46D8E737
:106F300004259DF8000000F039F8F3E7102C00203C
:106F4000041501400649897839B130B1416921B150
:106F500000210174022108F057BF0820704700008B
:106F6000102C002030B5EFF3108172B60D4A9468F2
:106F7000012324B10370002900D162B630BD9360B3
:106F80004FF0E023D3F88051074C25401560C3F83B
:106F90008041D3F8844154605A17C3F884210022F9
:106FA0000270E8E71C2D0020FC06FFBD0B498A6833
:106FB000002A11D000280FD1EFF3108072B60B68B1
:106FC0004FF0E022C2F800314B68C2F804310022D1
:106FD0008A60002800D162B6704700001C2D002096
:106FE00070B5054608680C46411C04D004F0D9FD74
:106FF000206804F067FD6068411C02D0002104F0A5
:107000004FFD2968A069C1F82405607D227D2968AB
:107010001043C1F86C05D4E900122868C0F81425A3
:10702000C0F80C15207D012814D1A068411C02D0A5
:10703000002104F035FDE068411C04D004F0B1FDEE
:10704000E06804F03FFDD4E902122868C0F8082582
:10705000C0F8101570BD70B5054608680C46411C97
:1070600004D004F0A8FD206804F036FD6068411CDF
:1070700002D0002104F01DFD2968A069C1F8240593
:10708000607D217D2A680843C2F86C05D4E90012AE
:107090002868C0F80C15C0F81425207D012814D1EB
:1070A000A068411C02D0002104F003FDE068411CEF
:1070B00004D004F080FDE06804F00EFDD4E9021273
:1070C0002868C0F80825C0F8101570BD03F040BA54
:1070D0002DE9F047814605884A484FF000088AB0FC
:1070E00001784246284600F053FC99F80500400715
:1070F00001D4002176E005F58077B8B201AB01221A
:10710000072106F0E5FA04003F48404A4FF001012C
:10711000A0EB02004FEAD00001EB00460AD0204667
:1071200005F0D6FB024630462B46394904F08BFF6A
:10713000214629E0284602F027FF4FF6FF7104465A
:1071400088422BD18A46029802F088FE04465045B8
:1071500010D00146284602F0F7FE2846FFF788FDCA
:10716000E0B9284608F082F92846FFF781FD00289B
:10717000BFD013E006F078FC0446504508D13046F5
:1071800024A104F055FF0421284608F09DF9B0E73A
:107190000146284602F0D8FE4FF00108B8B2224658
:1071A000072106F00DFB07001BD0862F1ED005F02F
:1071B0008FFB024630462B462349009404F04BFFD8
:1071C0003946284608F080F90021484606F074F94F
:1071D000B8F1000F02D0204602F0C0FE0AB0BDE8B0
:1071E000F0870121484606F067F9F7E718221749AA
:1071F00003A8FFF73BF9ADF80E5003A802F00AF818
:10720000EFE70000E02200205824030018240300C8
:10721000DC180300436F756C64206E6F7420616C22
:107220006C6F63617465206E657720706565725F51
:10723000696420666F7220696E636F6D696E672086
:10724000626F6E642E00000088190300D40A0300E8
:107250002DE9FC47002517880646158090F82D007B
:107260001446894630B13A462146484600F0BAFBFA
:10727000051E09D1B0784FF00C0A18B32088C84613
:10728000001DB84202D95046BDE8FC87684679DF48
:107290000028F9D12088032108F80010208819213E
:1072A000401C80B2208008F800102088401C80B26A
:1072B000208000EB0801BDF8000008F08DFF218858
:1072C00008442080F0780222C8B1218896F9033062
:1072D00001F1030C4846BC45D5D8425421884FF0F3
:1072E000010C491C89B2218000F801C02188491C89
:1072F00089B2218009F801302088401C2080706804
:10730000B8B1218890F9003001F1030C4846BC4522
:10731000B9D8425421880A22491C89B2218042549A
:107320002188491C89B2218009F801302088401C3D
:107330002080308950B1CDE900474B46062202211A
:1073400006F1080009F032F8051E9DD1308A50B1CF
:10735000CDE900474B460722032106F1100009F052
:1073600025F8051E90D1308B50B1CDE900474B4632
:107370001522142106F1180009F018F8051E83D112
:10738000306A30B13B462246494601F002FC051EF8
:10739000DBD1706A30B13B462246494603F02AFBF6
:1073A000051ED2D196F82C0038B13B4622464946FC
:1073B000304608F063F9051EC7D1307838B13B4636
:1073C00022464946304603F0A3FB051EBDD12846A0
:1073D0005AE718B504460020ADF8000013466A4687
:1073E000204600F006F8002802D0BDF80000204436
:1073F00018BD70B588B182B10024158803E0065D20
:10740000641C3444A4B2A54203D8061976789E427F
:1074100001D08C42F3D38C4201D3002070BDA11C5B
:107420001180005D401E80B270BD80F83010704742
:107430002DE9F0470E00044606D02CB196F87A00EC
:107440000025012803D006E00E20BDE8F08796F85D
:107450009800012821D04FF00109A5702C2206F1D7
:107460007801201DFFF702F884F83050D6F8A40008
:107470006063D6F8A800A0634FF6FF70A4F8480236
:1074800004F50D70C4F84402C4F84A52A4F84E52F0
:1074900084F85052207810B104E00720D5E7FF208F
:1074A00084F8540004F15501C4F8341294F824000F
:1074B000EE274FF01F0801281FD0A4F8388200BF24
:1074C00004F50E723046FFF7C3FE0028BDD116F159
:1074D0003C0F18D004F24311C4F83C1294F8240075
:1074E00001280DD0A4F8408204F5107206F13C008A
:1074F000FFF7AEFE0028A8D109E0A4F83872DFE754
:10750000A4F84072F0E7C4F83C52A4F8405284F862
:107510005190208BA4F8480084F83C90256484F8AE
:107520005050606960644E4604F13C02002104F151
:10753000540072DF002888D1267086E72C22001DB7
:10754000FEF794BF10B50288102A1BD0112A20D054
:10755000262A1DD1007A0C46012801D0022817D115
:10756000A0780521401CB0FBF1F201FB120120467E
:1075700000F03BF800280BD0A16B002908D0BDE833
:1075800010400847C27B012A02D18088A1F8480236
:1075900010BD0C46002184F852128088B4F84812BD
:1075A0008842F5D120790028F2D10121DFE7704728
:1075B00010B5044690F8540074DF012084F852029C
:1075C000002084F8540284F850000621204601F07F
:1075D000F5FF002808D1A178204600F006F810B188
:1075E000A16B01B18847002010BD2DE9F05F044672
:1075F00000780F4698B1A7700025C4F84A52A4F845
:107600004E5284F85052A079012608B1012F09D0BA
:10761000E07980B1012F05D0022F03D00BE00820C4
:10762000BDE8F09F616B21B184F851620820884762
:1076300001E084F8515204F24B2100200A5C0AB1A7
:10764000304603E0401C0628F8D300204FF0020823
:107650004FF0030B012F06D0022F0CD0032F0FD0B9
:10766000042F15D110E0A17929B194F8241011B993
:1076700008B130460DE0E17911B108B1404608E0AB
:10768000207A08B1584604E0607A08B1042000E08E
:107690002846A070616B41B1032801D0042804D1B1
:1076A000607910B194F85202A0B184F8535204F1F9
:1076B0003C0018210746FEF7F2FE04F12C0084F886
:1076C0003C60814606F00AFB58B194F82C0084F81F
:1076D000510008E084F8545284F853620720884728
:1076E000E5E784F8516094F8240050B1484606F06C
:1076F000F5FA20B194F8280084F8520001E084F8EB
:10770000526084F85050A27804F24A2104F50D79B1
:107710004FF0060A052A62D2DFE802F07A030F2250
:10772000410084F83160C4F84452C4E9101584F86B
:107730003C808020A4F8480053E084F8318094F81D
:107740002420384612B10722027001E080F800B010
:10775000228A8281C4F844524160E168B96040E005
:107760006069B860208BB88194F824003D4610B160
:1077700084F83CA001E084F83C60204608F0DAFD83
:1077800050B185F814800421204601F017FF30BB6A
:10779000052184F8311020E084F831B01DE0E06963
:1077A000B860208CB88194F824003D4610B184F86C
:1077B0003CA001E084F83C60204608F0BBFD48B1E5
:1077C00085F814800421204601F0F8FE38B984F8C9
:1077D00031A002E0042084F83100C4F84492A0787B
:1077E00078B13A4604F15400D4F8441272DF00280C
:1077F0007FF416AF94F8301094F8540073DF00282B
:10780000F6D1616B11B194F831008847002007E789
:1078100084F83150F5E7000070B5040012D001463D
:107820001C221448FEF722FE1248134D0560206802
:1078300050B17ADF002806D12068016829604068CD
:10784000686005E00E2070BD0B487BDF0028FAD190
:1078500008484FF6FF711438084A20F8041B054900
:10786000343901600021FFF7EDFA0028EBD0032046
:1078700070BD00004027002040220020CD02030000
:1078800010B5044600F0A4F8002805D02146BDE854
:107890001040024803F039BA10BD00006C270020E8
:1078A0000346034880680A46194601F0B3BE00004B
:1078B0005C27002070B515460E46044608F046FDCC
:1078C000002809D0054800EB840080692A4631462B
:1078D000BDE8704001F09EBE70BD00005C27002036
:1078E00010B5044600F074F8002805D02146BDE824
:1078F0001040024803F009BA10BD000070270020B4
:1079000070B50546002400F063F838B129460448F4
:1079100003F0FBF908B1022400E00124204670BD09
:107920006827002070B50546002400F051F838B1F2
:107930002946044803F0E9F908B1022400E00124D3
:10794000204670BD6427002010B51821034803F0BD
:10795000B7F9182800D0C0B210BD00005C27002085
:1079600070B505460C46084608F0F0FC60B12846A4
:1079700000F02EF840B10548294600EB8400BDE830
:107980007040183003F0C1B9002070BD5C270020A2
:1079900070B5054614460E46084608F0D7FC002888
:1079A00012D0284600F014F800280DD007482946C8
:1079B00000EB860018301CB1BDE8704003F0B0B990
:1079C000BDE8704003F061B970BD00005C27002085
:1079D000142801D3002070470146014803F095B9EF
:1079E000602700207CB5054608880C460930904287
:1079F00001D90C207CBD68466DDF0028FAD12188B2
:107A00000820685420881B21401C80B22080295403
:107A10002088401C80B220802844DDF801100160DD
:107A2000BDF8051081802088801D80B220809DF8DF
:107A30000010490800D0012129542088401C2080D2
:107A400000207CBD10B503F04FFB002809D105488C
:107A50004FF0020C00DF002803D1BDE8104003F016
:107A6000A9BB10BDD42A002020B1034908600348F7
:107A700006F0E8BF0E20704700230020B1DE0200B0
:107A800010B54FF0FF3100203DDF00280BD1B121B0
:107A90003CDF002807D104484169012088470220C3
:107AA00004F0A2FC002010BDB82A002010B5064C3E
:107AB000206841690020884706F0CAF821680861FB
:107AC00001F0ECFF002010BD0023002010B588B0AD
:107AD000044620216846FEF7E2FC0420ADF80000D1
:107AE00020788DF802009DF80D00172140F0280045
:107AF0008DF80D000120ADF804108DF81000022162
:107B00008DF813108DF812108DF80C008DF81100FF
:107B10006088A21D694600F0BDFE08B010BD0000DF
:107B200010B5184C86B01ECC8DE81E0050B1164C16
:107B30004FF6FF71A18000680021606161762176B7
:107B400018B104E00E2006B010BD104860610E4868
:107B5000FFF78AFF0028F6D101208DF812004FF6BA
:107B60005960ADF81000A21C04A90120A8DF00286C
:107B7000E9D10549684662DF0028E4D10248FFF7F1
:107B8000A5FFE0E7300B0300B82A0020018F0200B8
:107B900010B500280FD00188214C502926D00BDCCD
:107BA00010291DD0112906D1A1888088814202D1D7
:107BB0004FF6FF70A08010BD512913D05329FAD180
:107BC000C088E1888842F6D1607E0028F3D0FFF7B4
:107BD0006DFF0028EFD06169BDE810400220084722
:107BE0008088E7E7BDE8104005F0EABA30F8061FE4
:107BF00062899142DFD141890229DCD10C3000F049
:107C0000F3FA0849084A2076891AC908032202EBC8
:107C100001430246BDE8104004A1184604F00CBA26
:107C2000B82A0020A82403001824030052656365C5
:107C30006976656420696E6469636174696F6E203A
:107C400073746174652025640000000070B50546FA
:107C5000007B0424012810D00224287B214600F058
:107C600051F80C4C18B120684169032088472068FE
:107C70004169BDE870400220084701F069F9002819
:107C800007D0112803D00F28E7D10724E5E7062401
:107C9000E3E770BD0023002070B5184900250A688D
:107CA000002A2AD04A68002A27D0012608319047A6
:107CB000082822D0124C0028206810D045768576FE
:107CC0000621012000F01EF818B120684169032048
:107CD000884720684169BDE8704002200847467621
:107CE00085760121084600F00DF8002805D02068AF
:107CF0004169032088472068457670BDD42A00205A
:107D00000023002086B00323ADF8003020238DF837
:107D100014308DF8150000220E48019202928DF861
:107D20001610C188ADF8041002218DF8061005A9BF
:107D30000491ADF80820CDF80CD0808801A9AEDF01
:107D4000002804D1BDF80010032900D00C2006B093
:107D500070470000B82A002030B51F491F4B01258D
:107D60000322C91AC9088BB002EB014478B101287B
:107D700025D0194A1946511AC908012202EB0142BD
:107D800002281FD0032810461FD015A11EE0204650
:107D90001DA104F04DF96846FEF730FF8DF8005044
:107DA00069462548FFF7CAFB00212448FFF778FD04
:107DB0000246204622A104F03FF90BB030BD204618
:107DC00025A103E010462DA100E03BA10BB0BDE8CA
:107DD000304004F02DB90000A8240300182403004B
:107DE000556E6B6E6F776E206576656E7420667269
:107DF0006F6D20626C655F6466755F627574746F29
:107E00006E6C6573732E0000446576696365206946
:107E10007320707265706172696E6720746F20657F
:107E20006E74657220626F6F746C6F61646572202E
:107E30006D6F64652E00000048240020B98E02009A
:107E4000446973636F6E6E65637465642025642096
:107E50006C696E6B732E00004465766963652077EC
:107E6000696C6C20656E74657220626F6F746C6FE4
:107E700061646572206D6F64652E000052657175D6
:107E800065737420746F20656E74657220626F6F05
:107E9000746C6F61646572206D6F646520666169E2
:107EA0006C6564206173796E6368726F6E656F755F
:107EB000736C792E00000000526571756573742033
:107EC000746F2073656E64206120726573706F6ECD
:107ED000736520746F20636C69656E7420666169D8
:107EE0006C65642E0000000038B504460088212827
:107EF0001CD013DC102822D1072000F0E1FA08B1D1
:107F0000FEF74CFF1048A1880180104803F064F888
:107F1000002814D0BDE83840FEF740BF3B280FD002
:107F200056280CD1A088132176DFF1E700200090BD
:107F3000A08869468FDF002801D0FEF72FFF38BDEB
:107F4000A088132176DFE3E7202200203C240020D4
:107F500010B51A4C0188606810290ED011292BD158
:107F6000401E606028D1FEF72EFE002824D0216834
:107F7000002921D0BDE810400847D0B900210122D6
:107F8000084600F07BFA08B107280FD1072202212A
:107F9000012000F073FA08B1072807D1042202215A
:107FA000002000F06BFA20B1072802D0216801B14F
:107FB00088476068401C606010BD000038220020C7
:107FC0002DE9F04701883B4E40F2F3194FF6FF755B
:107FD00010291BD011293ED0122954D0502946D146
:107FE000C188F289841D914241D1618902293ED123
:107FF0008688304602F076F8050038D004F10C008F
:1080000000F0F6F8A8B3294630464EE0C17B8788D9
:10801000044601292BD1A846284602F063F8050042
:1080200017D02F8000202872234843464A46016813
:10803000C5F80A104068C5F80E0004F1100105F1FA
:108040000A0002F00FF96872F08900280FD1294662
:108050002AE0042013E0808802F044F8040006D0EF
:108060006068FEF76FFF08B107F012FA2580BDE8DF
:10807000F087FFE76868FEF765FF0028F7D0BDE8E6
:10808000F04707F005BA87880646384602F02AF816
:108090000400ECD02B464A4606F1080104F10A0020
:1080A00002F0E0F8607221463846BDE8F04700F083
:1080B000B7BD000040270020402200202DE9F04FEE
:1080C0000746858802883D48012197B08346102ADB
:1080D00009D0112A49D01A2A6CD1387AB1EB101F75
:1080E00045D2012244E0354C083CA068C0430B90C7
:1080F00061680BA802F02DFE0B990CA800F02AFD78
:108100002C220CA96846FEF7B1F90026E946A046E4
:1081100010E000BF09EB46005FF00004B0F804A0D7
:1081200008EB84005146001D02F0AFFD641C1D2CBD
:10813000F6D3761C0098B042ECD8142D05D317B0B6
:108140000420BDE8F04FFEF729BE2946584602F04C
:10815000E7FD294608F1040002F0E2FDF87B012862
:1081600028D016482946001D15E029461AE00022AD
:108170000221B1EB101F01D2012600E000260F49B9
:10818000083901F11000041D294682B102F0C8FD32
:1081900036B12946204617B0BDE8F04F02F0C0BD09
:1081A0002946204617B0BDE8F04F02F06EBD02F040
:1081B0006CFDF5E717B0BDE8F08F000064270020E4
:1081C00010B504460748007800280AD0204601F080
:1081D000B7FD204607F002FB2046BDE8104001F045
:1081E00025BB10BD742200200078C0F3400070470A
:1081F000007800F0010070470149085C70470000FA
:1082000068090300084908B5085C0090684603F057
:1082100085FCD0F810050099C84010F0010000D08E
:10822000012080F0010008BD680903002DE9FC4130
:108230000646C0074FF000050ED0104F0024012263
:10824000385D009500231146019503F0B3FB641CD3
:10825000042CF4D300F04EF8B0070DD5074E0024DF
:10826000361D0022305D032300951146019503F071
:10827000A1FB641C042CF4D3BDE8FC816409030059
:10828000094908B5085C0090684603F047FCD0F83F
:108290000425009B0121994021EA0203C0F808351A
:1082A0001140C0F80C1508BD640903000249085CC0
:1082B000012103F08ABC0000640903000249085C44
:1082C000002103F082BC000064090300084908B5DE
:1082D000085C0090684603F021FCD0F80405009982
:1082E000C84010F0010000D0012080F0010008BD5E
:1082F0006409030010B500242046FFF7D7FF641C73
:10830000042CF9D310BD10B500242046FFF7D6FF8A
:10831000641C042CF9D310BD10B50246064B4FF077
:10832000FF3000215C5C944201D1084610BD491C1D
:108330000429F7D310BD00006809030070B50C4E86
:108340000C004FF0000530600BD0012000F06AF8FF
:1083500008B1022004E0002000F064F800B10B2016
:108360002070706810B9FEF72EFC0546284670BDD7
:108370003822002010B5002000F0DCF908B10628F2
:1083800006D1012000F0D6F908B1062800D100205E
:1083900010BD00002DE9F0470D468146FFF7BCFFF8
:1083A0000446042836D2DFF874801B481C4EA8F11E
:1083B0000C0725B3012D0ED0022D2BD104EB440068
:1083C00030444578002D25D0B968002922D02846B0
:1083D000BDE8F047084704EB4401755C0E44717832
:1083E00049B10E4A4FF40041093A8068FEF766FD34
:1083F00008B987F80390B17808F80410E2E78068BC
:10840000FEF7A0FD04EB4401314418F804008D7818
:10841000A842D7D0BDE8F0876C09030034220020C1
:10842000E0260020042801D2FFF7ECBE00207047B0
:108430000146104810B50088042907D007290ED03E
:108440000A2915D1BDE8104007F0B2B9132176DF33
:108450000CE000280CD0BDE81040FEF79FBCA0F552
:108460007F41FF3904D10448FFF7A2F80828F0D172
:1084700010BD0000202200204824002070B50023F9
:10848000042810D20D4D00EB4004012A02D101292D
:108490000CD00022094E00EB4000304461B10129AC
:1084A00006D0022906D00723184670BD0E30C2B28E
:1084B0002A55F9E74270F7E78270F5E7E0260020D9
:1084C000044A014600201279D20702D0084600F083
:1084D0004DB870472822002070B506461E4800247B
:1084E000C0E90161B00720D50025012211462846C8
:1084F000FFF7C4FF6D1C0446042D02D2002CF4D0FB
:1085000013E094B940F2666204211448FEF7C8FBF8
:1085100004000AD1FEF7B2FB040006D10F48104A4E
:108520000021001FFEF78EFC0446F00712D0012048
:10853000FFF77CFE74B909480A4A00210C38FEF79F
:1085400081FC040006D10548074A01210838FEF7DE
:1085500079FC0446204670BD2822002078090300DB
:1085600001880200F9A202006B6C02002DE9F05FA5
:108570006E4C054600266078B34618B184F801B009
:1085800001F0A2FE6A4F4FF47A694FF4C87A4FF0B7
:108590000108182D69D2DFE805F00C131338475491
:1085A000696E727B727BC58484848484B3B6B9BCE3
:1085B000C5C501F089FE3868FEF7C4FC06465CE0DC
:1085C0000020FFF783FE00284FF0000008D0FFF7DF
:1085D0006DFE022D02D14FF4E16008E0484606E04E
:1085E000FFF76CFE022D01D1C82000E05046410C7F
:1085F000C0034FF4FA72801841F100012570520057
:108600000023FDF7EFFE01462AE00020FFF75EFEA3
:1086100000284FF0000004D0FFF748FE4FF44870E8
:10862000E5E7FFF74BFEDFE70020FFF74FFE0028EE
:108630004FF0000002D0FFF739FECFE7FFF73EFE14
:10864000D4E70020FFF742FE00284FF0000002D0E0
:10865000FFF72CFE01E0FFF731FE257041F69A117D
:1086600000223868FEF72AFC064646E00020FFF7A5
:1086700007FE257008E0002051E025703DE084F8F9
:1086800001800120FFF7FCFD002240F6CD41E8E724
:1086900084F801800120FFF7F3FD00224FF48041B0
:1086A000DFE77868FEF74EFC0646D5F1110000D0F2
:1086B0002EB10220FFF7FAFD84F802B01DE0012878
:1086C00016D980B2C8214843C117C90341EA5041B5
:1086D000C0034FF4FA72801841F1000152000023E8
:1086E000FDF780FE014600227868FEF7E7FB0646AC
:1086F0000220FFF7E3FD84F802803046BDE8F09FDA
:1087000001F0E2FDB9E701F0DFFDB4E701F0DCFDC7
:1087100004E001F0D9FD0020FFF7D0FD0120FFF7B4
:10872000CDFDAAE7FFF7EFFDA7E700002822002014
:108730006C090300012107F0A1BE00002DE9F843F8
:108740000546861C00208DF8000090460F464FF02D
:1087500001096846FEF706FC1B4C20683860D4E926
:108760000001401AA16804F21C47081A0EE001211A
:10877000384602F0E8FA01F0CDFF0146384602F033
:10878000E2FAD4E90001401AA168081A401C8642A6
:10879000EDD8B8F1000F03D0052065F3891002E091
:1087A000062065F39F50A2682168114004EB810107
:1087B000C8602068304420609DF80000FEF7F6FB9A
:1087C0004846BDE8F88300008C30002030B4826851
:1087D0000468531C8360A154D0E901128A4202D379
:1087E00030BC02F0ACBD30BC70470000034803C889
:1087F000814201D101207047002070478C30002059
:1088000000780221FFF7C6BD032805D10349A9203E
:108810000860002003F0E8BD70470000200500401C
:1088200005494FF0FF32082841F8202002D30844C0
:1088300080F8582070470000342B0020F0B54FF02E
:10884000FF3512B10023082601E008230C260C4C4A
:1088500005E000BF54F823707F1C04D05B1CB342BA
:10886000F8D32846F0BD26185DB286F8305044F89B
:108870002310002AF5D1E11881F85800F1E7000033
:10888000342B00200249084490F930007047000062
:10889000342B00202DE9F0438146887891B0904632
:1088A0000C4600B901208DF83E002088ADF83C0050
:1088B00000250095607C694606F024FF6E46A07C8A
:1088C000711C06F01FFFE07B00289DF8020002D01B
:1088D00040F0080001E020F008008DF80200217C43
:1088E00011B140F0100001E020F010008DF80200FE
:1088F000217B11B140F0010001E020F001008DF872
:108900000200217D09B1022100E0012161F3420052
:108910008DF802001C2102A8FDF7C1FD607BC10695
:1089200001D4800617D50E950EAFE07C791C06F0B9
:10893000E9FE9DF83800079720F00F00401C20F05A
:10894000F00010308DF838009DF83A0020F0060055
:10895000801C8DF83A00607B8DF80800A07B8DF8B4
:108960000900142109A8FDF79AFD0FA8CDE9090611
:10897000A088ADF83000A06820B1E088ADF82C00E8
:10898000A0680D90A06998B301950088ADF810001B
:10899000A06901AD01A94088ADF81200A069406846
:1089A00006950390A069007B06F0ACFEA069691CE7
:1089B000407B06F0A7FEA069807A00289DF806009B
:1089C00002D040F0080001E020F008008DF8060019
:1089D000A169C97A11B140F0100001E020F0100047
:1089E0008DF80600A169097A19B140F0010002E092
:1089F0000DE020F001008DF80600A169897B09B126
:108A0000022100E0012161F342008DF80600E069D7
:108A100000B10590434609AA02A94846AADF11B051
:108A2000BDE8F08370B504464FF6FF750A46284648
:108A3000AC4209D14FF480742146104602F040F94F
:108A400080B2A0420BD070BDFF2CFCD8214610464E
:108A500002F026F990F0010F01D0204670BD2846A3
:108A600070BD000070B5084C050009D010342168B5
:108A7000002907D008682060496828468847F6E73B
:108A80000834F4E770BD0000202B0020054A0121C6
:108A900020B1012805D19170FFF7E4BF517000208B
:108AA000FAE77047202B00202DE9F05F2648416847
:108AB000F1B3DFF898B00E688146DBF800408768B4
:108AC0008078E11B21F07F45ED1CB0B9DFF8808094
:108AD0004FF48030C8F84403C8F804031120FDF7B0
:108AE00025FE1120FDF72DFE4FF0010AC8F800A069
:108AF0002F2003F049FF89F802A0B54200D2354685
:108B0000124BE8193C3320F07F401860DBF800106E
:108B10005A46091B21F07F41001B20F07F40C91CF1
:108B200081420FD9106818602F2003F02DFF00E05C
:108B300004E0BDE8F05F1120FDF70EBEBDE8F05F78
:108B400006F09EBABDE8F09F4823002004150140BE
:108B50000010014073B58CB00646002000900D98BF
:108B600080B100246D4621460DA802F0CEF830B148
:108B7000009805EB400084800098401C0090641C25
:108B8000142CF0D32C2269463046FDF76FFC0EB052
:108B900070BD2DE9F04117880646B81D14460D46F4
:108BA000984202D90C20BDE8F081318807220629BD
:108BB0000AD34FF4486C4FF6FF73614501D99942CF
:108BC00002D17088062801D21046ECE7604501D931
:108BD0009842F9D1994203D0984201D08142F3D80A
:108BE0000520E85520881221401C80B2208029549D
:108BF0002088401C80B220804119308807F0ECFAB0
:108C00002188084480B220804119708807F0E4FA76
:108C10002188084420800020C5E7FEF7BFB8000087
:108C200038B54A7A0F4B62B100220A72596900299D
:108C300006D001228DF80020ADF802006846884772
:108C400038BD0A7A62B19B684C68024619462046D4
:108C5000FEF734F90028F3D0BDE8384006F018BC20
:108C60005B68F1E740270020F0B587B016460F4655
:108C700004461D4618220B496846FDF7F7FB0A48D3
:108C80008DF80870ADF80240ADF80A608DF80C5010
:108C9000017800222046FEF77BFE684600F0BAFA13
:108CA00007B0F0BDEC0A0300E0220020FDF7C8BECB
:108CB00070B588B00646002005900690ADF81410F7
:108CC000ADF816100190029001AA05A9304690DF78
:108CD000050021D003F0FCFD03461148114932463E
:108CE000401AC108012000EB014004460E4903F080
:108CF000AAF9BDF8042012B9BDF8060028B1BDF8E4
:108D00000630204609A103F09EF9BDF808201AB1EB
:108D10002046164903F090F908B0284670BD0000BF
:108D20003024030018240300B411030054686520A4
:108D30007265717565737465642054582F5258209C
:108D40007061636B6574206C656E6774682069730D
:108D500020746F6F206C6F6E672062792025752FED
:108D60002575206F63746574732E00000012030074
:108D700070B504460948012102F000F8BFF35F8F87
:108D80000025002808D1204601F03EFC002803D130
:108D9000BFF35F8F0148056070BD000054220020C2
:108DA0007FB50C4610B1012004B070BD20790026BB
:108DB00038B141F61D5501281BD0022826D00F20BE
:108DC000F2E70220207102960396E068019069465E
:108DD00001A806F079F850B102988188E1800088F6
:108DE0002081BDF80010029806F0ECF8DCE70A20BC
:108DF000DAE70A4B6A460021A01D06F021F838B1D7
:108E0000064918398E61CE610A28CDD12846CBE7B4
:108E100002488188019806F0D5F8F5E77423002010
:108E20002DE9F0470025DFF88C803CE060680021E8
:108E300000EBC506012032789146FDF704FBD4E92A
:108E4000062300EA020701EA030C57EA0C0728D0C0
:108E500082438B434846C4E9062303F053FE32782D
:108E60008246914601200021FDF7EDFAD4E9042362
:108E700000EA020401EA03074A4650460021FDF7D2
:108E8000E2FA44404F403C430BD17078012801D0B6
:108E9000012100E00021726881EA0A010AB1484616
:108EA00090476D1CEDB298F8000044468542BDD352
:108EB000BDE8F0872823002030B40446132176DF74
:108EC00003000BD0064807492246401AC008022179
:108ED00001EB004030BC044903F0B5B830BC70472A
:108EE000A824030018240300E80E030010B5002195
:108EF000024801F043FF80F3100010BDA8340020A9
:108F0000704700000E4910B50A784C780023A24241
:108F100012D0521CD2B20A70022A00D10B70084A39
:108F20000B780C3252F8232002608868104420F03D
:108F30007F408860012010BD0360002010BD00004C
:108F40004823002013460A460021FFF78DBE00008B
:108F500070B517481749401AC508032000EB0540B3
:108F600015A103F065F81E4E3068807E28B1BDE87B
:108F7000704006210120FEF7C5BE06F047F8002824
:108F800015D11848A0F10C010A68011F9047040090
:108F90004FF0010002D00F2C03D007E03168887633
:108FA00004E000EB0540104903F042F8204670BD94
:108FB000A82403001824030057726974696E67209F
:108FC00070656572206461746120746F20746865D7
:108FD00020626F6F746C6F616465722E2E2E0000BC
:108FE00000230020E02A0020C01B03002DE9F843E5
:108FF000104D0F4680461E4691466946286801F08E
:1090000018FE040014D01C21FDF749FA012020713C
:10901000C4F81490380BC4F80080C4E902606946B3
:10902000286801F027FE05F077FE0020BDE8F883F0
:109030000420FBE7F00B030010B503780022072B98
:1090400006D2DFE803F005040610202930000A707C
:1090500010BD01230B7003898B818388CB81C0688D
:1090600088600A7410BD02220A7002898A8182888F
:10907000CA81C2688A60807D062802D000200874F8
:1090800010BD0120FBE703220A70C2888A81028991
:10909000CA81C068886010BD04230B70C0888881B5
:1090A000CA818A6010BD0520087010BD70B5064DDC
:1090B0000646002455F8241009B130468847641C40
:1090C000042CF7D370BD0000442D002030B50446B9
:1090D000006887B00D46806800281FD018216846B8
:1090E000FDF7DDF90195A0680590207910B1012800
:1090F00010D107E001208DF8000020690290E0689F
:10910000039005E002208DF80000E0680003029063
:1091100060690490206881686846884707B030BD60
:109120002DE9F04186B016460C00804629D0112C5E
:1091300027D0082C25D018216846FDF7B0F9ADF8E6
:109140000280404600F020FFADF804001B481C4997
:109150000027401AC5080D2C16D0204603F0B8FB96
:109160000246012000EB05404346164902F06BFF22
:1091700007208DF8000002948DF80C70684600F00E
:1091800057F806B0BDE8F081022000EB05404246EA
:109190000D4902F051FF03208DF8000026B1307810
:1091A000C00701D0012000E002208DF8080041F244
:1091B00001108DF80C70ADF80A00DFE760240300A1
:1091C00018240300541B0300441A030010B504467E
:1091D000408800F0D9FEA080024801682046BDE822
:1091E00010400847502200202DE9F0410746002496
:1091F000064E074D05E000BF56F824103846884754
:10920000641CE8788442F7DBBDE8F0816C2A00201A
:109210007422002010B50446408800F0B5FEA080FE
:10922000024801682046BDE810400847A00A030034
:1092300001490968084700002C0B030070B586B08F
:10924000044618216846FDF72AF9A0890125A0F5F2
:109250004040ADF804002078324E062835D2DFE8D1
:1092600000F0340303032E4EA08900F08BF930B9CF
:10927000E08943F6FE71A0F54040884225D8A07BE6
:109280008DF808002078032811D000208DF80900FF
:10929000A0680390606860B109208DF800006068E4
:1092A00004908DF81450684604F0A6FA0DE00120F1
:1092B000ECE708208DF800008DF81050F3E7A08946
:1092C00000F060F908B1E08930B17078002801D071
:1092D00004F0DCFB06B070BD606840B10B208DF877
:1092E0000000606802908DF80C507570DBE70A2072
:1092F0008DF80000BDF8040004F064FCF5E7606838
:1093000058B114208DF80000606802908DF80C5060
:109310004FF6FF70ADF80400C5E713208DF800008C
:10932000F6E700006022002038B504460E480078B9
:10933000A8B1A4F57F40FF380FD0684605F01EFCA9
:1093400078B10521017001210171C480684605F0E2
:1093500023FC05F0D3FC002038BD042038BD0220DA
:1093600038BD082038BD00007C2300200C4808B51B
:10937000007888B1684605F001FC78B106210170DB
:10938000684605F009FC0748017809B1012101731D
:1093900005F0B4FC002008BD022008BD082008BD6F
:1093A0007C230020082E0020F0B587B014216846E9
:1093B000FDF775F82B4C207818B16846FFF776FE5C
:1093C0004EE0201D01F0BCFCB8BB4FF010204169FD
:1093D0000004026940694B1C01D100FB02F12248E4
:1093E00000220161A1F54051C160204902F03CF921
:1093F000002820D11F481C238C221D49006801F041
:1094000005FC03F08BFF051E14D0022812D00027A4
:109410000126062D12D005A805F0B0FB88B1067014
:109420000C2D18D2DFE805F0170F170F17161716B7
:10943000171113110B2007B0F0BD11E02670676003
:10944000BBE70820F7E7077105E0032100E00221F0
:10945000017100E0067105A805F09EFB05F04EFCC9
:109460000020E8E77C23002014240020000C0300E7
:10947000542D0020680B030038B5040014D0694651
:1094800005F022FDA0B1BDF8000000EB8001094805
:1094900000EB8100C16849B1A17A39B1C168491EA8
:1094A000C1600020A07238BD052038BD062038BD3F
:1094B0000A2038BDE02D00201FB501A9684605F03F
:1094C000BFFC04B010BD07B513460A46694600202C
:1094D00005F0B6FC0EBD07B513460A4600216846E6
:1094E00005F0AEFC0EBD20B119B100680860002087
:1094F0007047052070470000F8B50D46040018D0ED
:10950000BDB1694605F0E0FCA8B1BDF800000B490B
:1095100000EB800001EB800001210C30666801F057
:1095200012FC2E6060680C3068600120A072002080
:10953000F8BD0520F8BD0A20F8BD0000E02D002090
:1095400018B10323002207F0E5B805207047022375
:10955000002207F0DFB80000084910B50A69042AA4
:109560000AD0074A096942F8210004480121103055
:1095700001F0E9FB002010BD0C2010BD5C23002091
:10958000442D002043F6FE71A0F54040884201D8EA
:10959000012070470020704710B504460078182855
:1095A00002D1FEF7D1F9207010BD10B50446007845
:1095B000182802D1FEF7C8F9207010BD70B50D460D
:1095C0000446B0F83812D0F834020122FDF701FF4A
:1095D00000B1057004F13C0204F50D7104F1540072
:1095E00072DF70BD70B5134600220546112900D107
:1095F0000122074C33B12179FEF7CAF900226178C4
:10960000284600E06178BDE87040FEF7C1B900006F
:10961000E8220020F7B517460E0011D0009800256B
:1096200060B100242146684601F06FFB18B1A0B27A
:109630003946B0476D1C641C142CF3D32846FEBD7C
:109640000020FEBD406805F0B9BA000070B508B151
:10965000012070BD194C0025207B08B1257301E065
:1096600000F0A0F82078082826D2DFE800F02504D2
:10967000080C10251420BDE8704000F021B8BDE8AA
:10968000704000F07DB8BDE8704000F05FB8BDE804
:10969000704000F03BB86088084900EB8000283932
:1096A00001EB80004068BDE8704003F017BE6560C4
:1096B000BDE8704003F020BE0F2070BD082E0020D2
:1096C0001149F0B48A1C00200346A1F128050C18AA
:1096D000A67A4EB1A37200EB800405EB8404E66821
:1096E00016B9247C012C0AD0401C80B20228EED38B
:1096F0000B704B804B60F0BC41F61D5070471080E2
:10970000F0BC00F03DB80000082E00200C48418855
:1097100001EB8102A0F1280101EB8201CA6852B17C
:109720000521017007480221818001680023012280
:10973000054801F0FDBE042202704968F6E700000A
:10974000082E0020842300201424002038B50A4964
:10975000084803240B684268898803EB8101538819
:109760000470DB1C00201B0400909B0B034802F0DC
:1097700033F838BD082E0020842300201424002054
:10978000074910B54888091D05F0EEFB18B1BDE882
:109790001040FFF7DBBFBDE81040FFF7B7BF000088
:1097A000082E0020F0B51F481F4901250678022425
:1097B0008B88A0F12802082E19D2DFE806F00418E1
:1097C000181B222F2F170189491C0181002141807C
:1097D00080F80C1001EB810312F8233043B1002311
:1097E0004418491C89B2A3720229F3D30570F0BD55
:1097F0000123F5E742685288D21C1A448A8004701B
:10980000F0BD46880D6806EB860602EB86025668B8
:109810000E60556013818C80062100E007210170E5
:10982000F0BD0000082E00208423002030B5018800
:109830008488224D87B0502924D0522902D054293F
:1098400031D103E0204600F083FE2CE018221C49B1
:109850006846FCF70BFEADF80240204600F094FB92
:10986000ADF8040000F002F9002229792046FEF745
:109870008FF80022E9782046FEF78AF86846FFF75D
:10988000A5FC10E0017B01290DD1817A01290AD1C3
:109890000089A0F52451023905D10121204600F0AC
:1098A000ABFE06F009FD00220649A878FEF702F893
:1098B00007B0BDE8304005F03BBE00004822002064
:1098C000E0090300CD70020010B5044600780028BE
:1098D0000FD1608800F03CFE608800F097F9002806
:1098E00007D0044960880122C978BDE81040FEF71E
:1098F0004FB810BD4822002070B5174C00252570C8
:10990000FEF722F86070FEF71FF8A070FEF71CF853
:10991000E070FEF719F8207162780121182A0FD043
:10992000A278182A0CD0E278182A09D0182807D073
:1099300004F10C000560BFF35F8F2170002070BD43
:109940000648074A801AC00801EB0040054902F0AA
:109950006FFB032070BD0000482200201824030084
:10996000182403002C0F03007CB504460078082857
:1099700033D1607A38BB207A1A4E4FF6FF75012832
:109980000DD0072802D0082827D11DE0A08800F0BC
:1099900045FAA84221D0012100F02EFE1DE0A0884A
:1099A0006A46012103F04AFE68B90198007850B177
:1099B000A08800F033FAA8420FD00122F178FDF719
:1099C000E7FF05F0B5FD08E0F068012805D1BFF319
:1099D0005F8F044900200C310860BDE87C4006F030
:1099E0006BBC0000482200202DE9F0418046024671
:1099F00001200021FCF727FD1A4F05460E46786826
:109A0000FDF7A0FA00280CD1174CD4E90621104626
:109A10002A4001EA06031A4305D0A843B143C4E92A
:109A20000601BDE8F081404603F06CF830B1D4E99E
:109A3000040128433143C4E9040105E0D4E90410DA
:109A4000A943B043C4E90410D4E9060128433143D3
:109A5000C4E90601A1687868BDE8F0410022FDF77D
:109A60002DBA0000500B0300282300201CB5054A26
:109A7000D2E90212CDE900120022694603F0A4FFE8
:109A80001CBD0000FC09030003484FF6FF718180F4
:109A900001210170002070475822002010B54FF6B8
:109AA000FF7003F021FF03498880BDE8104005F0F6
:109AB00049BD0000582200202DE9FC41804600F0FD
:109AC00063FA002403250127A0F57F412646FF39CC
:109AD00008D06A46082103F0B1FD18B90198841D29
:109AE0008688056832462B4621464046B1DF042869
:109AF00004D0082804D00B2808D002E0112000E090
:109B00000020002F00D10B20BDE8FC810027A80712
:109B100001D50125E6E7344303D00024264603257A
:109B2000E0E7064806494246401AC008012101EB19
:109B30000040044902F080FAE5E700002024030019
:109B4000182403003C1103002DE9FC41804600F07D
:109B50001BFAA0F57F410646FF390ED001252A46A3
:109B60006D1C0027ADB26B460821304603F0B0FDF6
:109B7000040006D0072C33D033E043F20200BDE8E6
:109B8000FC81019903230A1D0B604046891DB2DF49
:109B9000040004D00C2C09D0052C09D009E0324671
:109BA0000821104603F00CFE04461AE0012700E0ED
:109BB00000240821304603F0F9FD70B102F088FE60
:109BC0000346094809493246401AC008012101EB01
:109BD0000040074902F037FA0324002FBFD100E00C
:109BE0000C242046CBE700002024030018240300A7
:109BF000BC10030004488088A0F57F41FF3901D0E4
:109C000005F0A0BC70470000582200200EB502A944
:109C1000019100F0B9F96A46012103F00FFD08B186
:109C200000200EBD019800780EBD00002DE9F04126
:109C300007464FF6FF761048B3DF78B102F048FED2
:109C400002460E480E49401AC008012101EB0040AF
:109C50000C4902F0F1F90320BDE8F081064C43F213
:109C60000305A41E324661883846AFDFA842F3D10F
:109C70006088401C6080F5E75A2200202024030001
:109C80001824030070100300428800EB82020C329B
:109C90008A4201D9022070478188A1F57F42FF3AAC
:109CA00003D0008808B10020704701207047884227
:109CB00004D20068401C01D001207047002070478A
:109CC0003EB5027802230C46B3EB520F17D1B0F821
:109CD0000110ADF80010C1788DF802108188ADF840
:109CE000041080798DF8060002AA01A92046FCF72D
:109CF00093FF032202A96846FCF7E3FB08B10020AA
:109D00003EBD01203EBD000070B50D46044614283E
:109D100010D2FDF75DFE68B1084904EB840001EB49
:109D20004000D0F802102960C188A980007AA8718B
:109D3000002070BD43F2020070BD0000D427002057
:109D400070B5018892B0102961D1011D2C2268469E
:109D5000FCF78CFB9DF804004FF6FF760321344698
:109D6000B1EB500F2BD003F0EDFD9DF804006D46D4
:109D700040080ED001280CD0022820D118E00D99FF
:109D8000281D1131FCF7FAFE18B100BFBDF82C40B8
:109D900015E00CAA0BA9072003F0A8FD0028EED1BE
:109DA0000DE00D99281D491CFFF78AFF0028EDD111
:109DB0000CAA0BA9072003F099FD0028F1D1BDF8EA
:109DC0000000B44200EB8001124820F8114000EB83
:109DD00041000199C0F80210BDF80810C1809DF83B
:109DE0000A10017213D0BDF80000ADF82E0000205B
:109DF000ADF83040084E8DF82C000BAD044600BF86
:109E000056F8241028468847641C022CF8D312B058
:109E100070BD0000D4270020100A03002DE9F04196
:109E20004FF6FF760546B04213D00B4F002400BF1B
:109E300004EB840037F81000A84206D12046FDF755
:109E4000C7FD10B12046BDE8F081641CA4B2142CFB
:109E5000EED33046F7E70000D42700203EB50C468D
:109E6000054603F06FFD0BE0BDF80000A04207D0EF
:109E70002846029900F00EF810B1BDF800003EBD72
:109E800001AA6946072003F031FD0028ECD14FF606
:109E9000FF703EBD2DE9F0410C46054600F111076B
:109EA00001F111061022491C401CFCF70AFB48B9BD
:109EB000681C00F0F9F928B1601C00F0F5F908B150
:109EC000012400E0002431463846FCF757FE3B7879
:109ED0000222B2EB530F0CD00321B1EB530F08D089
:109EE0003378B2EB530F04D0B1EB530F01D0012103
:109EF00000E00021084201D18C4302D00120BDE8DE
:109F0000F0810020FBE7018811B9421892780AB16C
:109F100001207047491C0829F7D30020704710B56D
:109F20000C460346FFF7EFFF00280AD01888218867
:109F3000884205D10822A11C981CFCF7C2FA08B17E
:109F4000002010BD012010BD142804D2024A00EBED
:109F5000800022F810107047D427002070B5054605
:109F6000FFF75CFF0446284603F06CFB002808D18D
:109F7000142C06D2034B04EB84024FF6FF7123F836
:109F8000121070BDD427002010B50446142808D242
:109F9000FDF71EFD28B1044904EB840031F81000E0
:109FA00010BD4FF6FF7010BDD42700203EB504460B
:109FB00003F0C8FC0EE0019920464631FFF7AFFFE1
:109FC00028B9019920462A31FFF7A9FF10B1BDF841
:109FD00008003EBD6A4602A9072003F087FC00285E
:109FE000E9D14FF6FF703EBD10B50A4941600A48FD
:109FF00000F0A6FE58B902F0F5FB07491C238C229D
:10A00000087404488C39001F006800F0FFFD002030
:10A0100010BD0000F40B0300B42E00202DE9F04128
:10A020002D4F002518B17D600120BDE8F081087931
:10A03000012258B1294E01280CD0274C4FF00208BC
:10A040000834022821D0032842D128E00A7103F005
:10A0500053F93BE05FF0000000EB800116F821109F
:10A06000022908D0401C80B20228F5D33A707D60E6
:10A0700041F61D50D9E700EB800006F8205006EBB2
:10A080008000406803F02AF920E00D71A4F80480F4
:10A09000002301221248216801F04AFA16E00D71EE
:10A0A000206803F01BF90D4923682831498801EB2A
:10A0B000810206EB8201D1F804C0C4F800C04B60F5
:10A0C000A3880B81A4F8048006F822500028ACD0A5
:10A0D0007D600E20A9E700007C230020E02D0020F9
:10A0E000142400200146034802888A4200D0002040
:10A0F000704700002C2700202DE9FC5F0E008346EE
:10A10000DDE90C47C6F1000098469246814600D42E
:10A110000846012503E000BF90FBFAF06D1C504596
:10A12000FADAA84500D9454624B1002E01DB7807AC
:10A1300000D5641EB80702D5B8F1000F0AD0F807A1
:10A1400008D13CB1A54205D220215846641EFEF735
:10A150003DFBF6E7002E02DA4E462D2102E078079D
:10A1600003D52B215846FEF731FB07F003000228E8
:10A170000BD1B8F1000F08D13CB1A54205D2302176
:10A180005846641EFEF722FBF6E7CDE9004743463A
:10A1900052463146584606F035F8BDE8FC9F0000AF
:10A1A00070B50D46044600684FF4887102F0B0FBAC
:10A1B0004FF49071206802F0ABFB4FF4927120686D
:10A1C00002F0A6FB4FF4A271206802F0A1FB206808
:10A1D0001249C0F804132068690740F30730090EDC
:10A1E000002806DA00F00F0000F1E02080F8141DCE
:10A1F00003E000F1E02080F800142068012140F322
:10A20000073000F01F0291404009800000F1E0207B
:10A21000C0F88012C0F8001170BD000010030200E9
:10A22000024600201268530713D502F003000128EC
:10A2300002D002280CD105E0C2F383100B68801C09
:10A24000184404E00223086803EB925210440860AB
:10A25000012070470248007A002800D00120704792
:10A26000B42E0020F0B58488A518944200D8224668
:10A27000A41AC288D6189A4200D81346D21A4B881C
:10A280000788BB420CD34088834209D88888A04203
:10A2900006D3A84204D8C888904201D3B04201D95D
:10A2A0000020F0BD0120F0BD0021425C0AB1012078
:10A2B0007047491C1029F8D300207047800701D04F
:10A2C00000207047012070470A4810B5807860B1BF
:10A2D000002401E0022C06D02046FDF7E7FF641CB5
:10A2E000042CF7D310BD0324F6E7BDE81040FEF7B9
:10A2F00001B800002822002003480179C90702D0D4
:10A300000078FEF733B9704728220020172101801A
:10A3100041800021017141711B218171C171704720
:10A320002DE9FE4F2E4F984692460D00814601D0F2
:10A3300000260DE0684600F03FFC6A4600214846D2
:10A3400003F0D4F83878009E10B99DF8090098B150
:10A3500052463146484605F0A3FB0446014600221A
:10A360004846FFF73FF90D2C37D008DCA4B3082C82
:10A3700033D00B2C09D130E00520BDE8FE8F112C25
:10A380001ED0A4F54050023827D0204602F0A0FA93
:10A390000246144814494B46401AC008012101EBFB
:10A3A0000040124901F04FFE5FF00305B8F1000FC5
:10A3B00004D0324621464846FEF7B2FE2846DCE786
:10A3C0002A46F9784846FDF7E3FA5246B9784846F6
:10A3D000FDF7DEFA0025E9E7FFE72546E6E700009E
:10A3E000E82200206024030018240300FC1A030064
:10A3F00070B50E460C49154604460978FDF7B0FACB
:10A4000000280FD0204603F017F800282A463146CE
:10A41000204603D0BDE8704003F014B8BDE870409A
:10A42000FEF790BD70BD0000E022002070B5094D20
:10A430000646A978FDF794FA0446E9783046FDF718
:10A440008FFA014622463046BDE870400123FFF7EF
:10A4500067BF0000E82200202DE9F047394E0027B1
:10A4600080463D46DFF8E090D6F804A057E003D0E0
:10A470000446D0F81C8035E099F8002002EB420138
:10A48000521CD2B289F8002009EBC10199F80230C0
:10A49000091D9A4201D189F8005048680A7804469B
:10A4A000012A12D0022A02D0032A3BD108E005F08B
:10A4B0007BFC00B10127257434E00574C06900E01D
:10A4C00070680028F9D170602CE0207C50BB88684F
:10A4D0006060C868A0600869E0604869A061F078C1
:10A4E00000B165606268B168184B501A20F07F4077
:10A4F000984202D2A168084406E0881AA16820F0B8
:10A500007F40814202D9081A206000E02560656022
:10A510000120A56020742046E56105F027FCB8F114
:10A520000000A4D199F8001099F801008142A3D14C
:10A5300017B97168514502D00120BDE8F0870020AD
:10A54000FBE7000048230020102C0020FFFF7F00C5
:10A55000F0B587B00546002718216846FBF79FFF36
:10A56000A5F57F40ADF80250FF3825D02846FFF70B
:10A57000A3FA040022D01B481B49401AC6080B2C22
:10A5800022D0112C1ED0A4F5405002380ED0204607
:10A5900002F09EF90246012000EB06402B461349CB
:10A5A00001F051FD2146284604F07AFF10483A4652
:10A5B00081782846FDF7ECF907B0F0BD0E208DF844
:10A5C00000000BE00127F1E70F208DF800000220CA
:10A5D00000EB06402A46074901F02EFD6846FEF7CB
:10A5E000F5FDE3E718240300182403009C0F030083
:10A5F00048220020F00F03000A4602494978FDF77F
:10A60000C7B90000482200202DE9F041002786B09C
:10A6100080463E46FFF798FA040022D0112C22D043
:10A620001B481C49401AC508862C1ED0A4F5405072
:10A6300002380ED0204602F04BF90246012000EB12
:10A640000540434614A101F0FEFC2146404604F0BB
:10A6500027FF39464046FFF7CFFF06B03046BDE83A
:10A66000F0810126F5E70127F3E718221A49684629
:10A67000FBF7FCFE0220ADF8028000EB05404246ED
:10A6800016A101F0D9FC6846FEF7A0FDE1E7000045
:10A6900018240300182403006773636D5F6C6F63F5
:10A6A000616C5F64625F63616368655F757064615C
:10A6B000746528292072657475726E65642025732F
:10A6C00020666F7220636F6E6E5F68616E646C658A
:10A6D0003A20256400000000B0090300466C617355
:10A6E000682066756C6C2E20436F756C64206E6FED
:10A6F000742073746F7265206461746120666F7278
:10A7000020636F6E6E5F68616E646C653A202564CD
:10A71000000000002DE9FF410026234800F00DFB5A
:10A720002148001F074600F008FB204C606800909D
:10A73000A56800E000986946284004EB80000C30D2
:10A74000FFF76EFD0028F5D101AA009901EA050383
:10A7500004EB8303491CDB6842F82030401C009165
:10A760000228F2D3019800F0030001280BD0022840
:10A7700010D10198032101EB90500099BDF80A60B7
:10A7800001EB900005E00198BDF80A60C0F383106A
:10A7900008440090384600F0CDFA08B10098606097
:10A7A00004B03046BDE8F081A43400208C30002095
:10A7B000ACB04FF40041002001F0B6FC08B1FCF74A
:10A7C000EDFA01F00DFBFDF73DF908B1FCF7E6FAF3
:10A7D000FCF74AFB08B1FCF7E1FA01F0BBFD08B158
:10A7E000FCF7DCFA67490320FDF776FE08B1FCF7B9
:10A7F000D5FA69460020FDF7A1FD08B1FCF7CEFAB5
:10A800009DF8000002287DD05FF0000501F09EFF5A
:10A8100008B1FCF7C3FA002469460120009401F056
:10A8200025FE08B1FCF7BAFA684601F09FFE08B1B0
:10A83000FCF7B4FA03F01CFA9DF8080052A120F0CE
:10A840000F00401C20F0F00010308DF8080011229D
:10A8500002A87CDF08B1FCF7A1FA00945020ADF803
:10A860000000A0200194ADF80200ADF804404FF4C0
:10A87000C870ADF8060068467ADF08B1FCF78EFABA
:10A880000021464800F0EFFA08B1FCF787FAAC2146
:10A890006846FBF704FE02208DF8000001208DF8C9
:10A8A00002000621ADF810008DF803103C48059019
:10A8B0001EA8FCF7A3F93B48299038486946203088
:10A8C000FCF7B6FD08B1FCF769FA344801212030E5
:10A8D000FCF7ABFD344801A9CDE900402F48143006
:10A8E00000F085FB08B1FCF759FA30480090684643
:10A8F000FDF716F908B1FCF751FA1C216846FBF781
:10A90000CEFD00E029E04FF42030CDE900404FF4C7
:10A910007020029026480590032626488DF80C608A
:10A920000690ADF80E408DF810406846FCF774FFB5
:10A9300008B1FCF733FA20482049401AC00806EB5A
:10A94000004004461EA101F073FB65B1204625A11D
:10A9500001F06EFB04F02CF80AE0012556E700BF79
:10A96000FCF71CFA06E00D4803212030FCF73DFE01
:10A970000028F5D101F042FA0028FBD101F012FDC8
:10A98000F8E70000318402004E6F726469635F4231
:10A990007574746F6E6C657373000000282400205A
:10A9A000222200202DD0020039C40200597D02006D
:10A9B00051D002001B8C0200A824030018240300BD
:10A9C000427574746F6E6C657373204446552041F4
:10A9D00070706C69636174696F6E207374617274F6
:10A9E00065642E00457261736520626F6E64732129
:10A9F0000000000070B5144682880E460546208887
:10AA0000111D0144921C994201D8FE2A01D90C2043
:10AA100070BD521C32542088FF21401C80B220801F
:10AA200031542088401C80B220808119288805F08C
:10AA3000D3FB2188084480B22080AA8842B1A9684B
:10AA400041B13044FBF712FD2088A98808442080DA
:10AA5000002070BD072070BD2DE9F047C5881E1D80
:10AA6000B6FBF5F78946B6FBF5F1044605FB176C16
:10AA7000407916686843DDF820A0F718001F874268
:10AA800000D9C61A166001E02468491E0029FBD1CE
:10AA9000A5EB0C078846B74216D818E004EB0C006B
:10AAA000001D09EB0803BAF1000F3A4602D0014637
:10AAB000184600E01946FBF7D9FC2468F61B4FF056
:10AAC000000CB844B54201D9374600E02F46002EAD
:10AAD000E4D1BDE8F087000030B5024651B101F085
:10AAE00041FB0021074C08E034F821301568AB42E7
:10AAF00002D11160002030BD491C8142F4D30520F1
:10AB000030BD000000000000BFF35F8F00F0FDB813
:10AB1000F8B50F46017814460546012901D1687839
:10AB200030B12088821C9A4232D8012902D006E036
:10AB30000720F8BD69780144891C994228D8181A61
:10AB4000801E86B2ADF800602188B81C08446946B2
:10AB50007DDF0028EDD12978022904D06878BDF87E
:10AB60000020904205D3BDF80000B04201D8092072
:10AB70000AE00820012905D16978B14202D8ADF870
:10AB8000001001E0ADF80060BDF80010FE2901D909
:10AB90000C20F8BD2288491CB9542188491C89B26F
:10ABA000218078542088401C2080BDF80010084483
:10ABB00020800020F8BD0000034A00219268C0E90F
:10ABC0000021816070470000E822002070B54FF638
:10ABD000FF750E46A84201D1002000E0401C84B25F
:10ABE00008E02146304600F090F808B1204670BDDC
:10ABF000641CA4B2FF2CF4D9284670BD10B5FBF735
:10AC000054FB08B1002010BD112010BD10B531B1AA
:10AC1000B2FBF3F403FB14241CB1092010BD0E2079
:10AC200010BD01600021416081608281C3810846BE
:10AC300010BD70B50C460546FBF7ECFA002802D0B3
:10AC400021882868084470BD10B50A8849888A425E
:10AC500003D1FBF721FB012010BD002010BD70B512
:10AC60000C460546FBF7FBFA002802D061882868ED
:10AC7000084470BD10B50A8849888A4203D1FBF7A1
:10AC8000E5FA012010BD002010BD01F01F030122D4
:10AC90009A40D243490900EB8100114600F059B8AF
:10ACA0000A4601F01F030121994010B552090C46D4
:10ACB00000EB820000F05DF8204000D0012010BDC4
:10ACC0002DE9F04180460D460024481E012101EB8C
:10ACD000501716E058F82400C04390FAA0F0B0FADC
:10ACE00080F020280CD200EB4416AE4208D2314648
:10ACF0004046FFF7D5FF0028ECD13046BDE8F08193
:10AD0000641CA742E6D82846F8E74A0950F8220012
:10AD100001F01F0201219140084000D0012070473E
:10AD200001F01F0301229A40490900EB81001146FE
:10AD300000F029B8002100F017B8012100F023B875
:10AD4000012100F016B808B56A46FBF7FAFA009838
:10AD500008BD08B56A46FBF7DAFA009808BD08B5E1
:10AD60006A46FBF7EEFA08BD08B56A46FBF7CFFA6C
:10AD700008BD08B56A46FBF7BDFA08BD08B56A46C6
:10AD8000FBF7ACFA08BD08B56A46FBF7B3FA0098C2
:10AD900008BD08B56A46FBF7E1FA009808BD38B56A
:10ADA000044600258DF800506846FCF7DBF8216862
:10ADB0006268086890420ED9401E08600178238AB4
:10ADC000E26801FB0325227A2168101AC0B20A79D1
:10ADD000824200D208719DF80000FCF7E7F828468F
:10ADE00038BD38B5054600208DF800000C46684691
:10ADF000FCF7B8F8E868298A201AB0FBF1F12A6854
:10AE00001068431C136001709DF80000FCF7CEF839
:10AE100038BD10B530B1017A42680368891AC9B2E9
:10AE20001A6006E00E2010BD03681A68541C1C60EE
:10AE30001170491EC9B2F7D200680021017108469D
:10AE400010BDC20800F007030120895C984008404B
:10AE5000704710B5C20800F00703885C01249C40CD
:10AE60002043885410BD10B560B10161172120F84E
:10AE7000021B20F8021B1B2100F8021BFFF746FAF9
:10AE8000002010BD0E2010BDF0B5858893B00C4693
:10AE9000002D39D1018800263F4F24293BD006DC04
:10AEA000102909D011290CD0232958D14FE03A2973
:10AEB0000BD0552953D129E00146204602F0D6F89F
:10AEC0004DE0A01DFFF722FA49E02246408934F800
:10AED000061F814200D808466080172800D217203C
:10AEE0006080106970B1607960B1D7E90001CDE987
:10AEF0000301ADF80E506088ADF81000136903A986
:10AF0000104698476671267113B0F0BD0146204681
:10AF100002F000F923E0011D2C2206A8FBF7A6FA97
:10AF2000BDF81800BDF81C2004EBC0014A7322696B
:10AF3000AAB1D7E90423CDE90423ADF81200487B78
:10AF40008DF814002269204604A9904707E0017A91
:10AF5000207B884200D201462846FDF7A9FEA07A50
:10AF60000028D1D0E1882846A5DF012580B111282D
:10AF7000CAD001F0ADFC02460848094913B0401A96
:10AF8000C00805EB0040BDE8F04006A101F054B850
:10AF9000A672E572B8E70000180A03003024030027
:10AFA0001824030073645F626C655F676174746387
:10AFB0005F65786368616E67655F6D74755F726504
:10AFC000717565737428292072657475726E656475
:10AFD0002025732E0000000020B10278DE2A03D065
:10AFE000082070470E20704741800020704760B1F4
:10AFF00059B10278DE2A0AD009684160DE21017069
:10B000004FF6FF714180002070470E2070470820E6
:10B0100070477FB5054600294DD0002D4BD00878EC
:10B020000C46DE2847D1A8886188884202D1204694
:10B0300005F092F92888012825D002283BD0112854
:10B040003AD0512837D135F8040F6188884232D17F
:10B05000A978A81C02292ED1017A042903D0062937
:10B0600001D0052927D10021009102228DF800206E
:10B0700001914FF4C07202910391ADF80420007A5F
:10B0800005280FD010E0297A2046012913D1A9887C
:10B09000428891420FD10121017204B0BDE8704095
:10B0A00005F05AB9ADF8041028886946B0DF0028C9
:10B0B00001D0616888477FBDA88861888842FAD13D
:10B0C0004FF6FF7060807FBD00F18040006800286F
:10B0D00000D00120704708B500F1804000210160D8
:10B0E0000068009008BD000070B54FF01025696938
:10B0F0001048114B0122181AC00802EB0044491CE9
:10B1000012D06A69032101EB00400CA100F094FF0A
:10B11000686913DF050005D0204613A100F088FF01
:10B12000284670BD002070BD20461CA100F080FFA5
:10B13000042070BD18240300A82403005365747410
:10B14000696E6720766563746F72207461626C65E6
:10B1500020746F20626F6F746C6F616465723A2047
:10B1600030782530387800004661696C656420725B
:10B17000756E6E696E672073645F736F6674646565
:10B18000766963655F766563746F725F7461626C24
:10B19000655F626173655F73657400004E6F206266
:10B1A0006F6F746C6F616465722077617320666F76
:10B1B000756E640070B50C480C490D4A401AC508FC
:10B1C000032000EB05400BA100F036FF084813DF19
:10B1D000040007D0012000EB054011A100F028FF7A
:10B1E000204670BD002070BDA82403001824030071
:10B1F0000060020053657474696E6720766563743D
:10B200006F72207461626C6520746F206D61696E6D
:10B21000206170703A2030782530387800000000C6
:10B220004661696C65642072756E6E696E67207325
:10B23000645F736F66746465766963655F76656382
:10B24000746F725F7461626C655F626173655F7376
:10B250006574000070B50B4C207808B185250FE0AF
:10B260000020A06060602061E060074801F06EFB94
:10B27000054601F0B7FA08B901F050FB0120207033
:10B28000284670BD202B00208D8A020038B500258D
:10B290008DF800506846FBF765FE074CE068401EDD
:10B2A000E060E06810B901F061FBA5709DF8000056
:10B2B000FBF77CFE38BD0000202B0020F0B50546D2
:10B2C0000478154889B0164640F82420124A0869C7
:10B2D0000832A2F10C0742F82400487F385520229A
:10B2E0006846FBF7C3F804942878385C48B10EB17F
:10B2F0000A4A00E000226946281D01F0B3FD09B0AA
:10B30000F0BD0EB1064A00E00022694605F10C00CE
:10B3100001F07AFCF3E7000008230020B5000300E9
:10B3200001FF02000FB408B50399002904D004AA54
:10B3300000926A4600F00FF801B05DF814FB10B5FA
:10B3400082680446002A05D0D4E90403216898479E
:10B350000020A06010BD2DE9FC4791460C008046FE
:10B3600076D014F8011B39B125290ED04046FDF7DF
:10B370002DFA20780028F4D198F80C00002867D026
:10B380004046BDE8FC47FFF7DABF002001222178E4
:10B390002B291BD02D2902D0302908D102E040F002
:10B3A000010001E040F00200641C002AEFD10025FA
:10B3B0002A290ED02178A1F130020A2A11D205EBF8
:10B3C000850201EB4205641C303DF1E740F00400CA
:10B3D000EAE7D9F800100B1DC9F800300968641CB1
:10B3E0000D44217800232E290BD114F8011FA1F15F
:10B3F00030020A2A05D203EB830201EB4203303B01
:10B40000F3E76C290DD068290BD0692921D00BDC1A
:10B41000252918D0582931D063290ED0642915D197
:10B4200017E014F8011FECE7702969D0732932D0B6
:10B4300075291BD0782909D120E0D9F80000011D19
:10B44000C9F8001001784046FDF7C0F9641C90E788
:10B450006CE0D9F800100A1DC9F800200968CDE990
:10B4600000500A224046FEF747FEEFE7D9F80010E9
:10B470000A1DC9F8002009680A2206E0D9F8001060
:10B480000A1DC9F8002009681022CDE90050404685
:10B4900004F0B8FEDAE7D9F8001000270A1DC9F851
:10B4A00000200E68C00705D112E04046761C7F1CC4
:10B4B000FDF78CF931780029F7D104E020214046CE
:10B4C0006D1EFDF783F9BD42C0D9002DF6D1BDE751
:10B4D0004EB13046FAF7EEFF074604E02021404621
:10B4E0006D1EFDF773F9BD4206D9002DF6D103E0BC
:10B4F0004046761CFDF76AF931780029F8D1A5E7B6
:10B50000D9F80000011DC9F8001005683021404637
:10B51000FDF75CF978214046FDF758F90820002135
:10B52000CDE90001034610222946B0E7BDE8FC87BB
:10B530002DE9F843884605002C482D499946A0EB93
:10B5400001004FEAD0004FF00101164601EB004424
:10B5500024D0286800282CD0002E34D069684046BA
:10B560004FF010070A68511E11EA080F11D1014669
:10B5700072432846FBF71BFB00282ED028684B4659
:10B580003246046901B041462846A446BDE8F0436E
:10B5900060472046174B18A2009722E00E2000902B
:10B5A0002046144B1EA220A100F055FD0E20BDE840
:10B5B000F8830820009020460E4B26A21AA100F026
:10B5C0004AFD0820F3E7092000902046094B24A2F9
:10B5D00015A100F040FD0920E9E7064B214A20466D
:10B5E000009711A100F037FD1020E0E79824030038
:10B5F00018240300DB0B0300616464725F69735FEE
:10B60000706167655F616C69676E656428705F660D
:10B61000732C20706167655F6164647229000000AB
:10B62000705F667300000000257320636865636BBC
:10B63000206661696C656420696E20257328292065
:10B64000776974682076616C756520307825782E6E
:10B6500000000000705F66732D3E705F61706900CE
:10B660006C656E00801C030038B503001148124D54
:10B670004FF00E04A0EB05004FEAD0004FF001059B
:10B6800005EB004009D061B119600C6801B0A44617
:10B69000BDE83040114618466047084B08A20094A8
:10B6A00002E0064B08A2009409A100F0D4FC0E2091
:10B6B00038BD00009824030018240300900B0300F9
:10B6C000705F667300000000705F617069000000C9
:10B6D000257320636865636B206661696C6564200F
:10B6E000696E202573282920776974682076616C3B
:10B6F000756520307825782E00000000044801216F
:10B700004174007A08B100207047012070470000A2
:10B71000B42E0020012801D0032808D104490022BA
:10B7200001284A7400D00020087403F097BA7047CB
:10B73000B42E002070B50246022801D0032A45D15C
:10B74000234C207A002841D0012833D0022831D15F
:10B7500020480023022A006802D0032A2AD11BE0D5
:10B76000E360017911B1012924D10DE0D0E905652B
:10B77000711B4FF48056B14200D331462944816198
:10B780004569A9420ED015E00169491C0161426971
:10B7900091420FD1237213E0E168491CE16008294E
:10B7A00008D9E3602372022A0AD00D21FDF78EFC2E
:10B7B00003F0FAF9607C28B1BDE8704001F018B8D8
:10B7C0000021F3E7BDE8704003F048BA70BD000007
:10B7D000B42E00208C2300202DE9F84F90468A4695
:10B7E0003A493B4A0500A1EB02014FEAD1014FF073
:10B7F0000102DDF828901E464FF00E0002EB0144D6
:10B800001AD0B8F1000F1CD02868002822D00920D7
:10B81000002E29D069684968B6FBF1F201FB12617C
:10B82000002926D000902B4B20462BA235A100F0FA
:10B8300012FC0920BDE8F88F00902046254B3CA261
:10B8400003E00090234B20463BA22EA100F003FC16
:10B850000E20EFE70820009020461E4B38A229A1B9
:10B8600000F0F9FB0820E5E700902046194B37A2CD
:10B87000DCE75046FBF795F9102798B14046FBF7F7
:10B8800090F9A0B1324651462846FBF790F998B19D
:10B89000CDF80090286833464246C4685146284691
:10B8A000A047C7E720460B4B29A2009708E0204697
:10B8B000084B2DA2009703E0064B204633A20097C9
:10B8C00010A100F0C8FB1020B4E70000982403008A
:10B8D00018240300C80B030021286C656E20252066
:10B8E000705F66732D3E705F666C6173685F696E32
:10B8F000666F2D3E70726F6772616D5F756E6974F1
:10B9000029000000257320636865636B2066616908
:10B910006C656420696E2025732829207769746816
:10B920002076616C756520307825782E0000000047
:10B93000705F667300000000705F73726300000048
:10B94000705F66732D3E705F617069006C656E009C
:10B95000616464725F69735F616C69676E656433AB
:10B960003228646573742900616464725F69735F6F
:10B97000616C69676E65643332282875696E74334B
:10B98000325F7429705F73726329000061646472AE
:10B990005F69735F77697468696E5F626F756E6403
:10B9A0007328705F66732C20646573742C206C653B
:10B9B0006E2900002DE9FF411C46DDE90A78154695
:10B9C0000E46684600F0AAF846EA450141EA8401BD
:10B9D00041EA072242EA0841009A00EB8200C0F8DF
:10B9E0000017BDE8FF812DE9FF411C46DDE90A781B
:10B9F00015460E46684600F09FF846EA450141EAC2
:10BA0000840141EA072242EA0841009A00EB8200E1
:10BA1000C0F80017BDE8FF812DE9FF411C46DDE9B4
:10BA20000A7815460E46684600F094F846EA450145
:10BA300041EA840141EA072242EA0841009A00EB08
:10BA40008200C0F80017BDE8FF812DE9FF411C46C8
:10BA5000DDE90A7815460E46684600F089F846EAA0
:10BA6000450141EA840141EA072242EA0841009A7D
:10BA700000EB8200C0F80017BDE8FF811CB5002173
:10BA800000910B4601220191FFF7C6FF1CBD1CB5BA
:10BA9000002100910B4601220191FFF7D6FF1CBD4A
:10BAA0001CB500220B46009211460192FFF7B4FF2D
:10BAB0001CBD1CB500220B46009211460192FFF7F7
:10BAC000C4FF1CBD1CB5002100910B460122019151
:10BAD0001146FFF7A1FF1CBD1CB5002100910B46CC
