:020000040000FA
:10000000B00B0020150200001D0200001F020000BE
:100010002102000023020000250200000000000071
:1000200000000000000000000000000027020000A7
:1000300029020000000000002B0200002D02000039
:100040002F0200002F020000510600002F020000C6
:100050002F020000000000002F0200002F0200000D
:100060002F020000C50500002F0200002F02000033
:100070002F0200002F0200002F0200002F020000BC
:100080002F0200002F0200002F0200002F020000AC
:100090002F0200002F0200002F0200002F0200009C
:1000A0002F0200002F0200000000000000000000EE
:1000B0002F0200002F0200000000000000000000DE
:1000C0000000000000000000000000000000000030
:1000D0000000000000000000000000000000000020
:1000E0000000000000000000000000000000000010
:1000F0000000000000000000000000000000000000
:1001000000000000000000000000000000000000EF
:1001100000000000000000000000000000000000DF
:1001200000000000000000000000000000000000CF
:1001300000000000000000000000000000000000BF
:1001400000000000000000000000000000000000AF
:10015000000000000000000000000000000000009F
:10016000000000000000000000000000000000008F
:10017000000000000000000000000000000000007F
:10018000000000000000000000000000000000006F
:10019000000000000000000000000000000000005F
:1001A000000000000000000000000000000000004F
:1001B000000000000000000000000000000000003F
:1001C000000000000000000000000000000000002F
:1001D000000000000000000000000000000000001F
:1001E000000000000000000000000000000000000F
:1001F00000000000000000000000000000000000FF
:10020000DFF80CD000F04AF800480047490F000022
:10021000B00B00200648804706480047FEE7FEE78F
:10022000FEE7FEE7FEE7FEE7FEE7FEE7FEE7FEE7A6
:10023000D90200000102000040EA01039B0703D03D
:1002400009E008C9121F08C0042AFAD203E011F815
:10025000013B00F8013B521EF9D27047D2B201E0D7
:1002600000F8012B491EFBD270470022F6E710B5BB
:1002700013460A4604461946FFF7F0FF204610BD14
:1002800030B504460020034600E05B1C934203D2D5
:10029000E05CCD5C401BF8D030BD0000064C074D43
:1002A00006E0E06840F0010394E807009847103446
:1002B000AC42F6D3FFF7A8FF7018000090180000BA
:1002C00000F01F02012191404009800000F1E02070
:1002D000C0F8801270470000F0B5A848A74B01266F
:1002E00000781B1D1A1D4FF0805106280BD11C7879
:1002F000240708D11478C4F30314032C06D0042C6B
:1003000004D0052C02D0062807D011E0B1F8244310
:100310009B4DC4F304242C6002E01C78240707D111
:100320001478C4F30314032C02D1974D954C6C67D9
:10033000D1F83051D1F84442944FC4F342343C6078
:1003400006280CD11C78240709D11478C4F30314AF
:10035000032C04D18E4C276827F0807727604FF05C
:1003600080470024C7F80C41C7F81041874F3F1F52
:100370003C60062807D11F783F0704D11778C7F3E0
:100380000317032F02D0062808D01FE0DFF8FCC1B6
:1003900003270CF1640CCCF8007007E01F783F07CE
:1003A00014D11778C7F30317032F0FD1DFF8E4C177
:1003B0000527CCF80070774F78373E60754F0837C7
:1003C0003C600CF1040C3F27CCF80070724F3F6882
:1003D000DFF8C8C1CCF800706F4F3F1D3F680CF1CB
:1003E000040CCCF800706C4F08373F680CF1040C1B
:1003F000CCF80070684F0C373F680CF1040CCCF857
:100400000070654F10373F680CF1040CCCF8007099
:10041000614F14373F680CF1040CCCF800705E4F4C
:1004200018373F68DFF874C10CF1200CCCF800706D
:10043000594F1C373F680CF1040CCCF80070564F34
:1004400020373F680CF1040CCCF80070524F243771
:100450003F680CF1040CCCF800704F4F28373F6810
:100460000CF1040CCCF800704B4F2C373F680CF1AA
:10047000040CCCF80070484F30373F68DFF81CC1DF
:100480000CF1400CCCF80070434F34373F680CF14E
:10049000040CCCF80070404F38373F680CF1040C66
:1004A000CCF800703C4F3C373F680CF1040CCCF8A2
:1004B0000070394F40373F680CF1040CCCF80070E5
:1004C000DFF8DCC0FB27CCF80070062813D11F78BA
:1004D0003F0710D11778C7F30317032F03D0042F5A
:1004E00001D0052F07D1D1F85872DFF8B8C007F056
:1004F0004F07CCF800702C480268D20702D06FF08A
:1005000001020260062D08D1D1F83401062804D179
:100510002648016841F4806101604FF01021D1F854
:100520000002002803DBD1F80402002822DA204A66
:10053000166020480368002BFCD01523C1F8003258
:100540000568002DFCD0C1F8043201680029FCD0F8
:10055000146001680029FCD0BFF34F8F0C48F038BD
:100560000168154A01F4E06111430160BFF34F8F48
:1005700000BFFDE7124911480860F0BDE00F00F030
:10058000403501400DF0ADBA00C007403C050040C9
:10059000FCED00E0105600400404001020C50040AF
:1005A00018F50040E40E0040000400403C170040F5
:1005B00004E5014000E401400400FA050090D00386
:1005C0006400002030B51E4CD4F84001002510B363
:1005D00000F054FC1B49C97A19B15F2811D90020D9
:1005E0000DE0194A0021126893B2120C0F2B02D9A8
:1005F000022A00D201215F2800D311B1012000F0AE
:1006000055FF124942F21070086001206060E060FE
:10061000C4F840512060D4F8440168B100F02EFCC9
:100620005F2801D9002000E0012000F03FFF0748CB
:10063000001D0560C4F84451BDE8304000F016BC10
:1006400000900040000000207415004040950040DC
:100650000149024800F0F0BF6C0300200020004078
:1006600002E008C8121F08C1002AFAD1704770477B
:10067000002001E001C1121F002AFBD170470000D9
:1006800072B609480068C00700D000BEBFF34F8FA4
:100690000548E4380168054A01F4E061114301604E
:1006A000BFF34F8F00BFFDE7F0ED00E00400FA0557
:1006B0000EB500210091CDE901106A4644F2010017
:1006C000FFF7DEFF0EBD10B58268C368934203D00A
:1006D00000F0E6FB002010BD052010BD29B112B1CD
:1006E000531E134203D0092070470E20704701604B
:1006F000838000218160C1600846704710B5826820
:10070000C3689A1A83889A4203D800F0D3FB00206A
:1007100010BD042010BD000070B50A4E01460A4805
:10072000B578FFF7D0FF04464DB10020B070711CC2
:100730000122C81D00F08AFC08B1FFF7B9FF20466E
:1007400070BD00005000002090030020F0B5244E42
:1007500089B01F460D00044672603FD0A888296802
:1007600082B22048FFF7BAFF002835D1A889A968CE
:1007700082B21C481030FFF7B1FF00282CD1202294
:1007800019496846FFF758FD60690690207C00B162
:1007900001208DF814008DF81C70607C00B10E20D3
:1007A0008DF81500E0680290A06803902068019021
:1007B000606800900A480D4A6946083000F026FC3F
:1007C000002809D1B0702068401C05D004490122DE
:1007D000491CC81D00F03AFC09B0F0BD0720FBE73A
:1007E0005000002090030020501800006915000000
:1007F00010B501460C48FFF781FF040011D10B48EA
:1008000000F082FD68B9094907480C39FFF75BFF22
:1008100038B9064901220C3901F1080000F019FC31
:100820000446204610BD0000A00300205C0000200C
:100830002DE9F041064608680C46411C4FF0A047E0
:100840004FF0010506D005FA00F1C7F80815206839
:1008500000F02FFC6068411C02D0002100F020FC59
:100860003168A069C1F82405607D217D32680843A4
:10087000C2F86C05D4E900123068C0F80C15C0F855
:100880001425207D012815D1A068411C02D000212B
:1008900000F006FCE068411C05D08540C7F808550B
:1008A000E06800F006FCD4E902123068C0F80825C0
:1008B000C0F81015BDE8F0812DE9FC410646C007DF
:1008C0004FF000050ED0104F00240122385D009536
:1008D00000231146019500F0BFFB641C042CF4D3E7
:1008E00000F01CF8B0070DD5074E0024361D00227D
:1008F000305D032300951146019500F0ADFB641CAB
:10090000042CF4D3BDE8FC81441700000249085CC4
:10091000012100F0D8BB00004417000010B50024EE
:100920002046FFF7F3FF641C042CF9D310BD000030
:10093000184810B50178427801F00F01FF2A16D847
:10094000154B5B7A032B01D0042B01D102290ED861
:1009500031B101290DD002290DD003290DD006E0B7
:100960000E49801CFFF78CFC08B9012010BD002047
:1009700010BD0F2302E0552300E0FF23002105E016
:100980004418A4789C42F2D1491CC9B29142F7D3D1
:10099000EBE7000068020020000000204C17000078
:1009A0002DE9F05F8F4C0E46174614F83C1F02F0FD
:1009B0003F0201F0C00111434AC414F83F2C483CE7
:1009C000032A01D0042A03D1032B01D1FF22226480
:1009D000012525734FF00008A4F81080227862B139
:1009E0004FF003094FF0040A48B1032857D0012AF9
:1009F0005ED025820220BDE8F09F0520FBE700F0D5
:100A00008DF956B1012E11D0022E14D0032E30D004
:100A1000042E31D0052E32D0B6E0002F62D1C4F8BA
:100A20003C8084F8099084F80580B4E0032F59D8FD
:100A3000B801E063AFE06C4E012F02D0022F51D11C
:100A40000AE084F80990474684F80580002000F009
:100A50002DFD3561A77208E084F809A065710020BA
:100A600000F024FD356184F80A80BDE8F05F00F0F5
:100A700059BC012F36D88EE0A7BB06200BE04FF4FF
:100A8000FF7047B144F29021012F06D0022F02D00F
:100A9000032F79D101E020827DE021827BE0012AD1
:100AA000A7D0E08940F40040208200F037F972E0DE
:100AB000032B04D0272E02D9258201209BE7424632
:100AC000A4F80E80012802D002280CD063E040F286
:100AD00001114648FFF7C9FB012000F07DFC84F8B6
:100AE00000A058E050E0236CFF2B04D0FF2902D96E
:100AF000258203207FE73D48DFF8F4B04FF002087D
:100B00004170022B14D003DC3BB1012B3CD10BE034
:100B1000032B1DD0FF2B37D11EE000F8022B0A4615
:100B20003449FFF789FB08E000F8025B0F2202E07E
:100B300000F8028B5522FFF791FB002000F04CFCDF
:100B4000627A0020E16B042A27D0032A27D027E00D
:100B500000F802ABFF22EEE7304637B1012F04D098
:100B6000022F0ED0032F16D111E0002000F034FC2C
:100B700000F044F8CBF80052CBF8005084F8009015
:100B800009E000F0B3F804E02582042033E700F028
:100B90009DF80028F8D000202DE7582000E05020D4
:100BA00000EBC101042A00D14908002011F1F9012C
:100BB00040F27122401C42439142F9D840F2712127
:100BC0004843E169C1F840050B4801F5A071016097
:100BD000011DC1F800B008480C38056084F8008099
:100BE000D9E70000000000200090004068020020CB
:100BF000001000404C17000010F5014002494FF46E
:100C00000070086070470000501600400349002340
:100C10000A7B0B73098A01601046704700000020B0
:100C20002AB1012A07D0022A09D000207047074ABA
:100C30000260082006E0064A0260092002E0054A38
:100C400002600A2008700120704700000080004008
:100C50000090004000A0004010B500F04BFC10B91F
:100C600000F060FB08B1042010BD064800210122FD
:100C700001730270C1630448016841F01001016012
:100C8000002010BD0000002010ED00E0C2B2042AD8
:100C900014D0032A12D010F0FF0F0FD0FC2A0DD071
:100CA000F82A0BD0F42A09D0F02A07D0EC2A05D074
:100CB000C04310F0FF0F01D0D82A03D1032903D07D
:100CC000042901D0042070470020704706490978A4
:100CD000012901D90020704703490246491C01F14E
:100CE0001B00FFF79DBF00000000002070B540B260
:100CF00010F0300F01D040F0C000074D44B228780A
:100D0000012804D8697A2046FFF7C0FF08B1002007
:100D100070BD0120AC6170BD0000002010B500F076
:100D20001FF80D48012404600B49002008310860B9
:100D3000091D086000F090FB08480470807A0028C4
:100D400009D04FF0E0216002C1F80001BDE8104079
:100D50000920FFF7B5BA10BD08F5014000000020DA
:100D6000704700002DE9F0473948016841F0100153
:100D70000160384D0127DFF8E0A0DFF8E080384C53
:100D800042F21079002600BFD5F80C0140B3C5F837
:100D90000C610120FFF794FA2078042840D16F609D
:100DA000A07A70B1CAF800902B494FF4FA70091D6F
:100DB0000860C8F80C70C8F84061C8F84461C8F809
:100DC000007028480068012805D1FFF7B1FD10B177
:100DD000E089401CE08140F201112348FFF745FA09
:100DE000207804281CD1D5F8040118B1A07A08B1E4
:100DF000C8F81070D5F8000190B1A07A80B100F069
:100E00003DF85F2802D9002000F050FBCAF800909E
:100E1000C8F80C70C8F84061C8F8007000F026F8F7
:100E2000E069D0F8401111B1C0F84061ACE7D0F8EA
:100E300044010028A8D0E069C0F8446194F9010099
:100E4000FFF73EFA6069401C6061BDE8F087000072
:100E500010ED00E000100040409500400090004080
:100E60000000002000140040680200200248012118
:100E700001648163704700000010004006480021B3
:100E8000C0F81C1101214161D0F81C110029FBD0D0
:100E900002480068C0B2704700100040481500408A
:100EA000826883881A4003689A5C0A708168491CCA
:100EB00081607047C26883881A4003689954C1688A
:100EC000491CC1607047000070B50D4604460068BB
:100ED0004FF4887100F007F94FF49071206800F02A
:100EE00002F94FF49271206800F0FDF84FF4A271FE
:100EF000206800F0F8F820681249C0F80413206850
:100F0000690740F30730090E002806DA00F00F00E9
:100F100000F1E02080F8141D03E000F1E02080F8EB
:100F200000142068012140F3073000F01F029140B7
:100F30004009800000F1E020C0F88012C0F80011E4
:100F400070BD000010030200F0B500258DB02F46E3
:100F50002C460120FFF7B0FC1822284906A8FFF70D
:100F60006BF92748029027494FF48070CDE90301BF
:100F700005900723244A02A906A8FFF7E7FB08B15A
:100F8000FFF796FBFFF768FE18B10DB04FF0FF308A
:100F9000F0BDFFF7E7FE06466846FFF7BDFB0028F9
:100FA000F7D147B105F11500864206D99DF800003A
:100FB00035460402EDE70127F8E79DF80000002719
:100FC0000443A00BC4F30521C4F3850204F003031A
:100FD000FFF7E6FC01A8FFF719FE0028D9D0019819
:100FE000C0F30720FFF704FC0028F8D10198C0B235
:100FF000FFF7FEFB0028F9D1CBE700002C1700001B
:1010000068000020680100205515000070B50646F4
:1010100004780C4888B0154640F82420094A08692D
:10102000121D42F8240020226846FFF705F90494B7
:101030000DB1054A00E000226946301D00F064F859
:1010400008B070BD4800002009160000001D00F027
:1010500091B8001D00F010B970B541EA4201DDE918
:1010600004564FF0A04441EA830141EA052104EB14
:10107000800041EA0641C0F8001770BD70B541EA32
:101080004201DDE904564FF0A04441EA830141EA00
:10109000052104EB800041EA0641C0F8001770BD4D
:1010A0001CB500220B46009211460192FFF7E6FFA5
:1010B0001CBD1CB5002100910B4601220191114677
:1010C000FFF7DCFF1CBD01224FF0A043824011B1AD
:1010D000C3F808257047C3F80C257047405800280E
:1010E00000D00120704708B50022425040580090BF
:1010F00008BD0121B1EB507F01D1012070470020D4
:1011000070470020704700002DE9F0410546164663
:1011100000790F46154A00EBC00102EB810494F8F8
:10112000201011B10820BDE8F081114951F82010BC
:101130002868FFF7E6FF08B11120F4E73946284692
:10114000FFF776FB6660386920601EB1397F28465C
:10115000FFF7BAFE28680821C0F800150020A0613A
:10116000E0610121606184F82010DCE76C0300205D
:101170004C1800002DE9F05F044600790E4600EBA4
:10118000C001DFF8F0A017460AEB81053046FFF7F3
:10119000B0FFB0B168684FF000084FF4047910B1A7
:1011A0002168C1F80893A8694FF0000B80B1E86985
:1011B00048B1686810B12068C0F804931120BDE8F8
:1011C000F09F1020FBE7EF614FF001082E6102E075
:1011D000EE60C5E9067B00254FF488712068FFF7B3
:1011E00082FF4FF4A2712068FFF77DFF2068C0F8EE
:1011F0003465C0F838752068B8F1000F12D0D0F807
:10120000001241F02001C0F800122079D04600EB16
:10121000C0010AEB8100406838B12068C0F804932F
:101220002846CCE701210160EFE74FF4887A4FF4BC
:10123000A27951462068FFF751FF074649462068CA
:10124000FFF74CFF06464FF492712068FFF746FF08
:10125000014647EA06000843EBD0227902EBC203BD
:1012600008EB8302C2F818B001B10325002ED7D0D5
:101270000F25D5E76C0300202DE9F04704460E4604
:101280000079204900EBC00001EB8005174630468D
:10129000FFF72FFF30B1204600F036F820B11120C3
:1012A000BDE8F0871020FBE76F61AE604FF49076E9
:1012B000002731462068FFF716FF4FF4AC7841460F
:1012C0002068FFF710FF2068AA686969C0F8442504
:1012D000C0F84815206801218160686878B9B14676
:1012E00049462068FFF7FAFE064641462068FFF7A8
:1012F000F5FE0643F4D000B10F27002068613846A0
:10130000CEE700006C0300200079054900EBC00027
:1013100001EB80004069002800D0012070470000E8
:101320006C03002070B52A4C617AA069FFF7AEFC0F
:10133000012510B12582042070BD00F08DF82549EB
:10134000207E08602348617A001D01602148183022
:10135000026822F0FF0202600368E26A43EA126355
:10136000036010021B4A103210601A4824300560D6
:10137000184A002020321060207AA27940EA022028
:10138000144A28321060032901D004290CD1207995
:10139000E178000440EA0120A1780843617940EA3D
:1013A00001600C490831086094F8280094F8241072
:1013B000400640EA0160218C40EA0140E17940EAC0
:1013C0000120044940F0FF000C310860002070BD8E
:1013D000000000200C1500402DE9F0410746FFF702
:1013E000BFFC1848184A016B1160121D416B116057
:1013F000416C022202EB4101134A303A1160121F84
:1014000012491160124C0026C4F800610321C4F88F
:10141000001201254FB1807A10B1012000F046F88A
:10142000C4F80C616560BDE8F081074A017E2C3A82
:101430001160807A0028F6D00648C5604560C0F883
:101440004061F0E7000000203815004068020020ED
:1014500000100040009000400B49032008600B4939
:101460000020C1F80002C1F810010122C1F81020CB
:10147000D1F81021002AFBD0C1F8100148600860A3
:101480000349C8817047000008F501400010004082
:10149000000000201FB501238DF800308DF80810E2
:1014A0000192D0E90012684690471FBD30B510B1D7
:1014B0007D22062101E0342203210B4C23680B4DD1
:1014C0002B40134343F000422260074A4032136826
:1014D000064C8F34234043EA011141F00041116072
:1014E0000349C87230BD00003C17004000FFFF7F79
:1014F0000000002010B54FF080400021C0F800111E
:1015000001220260D0F80031002BFBD0104BD869CB
:101510004260C260C0F80415C0F84011C0F8441120
:10152000C0F84811C0F84C114FF48034C0F804439F
:10153000C0F800220424C0F810459C6BC0F8404558
:101540004FF48274C0F8444502600020596110BD18
:10155000000000200178022901D0012902D1406851
:10156000FFF7A6B8704700007CB50178244D81B321
:1015700001290BD002292BD18DF80010C068691CFD
:1015800001900122C81DFFF761FD2EE0406801783F
:101590001C48FFF7B3F81B4C012618B18DF800600A
:1015A000019006E0A068E168814205D000208DF836
:1015B0000000696868468847A068E168081AA18841
:1015C000884207D80E490122491CC81DFFF73EFD7D
:1015D0007CBD01E0AE70FBE70A4809491030FFF717
:1015E00072F830B103208DF80000696868468847BA
:1015F000EEE70349012201F10800FFF72AFDE7E7C2
:1016000050000020900300201FB50A4601788DF895
:10161000001041680191017A8DF80810C0680390AC
:10162000044850F82210001F50F8222068469047C6
:101630001FBD00004C0000202DE9FF410C464FF477
:10164000927705463946FFF749FD0026C0B1394675
:101650002846FFF748FD02208DF80000D5F88004E9
:10166000C5F880040390D5F83C058DF80800E068C3
:101670000190A661E661D4E900126846904723E034
:101680004FF4887739462846FFF728FDE0B1394600
:101690002846FFF728FDD5F83C15A069884213D1EC
:1016A000E06960B1E268D5F8000220F02000C5F8DA
:1016B0000002E069A0612069E661E06001E0A661E6
:1016C000E2682046FFF7E6FE4FF4A2773946284647
:1016D000FFF704FD60B139462846FFF704FDA06915
:1016E00030B1A661D5F83C152046E268FFF7D2FE7E
:1016F0004FF4907739462846FFF7F0FC002813D0C6
:1017000039462846FFF7EFFC606900280CD0D5F871
:101710004C058DF800608DF80800A06801906661A6
:10172000D4E9001268469047BDE8FF810800000038
:101730000600000005000000070000000000000097
:1017400000A04E00111213140D0E0F10FFC1FBE884
:101750004C90728BE7B3518963AB232302841872D8
:10176000AA612F3B51A8E53749FBC9CA0C18532C75
:10177000FD45E39AE6F15DB0B61BB4BE2A50EAE936
:101780000E9C4B5E5724CCA1B759B887FFE07D74FF
:101790002648B9C5F3D9A8C4B1D5911101420C3975
:1017A000D5B0979D28D4F29BA4FD6465068C29963C
:1017B000FEA2714DF3F82E58DB0D5A5F1528F57413
:1017C00007CE25AF2B12E6D0DB2CDCC37FF03E3AF0
:1017D00013A4DCE2F96C54E2D8EAC8880021869CA4
:1017E0006AD8CB4E146AF94DD27EB23203C6144B7E
:1017F0007FD1B8A6797C17ACED06ADAF0A947ABA62
:1018000003E792D7150973E86D16EEE13F781F9D47
:1018100009526EF17C362A716C7564448010434E17
:1018200035EC65270AB5FC26693F599901638AA5FD
:10183000BF685CD33CBE0BD67683D657054A3DDDE8
:101840008173C9EB8A8439F4360BF7005106000026
:10185000FFFFFFFFFFFFFFFFFFFFFFFFFFFFFFFF98
:1018600000000000000000000000D601070000009A
:1018700090180000000000206800000060060000D2
:10188000F818000068000020480B000070060000F7
:101890000008080100000100030300000000000030
:1018A0000000000000000000000000000080004078
:1018B00003000000000000000000000029417671D4
:1018C0005B06000055555500C409000000000000EB
:1018D0000000000000000000000000000000000008
:1018E0000000000000000000000000000020004098
:0818F000000000000090D0038D
:0400000500000201F4
:00000001FF
