:020000040000FA
:1000000000240020150200001D0200001F02000055
:100010002102000023020000250200000000000071
:1000200000000000000000000000000027020000A7
:1000300029020000000000002B0200002D02000039
:100040002F0200002F020000410500002F020000D7
:100050002F0200002F0200002F0200002F020000DC
:100060002F020000B50400002F0200002F02000044
:100070002F0200002F0200002F0200002F020000BC
:100080002F0200002F0200002F0200002F020000AC
:100090002F0200002F0200002F0200002F0200009C
:1000A0002F0200002F0200002F0200002F0200008C
:1000B0002F0200002F0200000000000000000000DE
:1000C0002F0200002F0200002F0200002F0200006C
:1000D0002F0200002F0200002F0200002F0200005C
:1000E0002F0200002F0200002F020000000000007D
:1000F000000000002F020000000000002F0200009E
:1001000000000000000000000000000000000000EF
:1001100000000000000000000000000000000000DF
:1001200000000000000000000000000000000000CF
:1001300000000000000000000000000000000000BF
:1001400000000000000000000000000000000000AF
:10015000000000000000000000000000000000009F
:10016000000000000000000000000000000000008F
:10017000000000000000000000000000000000007F
:10018000000000000000000000000000000000006F
:10019000000000000000000000000000000000005F
:1001A000000000000000000000000000000000004F
:1001B000000000000000000000000000000000003F
:1001C000000000000000000000000000000000002F
:1001D000000000000000000000000000000000001F
:1001E000000000000000000000000000000000000F
:1001F00000000000000000000000000000000000FF
:10020000DFF80CD000F04AF800480047E10F00008A
:10021000002400200648804706480047FEE7FEE726
:10022000FEE7FEE7FEE7FEE7FEE7FEE7FEE7FEE7A6
:10023000D90200000102000040EA01039B0703D03D
:1002400009E008C9121F08C0042AFAD203E011F815
:10025000013B00F8013B521EF9D27047D2B201E0D7
:1002600000F8012B491EFBD270470022F6E710B5BB
:1002700013460A4604461946FFF7F0FF204610BD14
:1002800030B504460020034600E05B1C934203D2D5
:10029000E05CCD5C401BF8D030BD0000064C074D43
:1002A00006E0E06840F0010394E807009847103446
:1002B000AC42F6D3FFF7A8FF841F0000A41F000084
:1002C00000F01F02012191404009800000F1E02070
:1002D000C0F880127047000030B54FF08050002207
:1002E0008300D0F83011C3F80C21C3F81021624B01
:1002F0001A60624B1B68624C2360604B1B1D1B68BD
:10030000241D23605D4B08331B68241D23605B4B59
:100310000C331B68241D2360584B10331B68241DAD
:100320002360564B14331B68241D2360534B183332
:100330001B68534C20342360504B1C331B68241D16
:1003400023604E4B20331B68241D23604B4B24330A
:100350001B68241D2360494B28331B68241D236020
:10036000464B2C331B68241D2360444B30331B68E1
:10037000434C40342360414B34331B68241D2360BD
:100380003E4B38331B68241D23603C4B3C331B68B9
:10039000241D2360394B40331B68241D2360012436
:1003A000082902D1D0F8343113B1082904D006E06D
:1003B000354B3449196005E0D0F8343113B10829C0
:1003C00004D006E0314BFB21196005E0D0F8343150
:1003D00013B1082908D00EE090F858322C48016873
:1003E00063F30301016002E0D0F834311BB92949FD
:1003F0004FF40070086028480168C90702D06FF008
:10040000010101602548016841F470010160BFF3FA
:100410004F8FBFF36F8F4FF01021D1F800020028EB
:1004200003DBD1F80402002822DA1D4B1C601D48B2
:100430000468002CFCD01224C1F800420568002D8D
:10044000FCD0C1F8044201680029FCD01A600168A0
:100450000029FCD0BFF34F8F10487C380168124A46
:1004600001F4E06111430160BFF34F8F00BFFDE76E
:100470000F490E48086030BD3805004004040010E4
:1004800020C50040488103008C56004018F500400C
:10049000E40E0040409602400004004088ED00E079
:1004A00004E5014000E401400400FA050090D00397
:1004B0008400002030B51E4CD4F84001002510B354
:1004C00000F028FD1B49C97A19B15F2811D9002015
:1004D0000DE0194A0021126893B2120C0F2B02D9B9
:1004E000022A00D201215F2800D311B1012001F0BE
:1004F0009DFA124942F21070086001206060E060CD
:10050000C4F840512060D4F8440168B100F002FD05
:100510005F2801D9002000E0012001F087FA074898
:10052000001D0560C4F84451BDE8304000F0EABC4D
:1005300000900040000000207415004040950040ED
:1005400001480068004700005C00002002E008C885
:10055000121F08C1002AFAD170477047002001E03D
:1005600001C1121F002AFBD17047000072B6094872
:100570000068C00700D000BEBFF34F8F0548E438C5
:100580000168054A01F4E06111430160BFF34F8F38
:1005900000BFFDE7F0ED00E00400FA050EB5002114
:1005A0000091CDE901106A4644F20100FFF7DEFF39
:1005B0000EBD10B58268C368934203D000F0BCFC46
:1005C000002010BD052010BD29B112B1531E1342E9
:1005D00003D0092070470E207047016083800021FE
:1005E0008160C1600846704710B58268C3689A1A76
:1005F00083889A4203D800F0A9FC002010BD042093
:1006000010BD000070B50A4E01460A48B578FFF7E4
:10061000D0FF04464DB10020B070711C0122C81DEE
:1006200000F074FD08B1FFF7B9FF204670BD00006F
:1006300064000020DC030020F0B5244E89B01F4682
:100640000D00044672603FD0A888296882B2204815
:10065000FFF7BAFF002835D1A889A96882B21C48E3
:100660001030FFF7B1FF00282CD12022194968462D
:10067000FFF7E2FD60690690207C00B101208DF853
:1006800014008DF81C70607C00B10E208DF81500F0
:10069000E0680290A0680390206801906068009074
:1006A0000A480D4A6946083000F0FCFC002809D1D0
:1006B000B0702068401C05D004490122491CC81DA7
:1006C00000F024FD09B0F0BD0720FBE76400002026
:1006D000DC030020641F0000211B000010B5014650
:1006E0001048FFF781FF040019D10F480F4A017825
:1006F000515C19B1001D01F07BF802E00C3000F0F4
:100700005FFF60B9084907480839FFF752FF30B961
:10071000054901220839044800F008FD0446204636
:1007200010BD0000EC0300206C00002048000020F9
:1007300000F002B800F008B872B602480168491C1F
:10074000016070478000002003490868401E08606F
:1007500000D162B6704700008000002070B50546E9
:1007600008680C46411C04D000F08CFD206800F0A5
:100770004AFD6068411C02D0002100F032FD29686A
:10078000A069C1F82405607D227D29681043C1F865
:100790006C05D4E900122868C0F81425C0F80C15BF
:1007A000207D012814D1A068411C02D0002100F056
:1007B00018FDE068411C04D000F064FDE06800F022
:1007C00022FDD4E902122868C0F80825C0F81015E7
:1007D00070BD70B5054608680C46411C04D000F099
:1007E0005BFD206800F019FD6068411C02D000210B
:1007F00000F000FD2968A069C1F82405607D217D15
:100800002A680843C2F86C05D4E900122868C0F8C9
:100810000C15C0F81425207D012814D1A068411CB6
:1008200002D0002100F0E6FCE068411C04D000F09A
:1008300033FDE06800F0F1FCD4E902122868C0F84A
:100840000825C0F8101570BD2DE9FC410646C0070B
:100850004FF000050ED0104F00240122385D0095A6
:1008600000231146019500F071FC641C042CF4D3A4
:1008700000F01CF8B0070DD5074E0024361D0022ED
:10088000305D032300951146019500F05FFC641C68
:10089000042CF4D3BDE8FC81541E00000249085C1E
:1008A000012100F003BD0000541E000010B500241B
:1008B0002046FFF7F3FF641C042CF9D310BD0000A1
:1008C0001B4810B50178427801F00F01FF2A1CD8AF
:1008D000184B5B7A032B01D0042B01D1022914D8C9
:1008E000062B01D0052B01D103290ED831B10129E6
:1008F0000DD002290DD003290DD006E00E49801C31
:10090000FFF7BEFC08B9012010BD002010BD0F2369
:1009100002E0552300E0FF23002105E04418A478FD
:100920009C42F2D1491CC9B29142F7D3EBE70000D7
:1009300088020020000000205C1E00002DE9F05F0E
:10094000BD4C0E46174614F83C1F02F03F0201F062
:10095000C00111434AC414F83F2C483C032A01D07B
:10096000042A03D1032B01D1FF2222640125257320
:100970004FF00009A4F81090227862B14FF0030AFA
:100980004FF0040B48B103287ED0012A7DD0258288
:100990000220BDE8F09F0520FBE700F00BFAA74816
:1009A000011D66B1012E1BD04FF0060C022E1CD08B
:1009B000032E74D0042E75D0052E77D000E1002FC1
:1009C000FCD1C4F83C9084F809A084F80590026832
:1009D00022F000420260086820F000400860F6E063
:1009E000032F6FD8B801E063F1E0DFF85482012FE4
:1009F00009D0022F1BD0914B924A4C33032F29D0A0
:100A0000042F5FD12BE084F809A084F805900268D8
:100A10004E4622F000420260086820F00040086064
:100A2000002001F003F8C8F81050A67233E084F8F3
:100A300009B06571026822F000420260086820F087
:100A400000400860002000F0F1FFC8F8105084F862
:100A50000A9020E00526667203E0A5721BE084F888
:100A600009C084F805A0066846F0004606600668DE
:100A700026F0FF0646F05C060660086820F46C501D
:100A800010430860186804E021E02AE007E009E06C
:100A90000CE00028E1D0BDE8F05F00F0C3BE012FFC
:100AA00010D894E077B9A4F810C090E04FF4FF702C
:100AB0004FB144F29021012F07D0022F03D0032F12
:100AC0007ED102E07CE0208281E021827FE0012A69
:100AD0003FF45DAFE08940F40040208200F06AF905
:100AE00075E0032B04D0272E02D92582012050E780
:100AF0004A46A4F80E90012802D002280BD066E0E6
:100B000040F201115048FFF7B0FB012000F0F0FE69
:100B100084F800B05BE0236CFF2B04D0FF2902D9DE
:100B20002582032035E74848DFF820814FF002098D
:100B30004170022B14D003DC3BB1012B40D10BE000
:100B4000032B21D0FF2B3BD122E000F8022B0A46D9
:100B50003F49FFF771FB08E000F8025B0F2202E05B
:100B600000F8029B5522FFF779FB002000F0C0FE41
:100B7000607A0021E26B04282BD003282BD00528B3
:100B80002BD006282CD02DE000F802BBFF22EAE78C
:100B9000304637B1012F04D0022F0ED0032F16D1CB
:100BA00011E0002000F0A4FE00F056F8C8F8005252
:100BB000C8F8005084F800A009E000F0E3F804E071
:100BC00025820420E5E600F0CDF80028F8D00020CA
:100BD000DFE6582106E0502104E04FF4347101E0D3
:100BE0004FF4E771D200052802D0062802D002E0B7
:100BF000D20000E052001144042800D1490800202E
:100C000011F1F90140F27122401C42439142F9D89E
:100C100040F271214843E169C1F840050D4801F5F2
:100C2000A0710160011DC1F800800A480C38056000
:100C300084F80090CBE70000000000203C17004043
:100C40000090004000C40080880200200010004096
:100C50005C1E000010F5014002494FF4007008606E
:100C60007047000050160040034900230A7B0B73B5
:100C7000098A016010467047000000204AB1012A2D
:100C80000BD0022A0DD0032A0FD0042A11D0002045
:100C900070470B4A026008200EE00A4A02600920F1
:100CA0000AE0094A02600A2006E0084A02601A20A7
:100CB00002E0074A02601B20087001207047000014
:100CC000008000400090004000A0004000A00140D3
:100CD00000B0014010B500F0CDFE10B900F0A2FD4B
:100CE00008B1042010BD06480021012201730270E2
:100CF000C1630448016841F010010160002010BD8B
:100D00000000002010ED00E0C2B2082A1ED0072A21
:100D10001CD0062A1AD0052A18D0042A16D0032A75
:100D200014D0022A12D010F0FF0F0FD0FC2A0DD0E1
:100D3000F82A0BD0F42A09D0F02A07D0EC2A05D0E3
:100D4000C04310F0FF0F01D0D82A07D1052907D0E2
:100D5000062905D0032903D0042901D004207047B7
:100D60000020704706490978012901D90020704701
:100D700003490246491C01F11B00FFF77FBF000039
:100D80000000002070B540B210F0300F01D040F0EC
:100D9000C000074D44B22878012804D8697A20465B
:100DA000FFF7B2FF08B1002070BD0120AC6170BD3B
:100DB0000000002010B500F01FF80D480124046069
:100DC0000B49002008310860091D086000F0D0FDC3
:100DD00008480470807A002809D04FF0E0216002B2
:100DE000C1F80001BDE810400920FFF769BA10BD45
:100DF00008F5014000000020704700002DE9F04791
:100E00003948016841F010010160384D0127DFF8D1
:100E1000E0A0DFF8E080384C42F21079002600BFF5
:100E2000D5F80C0140B3C5F80C610120FFF748FA72
:100E30002078042840D16F60A07A70B1CAF8009081
:100E40002B494FF4FA70091D0860C8F80C70C8F8F7
:100E50004061C8F84461C8F800702848006801285B
:100E600005D1FFF72DFD10B1E089401CE08140F273
:100E700001112348FFF7F9F9207804281CD1D5F88F
:100E8000040118B1A07A08B1C8F81070D5F80001B3
:100E900090B1A07A80B100F03DF85F2802D900201F
:100EA00000F0C4FDCAF80090C8F80C70C8F84061A2
:100EB000C8F8007000F026F8E069D0F8401111B1D0
:100EC000C0F84061ACE7D0F844010028A8D0E06940
:100ED000C0F8446194F90100FFF7F2F96069401C21
:100EE0006061BDE8F087000010ED00E000100040F8
:100EF0004095004000900040000000200014004099
:100F000088020020024801210164816370470000CB
:100F10000010004006480021C0F81C110121416169
:100F2000D0F81C110029FBD002480068C0B27047FD
:100F30000010004048150040826883881A4003680A
:100F40009A5C0A708168491C81607047C268838816
:100F50001A4003689954C168491CC1607047000079
:100F600070B50D46044600684FF4887100F0C7F96B
:100F70004FF49071206800F0C2F94FF4927120682C
:100F800000F0BDF94FF4A271206800F0B8F92068B4
:100F90001249C0F804132068690740F30730090EAE
:100FA000002806DA00F00F0000F1E02080F8141DA0
:100FB00003E000F1E02080F800142068012140F3F4
:100FC000073000F01F0291404009800000F1E0204E
:100FD000C0F88012C0F8001170BD000010030200BC
:100FE000F0B500258DB02F462C460120FFF72CFCD4
:100FF0001822284906A8FFF71FF927480290274919
:101000004FF48070CDE9030105900723244A02A91B
:1010100006A8FFF711FB08B1FFF7C0FAFFF75AFE69
:1010200018B10DB04FF0FF30F0BDFFF7E7FE0646F8
:101030006846FFF7E7FA0028F7D147B105F1150038
:10104000864206D99DF8000035460402EDE70127E7
:10105000F8E79DF8000000270443A00BC4F3052126
:10106000C4F3850204F00303FFF768FC01A8FFF74F
:10107000FBFD0028D9D00198C0F30720FFF72EFB15
:101080000028F8D10198C0B2FFF728FB0028F9D159
:10109000CBE700003C1E00008800002088010020F3
:1010A0000F1B0000F0B505460478154889B01646B8
:1010B00040F82420124A08690832A2F10C0742F8CD
:1010C0002400487F385520226846FFF7B5F804947D
:1010D0002878385C48B10EB10A4A00E0002269461F
:1010E000281D00F085FA09B0F0BD0EB1064A00E0F7
:1010F0000022694605F10C0000F030F9F3E700002A
:101100004C000020191D0000C11B000030B4037802
:10111000054CE35C1BB130BC001D00F09FBA30BC35
:101120000C3000F085B900004800002030B403788E
:10113000054CE35C1BB130BC001D00F011BB30BCA2
:101140000C3000F0EBB90000480000202DE9FF4111
:101150001C46DDE90A7815460E46684600F068F838
:1011600046EA450141EA840141EA072242EA084190
:10117000009A00EB8200C0F80017BDE8FF812DE95E
:10118000FF411C46DDE90A7815460E46684600F028
:101190005DF846EA450141EA840141EA072242EA54
:1011A0000841009A00EB8200C0F80017BDE8FF81FB
:1011B0002DE9FF411C46DDE90A7815460E466846D2
:1011C00000F052F846EA450141EA840141EA07226B
:1011D00042EA0841009A00EB8200C0F80017BDE81F
:1011E000FF811CB500220B46009211460192FFF7C9
:1011F000C6FF1CBD1CB500220B4600921146019291
:10120000FFF7D6FF1CBD1CB5002100910B46012243
:1012100001911146FFF7B3FF1CBD1CB500210091E1
:101220000B46012201911146FFF7C2FF1CBD0000D1
:101230000168202902D24FF0A040704701F01F0141
:101240000160014870470000000300500168202938
:1012500002D24FF0A040704701F01F010160014829
:1012600070470000000300500168202902D24FF0AF
:10127000A040704701F01F01016001487047000065
:101280000003005001B56846FFF7E0FF009A012116
:101290009140C0F8081508BD01B56846FFF7E4FFA6
:1012A000009A01219140C0F8081508BD38B5012405
:1012B0000090684631B1FFF7BBFF00998C40C0F841
:1012C000084538BDFFF7B4FF00998C40C0F80C45C5
:1012D00038BD4058002800D00120704708B50022D2
:1012E00042504058009008BDD0F80403084000D098
:1012F000012070474058002800D00120704708B5F1
:10130000002242504058009008BD0121B1EB507FAF
:1013100001D1012070470020704770B50D4600F0E4
:1013200075FA04000FD00020FFF702FA207920B1EF
:101330000020FFF7FFF9112070BD0120256020710A
:101340000020FFF7F7F9002070BD000001490248B6
:1013500000F04EBC8C030020002000402DE9F0413D
:101360000546007916460F4600EB40012D4A01EB79
:10137000C00102EB810494F82A1011B10820BDE8E5
:10138000F081294951F820102868FFF7C6FF08B1FD
:101390001120F4E739462846FFF7E0F9666038691E
:1013A000206030004FF001062FD03F7F4FF48E7148
:1013B0002868FFF793FF4FF4A2712868FFF78EFFAC
:1013C00028681A49C0F8041328684FEA471140F307
:1013D0000730002806DA00F00F0000F1E02080F866
:1013E000141D03E000F1E02080F80014286840F3A9
:1013F000073000F01F0206FA02F14009800000F1F8
:10140000E020C0F88012C0F8001128680421C0F85C
:1014100000150020A061E06184F8290044F8140F51
:10142000A675ACE78C0300205C1F00008000020062
:101430002DE9F05F054600794FF4017600EB40039B
:1014400003EBC000344B03EB80040020636813B14E
:101450002B68C3F80863A3694FF000096BB1E0691A
:1014600038B1606810B12868C0F804631120BDE885
:10147000F09FE2610120216105E0C4F82490A2619F
:10148000E160C4F81C9094F82910014302D1284669
:1014900000F0BCFA60680028286803D0C0F8046334
:1014A0000020E4E74FF4A2763146FFF717FFB2467B
:1014B0004FF4927B59462868FFF70BFF06464FF41E
:1014C00084712868FFF705FF804651462868FFF7BA
:1014D00000FF074648EA07003043EBD056EA070012
:1014E00007D12146286800F061FAA169606A81424B
:1014F000E0D8C4F818900EB10320B8E70FB10F2060
:10150000B5E794F8291001200029296801D0086066
:10151000C6E74860C4E700008C0300202DE9F047CF
:10152000054600790B4600EB400101EBC000234962
:1015300001EB8004284600F043F810B11120BDE80B
:10154000F0874FF00008C4F82080A360626184F83F
:1015500028804FF48E76474631462868FFF7BEFE56
:1015600028684FF00109C0F808902146286800F06B
:10157000B1FA606800BBD5F800A00EE094F828002E
:1015800008B10F2716E031465046FFF7A2FE0028AB
:10159000F4D02146504600F09DFA216A60698142EC
:1015A000F1D331462868FFF794FE0028F9D0286867
:1015B000C0F80C90C4F814803846C0E78C030020B3
:1015C000007900EB400101EBC000044901EB800011
:1015D0004069002800D00120704700008C030020E3
:1015E0000149024800F0B0BBB803002000200040D1
:1015F0002DE9F0410546164600790F46154A00EBE5
:10160000C00102EB810494F8201011B10820BDE85C
:10161000F081114951F820102868FFF77EFE08B1CB
:101620001120F4E739462846FFF7D3F86660386999
:1016300020601EB1397F2846FFF792FC28680821F8
:10164000C0F800150020A061E0610121606184F80C
:101650002010DCE7B8030020601F00002DE9F05FD8
:10166000044600790E4600EBC001DFF8F0A01746F3
:101670000AEB81053046FFF748FEB0B168684FF0CD
:1016800000084FF4047910B12168C1F80893A869E3
:101690004FF0000B80B1E86948B1686810B120686C
:1016A000C0F804931120BDE8F09F1020FBE7EF6124
:1016B0004FF001082E6102E0EE60C5E9067B0025CF
:1016C0004FF488712068FFF71AFE4FF4A27120686A
:1016D000FFF715FE2068C0F83465C0F8387520683B
:1016E000B8F1000F12D0D0F8001241F02001C0F87C
:1016F00000122079D04600EBC0010AEB810040685F
:1017000038B12068C0F804932846CCE70121016075
:10171000EFE74FF4887A4FF4A27951462068FFF73B
:10172000E9FD074649462068FFF7E4FD06464FF409
:1017300092712068FFF7DEFD014647EA0600084384
:10174000EBD0227902EBC20308EB8302C2F818B097
:1017500001B10325002ED7D00F25D5E7B80300200F
:101760002DE9F04704460E460079204900EBC00001
:1017700001EB800517463046FFF7C7FD30B1204624
:1017800000F036F820B11120BDE8F0871020FBE70B
:101790006F61AE604FF49076002731462068FFF706
:1017A000AEFD4FF4AC7841462068FFF7A8FD2068F5
:1017B000AA686969C0F84425C0F848152068012165
:1017C0008160686878B9B14649462068FFF792FDA4
:1017D000064641462068FFF78DFD0643F4D000B170
:1017E0000F27002068613846CEE70000B8030020CC
:1017F0000079054900EBC00001EB8000406900283A
:1018000000D0012070470000B8030020034988423F
:1018100001D10348704700207047000000200040BD
:101820005C00002070B5304C617AA069FFF76CFA5B
:10183000012510B12582042070BD00F099F82B49D4
:10184000207E0860091D607A0860284918310A68FE
:1018500022F0FF020A600B68E26A43EA12630B603F
:101860001102224A10321160204924310D601F4AB2
:10187000002120321160217AA27941EA02211B4A1B
:101880002832116019490831032822D0042820D0B9
:101890002079E278000440EA0220A27810436279BD
:1018A00040EA026040F0C140086094F8280094F8D3
:1018B0002410400640EA0160218C40EA0140E179B1
:1018C00040EA0120094940F0FF000C310860002087
:1018D00070BD2079E278000440EA0220A27810432B
:1018E000627940EA0260DFE7000000200C1500404A
:1018F0002DE9F0410746FFF77FFA1848184A016BB7
:101900001160121D416B1160416C022202EB41011A
:10191000134A303A1160121F12491160124C00260E
:10192000C4F800610321C4F8001201254FB1807A88
:1019300010B1012000F07AF8C4F80C616560BDE8D0
:10194000F081074A017E2C3A1160807A0028F6D097
:101950000648C5604560C0F84061F0E7000000201F
:101960003815004088020020001000400090004020
:101970000B49032008600B490020C1F80002C1F8A0
:1019800010010122C1F81020D1F81021002AFBD04B
:10199000C1F81001486008600349C8817047000021
:1019A00008F50140001000400000002070B5054619
:1019B00088690C4600284FF4847128460AD0FFF746
:1019C0008DFCD5F81805626AE1688854606A401C8D
:1019D000606270BDFFF782FCD5F8180570BD1FB5B9
:1019E00001238DF80030CDE90121D0E900126846CD
:1019F00090471FBD1FB501238DF800308DF80810EA
:101A00000192D0E90012684690471FBD10B5044608
:101A100000684FF49271FFF761FC4FF48471206805
:101A2000FFF75CFC20680121016010BD30B510B1EA
:101A30007D22062101E0342203210B4C23680B4D4B
:101A40002B40134343F000422260074A40321368A0
:101A5000064C8F34234043EA011141F000411160EC
:101A60000349C87230BD00003C17004000FFFF7FF3
:101A70000000002010B54FF080400021C0F8001198
:101A800001220260D0F80031002BFBD0104BD86946
:101A90004260C260C0F80415C0F84011C0F844119B
:101AA000C0F84811C0F84C114FF48034C0F804431A
:101AB000C0F800220424C0F810459C6BC0F84045D3
:101AC0004FF48274C0F8444502600020596110BD93
:101AD0000000002070B50C4605464FF48E71FFF7EC
:101AE000FDFB216AA068415C206A401C2062C5F8A9
:101AF0001C1570BD1FB500228DF800200291816871
:101B000001914261D0E90012684690471FBD0178FB
:101B1000022901D0012902D14068FEF73FBD70477C
:101B20007CB50178244D81B301290BD002292BD13A
:101B30008DF80010C068691C01900122C81DFFF7D4
:101B4000E5FA2EE0406801781C48FEF74DFD1B4C7D
:101B5000012618B18DF80060019006E0A068E168E8
:101B6000814205D000208DF80000696868468847EA
:101B7000A068E168081AA188884207D80E490122A6
:101B8000491CC81DFFF7C2FA7CBD01E0AE70FBE73F
:101B90000A4809491030FEF70CFD30B103208DF8DA
:101BA0000000696868468847EEE70349012201F1B1
:101BB0000800FFF7BBFAE7E764000020DC03002021
:101BC0001FB50A4601788DF8001041680191017A2D
:101BD0008DF80810C0680390044850F822100838A7
:101BE00050F82220684690471FBD00005400002096
:101BF0002DE9FF470C4605464FF40071FFF774FBD3
:101C000001274FF40178002618B34FF49279494622
:101C10002846FFF75EFBE0B149462846FFF75EFB2A
:101C2000C5F8088394F8290000B96F6002208DF888
:101C30000000D5F88004C5F880040390A0690290E4
:101C4000E0680190A661E661D4E900126846904719
:101C500028E004212846FFF747FB18B34FF48471AE
:101C60002846FFF736FBE8B121462846FFF79EFEDF
:101C7000616AA069884215D1E06938B1E268616A99
:101C8000A0612069E6616662E06008E094F82900DE
:101C900000B96F60C5F80883A661E268616A2046F2
:101CA000FFF79DFE4FF48E7841462846FFF711FB63
:101CB00078B1206A6169884202D294F8280020B382
:101CC00041462846FFF70AFB616911B12046FFF73C
:101CD00011FF4FF4A27841462846FFF7FAFA002890
:101CE00018D041462846FFF7F9FA94F8290000B1C8
:101CF0002F60A06900280DD0A661E268616A04B077
:101D00002046BDE8F047FFF76ABE21462846FFF7A8
:101D1000E1FEDEE7BDE8FF871FB50A4601788DF8D2
:101D2000001041680191017A8DF80810C068039095
:101D3000044850F82210083850F82220684690478E
:101D40001FBD0000540000202DE9FF410C464FF458
:101D5000927705463946FFF7CDFA0026C0B13946DD
:101D60002846FFF7CCFA02208DF80000D5F8800451
:101D7000C5F880040390D5F83C058DF80800E068AC
:101D80000190A661E661D4E900126846904723E01D
:101D90004FF4887739462846FFF7ACFAE0B1394668
:101DA0002846FFF7ACFAD5F83C15A069884213D154
:101DB000E06960B1E268D5F8000220F02000C5F8C3
:101DC0000002E069A0612069E661E06001E0A661CF
:101DD000E2682046FFF70EFE4FF4A2773946284608
:101DE000FFF788FA60B139462846FFF788FAA069FC
:101DF00030B1A661D5F83C152046E268FFF7FAFD40
:101E00004FF4907739462846FFF774FA002813D02C
:101E100039462846FFF773FA606900280CD0D5F8D8
:101E20004C058DF800608DF80800A068019066618F
:101E3000D4E9001268469047BDE8FF810800000021
:101E40000600000005000000070000000000000080
:101E500000A04E000D0E0F100B0C1819FFC1FBE86F
:101E60004C90728BE7B3518963AB232302841872C1
:101E7000AA612F3B51A8E53749FBC9CA0C18532C5E
:101E8000FD45E39AE6F15DB0B61BB4BE2A50EAE91F
:101E90000E9C4B5E5724CCA1B759B887FFE07D74E8
:101EA0002648B9C5F3D9A8C4B1D5911101420C395E
:101EB000D5B0979D28D4F29BA4FD6465068C299625
:101EC000FEA2714DF3F82E58DB0D5A5F1528F574FC
:101ED00007CE25AF2B12E6D0DB2CDCC37FF03E3AD9
:101EE00013A4DCE2F96C54E2D8EAC8880021869C8D
:101EF0006AD8CB4E146AF94DD27EB23203C6144B67
:101F00007FD1B8A6797C17ACED06ADAF0A947ABA4A
:101F100003E792D7150973E86D16EEE13F781F9D30
:101F200009526EF17C362A716C7564448010434E00
:101F300035EC65270AB5FC26693F599901638AA5E6
:101F4000BF685CD33CBE0BD67683D657054A3DDDD1
:101F50008173C9EB8A8439F4360BF7004D13000006
:101F6000E1150000FFFFFFFFFFFFFFFFFFFFFFFF87
:101F7000FFFFFFFF00000000000000000000D6018E
:101F800007010000A41F00000000002088000000DE
:101F90004C0500002C200000880000207823000061
:101FA0005C050000000808010000010003030000B8
:101FB0000000000000000000000000000000000021
:101FC000008000400300000000000000000000004E
:101FD000294176715B06000055555500C409000083
:101FE00000000000000000000000000000000000F1
:101FF00000000000000000000000000000000000E1
:1020000000000000000000000000000000000000D0
:102010000000000000200040000000000020004000
:0C20200000000000000000000090D00351
:0400000500000201F4
:00000001FF
