:020000040000FA
:10000000C833002011040000190400003102000070
:100010001D0400001F040000210400000000000077
:1000200000000000000000000000000023040000A9
:10003000250400000000000027040000290400003F
:10004000371000002B040000491200002B040000B0
:100050002B0400002B040000F90B00002B0400000F
:100060002B0400002B0400002B0400002B040000D4
:100070002B0400002B0400002B0400002B040000C4
:100080002B040000451000002B0400002B0400008E
:10009000691000002B0400002B0400002B0400005A
:1000A0002B0400002B0400002B0400002B04000094
:1000B0002B0400002B0400000000000000000000E2
:1000C0002B0400002B0400002B0400002B04000074
:1000D0002B0400002B0400002B040000A1120000E0
:1000E0002B0400002B0400002B0400000000000083
:1000F000000000002B040000000000002B040000A2
:1001000000000000000000000000000000000000EF
:1001100000000000000000000000000000000000DF
:1001200000000000000000000000000000000000CF
:1001300000000000000000000000000000000000BF
:1001400000000000000000000000000000000000AF
:10015000000000000000000000000000000000009F
:10016000000000000000000000000000000000008F
:10017000000000000000000000000000000000007F
:10018000000000000000000000000000000000006F
:10019000000000000000000000000000000000005F
:1001A000000000000000000000000000000000004F
:1001B000000000000000000000000000000000003F
:1001C000000000000000000000000000000000002F
:1001D000000000000000000000000000000000001F
:1001E000000000000000000000000000000000000F
:1001F00000000000000000000000000000000000FF
:10020000DFF80CD000F024FB00480047F96E000036
:10021000C833002000B583B002900091019244F2EF
:10022000010071466A4601F087F903B000BD000085
:10023000094B1EF0040F1CBFEFF309801847EFF3C2
:1002400008800649064A884201D8904202D88D4665
:100250004FF0000018470000AD0D0000C83300202B
:10026000C813002030B450E8012F93B2C48923444E
:100270008489A34228BF1B1B0489A34202BFBFF38A
:100280002F8F002007E0C3EA020340E80134002C6E
:10029000E9D14FF001000A6030BC704750E8012FEF
:1002A000C2EA024240E801210029F7D1704730B488
:1002B00050E8022F1FFAA2F3C488A34202BFBFF383
:1002C0002F8F00200DE0C48923448489A34228BFD6
:1002D0001B1BC2EA034340E80234002CE8D14FF074
:1002E00001000A6030BC704750E8022FC2EA224287
:1002F00040E802210029F7D17047034653E8022F56
:10030000D988B2EB324F4FF0000017BF92B241EAEA
:10031000014142EA014104E05A68B2EB324F08BFA2
:10032000012043E80212002AE8D1704730B40446A5
:1003300054E8000F0D4644E80053002BF8D1156037
:1003400030BC704730B4044654E8000F40EA010561
:1003500044E80053002BF7D1156030BC704730B42F
:10036000044654E8000F00EA010544E80053002B5E
:10037000F7D1156030BC704730B4044654E8000F24
:1003800080EA010544E80053002BF7D1156030BC2A
:10039000704730B4044654E8000F00EB010544E810
:1003A0000053002BF7D1156030BC704730B40446C1
:1003B00054E8000FA0EB010544E80053002BF7D1EF
:1003C000156030BC704770B404464FF0000054E82C
:1003D000006F0D68AE4207BF44E80023012044E8E7
:1003E00000630E60002B1CBF0020F0E770BC70475C
:1003F00030B4044654E8000F88422CBF451A054625
:1004000044E80053002BF5D1156030BC7047000064
:100410000648804706480047FEE7FEE7FEE7FEE79E
:10042000FEE7FEE7FEE7FEE7FEE7FEE76D100000F1
:10043000010200002DE9F05F0546002092469B4630
:1004400088460646814640241BE0284641464746EA
:10045000224600F0ABF953465A46C01A914110D3D8
:1004600011461846224600F016F82D1A67EB0108CF
:100470004F4622460120002100F00DF817EB00093D
:100480004E41201EA4F10104DFDC484631462A46D5
:100490004346BDE8F09F202A04DB203A00FA02F12F
:1004A000002070479140C2F1200320FA03F3194362
:1004B00090407047004870477CEC000010B504463F
:1004C000FFF7F8FF0068005D00F0010010BD2DE9A6
:1004D000FE43994615468846074601AC022942D399
:1004E000002D40D000200290A8F101004FF0FF360F
:1004F000009022E000FB057201FB057011464A46A0
:100500009047002805DC54F82600304444F82600C3
:1005100013E060682A4600FB057154F8040C00FBE8
:10052000057007E00B7890F800C001F801CB00F8E7
:10053000013B521E002AF5D1764254F8040C616842
:100540008842D7DC4B462A463846FFF7C0FF54F8AE
:10055000040C4B46A8EB0001401C00FB05702A462A
:10056000491EFFF7B4FFBDE8FE8310B5431A93425E
:1005700009D28318881803E010F8011D03F8011D43
:10058000521EF9D210BD40EA01039B0703D009E0D7
:1005900008C9121F08C0042AFAD203E011F8013B6F
:1005A00000F8013B521EF9D210BDD2B201E000F8B2
:1005B000012B491EFBD270470022F6E710B5134607
:1005C0000A4604461946FFF7F0FF204610BD421CBC
:1005D00010F8011B0029FBD1801A704710B50022CA
:1005E00000E0521C835C8C5CA34201D1002BF8D14B
:1005F000D8B2E1B2401A10BD034611F8012B00F841
:10060000012B002AF9D11846704730B50546002065
:10061000034600E05B1C934205D2EC5CC85C201AE8
:1006200001D1002CF6D130BD0FB400B58DB010A9AA
:1006300009900B9000914FF0FF300A9000200C9031
:1006400005480690054807906A4609A80F9900F0EA
:10065000D1F80DB05DF814FB110800002F08000060
:100660002DE9FF5F1D464FF0FF3BD5E9014691465E
:100670005F464FF00008A9697F1C01988847296AE6
:10068000824688470028F6D1BAF1FF3F0CD024F407
:10069000C064002E19DD600614D5BAF12B0F09D005
:1006A000BAF12D0F0ED103E0584604B0BDE8F09F1B
:1006B00044F48064A9697F1C01988847761E8246AD
:1006C000002E02DDBAF1300F03D0B9F1000F26D0B1
:1006D00032E0A969761E44F400747F1C01988847B3
:1006E0008246002E05DDBAF1780F06D0BAF1580F18
:1006F00003D0B9F1000F10D01EE0B9F1000F02D005
:10070000B9F1100F18D1A969761E24F400747F1C6A
:10071000019888478246102002E0082000E00A2065
:10072000814609E008FB0908A969761E44F40074B3
:100730007F1C019888478246002E05DD49465046B9
:1007400000F044F80028EDDAE96901988847A0052F
:1007500002D46FF00100A8E7E00725D1600613D5A9
:10076000600502D5C8F1000000E0404629680A1D76
:100770002A600968220501D5087015E0220701D515
:10078000088011E008600FE02868011D29600068FA
:10079000210502D580F8008006E0210702D5A0F8E7
:1007A000008001E0C0F8008038467EE7202A04DBA4
:1007B000203A21FA02F00021704721FA02F3D040DA
:1007C000C2F1200291400843194670473A2800D2EE
:1007D000303820F02002412A01D3A2F137008842AC
:1007E00001D34FF0FF307047026811441378016065
:1007F00018467047D16004495161044911620021D3
:100800001161114600F036B8E9070000BD04000090
:10081000426842B1016811F8013B23B1521EC0E9A0
:100820000012184670470121C160881E7047426857
:100830005AB1C368016843B983688B4205D0491E29
:10084000521CC0E90012002070474FF0FF30704783
:10085000064C074D06E0E06840F0010394E807000D
:1008600098471034AC42F6D3FFF7CEFC24000100C9
:10087000440001002DE9F34F8BB04FF0000801F167
:100880000C000C464FF0010B46460DF1080A019092
:100890006269012101989047051E2DD0252D2CD08D
:1008A000216A8847C0B16269012101989047216A95
:1008B00088470028F7D1411E62690198904700E0FF
:1008C000761CA1690B988847216A88470028F7D1D0
:1008D000E1690B988847DBE7A1690B9888470746D1
:1008E000A84201D1761CD3E7E1690B9888477F1CA9
:1008F00002D1B8F1000F6FD046E1002762693D4692
:100900003946019890472A2804D16269012101984B
:1009100090470125DFF88492626901210198904790
:10092000A0F130010A290AD24F45E5DC07EB870127
:1009300000EB4107303FDFD445F01005ECE7E90656
:1009400001D46FF000476C280AD04C2814D06828D6
:1009500015D06A280DD074281CD07A281AD01DE032
:1009600062690121019890476C2802D045F0040586
:1009700014E045F002050DE045F020050AE062694B
:10098000012101989047682802D045F0080505E04C
:1009900045F400656269012101989047C4E9015757
:1009A00065283DD019DC58287AD00CDC452837D092
:1009B00004DC252826D0412831D131E046282FD02B
:1009C00047282CD12CE05B2877D0612828D06328D9
:1009D0007CD0642823D15AE0D0E06F2848D008DCCE
:1009E00066281DD067281BD0692821D06E2816D113
:1009F00027E0702845D0732868D0752847D078281C
:100A00000DD14DE0A1690B988847054625283FF494
:100A100069AFE1690B9888476D1C3FF46AAFB3E09A
:100A200023466A466FF001000B99AFF300809EE009
:100A300045F040006060A80723464FF0000236D41E
:100A40003EE0E8077FF447AF2068011D21600068A1
:100A5000290501D506701BE7290701D5068017E790
:100A6000A90703D5F117C0E9006111E706600FE798
:100A700045F040006060A80723464FF0080216D4F6
:100A80001EE040F60E0125EA0100606016E045F028
:100A900040006060A80723464FF00A0207D40FE029
:100AA00045F040006060A80708D5234610226FF08B
:100AB00001000B99AFF3008059E007E023461022B4
:100AC0006FF001000B99FFF7CBFD50E04FF00009EC
:100AD0004F464B46632802D05B2806D040E0E8062C
:100AE00001D40120A06001273AE062690121019848
:100AF00090475E2805D14FF0010962694946019887
:100B00009047216939B900210A46534643F821200C
:100B1000491C0829FADBB0B3216969B9C11700EB98
:100B2000D16253110AEB830122F01F02821A0120C5
:100B30000B68904003430B60626901210198904764
:100B40005D28E8D1B9F1000F09D00020514651F8D5
:100B50002020D24341F82020401C0828F7DB02ABBC
:100B6000224600976FF001000B99AFF30080002838
:100B70000CDA401C08D1BBF1000F05D04FF0FF305C
:100B80000DB0BDE8F08FFFE74046F9E7E90701D176
:100B900008F1010806444FF0000B79E6CCCCCC0CF0
:100BA00070B58C1810F8015B15F0070301D110F82F
:100BB000013B2A1106D110F8012B03E010F8016B5C
:100BC00001F8016B5B1EF9D12B0705D40023521EDF
:100BD0000DD401F8013BFAE710F8013BCB1A921C47
:100BE00003E013F8015B01F8015B521EF9D5A14245
:100BF000D8D3002070BD00002DE9F04F00268DB045
:100C0000DFF8A081B14604964FF480750124374681
:100C10000596284609F02EFB38B1D8F80403204287
:100C200003D0284609F01CFB26432D1D64007F1CC1
:100C3000ADB2082FEDD34FF4BE74204609F01AFB75
:100C400048B1204609F00CFB46F0004604AA0221F8
:100C5000002009F0CFFA544C16F0FF0F15D00127F1
:100C6000002537420DD008EB8501D1F81005D1F8E9
:100C70001015C0F3052054F82520C1F3014102B13D
:100C800090477F006D1C082DEBD3002E7EDA0020EC
:100C9000CDF82890411E0DF1100B07AACDF82C902D
:100CA00042F82010401C91460228F9D300252E4618
:100CB000A11911F8607F91F9000027F0C008401CCD
:100CC00040D007A9404606F08DFD40B34FEA971A81
:100CD000404602F0C5FD54F820701FB1BAF1030F71
:100CE00003D006E0BAF1030F2CD10AA9404606F062
:100CF00081FD02A8CDF8088009F0BAF9029900EB4D
:100D00008100D0F8000704A9C0F3014002904046DA
:100D100006F068FD0028029802D0022802D011E0F7
:100D200003280FD1BAF1030F08D10298022833D05B
:100D30000221404609F054F96D1CEDB217B151463D
:100D40004046B847761C042EB2D3002D21D001AA0C
:100D50000221002009F04EFA00205A460DF104014C
:100D600052F8206051F82030B34217D000200AAE6C
:100D70004FEA090351F8207042F8207056F82070AD
:100D800043F82070401C0228F4D300E001E0002D5D
:100D90008CD10DB0BDE8F08F0321CAE7401C0228BA
:100DA000DED3F6E700600040F80900201CB582465B
:100DB00009F012FE09F094FB0028FBD139485FEAE4
:100DC0000A05076839483A49374EA0EB01004FEA57
:100DD000D0004FF0010808EB004470881ED00028B6
:100DE00021D0204633A1AA6909F0B4FC70880028FC
:100DF00019D0D5E90201CDE90001D5E9002320464B
:100E000032A109F0BFFC708868B1E8690090D5E9AB
:100E1000042320463BA109F0ACFC04E018B12046B5
:100E200042A109F093FC1F48001D0068800705D50A
:100E3000708818B120464A4909F088FCDFF82491EF
:100E4000002500BF08FA05F0384208D059F82520DF
:100E50002AB1708818B1204643A109F07BFC6D1CB3
:100E60001A2DEFD3380608D5708830B10D480C30F4
:100E7000026820463FA109F06DFC380408D570884F
:100E800030B1084810300268204642A109F062FCE7
:100E90000448C8300068C00700D000BE504600F0CB
:100EA00087F8000028ED00E0C40200200C010100DA
:100EB000A400010048415244204641554C54206151
:100EC000742030782530385800000000202052303F
:100ED0003A2020307825303858202052313A2020CE
:100EE000307825303858202052323A20203078256A
:100EF000303858202052333A202030782530385866
:100F00000000000020205231323A2030782530385D
:100F10005820204C523A2020307825303858202054
:100F20005053523A2030782530385800537461635A
:100F30006B2076696F6C6174696F6E3A20737461AF
:100F4000636B20706F696E746572206F757473695E
:100F5000646520737461636B20617265612E0000AB
:100F60000CEF00006801002043617573653A20258D
:100F7000732E00004D656D4D616E616765204661A1
:100F8000756C7420416464726573733A20307825FF
:100F900030385800427573204661756C7420416486
:100FA00064726573733A2030782530385800000039
:100FB000BFF34F8F05480168054A01F4E061114312
:100FC0000160BFF34F8F00BFFDE700000CED00E0B4
:100FD0000400FA0500F01F02012191404009800041
:100FE00000F1E020C0F88012704700F01F020121DC
:100FF00091404009800000F1E020C0F800117047E6
:1010000000F01F02012191404009800000F1E02022
:10101000C0F8001270474907090E002806DA00F0F0
:101020000F0000F1E02080F8141D704700F1E0206F
:1010300080F80014704710B50AF07AFFBDE8104040
:101040000AF01CBD07480021C0F84011C0F8441147
:10105000C0F84811C0F84C11C0F80011C0F80411D4
:101060000CF030BB001001400CF07EBA30B54FF0F0
:10107000805000228300D0F83011C3F80C21C3F84F
:101080001021624B1A60624B1B68624C2360604BFC
:101090001B1D1B68241D23605D4B08331B68241D2A
:1010A00023605B4B0C331B68241D2360584B1033AB
:1010B0001B68241D2360564B14331B68241D2360BA
:1010C000534B18331B68534C20342360504B1C3354
:1010D0001B68241D23604E4B20331B68241D236096
:1010E0004B4B24331B68241D2360494B28331B685A
:1010F000241D2360464B2C331B68241D2360444B66
:1011000030331B68434C40342360414B34331B68FD
:10111000241D23603E4B38331B68241D23603C4B49
:101120003C331B68241D2360394B40331B68241D4E
:1011300023600124082902D1D0F8343113B10829E1
:1011400004D006E0354B3449196005E0D0F834315D
:1011500013B1082904D006E0314BFB21196005E0EA
:10116000D0F8343113B1082908D00EE090F8583285
:101170002C48016863F30301016002E0D0F83431C8
:101180001BB929494FF40070086028480168C90755
:1011900002D06FF0010101602548016841F470013F
:1011A0000160BFF34F8FBFF36F8F4FF01021D1F865
:1011B0000002002803DBD1F80402002822DA1D4BCC
:1011C0001C601D480468002CFCD01224C1F80042A9
:1011D0000568002DFCD0C1F8044201680029FCD04C
:1011E0001A6001680029FCD0BFF34F8F10487C388B
:1011F0000168124A01F4E06111430160BFF34F8FAF
:1012000000BFFDE70F490E48086030BD38050040BB
:101210000404001020C50040488103008C560040A3
:1012200018F50040E40E00404096024000040040E3
:1012300088ED00E004E5014000E401400400FA0507
:101240000090D0036C02002010B5054C206818B93E
:1012500004A12B2001F02AFF2068BDE810400047C0
:10126000B80000202E2E5C2E2E5C2E2E5C2E2E5CC6
:101270002E2E5C2E2E5C6D6F64756C65735C6E72C9
:1012800066785C647269766572735C7372635C70B5
:1012900072735C6E7266785F7072732E630000000A
:1012A0002DE9F05F5448D0F8045300242E464FF047
:1012B000010913E096FAA6F0B0FA80F7B80000F53D
:1012C000807080460AF0DCFA28B140460AF0E0FA65
:1012D00009FA07F0044309FA07F08643002EE9D122
:1012E00008F036F8002869D0444AD078F0BBA00254
:1012F00064D5434940F2A978C1F80080081D03680D
:1013000013F0FF0C02D0036803EA0C0C40F2AA7A37
:10131000C1F800A0036813F0FF0301D00668334052
:1013200040F2AB7BC1F800B0066816F0FF0601D0B2
:1013300007683E4040F2AC770F60076817EA0C0779
:1013400009D0D2F810C04CEA070CC2F810C0C1F89E
:1013500000800760076840F2AD770F6007681F40A4
:1013600009D0136943EA0743136100E026E0C1F89E
:1013700000A00760036840F2AE730B60036833405F
:101380000BD0DE0701D044F40004DE0601D544F0A2
:101390000104C1F800B003600068106930F0011169
:1013A00002D005F080710C4310F0011F06D06905D2
:1013B00004D520F0011044F480641061C4F3C056D9
:1013C00024F400044F46DFF83C8009E094FAA4F0CE
:1013D000B0FA80F558F82500804707FA05F08443F5
:1013E000002CF3D10CF018FD002E03D0BDE8F05F07
:1013F00004F0AEB8BDE8F09F007002408800002005
:1014000000780240F8E40000C11700EBD161074BFF
:101410004A1153F8222021F01F01411A012088406F
:10142000024201D0012070470020704700E100E037
:1014300002E008C8121F08C1002AFAD1704770479D
:10144000002001E001C1121F002AFBD170470220D9
:1014500001F0C2BE70B50A4D686818B909A19420A0
:1014600001F024FE002406E06868012110F8340031
:101470000AF074FB641C28788442F5D3002070BD08
:10148000C00000202E2E5C2E2E5C2E2E5C2E2E5C9C
:101490002E2E5C2E2E5C636F6D706F6E656E747396
:1014A0005C6C69627261726965735C627574746F99
:1014B0006E5C6170705F627574746F6E2E63000095
:1014C000F8B515460C460646052A01D20720F8BD98
:1014D0000AF0B2FC18B90AF075FC0028F7D11249DD
:1014E00000224E600C708D60C1E90422C1E9062221
:1014F0000E4D0DE006EBC4002968009181788DF84F
:10150000011000780A4A69460AF0A4FB0028DED1DF
:10151000641EE4B2EED2BDE8F84004480021054A5A
:10152000001D00F0CFB80000C0000020A4E50000BE
:1015300011580000555100002DE9FE4314460F4696
:10154000804672B609F048FA08F0CAFF0028FBD1BD
:101550002448254A6FF48041A0EB0200204E4FEA58
:10156000D0004FF0010218EB010102EB00451ED044
:101570007088012912D020B128463A461BA109F0F3
:10158000E9F820480068C00700D000BE224603B03A
:1015900039464046BDE8F04300F062B80028F0D07C
:1015A0002388284618A1626809F0DBF8E9E770880B
:1015B0000028E6D0A06809F089FF0346D4E90001BD
:1015C000CDE900100297284616A1A26809F0E4F8B8
:1015D00070880028D5D028461CA109F0B7F8D0E7BC
:1015E000D40200202C010100A4000100554E4B4EF6
:1015F0004F574E204641554C542061742030782579
:1016000030385800F0ED00E0415353455254494FF3
:101610004E204641494C45442061742025733A25AB
:10162000750000004552524F52202575205B2573EE
:101630005D2061742025733A25750D0A50432061A1
:10164000743A20307825303878000000456E6420E8
:101650006F66206572726F72207265706F727400AF
:1016600008B501238DF800309DF80030144B186048
:1016700059609A606FF48041401807D001280FD15B
:10168000DA60D86800889861D86807E01A6118693C
:101690008068586118690068986118694068D86165
:1016A000186858689868D868186958699869D86936
:1016B00072B600BF9DF800000028FBD162B608BDDD
:1016C000D40A0020074B9B7823B12AB120B10068CF
:1016D000037C1BB1082070470720704741744261AA
:1016E00000207047F40A002070B50BF035FA10485E
:1016F00000240B21047044700E4D817014206C6026
:101700002C706C70FFF766FC07211420FFF783FC38
:101710001420FFF76AFC0848046007211120FFF736
:101720007AFC0548001F0068A860002070BD00001A
:10173000F40A0020E0000020081501402DE9F843DC
:10174000DFF8709099F802305BB350B3052902D2EC
:101750000720BDE8F88343691BB3437C012B22D0EB
:1017600000270446002588461646284601F0BAFBA5
:1017700068460CF077FDC0B1012101700E4944604C
:101780000968C0E90218C0E904769DF8000089F8EC
:101790000100002001F0D4FB1420FFF731FC2846A3
:1017A000D7E70820D5E70F46DBE70425002001F046
:1017B000C7FBF4E7F40A00200415014006498978C4
:1017C00039B130B1416921B10021017402210BF01E
:1017D00059BF082070470000F40A002070B5054684
:1017E0000648046907E02946204602F0B1F9204680
:1017F00000F0BEF90446002CF5D170BD08010020B0
:1018000070B50A4805690EE02E7A002405E02146ED
:10181000284601F0F1F8641CE4B2B442F7D328463C
:1018200000F0A6F90546002DEED170BD080100209C
:101830002DE9F0410E4840F24477056914E02E7A14
:1018400000240BE000222146284601F039F918B1A6
:1018500008A1384601F02AFC641CE4B2B442F1D37A
:10186000284600F085F90546002DE8D1BDE8F08155
:10187000080100202E2E5C2E2E5C2E2E5C2E2E5C5F
:101880002E2E5C2E2E5C636F6D706F6E656E7473A2
:101890005C6C69627261726965735C757362645CC9
:1018A0006170705F757362642E63000070B50646E8
:1018B0000948062504690AE03146204602F048F945
:1018C0000546062805D1204600F052F90446002CB2
:1018D000F2D1284670BD000008010020F8B50400D0
:1018E00004D138A140F2445001F0E0FB606820B917
:1018F00034A140F2455001F0D9FB6068006820B97E
:1019000030A140F2465001F0D1FB2068006820B1C0
:101910002CA140F2475001F0C9FB07F0FDFE10B9C1
:1019200007F004FF20B927A140F24B5001F0BEFBA5
:1019300000250FE0002705E0007800F0A7FC08B1C3
:101940001120F8BD3946781CC7B2304600F0C0F807
:101950000028F1D12946681CC5B2204600F0E0F805
:101960000600E7D100250DE0002703E000782146BE
:1019700000F092FC3946781CC7B2304600F0A8F857
:101980000028F3D12946681CC5B2204600F0C8F8EB
:101990000600E9D1194D40F2715607E0A04203D18B
:1019A00008A1304601F082FB2868056828680028F5
:1019B000F4D113482C60694680690090204602F0FB
:1019C000C7F8F8BD2E2E5C2E2E5C2E2E5C2E2E5CC3
:1019D0002E2E5C2E2E5C636F6D706F6E656E747351
:1019E0005C6C69627261726965735C757362645C78
:1019F0006170705F757362642E63000018010020CF
:101A0000B8E500002DE9F04F87B04FF000081D4603
:101A1000934689460446DDF840A04646CDF80C8042
:101A200000E0761C6068012300224768214603A875
:101A3000B8470028F5D140468DF800800027B84609
:101A400001903BE0606801236A46D0F804C021465B
:101A500001A8E0476068012305AAD0F804C0214628
:101A600001A8E0479DF8141049451AD1D84514D172
:101A70009DF80000CAF8000005F8010B6A1C85F803
:101A8000009060689DF800302146456801A89B1EC3
:101A9000A847002007B0BDE8F08F08F1010000F072
:101AA000FF0860689DF800300022D0F804C021468D
:101AB00001A89B1EE0479DF800000744B742C1D330
:101AC0000520E7E701480069704700000801002091
:101AD00070B50D46040004D1064940F21D1001F016
:101AE000E5FA6078A84201D8002070BDA0782044B3
:101AF000284470BDC4EC000070B50D46040004D14C
:101B0000064940F21D1001F0D1FA6078A84201D8D0
:101B1000002070BDA0782044284470BDC4EC0000B3
:101B200070B50D46040003D10649EA2001F0BEFA63
:101B3000207AA84201D8002070BD05EB4500093489
:101B4000204470BDC4EC000070B50D46040003D104
:101B50000649EA2001F0AAFA207AA84201D800201A
:101B600070BD05EB45000934204470BDC4EC000095
:101B700010B5040004D1044940F21D2001F096FA8A
:101B80002068006810BD0000EC23000010B50400C0
:101B900004D104A140F21D2001F088FA20680068F9
:101BA00010BD00002E2E5C2E2E5C2E2E5C2E2E5C88
:101BB0002E2E5C2E2E5C636F6D706F6E656E74736F
:101BC0005C6C69627261726965735C757362645C96
:101BD0006170705F757362642E680000024840781F
:101BE000002800D0012070470801002010B520B95E
:101BF00009A14FF4C96001F059FA15494878401C11
:101C000010F0FF00487004D103A140F24B6001F0D6
:101C10004DFA002010BD00002E2E5C2E2E5C2E2EC4
:101C20005C2E2E5C2E2E5C2E2E5C636F6D706F6EA4
:101C3000656E74735C6C69627261726965735C7500
:101C40007362645C6170705F757362642E63000020
:101C50000801002010B520B908A140F2536001F03E
:101C600025FA144C607820B904A140F2556001F0C7
:101C70001DFA6078401E6070002010BD2E2E5C2E74
:101C80002E5C2E2E5C2E2E5C2E2E5C2E2E5C636F18
:101C90006D706F6E656E74735C6C6962726172698F
:101CA00065735C757362645C6170705F75736264A8
:101CB0002E6300000801002070B5040004D125A1A6
:101CC00040F2D95001F0F2F9606820B921A140F248
:101CD000DA5001F0EBF96068006820B91DA140F20C
:101CE000DB5001F0E3F907F017FD10B907F01EFD16
:101CF00020B918A140F2DD5001F0D8F9234D40F28F
:101D0000E35608E0A04203D112A1304601F0CEF91B
:101D1000286805682D1D28680028F3D120684068D0
:101D200020B10CA14FF4BD6001F0C0F9174D40F295
:101D3000EE562D1F08E0A04203D106A1304601F067
:101D4000B5F9286805682D1D28680028F3D12C6096
:101D500070BD00002E2E5C2E2E5C2E2E5C2E2E5C76
:101D60002E2E5C2E2E5C636F6D706F6E656E7473BD
:101D70005C6C69627261726965735C757362645CE4
:101D80006170705F757362642E6300002001002033
:101D900010B5040004D111A140F2F95001F086F908
:101DA00007F0BAFC10B907F0C1FC20B90BA140F252
:101DB000FB5001F07BF917480BE0A14207D12168E5
:101DC00049680160206800214160084610BD08682C
:101DD000001D01680029F0D1052010BD2E2E5C2EBB
:101DE0002E5C2E2E5C2E2E5C2E2E5C2E2E5C636FB7
:101DF0006D706F6E656E74735C6C6962726172692E
:101E000065735C757362645C6170705F7573626446
:101E10002E6300001C01002010B500210A464FF47B
:101E200000634418227200EB8104491CC9B263614B
:101E30000429F6D380F8292080F8282010BD10B599
:101E4000002000F0FBF9BDE81040802000F0F6B95A
:101E500010B5002000F0F4F9BDE81040802000F03B
:101E6000EFB900002DE9F041494E0D4602460978D0
:101E7000062430780B2934D009DC4FF001070729FC
:101E80006DD2DFE801F06C0D0F116C2951000C29A7
:101E90002FD00D2936D00E293DD085295FD115E0F0
:101EA000032016E000245AE03948001D05F0D2FA5C
:101EB00028B138480760BFF36F8FBFF34F8F30787A
:101EC0000028EFD134A140F202400FE0032846D1B0
:101ED00004200BF0A7FE42E0104600F09FF80446F5
:101EE0003DE00028DED02CA140F2164001F0DEF8E3
:101EF000D8E7012804D028A140F21C4001F0D6F810
:101F0000002005E03348006810F0010F0AD00220DD
:101F10000BF088FEC6E7022804D21FA14FF48660AA
:101F200001F0C4F80120F3E7E878032817D0A87877
:101F300030B1802804D018A140F23E4001F0B6F83C
:101F40001349E87808310A6832B100230B60496808
:101F50009047040006D000E00E2407F071FC2046F4
:101F6000BDE8F0810BF056FE28B1A8780028F6D124
:101F700007F029FCF3E74FF08050D0F83011082922
:101F800003D1D0F834010028E9D007F019FCE6E7C6
:101F90002C0100205C7002402E2E5C2E2E5C2E2E1A
:101FA0005C2E2E5C2E2E5C2E2E5C636F6D706F6E21
:101FB000656E74735C6C69627261726965735C757D
:101FC0007362645C6170705F757362645F636F728B
:101FD000652E63003804004002494978C14001F091
:101FE000010070472C010020024A0146D2E900029C
:101FF00010470000500D002070B50C46054607F054
:10200000D9FBA84201D0102070BD0348D4E90012CA
:10201000C0E90212002070BD2C0100207FB50546EA
:1020200005208DF8000006240DF1010007F0E0FB0B
:102030000BF0F0FD2949002008609DF8010010F028
:102040001F0006D001280FD0022826D0032833D144
:1020500006E0694628460AF045FF044606282AD1CC
:102060006846FFF723FC25E09DF8050003A900F072
:1020700003FD050008D06A469DF80C1000F0B8FC7E
:102080000446062802D016E0102415E06A469DF8A2
:102090000C1028460BF070F80CE09DF805000107C5
:1020A00005D0694600F080F80446062803D168464A
:1020B0000AF0BAFF044624B107F0C2FB04B0204680
:1020C00070BD0BF0A7FD30B107F074FB0028F5D10F
:1020D00007F079FBF2E707F073FBEFE7340100202C
:1020E000FEB5C08814460E46A04201D2054600E067
:1020F0001546844207D2802006F054FFB4FBF0F16D
:1021000000FB114068B100200096CDE9015000208D
:1021100000F0E8FE6946802000F0F0F8040002D0EC
:1021200006E00120F0E705498020FFF765FF04463F
:10213000002000F005FF2046FEBD000000E6000084
:1021400008B140210160014870470000A40D002043
:1021500010B507F0F3FA20B104A140F2AB3000F063
:10216000A5FFBDE8104006F013BD00002E2E5C2E2A
:102170002E5C2E2E5C2E2E5C2E2E5C2E2E5C636F23
:102180006D706F6E656E74735C6C6962726172699A
:1021900065735C757362645C6170705F75736264B3
:1021A0002E63000006F052BD10B50C46010600F08B
:1021B0000F02092A08D200F009F8006820B1214670
:1021C000BDE8104001F0C4BC102010BD10B50106E0
:1021D00000F00F0408D5092C04D309A14FF4B970FD
:1021E00000F064FF144808E0092C04D304A14FF464
:1021F000BC7000F05BFF1048483000EBC40010BD1D
:102200002E2E5C2E2E5C2E2E5C2E2E5C2E2E5C2E08
:102210002E5C636F6D706F6E656E74735C6C69625B
:102220007261726965735C757362645C6170705F22
:10223000757362642E630000080D002006F0AABDCD
:1022400010B5044600F00F00082805D2204606F01D
:10225000D1FD204606F02AFF2046BDE8104006F0DA
:10226000EDBD000070B50C46054606F037FE18B10E
:1022700005480078022801D0082070BD2146284674
:10228000BDE8704006F032BE0801002010B5FFF72F
:102290009DFF006810BD000070B50D460646FFF7B3
:1022A00095FF0446056015B16868006808E00EB146
:1022B000802E04D103A14FF4CE7000F0F7FE002071
:1022C000606070BD2E2E5C2E2E5C2E2E5C2E2E5C41
:1022D0002E2E5C2E2E5C636F6D706F6E656E747348
:1022E0005C6C69627261726965735C757362645C6F
:1022F0006170705F757362642E63000070B50C4688
:10230000054606F0EBFD18B105480078022801D01B
:10231000082070BD21462846BDE8704006F062BF27
:1023200008010020F8B5044600782D4D05280BD192
:102330002C4800682B49C0B2091F096811F0FF0F33
:1023400004D1052802D1284C207818B3264F6946BD
:10235000243F386A05F04FF806001AD02068306034
:10236000002000F0BFFD6888E968401A401CF0803A
:102370001B4800210C3005F08CF8B080002000F0E4
:10238000DFFD6946386A05F057F8014620460BF034
:1023900053FFF8BD40F25527AE690AE021463046AA
:1023A00001F00EFC1EB911A1384600F07FFE306826
:1023B0004668002EF2D1002000F094FDE86808B9CC
:1023C00060886880064801210C3005F04CF8002038
:1023D00000F0B6FD012120460BF02EFFE868F8BDA5
:1023E0000801002084740240DCE500002E2E5C2EE3
:1023F0002E5C2E2E5C2E2E5C2E2E5C2E2E5C636FA1
:102400006D706F6E656E74735C6C69627261726917
:1024100065735C757362645C6170705F7573626430
:102420002E68000070B58A4C0546206920B989A144
:1024300040F2FF3000F03AFE02F0E0FC072804D240
:1024400084A140F2064000F031FE2878092876D0B9
:1024500007DC18D2DFE800F07493C29CAFCBD01732
:10246000F30082282DD008DC0A28F0D00F28EED007
:10247000802841D0812806D10CE0832847D08428C9
:102480004ED085287AD0BDE8704072A14FF4A0608C
:1024900000F00CBE7D48FFF7A7FD7C48FFF79EF9D2
:1024A0000D200BF0D7FEFFF7ABF9FFF7C8FC606912
:1024B00010B97748007A00B1012007F0C5F9012072
:1024C00088E0FFF79DF907F015FA00200AF0B8FF41
:1024D0006E48401CFFF782F96C48401CFFF784FDF2
:1024E0000E200BF0B7FE207800F0AEFC002844D0A0
:1024F000BDE8704006F01EB92078052803D00628F4
:1025000003D0072839D1022064E0082062E0207857
:10251000032832D107F038FA00282ED0042059E0E1
:102520002078032805D107F02FFA10B104200AF013
:1025300087FF07F0FBFA00281FD006204AE07FE063
:102540002078032801D0082803D15048801CFFF7C9
:1025500069FF00200BF07EFE646940F239260AE034
:102560002946204601F0F4FA1CB94A49304600F0E9
:102570009DFD20684468002CF2D170BD37E0FFF764
:102580003FF9FFF765FC02200AF05AFF012006E040
:102590002078082809D005200AF052FF03200BF00C
:1025A00059FE2846FFF720FD4CE002200AF048FFC4
:1025B00007F038F8F2E703200BF04CFE3348C01C5C
:1025C000FFF712FD3148C01CFFF708F920780628F4
:1025D00099D10720BDE870400AF032BF03200AF00D
:1025E0002FFF02200BF036FE2846FFF7F7F82846AB
:1025F000BDE87040FFF7F8BCA878FFF7E7FD044698
:10260000006820B913A140F2DC4000F04FFD606883
:1026100020B910A140F2DD4000F048FDD4E90002ED
:10262000294690470028A8D0A8780107A5D000F037
:102630000F010829A1D2BDE8704006F005BD0820B1
:102640000BF008FE2846BDE87040FFF7C7B8000051
:10265000080100202E2E5C2E2E5C2E2E5C2E2E5C71
:102660002E2E5C2E2E5C636F6D706F6E656E7473B4
:102670005C6C69627261726965735C757362645CDB
:102680006170705F757362642E630000C9E50000BD
:10269000980D0020EC230000FFF744BEF8B5214C54
:1026A00000250095204EA0684FF4006728B9211D31
:1026B000306A04F0B6FEA060C0B1818869B1C188FB
:1026C000B94200D3C580C188ADF80210C188491C49
:1026D000C1808188491E81801FE0FFF7A3FE114958
:1026E000306A091D04F092FEA56019E0E068002838
:1026F00017D0002000F0F6FB6088B84200D3658058
:102700006088ADF80200401C6080064801210C3052
:1027100004F0D0FE002000F013FC6846FFF782FEB4
:102720000120F8BD08010020B8E5000010B520B177
:1027300004A140F2552000F0B9FCBDE810400F485C
:10274000FFF7F0BD2E2E5C2E2E5C2E2E5C2E2E5C06
:102750002E2E5C2E2E5C636F6D706F6E656E7473C3
:102760005C6C69627261726965735C757362645CEA
:102770006170705F757362642E630000B8E50000DD
:1027800010B50021FFF7E0F90021FFF7B5F9007857
:1027900010BD00002DE9F0418046187800240D4658
:1027A0001F4616460F284AD2DFE800F0082B5F616B
:1027B00049353A49494949697B8D900079881046E5
:1027C00003F078FC0146A0F57F40FF3878D0002068
:1027D0000346321892F8244034B106EB800C7C8812
:1027E000CCF8144082F8243096F829201AB1401C05
:1027F000C0B20428EDD36869C9B2826940469047E7
:1028000031E00321104600F0DFF80120307330463C
:10281000FFF702FB54E0294640460AF04FFC22E055
:10282000B878000604D52946404602F009FD1AE0B2
:1028300068694446C06810B1D87810B106E0062433
:102840003EE00222294640460BF0FEFC2869406823
:10285000402804D91F494FF4E37000F027FC686951
:10286000C1682046884704462AE002212CE0022164
:10287000104600F0A9F8686981684046F2E74046D2
:10288000FFF71AFA04001BD14046FFF7AFF9040026
:1028900016D13046FFF7C0FA0021304600F09EF80E
:1028A0000EE04046FFF774FA040009D14046FFF7F6
:1028B000D1F9040004D100214FEA060000F084F8A9
:1028C0002046BDE8F08101211046E7E701211046CE
:1028D000F4E7000008ED0000FEB515460F4604467B
:1028E00003F038F806462046FFF74AFF0446032166
:1028F000304600F06EF800200097CDE9015000F05E
:10290000F1FA69462046FFF7F9FC040003D10321E0
:10291000304600F068F8002000F012FB2046FEBDB3
:10292000C26952680A60C069006870472DE9FC41BD
:1029300017460D46064603F00DF80446306BCDE908
:102940000057694608F0B6FA10B11120BDE8FC81C5
:10295000206800256FEA900040F30000401C02D080
:1029600000F08CFA0FE020686FEAD00040F300001E
:10297000401C90F0010F06D094F8280018B930469A
:1029800003F05AFB05462846E0E7026A52680A60EF
:10299000006A00687047000010B5040004D10349C4
:1029A00040F2432000F082FBE06810BD08ED00001B
:1029B00010B5040004D103494FF4EB7000F076FB2E
:1029C000206910BDA8ED000001228A40D14304F027
:1029D00050BD01228A40D14304F04BBD012202FACE
:1029E00001F104F05BBD012202FA01F104F056BDD1
:1029F000114601F0ADB8000070B5044640680D46C0
:102A0000C2680AB120469047207AA84204D20CA19D
:102A100040F2F22000F04AFB29462046FFF780F8FA
:102A200005464678002408E021462846FFF750F87E
:102A3000007806F0AFF9641CE4B2B442F4D370BD80
:102A40002E2E5C2E2E5C2E2E5C2E2E5C2E2E5C2EC0
:102A50002E5C636F6D706F6E656E74735C6C696213
:102A60007261726965735C757362645C6170705FDA
:102A7000757362642E6300002DE9F04180460F48B3
:102A80000E46056916E02F7A00240DE021462846FF
:102A9000FFF746F80178414504D106B13470284665
:102AA000BDE8F081641CE4B2BC42EFD32846FFF7D6
:102AB0005FF80546002DE6D10020F1E7080100206F
:102AC00070B50446406815460E4683681BB1204623
:102AD0009847062809D1207AB04204D20E4940F224
:102AE000D32000F0E3FA0DB1072070BD3146204637
:102AF000FFF716F805464678002408E021462846E8
:102B0000FEF7E6FF0078FFF79BFB641CE4B2B442DB
:102B1000F4D3002070BD0000402A000003460020CE
:102B20005A681269002A01D0184610477047000001
:102B30002DE9F843054605F0ABFE20B930A140F27F
:102B40000B3000F0B3FA3D4C08234FF484723A493D
:102B5000206A04F03DFC10B10320BDE8F88338483A
:102B600006F066FD0028F8D1364908700861486112
:102B700048213548FDF720FD334848214830FDF70E
:102B80001BFD3148783095B195E80E00183080E88B
:102B90000E00002005F002FF30B1852804D018A2F5
:102BA00040F23931FDF736FB284D002611E004F1E3
:102BB00038010EC9EAE7002703E000782946FFF74D
:102BC0006BFB3946781CC7B24046FEF781FF0028F0
:102BD000F3D13146701CC6B22846FEF7A1FF5FEA6A
:102BE0000008E8D1606800906946284600F0B0FF10
:102BF000040003D006F08CFF2046AEE70020ACE7CF
:102C00002E2E5C2E2E5C2E2E5C2E2E5C2E2E5C2EFE
:102C10002E5C636F6D706F6E656E74735C6C696251
:102C20007261726965735C757362645C6170705F18
:102C3000757362642E630000000C0020B8E500008C
:102C40009926000008010020080D002040E6000041
:102C500040B1012808D0022809D007A14FF40F7015
:102C600000F024BA124804E01148001D01E01048A9
:102C70000830FFF757BB00002E2E5C2E2E5C2E2E48
:102C80005C2E2E5C2E2E5C2E2E5C636F6D706F6E34
:102C9000656E74735C6C69627261726965735C7590
:102CA0007362645C6170705F757362642E630000B0
:102CB000E0E5000010B506F039FD10B106F02CFD7E
:102CC00008B1082010BD054805F078FE20B104A227
:102CD0004FF46771FDF79EFA002010BDECE500008F
:102CE0002E2E5C2E2E5C2E2E5C2E2E5C2E2E5C2E1E
:102CF0002E5C636F6D706F6E656E74735C6C696271
:102D00007261726965735C757362645C6170705F37
:102D1000757362642E6300002DE9F0410D4616497B
:102D200001EB800757F82500017849B10020FFF733
:102D300007FA57F8255006460024287848B911E0CC
:102D4000801CBDE8F0811F2C03D30C49C02000F08B
:102D5000ADF9641CE4B215F8010B26F814002878CC
:102D60000028F0D1022000EB4400C0B240F44070D3
:102D700030803046E5E700004C010020F0ED000017
:102D800010B506F0C9FC20B909A140F2B23000F03C
:102D90008DF915480168C1F3400121B1BDE810402B
:102DA0001248FFF7BFBA016811F0010FF2D110BD50
:102DB0002E2E5C2E2E5C2E2E5C2E2E5C2E2E5C2E4D
:102DC0002E5C636F6D706F6E656E74735C6C6962A0
:102DD0007261726965735C757362645C6170705F67
:102DE000757362642E63000038040040BDE5000086
:102DF000034808B5806800906846FFF793FA08BD5D
:102E0000B8E500004FF0000150B106280BD2074A88
:102E1000105C002808D0064A52F820201AB100E0C1
:102E20000020FFF779BF002070470000ECE60000AB
:102E30004C010020034808B5C06800906846FFF7C1
:102E400071FA08BDB8E50000092808D2DFE800F0F3
:102E50000707050707050505050001207047002045
:102E60007047092808D2DFE800F0070705070707C1
:102E700007070500012070470020704708B5FEF7DE
:102E8000ADFE20B908A140F2ED3000F00FF90120AD
:102E9000FFF7A2F8002806D01148006900906846A4
:102EA000FFF740FA012008BD2E2E5C2E2E5C2E2E40
:102EB0005C2E2E5C2E2E5C2E2E5C636F6D706F6E02
:102EC000656E74735C6C69627261726965735C755E
:102ED0007362645C6170705F757362642E6300007E
:102EE000B8E5000010B509F011FE012803D004A1D7
:102EF0001D2000F0DBF8BDE8104000F04FB80000E6
:102F00002E2E5C2E2E5C2E2E5C2E2E5C2E2E5C2EFB
:102F10002E5C636F6D706F6E656E74735C6C69624E
:102F20007261726965735C7574696C5C6170705F05
:102F30007574696C5F706C6174666F726D2E63007E
:102F400010B509F0E3FD012803D004A12B2000F007
:102F5000ADF8BDE8104000F029B800002E2E5C2E20
:102F60002E5C2E2E5C2E2E5C2E2E5C2E2E5C636F25
:102F70006D706F6E656E74735C6C6962726172699C
:102F800065735C7574696C5C6170705F7574696C95
:102F90005F706C6174666F726D2E630072B602486A
:102FA0000168491C016070476401002003490868FA
:102FB000401E086000D162B6704700006401002026
:102FC00070B5054608680C46411C04D007F0EBF8C4
:102FD000206806F0F1FF6068411C02D0002106F075
:102FE000D9FF2968A069C1F82405607D227D296880
:102FF0001043C1F86C05D4E900122868C0F8142504
:10300000C0F80C15207D012814D1A068411C02D005
:10301000002106F0BFFFE068411C04D007F0C3F8B0
:10302000E06806F0C9FFD4E902122868C0F8082554
:10303000C0F8101570BD70B5054608680C46411CF7
:1030400004D007F0BAF8206806F0C0FF6068411CA1
:1030500002D0002106F0A7FF2968A069C1F8240565
:10306000607D217D2A680843C2F86C05D4E900120E
:103070002868C0F80C15C0F81425207D012814D14B
:10308000A068411C02D0002106F08DFFE068411CC1
:1030900004D007F092F8E06806F098FFD4E9021235
:1030A0002868C0F80825C0F8101570BD1CB56A4620
:1030B000ADF800000191002144F20200FEF73CFA55
:1030C0001CBD0000F0B500220D4BCA60C1E9012310
:1030D0000C4B0D4D1446EE1A0A600CE003EB021582
:1030E000EF683F79FF2F05D0A04202D1A8680860A1
:1030F000F0BD641C521CB2EB161FEFD3F0BD0000F4
:1031000094EA000084000100A4000100102802D30A
:103110001038C0B2704740F08000704738B50446A0
:10312000042803D30AA18620FFF7C0FF1448005DDE
:103130000090684606F06CFFD0F810050099C84072
:1031400010F0010000D0012080F0010038BD000027
:103150002E2E5C2E2E5C2E2E5C2E2E5C2E2E5C2EA9
:103160002E5C636F6D706F6E656E74735C626F6101
:103170007264735C626F617264732E63000000009E
:1031800034E400002DE9FC410646C0074FF000057D
:103190000ED0104F00240122385D00950023114607
:1031A000019506F081FE641C042CF4D300F0D2F8E3
:1031B000B0070DD5074E0024361D0022305D0323D5
:1031C00000951146019506F06FFE641C042CF4D3A3
:1031D000BDE8FC8130E4000038B50446042803D380
:1031E0000BA13920FFF762FF1548005D009068468B
:1031F00006F00EFFD0F80425009B0121994021EA3A
:103200000203C0F808351140C0F80C1538BD0000A5
:103210002E2E5C2E2E5C2E2E5C2E2E5C2E2E5C2EE8
:103220002E5C636F6D706F6E656E74735C626F6140
:103230007264735C626F617264732E6300000000DD
:1032400030E4000010B50446042803D305A1212072
:10325000FFF72CFF0F480121005DBDE8104006F08C
:10326000B6BF00002E2E5C2E2E5C2E2E5C2E2E5C09
:103270002E2E5C2E2E5C636F6D706F6E656E747398
:103280005C626F617264735C626F617264732E63FF
:103290000000000030E4000010B50446042803D309
:1032A00005A11B20FFF702FF0F480021005DBDE8CC
:1032B000104006F08CBF00002E2E5C2E2E5C2E2EB1
:1032C0005C2E2E5C2E2E5C2E2E5C636F6D706F6EEE
:1032D000656E74735C626F617264735C626F61725D
:1032E00064732E630000000030E4000038B504462B
:1032F000042803D30AA11420FFF7D8FE1448005D68
:103300000090684606F084FED0F804050099C84095
:1033100010F0010000D0012080F0010038BD000055
:103320002E2E5C2E2E5C2E2E5C2E2E5C2E2E5C2ED7
:103330002E5C636F6D706F6E656E74735C626F612F
:103340007264735C626F617264732E6300000000CC
:1033500030E4000010B500242046FFF773FF641C22
:10336000042CF9D310BD10B500242046FFF794FFBC
:10337000641C042CF9D310BD10B50246064B4FF067
:10338000FF3000215C5C944201D1084610BD491C0D
:103390000429F7D310BD000034E400002DE9F04704
:1033A0000D468146FFF7E8FF0446042836D2DFF8D1
:1033B00074801B481C4EA8F10C0725B3012D0ED0BC
:1033C000022D2BD104EB440030444578002D25D04C
:1033D000B968002922D02846BDE8F047084704EB29
:1033E0004401755C0E44717849B10E4A4FF40041B6
:1033F000093A8068FEF7A2F908B987F80390B17816
:1034000008F80410E2E78068FEF7D8F904EB4401FD
:10341000314418F804008D78A842D7D0BDE8F08771
:1034200038E400006800002080070020042801D252
:10343000FFF774BE00207047014908600020704704
:103440006C00002010B5134C0E384FF0FF310C28E3
:103450001ED2DFE800F0060917141D1D1D1D1D1DDD
:1034600018150321002001E00321012002F000FDD6
:1034700020680022BDE81040A421FEF75FB90121B9
:10348000032001E001210220BDE8104002F0F0BC61
:1034900010BD000068E3000070B50023042810D2BE
:1034A0000D4D00EB4004012A02D101290CD000226D
:1034B000094E00EB4000304461B1012906D00229D9
:1034C00006D00723184670BD0E30C2B22A55F9E760
:1034D0004270F7E78270F5E78007002070B5064676
:1034E0001E480024C0E90161B00720D50025012253
:1034F00011462846FFF7D0FF6D1C0446042D02D26A
:10350000002CF4D013E094B940F266620421144810
:10351000FDF7D6FF04000AD1FDF79CFF040006D199
:103520000F48104A0021001FFEF7CCF80446F007B0
:1035300012D00120FFF726FE74B909480A4A00217B
:103540000C38FEF7BFF8040006D10548074A0121F0
:103550000838FEF7B7F80446204670BD5C0000202E
:1035600044E40000F5370000256800004F14000017
:103570002DE9F05F6E4C054600266078B34618B121
:1035800084F801B003F036F96A4F4FF47A694FF4CA
:10359000C87A4FF00108182D69D2DFE805F00C1346
:1035A00013384754696E727B727BC584848484842B
:1035B000B3B6B9BCC5C503F01DF93868FEF7FEF80F
:1035C00006465CE00020FFF791FE00284FF0000067
:1035D00008D0FFF737FE022D02D14FF4E16008E07A
:1035E000484606E0FFF758FE022D01D1C82000E052
:1035F0005046410CC0034FF4FA72801841F10001AB
:10360000257052000023FCF715FF01462AE0002038
:10361000FFF76CFE00284FF0000004D0FFF712FE09
:103620004FF44870E5E7FFF737FEDFE70020FFF7CC
:103630005DFE00284FF0000002D0FFF703FECFE749
:10364000FFF72AFED4E70020FFF750FE00284FF0D6
:10365000000002D0FFF7F6FD01E0FFF71DFE257028
:1036600041F69A1100223868FEF768F8064646E0EF
:103670000020FFF7B1FD257008E0002051E0257023
:103680003DE084F801800120FFF7A6FD002240F60E
:10369000CD41E8E784F801800120FFF79DFD00227D
:1036A0004FF48041DFE77868FEF788F80646D5F1E9
:1036B000110000D02EB10220FFF7C4FD84F802B043
:1036C0001DE0012816D980B2C8214843C117C9039B
:1036D00041EA5041C0034FF4FA72801841F10001F1
:1036E00052000023FCF7A6FE014600227868FEF790
:1036F00025F806460220FFF7CFFD84F80280304609
:10370000BDE8F09F03F076F8B9E703F073F8B4E78B
:1037100003F070F804E003F06DF80020FFF7BCFD43
:103720000120FFF7B9FDAAE7FFF71DFEA7E700009C
:103730005C00002038E400002DE9F0470546861CB7
:1037400090460F464FF001090020FFF7CBFB1B4CC2
:1037500020683860D4E90001401AA16804F21C47CF
:10376000081A0EE00121384603F07DFE03F0CEFA80
:103770000146384603F077FED4E90001401AA168FB
:10378000081A401C8642EDD8B8F1000F03D005207E
:1037900065F3891002E0062065F39F50A268216856
:1037A000114004EB8101C860206830442060002093
:1037B000FFF7C6FB4846BDE8F0870000A00F0020D9
:1037C00030B482680468531C8360A154D0E90112AC
:1037D0008A4202D330BC06F011BA30BC70470000F8
:1037E000034803C8814201D101207047002070477F
:1037F000A00F002000780221FFF7D0BD05494FF04F
:10380000FF32082841F8202002D3084480F85820CD
:1038100070470000F8090020F0B54FF0FF3512B1F5
:103820000023082601E008230C260C4C05E000BF0D
:1038300054F823707F1C04D05B1CB342F8D3284695
:10384000F0BD26185DB286F8305044F82310002AE7
:10385000F5D1E11881F85800F1E70000F8090020DF
:103860000249084490F9300070470000F809002030
:1038700070B5816804468A7C002A4DD0C87C002837
:103880004AD0121A0844D5B200F114016A1C133050
:10389000FCF76BFEA068C17C491EC174A068817CE6
:1038A000491E81748DB308221C49206906F066F90F
:1038B000204603F065FD8178C078814211D1A0686F
:1038C00017A2C17C431808212046143304F09EFB44
:1038D000204600F093F929462046BDE8704001F0EB
:1038E00017BB204600F0F6F9204600F087F9A068E3
:1038F0000BA2C17C431808212046143304F086FB38
:103900002046BDE8704000F0AFB92069BDE87040C6
:10391000044A03A106F032B970BD00004C3B000020
:1039200025730000A4E8000070B504468068827C1E
:10393000C17C521A12F0FF0548D0084400F115016D
:103940002A461430FCF711FEA068817C491E817460
:10395000204603F015FD8178C07881420CD1A06823
:103960001BA2C17C431808212046143304F04EFBEF
:1039700040F25D46C4B913E0204600F0ABF92046A2
:1039800000F03CF9A06812A2C17C4318082120462F
:10399000143304F03BFB2046BDE8704000F064B9EE
:1039A0000CA13046FFF782FB206918B909A1304607
:1039B000FFF77CFB154A06A1206906F0DFF86D1EB3
:1039C000E9B22046BDE8704001F0A2BA70BD000027
:1039D000257300002E2E5C2E2E5C2E2E5C2E2E5C6F
:1039E0002E2E5C2E2E5C636F6D706F6E656E747321
:1039F0005C6C69627261726965735C636C695C6E50
:103A000072665F636C692E6300000000A8E8000026
:103A10002DE9F041044680680F46D0F83C11C27C85
:103A200011F00106817CA1EB0203DDB20AD07F29EF
:103A300001D3002D7ED0A068C17C08440021077509
:103A400066B113E07F297CD2002DF4D0831803F1F6
:103A500014012A46481CFCF788FDECE7A068827C2C
:103A6000521CD2B28274A068143281544DB32046E5
:103A700003F086FC8178C07881420ED1A06832A222
:103A8000C17C431808212046143304F0BFFAA81B58
:103A9000C1B2204601F03CFA21E0204600F01AF9BC
:103AA000A06829A2C17C431808212046143304F0E1
:103AB000ADFA204600F0D8F80121204601F032FB93
:103AC0000DE03EB1A068827C521CD2B28274A06824
:103AD000143281543A461DA1206906F04FF8A168BE
:103AE000C87C401CC874204601F0FFF9002820461D
:103AF00003D0BDE8F04101F017BA01F076FE0028CE
:103B00001FD0204603F03CFC0546C078A978401A37
:103B1000401EC1B2204601F089F9204601F004FAA6
:103B2000E878A978401AC1B2204601F007FB28784E
:103B3000401E00E005E0C1B22046BDE8F04101F0C2
:103B4000F1BABDE8F0810000257300002563000094
:103B500070B50D46040003D10BA1E920FFF7A6FACA
:103B6000606818B908A1EA20FFF7A0FA6068006849
:103B700018B905A1EB20FFF799FA60682946026899
:103B80002046BDE8704010472E2E5C2E2E5C2E2E57
:103B90005C2E2E5C2E2E5C2E2E5C636F6D706F6E15
:103BA000656E74735C6C69627261726965735C7571
:103BB0007362645C6170705F757362642E63000091
:103BC00070B50D46040003D10B49F320FFF76EFAE0
:103BD000206818B90849F420FFF768FA206880685F
:103BE00018B90549F520FFF761FA216868888968E6
:103BF000BDE8704008470000402A000070B504008E
:103C00004FF4D17503D108A12846FFF74FFA206978
:103C100018B905A12846FFF749FA2069BDE87040A8
:103C20000F4A10A105F0AABF2E2E5C2E2E5C2E2E60
:103C30005C2E2E5C2E2E5C2E2E5C636F6D706F6E74
:103C4000656E74735C6C69627261726965735C63E2
:103C50006C695C6E72665F636C692E6300000000C5
:103C60009CE800002573000070B504004FF4D77580
:103C700003D108A12846FFF719FA206918B905A150
:103C80002846FFF713FA2069BDE870400F4A10A1DB
:103C900005F074BF2E2E5C2E2E5C2E2E5C2E2E5C1C
:103CA0002E2E5C2E2E5C636F6D706F6E656E74735E
:103CB0005C6C69627261726965735C636C695C6E8D
:103CC00072665F636C692E630000000093E8000079
:103CD0002573000070B504004FF4D47503D108A11A
:103CE0002846FFF7E3F9206918B905A12846FFF730
:103CF000DDF92069BDE870400F4A10A105F03EBF14
:103D00002E2E5C2E2E5C2E2E5C2E2E5C2E2E5C2EED
:103D10002E5C636F6D706F6E656E74735C6C696240
:103D20007261726965735C636C695C6E72665F6315
:103D30006C692E630000000090E80000257300000D
:103D40002DE9F04F4FF000099DB005464E464C4618
:103D5000CDF8149000F042FF284602F05FFB2846A1
:103D600001F070F8284601F0C0F810B9284601F0BB
:103D7000DBF8AA680C2308A901A8143203F064F93F
:103D80000346019840B15BB154A20221284604F0D9
:103D90003DF91DB0BDE8F08F284601F0C5F8F8E701
:103DA000554854490027A1EB00080DF1200A83462D
:103DB00013E008D351A0009055A202212846089B89
:103DC00004F024F9E5E70BEBC704606801685AF8D2
:103DD0002900FCF703FC18B17F1CB7EBD80FE8D91A
:103DE000207820B14CA140F65310FFF75FF94FF057
:103DF000000BCDF868B06068C7680FB1A96848606B
:103E0000606809F101044FF0000880680DF158095D
:103E100006900198844237D25AF824004CA1FCF74E
:103E2000DDFB50B35AF824004AA1FCF7D7FB20B3BE
:103E3000424608F101081AAB2146CDF800900698D9
:103E400000F05EFEB8F1000F1ED01A98E0B10168D4
:103E50005AF82400FCF7C2FB0028DAD11A98C1688E
:103E600029B1A8F10101DDF818B026460591806856
:103E70004FF00008641C0690CBE7A868D0F83C110E
:103E800041F00201C0F83C11BBF1000F12D0CDF897
:103E900000901AAB31465846059A00F031FEA968E9
:103EA0001A980AEB860248600199C368891B284664
:103EB00098470AE027B108AA28460199B84704E0C4
:103EC00026A20221284604F0A1F8A868D0F83C11E7
:103ED00021F00201C0F83C115BE700006E6F742016
:103EE0007465726D696E617465643A2025630D0AAC
:103EF0000000000084000100440001003A20636FCC
:103F00006D6D616E64206E6F7420666F756E6400F7
:103F1000257325730D0A00002E2E5C2E2E5C2E2E8E
:103F20005C2E2E5C2E2E5C2E2E5C636F6D706F6E81
:103F3000656E74735C6C69627261726965735C63EF
:103F40006C695C6E72665F636C692E6300000000D2
:103F50002D6800002D2D68656C700000506C656147
:103F6000736520737065636966792061207375627B
:103F7000636F6D6D616E642E0D0A00008068D0F86D
:103F80003C01C0F3C00070472DE9F0410446C06811
:103F90008EB00D46406800263246006801A906F042
:103FA00053FE18B100200EB0BDE8F0816DB101984C
:103FB00006F0D2FDA168D1F82C01401CC1F82C01FB
:103FC00000F0070001287AD10126204603F0D8F935
:103FD00005468078012804D9401EC1B2204601F070
:103FE000ADF82878012804D9401EC1B2204600F05F
:103FF0008FFF2046FFF702FE2EB132A2022120469B
:1040000004F004F85BE04FF000080023082202A946
:10401000019806F0B1FD04980590BDF80C00ADF8CC
:104020001800BDF80E00ADF81A008DF81D8002983A
:10403000082700F00300012802D0022818D032E03F
:1040400002983B46860AC0F3C2008DF81C00029815
:1040500008A9C0F38315AA00019806F08DFD206918
:10406000009005AB2A4608A9304606F0CBFC1AE0C2
:104070000298850DC0F3C2008DF81C00082D01D2F6
:104080002E4600E008263B46324608A9019806F075
:1040900073FD3744AD1B05AA314608A8236906F015
:1040A00089FB002DEAD1019806F056FDE068002258
:1040B00001A94068006806F0C7FD0028A5D00120CE
:1040C00071E700004C6F7374206C6F6773202D20B4
:1040D000696E637265617365206C6F6720626163EE
:1040E0006B656E642071756575652073697A652EE0
:1040F0000D0A00002DE9F0411E4617460D4604004A
:1041000000D01DB909A1F120FEF7D0FF606818B9F1
:1041100006A1F220FEF7CAFF606833463A460168FE
:104120000C692946A446BDE8F04160472E2E5C2E5E
:104130002E5C2E2E5C2E2E5C2E2E5C2E2E5C636F43
:104140006D706F6E656E74735C6C696272617269BA
:1041500065735C636C695C6E72665F636C692E6329
:10416000000000007CB500250446019501AB01224A
:1041700069462046FFF7BEFF019800281BD09DF836
:1041800000007F28F2D806F05DFDA068417821B1DB
:10419000012965D0022967D16BE0217E9DF800607E
:1041A000B1420FD1817C39B12046FFF7C9FD022110
:1041B000204600F0EBF87CBDC0F83851204600F0F6
:1041C000B3FEF4E7092E1CD004DC002ECED0082E5E
:1041D00004D11FE01B2E12D07F2E24D0FCF76AF9E9
:1041E0000068805D10F03E0FC0D02046FFF7C6FE8D
:1041F00010B39DF800102046FFF70AFCB6E7012136
:1042000035E02046FFF7BAFE0028AFD0204600F088
:10421000D7F8ABE72046FFF7B1FE0028A6D020462E
:10422000FFF726FBA2E72046FFF7A8FE00289DD057
:104230002046FFF779FB99E7A1689DF800008A7C8A
:104240007F2A93D2CA7C8B18521CCA741875A06836
:10425000C17C08440575A168887C401C887485E78A
:104260009DF800105B2901D0002100E0022141707F
:104270007CE7002141702046FFF780FE00289AD09D
:104280009DF80000422840D01BDC332879D012DC96
:1042900031286FD03228B1D1A16803204870A068BE
:1042A000D0F83C2101219143D0F83C2161F3000278
:1042B000C0F83C215AE7342853D041289ED101212F
:1042C00024E0462850D01BDC432823D0442895D135
:1042D000204603F055F806460078B179491C88421B
:1042E00002D1B178012989D001284FF0010120467F
:1042F00030D000F00DFEA168C87C401EC87435E7C0
:1043000048283AD04C2884D1C9E70021204601F042
:104310006BFF2BE7204603F033F8064600787178F0
:10432000884203D1B178F278914284D07179884281
:104330004FF00101204606D100F078FD717920464A
:1043400000F0E6FD01E000F0EDFEA068C17C491C34
:10435000C1740BE700F0F2FE7179204600F0E2FE36
:10436000C9E7A16803204870204600F06BFDFDE618
:1043700007E0FFE7A16803204870204600F08BFDAE
:10438000F4E6A168032048704DE700008268022926
:1043900011700BD18268002111758268D174826816
:1043A000917403A20321036803F030BE704700003C
:1043B00025730000002801D0FCF709B97047000000
:1043C0002DE9F04FA7B04FF000080546CDF8248046
:1043D000CDF8188080684746817CC1F17F01C9B261
:1043E0005FEA010B7BD0C27C00F114019430FCF732
:1043F000BCF8A8680024C17C084480F89440FCF70D
:1044000059F821900168A8680C23C27C0244D27C30
:10441000895CC0F83841AA6801F0010912A920A8F6
:10442000943202F011FE1298FFF7C4FFC6B2A24602
:104430001F940C94209818B14844401EB8426AD882
:10444000B9F1000F01D0002605E012A850F82700AE
:10445000FFF7B0FFC6B200240DA822460090641CEE
:104460001FAB3946504600F04BFB1F9800286BD01D
:10447000016812A8324650F82700FCF7C6F8002859
:104480000C9802D00028E7D05EE0D8B11F980068F1
:10449000FFF790FF0699C0B2884200D90690BBF1A1
:1044A000000F2BD022A800900CAB42463946504654
:1044B00000F026FB1F98006882190C980068831989
:1044C000002015E0601E09901F980068FFF772FF3A
:1044D000C0B20690801B584510DAC0B20DE07FE0F4
:1044E00013F800C0614506D1401C10F0FF0010D049
:1044F000115C0029F4D1834500D983461F98B4F19B
:1045000001080C90A8D263A20421284603F07EFD86
:104510001AE0FF20EFE700240DA822460090641C5B
:104520001FAB3946504600F0EBFAECB31F98002859
:1045300056D0016812A850F82700FCF74FF8002861
:10454000EAD11F98D0F808A0BAF1000F09D01F983F
:1045500038B120997F1CFFB201EB09008742FFF4BC
:1045600069AF0C9800283BD00998414640455FD17F
:104570009AF8000038B10DA80A4600900CAB3946F5
:10458000504600F0BDFA0C980068FFF713FFB042E8
:1045900006D00C985A4600688119284600F0C2FBE4
:1045A0002198A968026800E01DE0C87C0B181B7DFB
:1045B000D25CD2071DD0897C884211D2284602F0F5
:1045C000DFFEA9688478C87C401CC874284602F0C5
:1045D000D7FE8078A04227D10121284600F0A2FD15
:1045E00027B0BDE8F08F2BA20421284603F00EFD72
:1045F000F6E7D1F83C01C00711D0D1F83C0120F01A
:104600000100C1F83C0120212846FFF701FAA86803
:10461000D0F83C1141F00101C0F83C11E0E7202145
:104620002846FFF7F5F9DBE7284600F07DFCD7E7E1
:1046300000212846069A08F095F90DF13409099CE5
:104640000EE01FAB224639465046CDF8009000F0F0
:1046500057FA1F98069A0168284608F083F9641CE7
:104660004445EED917A2032128462B6803F0CEFC5F
:10467000AB6816A208212846143303F0C7FC28466D
:1046800000F01AFD0C985A4600688119284600F07F
:1046900049FBA5E75461622066756E6374696F6EAD
:1046A0003A20636F6D6D616E647320636F756E7415
:1046B0006572206F766572666C6F7765642E0D0A81
:1046C000000000000D0A25730000000025730000A3
:1046D00070B505460C0004D107A140F6F210FEF7B4
:1046E000E5FC002D06D0A068D0F83C1141F0200177
:1046F000C0F83C1170BD00002E2E5C2E2E5C2E2EBC
:104700005C2E2E5C2E2E5C2E2E5C636F6D706F6E99
:10471000656E74735C6C69627261726965735C6307
:104720006C695C6E72665F636C692E6300000000EA
:1047300070B5044640680D4690F8280030B1A06876
:104740000068FDF73BF808B108280CD1012685B1B7
:10475000606904F0B7F9616800220831606904F00B
:104760003FF908B1062070BD606880F8296000201C
:1047700070BD606890F8280048B9074A0021A06819
:10478000FCF7A0FF6168002881F82860F0D120467E
:10479000BDE8704008F03EBA4DD5000070B5044643
:1047A00040680D460260606800224360606880F8DF
:1047B0002820606880F82920606820220830FBF7F4
:1047C000D4FE2C61074A2946606904F009F9050006
:1047D00005D1E06806F038FE206906F035FE28466F
:1047E00070BD000075D700002DE9F0411C00164691
:1047F0000F46054603D106A1D220FEF757FC2660DE
:1048000022463946E868BDE8F04106F0D9BC000010
:104810002E2E5C2E2E5C2E2E5C2E2E5C2E2E5C2ED2
:104820002E5C636F6D706F6E656E74735C6C696225
:104830007261726965735C636C695C756172745CEA
:104840006E72665F636C695F756172742E630000DF
:1048500010B50446406904F035F9A0680068BDE869
:104860001040FCF7ABBF00002DE9FC411D001646CF
:104870000F46044603D11AA1E620FEF717FC2E606E
:104880002A463946206906F005FD050025D16069F4
:10489000234A0178515C19B1001D07F0FDFF02E0C9
:1048A0000C3007F0EFFDC0B9FF20009001236A46ED
:1048B00001A9206906F066FD78B900980199C2B295
:1048C000606904F0EFF80546606890F8290020B1AF
:1048D0001DB92069009906F041FD2846BDE8FC811C
:1048E0002E2E5C2E2E5C2E2E5C2E2E5C2E2E5C2E02
:1048F0002E5C636F6D706F6E656E74735C6C696255
:104900007261726965735C636C695C756172745C19
:104910006E72665F636C695F756172742E6300000E
:10492000740000202DE9F8431F4614468846050010
:1049300002D0B8F1000F03D11EA1C220FEF7B6FBD2
:104940006868006818B91BA1C320FEF7AFFB0026FA
:1049500028E000BF686808EB06016B460268D2F8E1
:104960000CC02246E04718B112A1CD20FEF79EFBF5
:104970000098844203D20FA1CE20FEF797FB009847
:104980000644241A70B9A868017803290AD000BF28
:10499000D0F83C118906FBD5D0F83C1121F020015C
:1049A000C0F83C11002CD5D1002F01D00098386000
:1049B000BDE8F8832E2E5C2E2E5C2E2E5C2E2E5CF7
:1049C0002E2E5C2E2E5C636F6D706F6E656E747331
:1049D0005C6C69627261726965735C636C695C6E60
:1049E00072665F636C692E630000000070B5084C4E
:1049F000050009D010342168002907D0086820601C
:104A0000496828468847F6E70834F4E770BD000097
:104A1000AC070020054A012120B1012805D1917081
:104A2000FFF7E4BF51700020FAE77047AC070020A1
:104A300038B5094C1546206818B908A10920FEF7B9
:104A400035FB6A4613A16868FBF7EEFD0098216804
:104A50000E30C0B2884738BD6C0000202E2E5C2E70
:104A60002E5C2E2E5C2E2E5C2E2E5C2E2E5C636F0A
:104A70006D706F6E656E74735C6C69627261726981
:104A800065735C6273705C6273705F636C692E63E4
:104A9000000000002575000038B5094C1546206857
:104AA00018B908A11320FEF701FB6A4613A1686834
:104AB000FBF7BAFD00982168C0B2884738BD0000F6
:104AC0006C0000202E2E5C2E2E5C2E2E5C2E2E5C7A
:104AD0002E2E5C2E2E5C636F6D706F6E656E747320
:104AE0005C6C69627261726965735C6273705C624E
:104AF00073705F636C692E63000000002575000011
:104B00002DE9F05F1C000A9F15468846064604D131
:104B100021A14FF48370FEF7C9FA27B91EA140F214
:104B20000710FEF7C3FA4FF00009B8F1000F0BD0E1
:104B30001EB3307838B372683946284690473868D3
:104B4000D8B12760BDE8F09F21492248A1EB0008B9
:104B5000B5EBD80F14D2DFF880A00026834609E019
:104B60000BEBC607786801685AF82500FBF736FD9D
:104B700020B1761CB6EBD80FF2D301E0786808E0DC
:104B8000C4F80090DEE7706800EB051001680029AA
:104B9000F6D02060D6E700002E2E5C2E2E5C2E2E46
:104BA0005C2E2E5C2E2E5C2E2E5C636F6D706F6EF5
:104BB000656E74735C6C69627261726965735C6363
:104BC0006C695C6E72665F636C692E630000000046
:104BD0008400010044000100700200202DE9F04132
:104BE000856806460024287D002812D0A046FBF7E1
:104BF00061FC0746D0F8000004F1140104F101043F
:104C0000695CE4B2415CC90705D0002CF4D185F899
:104C10001480BDE8F081641E14F0FF040FD0A87C5E
:104C2000021B04F11400291805F11400521CFBF7B3
:104C30009CFCB168887C001B8874B168C874B26839
:104C40003D68937CD01813300446002102E0491CD3
:104C5000C9B2401E0778EF5DFF07F8D18442D8D073
:104C60005B1A143302F80380B268907C401A907487
:104C7000B168C874CDE700002DE9F05F26484168AF
:104C8000F1B3DFF898B00E688146DBF80040876822
:104C90008078E11B21F07F45ED1CB0B9DFF8808002
:104CA0004FF48030C8F84403C8F804031120FCF71F
:104CB00091F91120FCF799F94FF0010AC8F800A00A
:104CC0002F2006F043FF89F802A0B54200D23546F6
:104CD000124BE8193C3320F07F401860DBF80010DD
:104CE0005A46091B21F07F41001B20F07F40C91C60
:104CF00081420FD9106818602F2006F027FF00E0CE
:104D000004E0BDE8F05F1120FCF77AB9BDE8F05F80
:104D100007F022BFBDE8F09FE0000020041501402D
:104D2000001001402DE9F04115460F00044604D162
:104D300023A140F22160FEF7B9F9A068817CC27C12
:104D40008B1A2944DEB27F2937D8002D35D0104484
:104D500000F1140105F114021044721CFBF705FC6C
:104D6000A0682A46C17C084439461430FBF7FDFB95
:104D7000A0681430FFF71EFBA1681FA28874A0680A
:104D8000C17C431808212046143303F03FF9A06882
:104D9000C17C2944C174204600F0A7F818B9204608
:104DA00000F023FD10B1204600F0BEF8002E04D024
:104DB0002046BDE8F04100F07FB9BDE8F081000079
:104DC0002E2E5C2E2E5C2E2E5C2E2E5C2E2E5C2E1D
:104DD0002E5C636F6D706F6E656E74735C6C696270
:104DE0007261726965735C636C695C6E72665F6345
:104DF0006C692E630000000025730000EFF305804E
:104E0000C005C00D10D0103840B2002806DA00F0FE
:104E10000F0000F1E02090F8140D03E000F1E02015
:104E200090F80004400970470F207047002904D013
:104E30000A46006901A104F0A1BE70471B5B25640E
:104E40004200000070B5054602F09AFA0446007868
:104E50006178884203D1A078E17888421AD0E1785D
:104E6000A078814204D9081AC1B22846FFF7DEFFB4
:104E700020786178884205D9401AC1B2284600F0EE
:104E800047F804E0081AC1B2284600F04BF9A868B8
:104E9000817CC17470BD70B5054602F071FA04469C
:104EA00001788079401C814202D1A07801281BD072
:104EB000A078012804D9401EC1B2284600F03EF96E
:104EC0002078A179884206D9401A401EC1B22846EE
:104ED00000F01EF805E0081A401CC1B2284600F098
:104EE00021F9A9680020C87470BD10B50446006897
:104EF000FFF760FA0146A068C27C407B1144B1FB19
:104F0000F0F200FB121008B1002010BD012010BD0E
:104F1000002904D00A46006901A104F02FBE7047A1
:104F20001B5B25644400000070B504004FF4DA7583
:104F300003D108A12846FEF7B9F8206918B905A1E0
:104F40002846FEF7B3F82069BDE870400F4A10A16B
:104F500004F014BE2E2E5C2E2E5C2E2E5C2E2E5CAB
:104F60002E2E5C2E2E5C636F6D706F6E656E74738B
:104F70005C6C69627261726965735C636C695C6EBA
:104F800072665F636C692E630000000096E80000A3
:104F9000257300002DE9FC47002604468DF80460C7
:104FA00080683546B146B04680219430FBF704FB5B
:104FB0004049206904F0E2FD206904F01FFE00274B
:104FC0006B46012201A92046FFF794F80098D8B15A
:104FD0009DF804001B2806D0A16891F894101B29A5
:104FE000EED152281FD0A26808F19401505408F164
:104FF000010000F0FF08B8F1090F0AD9A1680420E8
:1050000081F89490BDE8FC872A494FF6C0100D3115
:10501000884700980028D3D17F1CBFB2B7F57A7FAC
:10502000CED30D20EEE7A16808F194004A4601F8BE
:105030000090A16891F895005B2803D081F8942036
:105040000B20DFE702206FF02F0309E005EB850559
:1050500003EB4505401C3D44C0B2ADB2802808D2E8
:1050600000F19407CF5D3B2FF0D1401CC0B28028E7
:1050700009D30C20C6E700BF06EB860603EB460605
:105080003E44B6B2F1E700F19407CF5D002FF3D1B3
:10509000FA20FA2E01D9087200E00E72FA2D02D918
:1050A000A168887201E0A0688572A06880F89420E9
:1050B0000020A7E7B4E8000070B5054602F060F9EB
:1050C00004468078E178884201D1012600E000267C
:1050D0002846FFF70AFF18B9284600F086FB10B1F2
:1050E0002846FFF721FF1EB160782178401A12E0B0
:1050F000E078A178401AC1B2284600F01FF8207865
:105100006178884206D9401AC1B22846BDE870408D
:1051100000F008B8081AC1B22846BDE87040FFF791
:10512000F7BE0000002904D00A46006901A104F07E
:1051300025BD70471B5B256443000000002904D097
:105140000A46006901A104F019BD70471B5B256484
:10515000410000002DE9F0470025DFF88C803CE09D
:105160006068002100EBC506012032789146FBF70C
:1051700092F9D4E9062300EA020701EA030C57EA90
:105180000C0728D082438B434846C4E9062306F027
:10519000EBFD32788246914601200021FBF77BF936
:1051A000D4E9042300EA020401EA03074A46504610
:1051B0000021FBF770F944404F403C430BD170781D
:1051C000012801D0012100E00021726881EA0A0172
:1051D0000AB1484690476D1CEDB298F8000044466D
:1051E0008542BDD3BDE8F087C000002010B5002186
:1051F000024802F04EF980F3100010BDBC130020ED
:105200000E4910B50A784C780023A24212D0521CE5
:10521000D2B20A70022A00D10B70084A0B780C3205
:1052200052F8232002608868104420F07F40886094
:10523000012010BD0360002010BD0000E000002030
:1052400070B50646D87814460D4618B90322304684
:1052500008F0FAFF6068012120B103212046FDF724
:10526000B3FB14E094F8280098B100204FF40062DA
:1052700004EB80035B69934202D1231883F8241066
:1052800094F829301BB1401CC0B20428F0D3002090
:1052900070BD686981683046BDE87040084700000D
:1052A00010B50446010600F00F00092804D306A13A
:1052B00040F2B620FDF7FAFE6FEA0460C10F204607
:1052C00061F31F1010BD00002E2E5C2E2E5C2E2EC2
:1052D0005C2E2E5C2E2E5C2E2E5C636F6D706F6EBE
:1052E000656E74735C647269766572735F6E726604
:1052F0005C757362645C6E72665F6472765F757310
:1053000062642E630000000070B50546000605F0DB
:105310000F0402D5092C09D301E0092C08D307A1F9
:1053200040F2A320FDF7C2FE280601D5134801E094
:105330001248903800EB041070BD00002E2E5C2E39
:105340002E5C2E2E5C2E2E5C2E2E5C2E2E5C636F21
:105350006D706F6E656E74735C647269766572737E
:105360005F6E72665C757362645C6E72665F6472B7
:10537000765F757362642E630000000050080020A1
:1053800010B50446010600F00F00092804D30349B4
:1053900040F28620FDF78AFE204610BDD8DD0000D1
:1053A00010B508F0F3FC8020FFF7AEFF817B0124ED
:1053B000032902D00068002809D18020FFF770FF80
:1053C0008440E143BDE81040014802F052B810BDEE
:1053D00094000020812006F0FFB8822006F0FCB87F
:1053E000832006F0F9B8842006F0F6B8852006F090
:1053F000F3B8862006F0F0B8872006F0EDB88820D4
:1054000006F03CB938B508F0C1FC0020FFF77CFF7E
:10541000817B0124032905D0006868B1BDE83840CC
:1054200004F0D1B90020FFF73BFF8440E143BDE821
:1054300038400A4802F01DB80020FFF731FF8440D1
:10544000E143064802F015F805480449C0680C39E4
:10545000009049686846884738BD000094000020E5
:10546000B0E40000012006F077B9022006F074B91C
:10547000032006F071B9042006F06EB9052006F08D
:105480006BB9062006F068B9072006F065B9000080
:1054900038B5082408F07AFC2046FFF735FF817BF9
:1054A000032915D00068002812D12046FFF7F8FE26
:1054B00001218140C943074801F0DBFF0648054947
:1054C000406900900C398DF8024049686846884769
:1054D00038BD000094000020B0E4000070B513480F
:1054E00004680460BFF36F8FBFF34F8F03F030FF8A
:1054F00038B10F48016921F0011201F00111144384
:10550000016101266CB194FAA4F0B0FA80F5284646
:10551000FDF7FCFD06FA05F18C43294608F0F6FD7F
:10552000F0E7BDE8704008F077BC00006C74024002
:105530008800002010B5054CA078FFF7B1FE0146A9
:10554000A078BDE8104008F0E1BD00008800002010
:10555000F8B51A4800681A4DC6B2A878FFF7A0FE41
:10556000012404FA00F12889EA68C04380B210439C
:10557000014202D0A87808F023FD06F08000A87050
:105580000020FFF78DFE04FA00F68020FFF788FE6A
:1055900004FA00F006430A48F1430C3001F069FFB9
:1055A0008020FFF77DFE8440A86804430548AC6076
:1055B000006A0090696868468847F8BD80740240B8
:1055C00088000020B0E4000038B5002000900E48AC
:1055D0000068ADF802008820FFF762FE012505FA99
:1055E00000F4082006F08CF8401C04D00820FFF7D7
:1055F00057FE85402C4305498868204388604968E8
:105600006846884738BD00002075024088000020A9
:1056100070470000F8B51C480568284606F044F9B4
:10562000BFF36F8FBFF34F8F184E194CE80506D5A7
:1056300001206070706A0090616868468847A8051C
:105640004FF0000705D56770B06A00906168684642
:105650008847680516D56078002813D006F02EF923
:1056600020B10CA140F2F740FDF720FD6770194909
:1056700001200860582006F029F9F06A009061685E
:1056800068468847F8BD000000740240B0E400009E
:10569000880000202E2E5C2E2E5C2E2E5C2E2E5C82
:1056A0002E2E5C2E2E5C636F6D706F6E656E747344
:1056B0005C647269766572735F6E72665C75736244
:1056C000645C6E72665F6472765F757362642E638B
:1056D0000000000008750240054908B50020487028
:1056E000887004484068009049686846884708BD4B
:1056F00088000020B0E400002DE9F05F17460E009E
:10570000814670D013B1F9B2FFF70CFD0024FAF70F
:10571000D1FE8246006800E0641C315D415CC9072F
:10572000FAD100253046FEF745FED9F80810001BD7
:105730004A7BD11B814228D306EB040805E000BF59
:1057400018F805100A290CD06D1C8542F8D33119C0
:10575000D9F8100004F012FA4846BDE8F05FFFF7F0
:10576000E3BBD9F8100004F049FA414600232A4669
:105770004846FFF7D7F82C444846641CFFF7D4FB93
:10578000F9B24846FFF7CEFCE1E78B46DAF80010A5
:1057900006EB040818F805000B5CDB0702D0AB46EB
:1057A0000A2804D0E819904201D26D1CF2E7D9F81A
:1057B000100004F023FA414600235A464846FFF7FA
:1057C000B1F85C44DAF8000000E0641C315D415C33
:1057D000C907FAD14846FFF7A7FBF9B24846FFF7D9
:1057E000A1FC9EE7FFE7BDE8F09F10B50446006806
:1057F000FEF7E0FD0146A068827C407B1144B1FBCE
:10580000F0F200FB121008B1002010BD012010BD05
:105810002DE9F0418046024601200021FAF73BFEC7
:105820001A4F05460E467868FBF7C8FF00280CD1D2
:10583000174CD4E9062110462A4001EA06031A4310
:1058400005D0A843B143C4E90601BDE8F081404654
:1058500006F08AFA30B1D4E9040128433143C4E99F
:10586000040105E0D4E90410A943B043C4E90410DD
:10587000D4E9060128433143C4E90601A1687868E8
:10588000BDE8F0410022FBF759BF0000A4E500008D
:10589000C00000207F2801DD7F2070476FF07F016E
:1058A000884201DA0846704740B270472DE9F84F48
:1058B0005FEA000B03D126497C20FDF7F7FB584631
:1058C00000F09CFA054600F045F80090284600F0EC
:1058D000A3FB2D6B044600222146284605F0B4F9AF
:1058E00007460528F7D10020FDF7FCFA9BF8089041
:1058F000002521E029465846FCF726F9824690F813
:105900000180002414E021465046FCF7F5F80646D5
:10591000007800F00F00082803D30D499920FDF707
:10592000C5FB3078010601D503F032FA641CE4B2FD
:105930004445E8D36D1CEDB24D45DBD303210098FF
:10594000FDF747F80020FDF7FBFA3846BDE8F88F71
:1059500050ED000010B5040003D106491B20FDF7EF
:10596000A5FB206818B903491C20FDF79FFB2068A0
:105970000C3010BD50ED000070B5064600F03EFA48
:105980000446FFF7E7FF0546206B05F0CBF928B189
:1059900003212846FDF71DF8002070BD3046BDE804
:1059A000704000F049BB3EB5044600F027FA0546BA
:1059B00020460021FCF7C8F80121FCF79DF8047887
:1059C00005F11000FCF7F4FF002100910191029114
:1059D000016800914068019069462046FCF78EFC02
:1059E0003EBD000070B50D46060004D10C4940F2E2
:1059F0007110FDF75BFB25B909494FF4B970FDF74C
:105A000055FB304600F0FAF900F11004FFF7A2FF51
:105A100002462B4621463046BDE87040FCF7BABE30
:105A200050ED00002DE9F84F8B46DFF8C88305469E
:105A3000097A1F46164688F80010584600F0DEF92D
:105A4000824625B9EC4940F2B310FDF72FFB2868D8
:105A50004FF000094C46B0F5E67F77D022DC40F2EB
:105A6000C312A0F2C311904271D012DC40F2BF11F8
:105A7000A0F2BF1288425ED006DCA8B3B0F5DD7F8D
:105A80003CD0101D71D144E0022A61D0032AF9D123
:105A90006CE0092969D2DFE801F06885919C6868AB
:105AA000A7B2BD0040F2E512A0F2E511904274D019
:105AB00012DCB0F5ED7F71D007DC11F118006ED06B
:105AC00001286DD00A28DDD1E2E0A0F58070DB3836
:105AD00067D00928D6D11CE1091F0529DAD2DFE8F1
