:020000040007F3
:10200000D0B90020DD230700E5230700E723070000
:10201000E9230700EB230700ED2307000000000081
:10202000000000000000000000000000C9230700BD
:10203000F123070000000000F3230700F523070049
:10204000F7230700F7230700F7230700F72307000C
:10205000F7230700F7230700F7230700F7230700FC
:10206000F7230700F7230700F7230700F7230700EC
:10207000F7230700F7230700F7230700F7230700DC
:10208000A9380700F7230700F7230700F723070005
:10209000F7230700F723070089350700F723070018
:1020A000F7230700F7230700F7230700F7230700AC
:1020B000F7230700F72307000000000000000000DE
:1020C000F7230700F7230700F7230700F72307008C
:1020D00085340700F7230700F723070000000000FE
:1020E00000000000000000000000000000000000F0
:1020F00000000000000000000000000000000000E0
:1021000000000000000000000000000000000000CF
:1021100000000000000000000000000000000000BF
:1021200000000000000000000000000000000000AF
:10213000000000000000000000000000000000009F
:10214000000000000000000000000000000000008F
:10215000000000000000000000000000000000007F
:10216000000000000000000000000000000000006F
:10217000000000000000000000000000000000005F
:10218000000000000000000000000000000000004F
:10219000000000000000000000000000000000003F
:1021A000000000000000000000000000000000002F
:1021B000000000000000000000000000000000001F
:1021C000000000000000000000000000000000000F
:1021D00000000000000000000000000000000000FF
:1021E00000000000000000000000000000000000EF
:1021F00000000000000000000000000000000000DF
:10220000DFF80CD000F052F900480047395A0700B7
:10221000D0B9002080F308888E46104730B450E8CB
:10222000012F93B2C48923448489A34228BF1B1B76
:102230000489A34202BFBFF32F8F002007E0C3EA47
:10224000020340E80134002CE9D14FF001000A609C
:1022500030BC704750E8012FC2EA024240E8012139
:102260000029F7D1704730B450E8022F1FFAA2F3CB
:10227000C488A34202BFBFF32F8F00200DE0C489A2
:1022800023448489A34228BF1B1BC2EA034340E8BE
:102290000234002CE8D14FF001000A6030BC7047D6
:1022A00050E8022FC2EA224240E802210029F7D179
:1022B0007047034653E8022FD988B2EB324F4FF0F4
:1022C000000017BF92B241EA014142EA014104E035
:1022D0005A68B2EB324F08BF012043E80212002ACD
:1022E000E8D1704730B4044654E8000F0D4644E886
:1022F0000053002BF8D1156030BC704730B4044651
:1023000054E8000F40EA010544E80053002BF7D1E0
:10231000156030BC704730B4044654E8000F00EA42
:10232000010544E80053002BF7D1156030BC70471D
:1023300030B4044654E8000F80EA010544E8005335
:10234000002BF7D1156030BC704730B4044654E818
:10235000000F00EB010544E80053002BF7D1156096
:1023600030BC704730B4044654E8000FA0EB0105C0
:1023700044E80053002BF7D1156030BC704770B4AF
:1023800004464FF0000054E8006F0D68AE4207BFEE
:1023900044E80023012044E800630E60002B1CBFCA
:1023A0000020F0E770BC704730B4044654E8000FDA
:1023B00088422CBF451A054644E80053002BF5D14E
:1023C000156030BC704700001EF0040F0CBFEFF327
:1023D0000880EFF3098007F003B900000648804742
:1023E00006480047FEE7FEE7FEE7FEE7FEE7FEE7FA
:1023F000FEE7FEE7FEE7FEE78D3507000122070056
:10240000202A04DB203A00FA02F1002070479140B4
:10241000C2F1200320FA03F31943904070470000F3
:102420000048704720C8070040EA01039B0703D01B
:1024300009E008C9121F08C0042AFAD203E011F803
:10244000013B00F8013B521EF9D27047D2B201E0C5
:1024500000F8012B491EFBD270470022F6E710B5A9
:1024600013460A4604461946FFF7F0FF204610BD02
:10247000421C10F8011B0029FBD1801A704730B5AF
:1024800004460020034600E05B1C934203D2E05C5C
:10249000CD5C401BF8D030BD034611F8012B00F88D
:1024A000012B002AF9D1184670470000064C074D51
:1024B00006E0E06840F0010394E807009847103414
:1024C000AC42F6D3FFF7A0FE88D70700A8D70700D5
:1024D0002DE9F0438BB01446129D15F9046B00965C
:1024E0001F46804689462B460246214602A800F038
:1024F0009AFC02A9129A084600F091FC129B02AACB
:102500004146404600F07BFC129B02AA2146204631
:1025100000F075FC2B464A4639463846009600F0D6
:1025200082FC129A394602A800F079FC02A92B46D7
:1025300042460846009600F076FC02A92B46224649
:102540000846009600F06FFC2B4642462146204686
:10255000009600F068FC129B22464946484600F06F
:102560004EFC2B4602AA41462046009600F05BFC3A
:10257000129B22463946384600F041FC2B464A461B
:1025800039463846009600F04EFC324602A92046F5
:1025900000F00FFE0BB0BDE8F083F0B5154689B032
:1025A0001C4607460E461A462946684600F037FC88
:1025B00023466A463946384600F021FC23462A461F
:1025C0006946684600F01BFC23466A4631463046A1
:1025D00000F015FC09B0F0BD8B1802448B4200D10D
:1025E000704713F8010D02F8010DF7E72DE9F047E8
:1025F000B3F9024088461E4604F11F012023073428
:1026000091FBF3F708234FFA87F994FBF3F4944214
:1026100028BF14464946054600F080FA2246414646
:10262000FFF7DAFFB6F90230E4009C4221D9E41A40
:1026300005EB87010022C4F120078D420FD3243619
:102640004A462946304600F074FA012811D04B461C
:10265000324629462846BDE8F04700F0B9BD51F89A
:10266000040C20FA04F3134341F8043D00FA07F286
:10267000E3E7BDE8F0872DE9F04793F9006092B0F9
:1026800004468946104631461546984600F065FADC
:10269000002840F093804246494602A800F0BFFB64
:1026A000434602AA21460AA800F0A9FB02A908464F
:1026B000424600F0B4FB43462A464946484600F0ED
:1026C0009EFB08F1040742462946284600F0A7FB76
:1026D0003B462A4621462046009600F04DFA3B46EE
:1026E0002A4629462846009600F046FA3B462A46E6
:1026F00021462846009600F096FB43462A4621468E
:10270000204600F07CFB3B462246214628460096A8
:1027100000F032FA3B4600962A462146204600F059
:102720002BFA2368DB074CD533463A462146204630
:1027300000F0C6F931468246204600F02CFD06F135
:102740008043013B54F8230040EACA7044F8230058
:1027500042462146284600F062FB3B460AAA29462B
:102760002846009600F05FFB3B460AAA2946284609
:10277000009600F058FB0AA908463B462A460096F8
:1027800000F051FB43460AAA2146204600F037FBE1
:1027900002AA3B4610462146009600F044FB324612
:1027A0002946204600F005FD32464946284600F0FD
:1027B00000FD324602A9484600F0FBFC12B0BDE81D
:1027C000F0873146204600F0E6FCC1E7004870473C
:1027D000D8D607002DE9F04FEDB01F46DDF8D881BF
:1027E0000590B8F9026098F9004020231F3696FB47
:1027F000F3F676B206F1FF3924AB002543F82950F1
:102800006CAB03EB89034CA88A469346394698F98A
:10281000012043F8805C43F8605CFFF7DDFE98F927
:10282000012054A8B918FFF7D7FE21464CA800F0A4
:1028300094F90746002840F03981214654A800F059
:102840008CF90290002840F0338108F124033246CD
:102850004CA91846039300F06CF9012840F02A8136
:10286000324654A9039800F064F90128069040F01C
:1028700021811CAD0CAF3346039A54A9284600F0C1
:1028800094F9029B47F829305A4651463846434648
:10289000FFF7ACFE39463846039B00962A4600F007
:1028A0000AFA0DF5B879039B00962A464CA914A89C
:1028B00000F001FA48462246059900F07AFCA30090
:1028C00009EB030A0793059BA100591808F1440B73
:1028D0005046224600F06DFC5946224634A800F0CE
:1028E00068FCA3000BEB030122463CA800F061FC4E
:1028F00008F10403494634AA28460094049300F0E2
:1029000092FA53464A463CA934A8CDF80080FFF716
:10291000DFFD2346049A2946284600F046F92A4658
:10292000514648464346FFF738FE029B089331461E
:10293000059B0A933846CDF824B0CDF82C9000F0D2
:102940000DFC3146814614A800F008FC8145B8BF53
:1029500081461FFA89F909F1FF3B0FFA8BFB5946B3
:10296000384600F065FC5946071C14A818BF01271B
:1029700000F05EFC002814BF022300231F430DF16A
:10298000200A22465AF8277024A8394600F011FC84
:102990000DF1B00BA300F9182246584600F009FCCF
:1029A0002146284600F0BAF8A9F10209069B2B60DF
:1029B0000FFA89F90DF1900AB9F1000F23DA2346D5
:1029C000049A2946284600F0F0F843462A4659461C
:1029D0005046FFF7E2FD32465146039800F0A9F851
:1029E000012805D03346039A5146504600F0F0FBCB
:1029F000013C64B2002C4CDA029BB3FA83F040092C
:102A00006DB0BDE8F08F43462A46D8F8A470594609
:102A10005046B84749460CA800F00AFC4946071C36
:102A200014A818BF012700F003FC002814BF0220DF
:102A30000020384308AB53F820702FB322463946A4
:102A400034A800F0B6FB079B2246F9183CA800F01A
:102A5000B0FB43462A463CA934A8FFF79EFD049BE1
:102A6000009434AA514644A800F0DDF95B46524672
:102A70003CA934A8CDF80080FFF72AFD434644AABC
:102A80002946284600F0BBF909F1FF390FFA89F908
:102A900092E723B26CAA02EB83025AF8233052F871
:102AA000802C5340029A1A430292A1E72846A7E7D6
:102AB0003846A5E70298A3E70000000000000000E8
:102AC000C3F10803DB0070B50133002403A500BF88
:102AD0005B1920C940CAAD1920C0184720C940CA97
:102AE000754120C020C940CA754120C020C940CAD4
:102AF000754120C020C940CA754120C020C940CAC4
:102B0000754120C020C940CA754120C020C940CAB3
:102B1000754120C06441204670BD00BF002310B540
:102B20001C465AB2914200DC10BD40F823400133EC
:102B3000F7E710B5013A52B2002A01DA002010BDC1
:102B400013B250F8234051F823309C4203D8F1D2FD
:102B50004FF0FF3010BD012010BD10B500231A4604
:102B60005CB2A14203DCB2FA82F0400910BD50F819
:102B7000234001332243F3E770B59DF910401E4610
:102B800023460546FFF79CFF30B9224629463046CA
:102B9000FFF7CFFF012807D02346324629462846B3
:102BA000BDE8704000F014BB70BDF0B50F46A1B099
:102BB00006461946384615461C46FFF7CEFF28B193
:102BC00021463046FFF7AAFF21B0F0BD2246394624
:102BD000684600F0EEFA2246294608A800F0E9FA15
:102BE000214610A8FFF79AFF0123214618A8109349
:102BF000FFF794FF224608A96846FFF79AFF28B915
:102C0000224610A9304600F0D4FADDE7009BDA072F
:102C100009D42146684600F0BEFA2246294610A88B
:102C200000F0E6FBE6E7089BDB0707D4214608A88F
:102C300000F0B1FA2246294618A8F1E700282346F9
:102C40001CDD08AA6946684600F0C2FA21466846BB
:102C500000F0A1FA224618A910A8FFF76AFF002881
:102C600005DA10A923462A460846FFF729FF10A9CE
:102C7000234618AA084600F0ABFACEE708A96A4630
:102C8000084600F0A5FA214608A800F084FA22467A
:102C900010A918A8FFF74DFF002805DA18A9234648
:102CA0002A460846FFF70CFF18A9234610AA084633
:102CB00000F08EFABEE72DE9F04FB5B004AD9DF9F6
:102CC000F8401F4680462346284600F0BEF824AB55
:102CD000214638460293039500F040FAC0EB841079
:102CE00005B26B4203F01F034FF0200695FBF6F68A
:102CF00076B205F01F0914A858BFC3F10009314688
:102D0000FFF70CFFB9F1000F30B22BDD14AB00223E
:102D100003EB8000C9F1200E1346A34217D327B25C
:102D20007B00019314AB03EB870704F1FF3934AB4D
:102D3000012603EB8909002D55DB34AB0022C6F1D7
:102D40000100964603EB860A03EB80002DE057F85E
:102D5000236006FA09F10A4340F8232026FA0EF20E
:102D60000133DAE714AB2246394603EB800000F06A
:102D700020FAD4E70FFA81FC5AF8C83C53F82CB07B
:102D800034AB03EB810151F8803CABEB0303A3EBC5
:102D90000E039B4504D034BF4FF0010E4FF0000EE0
:102DA00050F8C81C41F82C300132019B51B29942B5
:102DB000E0DBA6EB0E035E42214614A85E4100F064
:102DC000EAF934AB03EB8403214653F8802C59F81D
:102DD000803C384643EAC273013D49F8803C2DB23D
:102DE00000F0D9F9A7E734AB03EB8606224656F884
:102DF000C81C404600F0DDF935B0BDE8F08F30B5B5
:102E00001C4691B0054693F90030684600F01DF865
:102E1000D4F8AC3069462846984711B030BD134607
:102E20000A46FFF7ECBF70B59DF910401E462346D9
:102E3000054600F0CDF938B12346324629462846EA
:102E4000BDE87040FFF73CBE70BD2DE9F04F08B4FF
:102E5000F8CA04B451F8042BA3FB028940F8048B90
:102E60004FF0000AE4FB629A4FF0000BE5FB62AB07
:102E70004FF0000CE6FB62BC4FF0000EE7FB62CEA9
:102E800051F8042B4FF00008E3FB628940F8048BF3
:102E9000E4FB629AE5FB62ABE6FB62BCE7FB62CE59
:102EA00051F8042B4FF00008E3FB628940F8048BD3
:102EB000E4FB629AE5FB62ABE6FB62BCE7FB62CE39
:102EC00051F8042B4FF00008E3FB628940F8048BB3
:102ED000E4FB629AE5FB62ABE6FB62BCE7FB62CE19
:102EE00051F8042B4FF00008E3FB628940F8048B93
:102EF000E4FB629AE5FB62ABE6FB62BCE7FB62CEF9
:102F000040F8049B40F804AB40F804BB40F804CB05
:102F100040F804EB0CBC052B00F01E810C68A0F1FE
:102F20001400A1F11401A2F1140252F804EB4FF0C5
:102F3000000550F8046BE4FB6E5652F804EB50F8B1
:102F4000047BE4FB6E6752F804EB50F8048BE4FB5F
:102F50006E7852F804EB50F8049BE4FB6E8952F84B
:102F600004EB50F804ABE4FB6E9AA0F1140052F8A5
:102F7000044B51F804EB4FF0000CE4FB6EC540F835
:102F800004CB51F804EBE4FB6E5640F8045B51F8B7
:102F900004EBE4FB6E6740F8046B51F804EBE4FBD0
:102FA0006E7840F8047B51F804EBE4FB6E8940F83E
:102FB000048B51F804EBE4FB6E9AA0E80006062BA4
:102FC00000F0CA800C68A0F11800A1F11801A2F16C
:102FD000180252F804EB4FF0000550F8046BE4FBC4
:102FE0006E5652F804EB50F8047BE4FB6E6752F81F
:102FF00004EB50F8048BE4FB6E7852F804EB50F8C5
:10300000049BE4FB6E8952F804EB50F804ABE4FB3C
:103010006E9A52F804EB50F804BBE4FB6EABA0F1DF
:10302000180052F8044B51F804EB4FF0000CE4FB8D
:103030006EC540F804CB51F804EBE4FB6E5640F843
:10304000045B51F804EBE4FB6E6740F8046B51F845
:1030500004EBE4FB6E7840F8047B51F804EBE4FBEE
:103060006E8940F8048B51F804EBE4FB6E9A40F84B
:10307000049B51F804EBE4FB6EABA0E8000C072BBB
:103080006AD008B40C68A0F11C00A1F11C01A2F1E7
:103090001C0252F804EB4FF0000550F8046BE4FBFF
:1030A0006E5652F804EB50F8047BE4FB6E6752F85E
:1030B00004EB50F8048BE4FB6E7852F804EB50F804
:1030C000049BE4FB6E8952F804EB50F804ABE4FB7C
:1030D0006E9A52F804EB50F804BBE4FB6EAB52F866
:1030E00004EB50F804CBE4FB6EBCA0F11C0052F8DA
:1030F000044B51F804EB4FF00003E4FB6E3540F84D
:10310000043B51F804EBE4FB6E5640F8045B51F8C5
:1031100004EBE4FB6E6740F8046B51F804EBE4FB4E
:103120006E7840F8047B51F804EBE4FB6E8940F8BC
:10313000048B51F804EBE4FB6E9A40F8049B51F8C1
:1031400004EBE4FB6EAB40F804AB51F804EBE4FB9A
:103150006EBCA0E8001808BCBDE8F08F013949B288
:10316000002904DA013149B231B90846704750F8F4
:103170002130002BF2D0F5E701F18043013B50F8FC
:103180002330002023B9013900EB411108B2704708
:103190005B080130F6E700EB81010023884200D391
:1031A000704751F8042C43EA520341F8043DD30719
:1031B000F4E710B500235CB2A24200DC10BD51F868
:1031C000234040F823400133F5E7000000000000F1
:1031D000C3F10803DB0070B50133002403A500BF71
:1031E0005B1920C940CAAD1B20C0184720C940CA7E
:1031F000B54120C020C940CAB54120C020C940CA3D
:10320000B54120C020C940CAB54120C020C940CA2C
:10321000B54120C020C940CAB54120C020C940CA1C
:10322000B54120C06441B4FA84F0400970BD00BFCC
:103230004A11012350F8220001F01F0103FA01F1A5
:1032400008407047F0B5082289B00C460646FFF7E3
:10325000B0FFCB6A03930B6B04934B6B05938B6BA3
:103260000693CB6B0793002708236A466946684696
:10327000029701970097FFF723FC082305466A464B
:1032800031463046FFF71CFC236B0393636B0493BA
:10329000A36B0593E36B0693054408236A466946CE
:1032A00068460797FFF70CFC082305446A46314639
:1032B0003046FFF705FC236A0093636A0193A36A13
:1032C0000293A36B0693E36B0793054408236A46B6
:1032D00031463046059704970397FFF7F1FB636A81
:1032E0000093A36A0193E36AA26B0293636B039357
:1032F00004920693E26B236A0592054407936A469B
:10330000082331463046FFF7DBFBE36A0093236B6B
:103310000193636B0293236A0693A36A07930544A0
:1033200008236A4631463046059704970397FFF70E
:103330004FFF236B0093636B0193A36B0293E36BCB
:103340000393636A0693E36A07932D1A08236A4678
:103350003146304605970497FFF73AFF636B0093B9
:10336000A36B0193E36B0293236A0393636A049351
:10337000A36A0593236B07932D1A08236A463146E7
:1033800030460697FFF724FFA36B0093E36B01938E
:10339000636A0393A36A0493E36A0593636B0793D9
:1033A0002D1A08236A463146304602970697FFF7E2
:1033B0000FFF2D1A0D4C0FD435B908223146204687
:1033C000FFF7B7FB01280FD00823224631463046CD
:1033D000FFF7FEFE2D1AEFE708232246314630465E
:1033E000FFF76EFB2D18F7D409B0F0BDDCD607004F
:1033F00070B5036813F001050646144605D0134660
:103400000A460146FFF75CFB054621463046FFF7BA
:10341000C2FE45B104F18042013A56F8223043F031
:10342000004346F8223070BD2DE9F04115468AB0C0
:10343000044688462022002102A8FFF710F82E1D1E
:1034400095F9007003232A46414620460293FFF770
:10345000E6FC334602AA214620460097FFF7E3FC2C
:103460002B46424621462046FFF7C9FC00973346CB
:1034700005F1840221462046FFF77EFB0AB0BDE835
:10348000F08100002DE9F0411E4E4FF48271D6F814
:10349000040130B11C48C268521CC260304605F0BD
:1034A000B5FD00254FF4A07707EB85018AB23046C1
:1034B000B25812B389B205F0A9FD1348103000EBE1
:1034C0000514204608F018FC104811492246401AFD
:1034D000C008042101EB00400EA105F06DFB6168FE
:1034E00019B1204608F05CFB07E0A16811B1204645
:1034F00008F056FB206800B180476D1C022DD3D325
:10350000BDE8F08100400240C057002010D80700FD
:10351000C0D7070074696D65725F6669726520289F
:10352000307825782900000000F0CEB970B50E463D
:10353000144900EB400001EBC0051446E86A183559
:1035400020B101280FD0022805D113E0284600F051
:10355000F1F9A04201D2002411E02246314628466A
:1035600000F020FA0BE0284600F0E4F9A042F4D283
:103570000446F2E73146284600F0E7F904462046C3
:1035800070BD00004889002005F028BFF0B5B5489F
:103590000023021D0178101D01254FF080540629DB
:1035A0000BD11678360708D10678C6F30316032E1A
:1035B00006D0042E04D0052E02D0062907D00EE036
:1035C000B4F82463A84FC6F304263E6002E01678E0
:1035D000360704D10678C6F30316032E02D0062957
:1035E00004D00FE0A24FA14E7E670EE0167836079A
:1035F00008D10678C6F30316032E06D0042E04D095
:10360000052E02D0062907D00EE0D4F84462994F67
:10361000C6F342363E6002E01678360704D10678DB
:10362000C6F30316032E02D0062906D011E0924EEF
:10363000376827F0807737600EE01678360708D1B4
:103640000678C6F30316032E06D0042E04D0052EEA
:1036500002D006290AD011E04FF08046C6F80C319E
:10366000C6F81031834E361F336002E016783607F5
:1036700004D10678C6F30316032E02D0062905D01E
:103680000CE07C4F032664373E600AE0167836076C
:1036900004D10678C6F30316032E02D006290DD0F6
:1036A00014E0764F05263E60744E78363560734ED2
:1036B000083633603F263F1D3E6002E0167836072D
:1036C00004D10678C6F30316052E02D0062957D07A
:1036D00062E06B4E36686B4F3E60694E361D366851
:1036E0003F1D3E60664E083636683F1D3E60644EA4
:1036F0000C3636683F1D3E60614E103636683F1D01
:103700003E605F4E143636683F1D3E605C4E183694
:1037100036685C4F20373E60594E1C3636683F1D78
:103720003E60574E203636683F1D3E60544E24366C
:1037300036683F1D3E60524E283636683F1D3E605B
:103740004F4E2C3636683F1D3E604D4E3036366843
:103750004C4F40373E604A4E343636683F1D3E601F
:10376000474E383636683F1D3E60454E3C3636681B
:103770003F1D3E60424E403636683F1D3E6002E0CF
:103780001678360708D10678C6F30316032E06D03E
:10379000042E04D0052E02D0062907D019E0D4F853
:1037A0005812394A01F04F01116002E011780907FF
:1037B0000FD10078C0F30310032803D0042801D0F0
:1037C000052806D131480168C90702D06FF0010110
:1037D0000160D4F83001062808D1D4F83401062855
:1037E00004D12B48016841F480610160224874389B
:1037F000016841F470010160BFF34F8FBFF36F8F19
:103800004FF01021D1F80002002803DBD1F80402A8
:10381000002822DA1F4A15601F480468002CFCD0DB
:103820001524C1F800420568002DFCD0C1F80442FF
:1038300001680029FCD0136001680029FCD0BFF3A7
:103840004F8F0D48F0380168144A01F4E0611143CC
:103850000160BFF34F8F00BFFDE7124910480860B9
:10386000F0BD0000E00F00F0403501400DF0ADBAB2
:1038700000C007403C050040FCED00E01056004051
:103880000404001020C50040E40E00400004004085
:103890003C17004004E5014000E401400400FA0543
:1038A0000090D003B8580020064808B500210160F8
:1038B0000068009005F03CFA05F00CF80028FBD1F8
:1038C00008BD00000001014010B5124C022020612B
:1038D000606111A0A06104F17800E0614FF48050B4
:1038E00020620020A06260620BA1A164E0620D4929
:1038F000E1641021A065C4E91410E0650AA1E01D8F
:10390000FEF7CAFD09A12046FEF7C6FD2020A071E2
:1039100010BD0000488900205465726D696E616CAD
:1039200000000000C09900205254540053454747FE
:10393000455200000269C1688A4203D88068401A73
:10394000104400E0501A401E70472DE9F047C4684B
:103950001746894606464FF000083069A04201D953
:10396000051B02E0B168201A0D1AB0686D1E001B1D
:10397000A84200D80546BD4200D33D4670682A469D
:1039800020444946FEF750FDB0687F1B2C44A844F4
:10399000A944A04200D10024F460002FDDD14046AC
:1039A000BDE8F0872DE9F04104468846D4E90207D6
:1039B000C51BE168606816460844B54206D9414611
:1039C000FEF732FDB819E060BDE8F0812A464146B5
:1039D000FEF72AFD761B08EB050132466068FEF70C
:1039E00023FDE660F0E702E008C8121F08C1002AC4
:1039F000FAD170477047002001E001C1121F002A70
:103A0000FBD170470121202803DA8140054801409D
:103A100003E0402802DA2038814009B101207047D4
:103A200000207047FC06FFBD082806D20121814016
:103A300011F0EC0F01D00120704700207047800783
:103A400001D0002070470120704740680068401E88
:103A5000084201D10120704700207047C3688B42A3
:103A600006D811440069491E814201D801207047DF
:103A70000020704730B585B00D46164C1621ADF8C4
:103A800000101ECC0DF1040C8CE81E00124C02211B
:103A9000012221706270A0700320E0702171592012
:103AA0006071FE20A071694604F109007DDF0028E5
:103AB0000ED1BDF800002A46411CE1710921217296
:103AC000BDF808100844ADF8080001A9034872DFEA
:103AD00005B030BDE0C20700F05C0020F8570020C0
:103AE00010B586B0062418220D496846FEF79CFCE6
:103AF0000C480D49401AC008042101EB00400BA1FD
:103B000005F056F869462046FFF7B4FF002805D1B6
:103B10000A4C207874DF0121207873DF06B010BDD5
:103B2000F0C20700C8D70700C0D707004164766518
:103B300072746973696E672E2E2E0000F85700208C
:103B40002DE9F05FDFF89CB05C46DBF84890DBF8CD
:103B5000246002F085FF216B4718751A224823491B
:103B6000401AC108042000EB0140804620A105F066
:103B70001FF8216B4944B94200D1002508232A4689
:103B8000384601F0D5FC0700184817494FF0010AE4
:103B9000A1EB00004FEAD0010AEB014404D020461B
:103BA0001AA105F005F819E002F05AFF002231468B
:103BB00001F0AEF8DBF828200546D946AA4208D124
:103BC000404619A104F0F4FFC9E9075AC9F8186082
:103BD00004E020462B461A4904F0F5FF3846BDE8BC
:103BE000F09F0000F870002010D80700C0D7070031
:103BF000456E746572206E72665F6466755F617093
:103C0000705F636F6E74696E756500004661696C04
:103C1000656420746F20636F7079206669726D77B8
:103C20006172652E0000000053657474696E672030
:103C30006170702061732076616C6964000000001F
:103C4000C0C8070008B51346024600930648074B54
:103C5000C01AC008012303EB00400B4604A104F086
:103C6000BAFF06F08BF9000010D80700C0D7070094
:103C700052656365697665642061206661756C7460
:103C8000212069643A203078253038782C20706300
:103C90003A203078253038782C20696E666F3A20CB
:103CA0003078253038780000024606480649401A28
:103CB000C008012101EB004004A104F07DFF06F0E3
:103CC0005DF9000010D80700C0D707005265636592
:103CD0006976656420616E206572726F723A203079
:103CE00078253038782100002DE9F84F254C8146A1
:103CF000924660880E46814241D800274FF6FF78F1
:103D00008DF80070684600F075F822786078A18818
:103D1000884201DA401C00E00020C0B2904204D189
:103D20009DF8000000F0B2F827E0657860788842DE
:103D300001DA401C00E0002060709DF8000000F0F7
:103D4000A5F8454519D0A068B9F1000F40F835A095
:103D50000DD066B16188E068324605FB0100494636
:103D6000FEF762FBA06800EBC500868002E000EB76
:103D7000C50087800020BDE8F88F0420FBE70920FC
:103D8000F9E700003C58002010B50E4C03E0401C41
:103D900000E00020207020786178814210D02278E5
:103DA0006188E068A36802FB010003EBC20153F8DD
:103DB0003220898890472078A1888842E9DAE6E7AE
:103DC00010BD00003C58002030B5CB0008339DB238
:103DD00093074FF0000401D0072030BD044B9A60D8
:103DE0002A44DA605C701C7058809980002030BDD5
:103DF0003C58002070B5044606F02AFF012803D085
:103E000010A11D2000F086F8EFF3108172B61D4A54
:103E10009368012083B990604FF0E020D0F8805182
:103E2000194B1D401560C0F88031D0F884315360C3
:103E30004217C0F8842100202070002900D162B60A
:103E400070BD00002E2E5C2E2E5C2E2E5C2E2E5C65
:103E50002E2E5C636F6D706F6E656E74735C6C6933
:103E6000627261726965735C7574696C5C617070B3
:103E70005F7574696C5F706C6174666F726D2E63D0
:103E80000000000080750020FC06FFBD10B5044650
:103E900006F0DEFE012803D00DA12B2000F03AF839
:103EA0001B498868002811D0002C0FD1EFF3108037
:103EB00072B60B684FF0E022C2F800314B68C2F8CE
:103EC000043100228A60002800D162B610BD0000D3
:103ED0002E2E5C2E2E5C2E2E5C2E2E5C2E2E5C63E7
:103EE0006F6D706F6E656E74735C6C696272617217
:103EF0006965735C7574696C5C6170705F75746919
:103F00006C5F706C6174666F726D2E6300000000F0
:103F1000807500201CB56A46ADF8000001910021B3
:103F200044F20200FFF78EFE1CBD00002DE9F843AD
:103F3000274F274857F8246F846CB968AC2901D003
:103F400024B106E0406B0444361A02E002F09CFD06
:103F50000446204820492346401A4FEAD00804214D
:103F600001EB084005461D4A1DA1009604F033FEF2
:103F7000B868AC2806D13246A4F580411748FEF750
:103F80007EFA00B3324621461448FEF778FAD0B1E3
:103F900028463346224620A104F015FE04F09AFC80
:103FA0000028FBD102F0B8FA3146204603F05EF952
:103FB000040005D0012101EB084023A104F0F8FD25
:103FC0002046BDE8F8830024284626A1F6E7000035
:103FD000F870002010D80700C0D7070000200700A5
:103FE000566572696679696E6720424C3A20416471
:103FF00064723A203078253038782C205372633A36
:10400000203078253038782C204C656E3A20307876
:104010002530387800000000436F7079696E6720A2
:10402000626F6F746C6F616465723A205372633AA9
:10403000203078253038782C204C656E3A20307846
:104040002530387800000000526571756573742062
:10405000746F20636F707920424C206661696C65D3
:10406000640000004E6F20626F6F746C6F61646556
:104070007220636F7079206E65656465642C2062C0
:104080006F6F746C6F6164657220757064617465C4
:1040900020636F6D706C6574652E000030B595B04F
:1040A000040004D12E4940F22C40FFF733FF2D4984
:1040B0004FF6FF702246488001208DF812004FF61F
:1040C0005960ADF8100004A90120A8DF002844D1F0
:1040D000254B0FCB8DE80F00A11C684662DF00283E
:1040E0003BD121491C2260390BA8FEF79DF91F4DD9
:1040F000142205F1C401A8681290A0788DF84A0036
:104100002868139006A8FEF78FF912A8069013A846
:1041100007902088231D06AA0BA9AADF00281CD11E
:104120001C2205F1D8010BA8FEF77EF9E868129071
:10413000A0788DF84A0068681390142205F1F40104
:1041400006A8FEF771F912A8069013A80790208818
:1041500004F10C0306AA0BA9AADF15B030BD0000BC
:10416000ACC90700F8570020B8C30700B0C2070069
:10417000F0B585B00D46040004D1374940F269100E
:10418000FFF7C8FE25B934494FF4B570FFF7C2FEFA
:1041900014216846FEF761F92078032308280BD123
:1041A0002E48C188491E89B2C1808288002A4BD01E
:1041B000002949D1C28023702178607860228DF86F
:1041C00000208DF801108DF8020063780325012B83
:1041D00016D0234823492278401AC008022101EB57
:1041E000004021A104F0EFFC60780B2828D101F0F9
:1041F00055F88DF80300002001F058F804251FE061
:10420000207809281CD2DFE800F01B1B1B211B1B98
:10421000051B2100D4E902706D46E91C666807F0B1
:1042200091FD044629193046C91C07F08BFD044452
:1042300029193846C91C07F085FD2044C01CC5B2A9
:104240002946684606F0EEFD05B0F0BDD4E901123E
:10425000684606F0D7FDF1E7ACC90700F857002023
:10426000C8D70700C0D7070044465520726571754E
:10427000657374202564206661696C6564207769C4
:104280007468206572726F723A2030782578000069
:104290002DE9F0411D4C0026217AC90733D01C4975
:1042A000884230D01B481C49401AC108042000EB4A
:1042B0000140054619A104F07BFC6088A0F57F4110
:1042C000FF3916D028461DA104F072FCA068132106
:1042D00040F00400A060608876DF002814D11B4CF9
:1042E000C8264FF47A47611C38468847761EFAD1B3
:1042F00001E0207874DF04F0FFFF060003D12846B8
:1043000013A104F055FC3046BDE8F081F8570020B9
:10431000A8D70700C8D70700C0D70700536875742F
:1043200074696E6720646F776E20424C452074720A
:10433000616E73706F72742E0000000044697363C5
:104340006F6E6E656374696E672E0000C0C20700F1
:10435000424C45207472616E73706F727420736882
:10436000757420646F776E2E0000000070B5204CCD
:1043700006460020217AC90738D11E481E49401A36
:10438000C108042000EB014005461CA104F010FC0C
:104390002248E66001F042FD00F01CFB002825D118
:1043A00003F0DAF938B11E4803F0CAF9A06840F00A
:1043B0000200A06003E028461AA104F0F9FB01F016
:1043C0004BF8002812D116481C30FFF767FE002872
:1043D0000CD1FFF785FB002808D1A06818A140F098
:1043E0000100A060284604F0E3FB002070BD00003F
:1043F000F8570020C8D70700C0D70700496E697476
:1044000069616C697A696E6720424C452044465563
:10441000207472616E73706F7274000030D8070080
:10442000105D00204E6F2061647665727469736957
:104430006E67206E616D6520666F756E64000000AA
:10444000424C4520444655207472616E73706F7201
:104450007420696E697469616C697A65642E000004
:104460002DE9FE439F49A04B0122591AC90807466E
:10447000051D02EB0148008804229C4E4FF0000904
:1044800002EB014421286ED037DC13286CD01EDCEF
:1044900001286AD0102854D0112868D0122879D168
:1044A000204693A104F084FBEA8820469AA104F0F8
:1044B00083FBAA8820469EA104F07EFB2A89204621
:1044C000A1A104F079FB6A892046A4A1ECE014289C
:1044D00075D01A2874D01F285CD12046A5A104F0FD
:1044E00067FB291D708875DF040053D040462246C3
:1044F000ACA104F061FB20461FE051287AD00EDC0D
:10450000222878D0232868D024287BD0502877D13F
:1045100003B03946BDE8F043B04805F055BE522817
:10452000D8D0552837D056286AD1B879002867D115
:104530001321708876DF002862D0BDE8FE43FFF7C4
:10454000B3BB2046A6A104F033FB28887080F16835
:1045500009B101208847A549708875DF02004FD056
:104560004046A3A1A0E07FE055E087E0FFE74FF6DB
:10457000FF707080307A400704D4FFF7B1FA08B1B9
:10458000FFF792FBF16800293AD003B00220BDE8A2
:10459000F043084734E0FA88F72A14D29007B0F1C4
:1045A000404F0ED0D01F81B2481EC31700EB93734B
:1045B00023F00303C01A081A801D85B204E078E0D6
:1045C00081E0154600E0F72520462B46944904F08B
:1045D000FAFA29467088B5DFADE7204691A104F0CC
:1045E000E7FACDF80090CDF80490B888002269462B
:1045F00090DF2DE046E02EE004E000BFFFF754FB23
:10460000BDE8FE836B89EA8803B02046BDE8F0432D
:1046100091A104F0D8BA20469FA104F0C9FA7348CA
:1046200001AA163842F60521806A0190CDF808D01B
:104630007088ADDF08B1FFF737FB2046BDF80020DA
:104640009FA104F0B9FA00231A46852170887FDF04
:104650000028D3D1D4E7287900906B79AA79204635
:10466000A0A104F0B8FACBE72046ADA104F0A0FA6F
:10467000CDF80090288869468FDFE9E7002170882F
:1046800066DF58E7B8790028BAD03946534805F0B4
:1046900057FD0028B4D007F10801504805F0E2F8B2
:1046A0000200ADD04046A9A103B0BDE8F04304F03C
:1046B00083BA2046B2A104F07BFA00210A4628887A
:1046C0000B4686DF37E7002328881A461946B1DFF4
:1046D00008B1FFF7E9FA03B02046BDE8F043B2A104
:1046E00004F066BAC0D70700C8D70700F857002003
:1046F000526563656976656420424C455F47415069
:104700005F4556545F434F4E4E5F504152414D5F9F
:1047100055504441544500006D61785F636F6E6E83
:104720005F696E74657276616C3A202564000000E2
:104730006D696E5F636F6E6E5F696E7465727661D0
:104740006C3A202564000000736C6176655F6C61D3
:1047500074656E63793A202564000000636F6E6EA5
:104760005F7375705F74696D656F75743A20256449
:1047700000000000526563656976656420424C451F
:104780005F4741505F4556545F434F4E4E5F504127
:1047900052414D5F5550444154455F524551554536
:1047A000535400004661696C75726520746F207502
:1047B000706461746520636F6E6E656374696F6E9B
:1047C00020706172616D65746572207265717565C6
:1047D00073743A2030782578000000002C5D0020AA
:1047E000436F6E6E6563746564000000C6C20700A7
:1047F0004661696C75726520746F207570646174B0
:104800006520636F6E6E656374696F6E2070617290
:10481000616D65746572733A203078257800000008
:1048200064C90700526563656976656420424C453A
:104830005F4741505F4556545F444154415F4C458A
:104840004E4754485F5550444154455F5245515579
:104850004553542E00000000526563656976656417
:1048600020424C455F4741505F4556545F44415498
:10487000415F4C454E4754485F5550444154452094
:104880002825752C206D61785F72785F74696D657D
:10489000202575292E0000005265636569766564E0
:1048A00020424C455F4741505F4556545F53454356
:1048B0005F504152414D535F52455155455354004D
:1048C0004343434420666F72207365727669636563
:1048D000206368616E6765642069732030782530D5
:1048E00034780000526563656976656420424C4502
:1048F0005F4741505F4556545F5048595F5550449B
:10490000415445202852583A25642C2054583A25C1
:10491000642C207374617475733A25642900000057
:10492000526563656976656420424C455F47415036
:104930005F4556545F5048595F5550444154455F58
:10494000524551554553542E00000000436F756C7D
:1049500064206E6F742068616E646C65206F6E5F9A
:104960006374726C5F70745F77726974652E206512
:1049700072725F636F64653A203078253034780056
:10498000526563656976656420424C455F474150D6
:104990005F4556545F5345435F494E464F5F52450E
:1049A000515545535400000046696E69736865644B
:1049B0002068616E646C696E6720636F6E6E207331
:1049C000656320757064617465000000007800F014
:1049D0000100704738B50020009002F053FC002819
:1049E0002DD117481749184A401AC108042000EB76
:1049F0000140044615A104F0DFF8134813DF002836
:104A00001DD1204619A104F0D3F804F09FFC002822
:104A100015D1684604F000FB002810D1204619A1EA
:104A200004F0C6F86946012004F000FB002806D116
:104A300020461AA104F0BCF8684604F08FFB38BD8C
:104A4000C8D70700C0D7070000200700536574745B
:104A5000696E6720757020766563746F722074616B
:104A6000626C653A2030782530387800456E616296
:104A70006C696E6720536F66744465766963652E52
:104A800000000000436F6E6669677572696E67208B
:104A9000424C4520737461636B2E0000456E616269
:104AA0006C696E672074686520424C4520737461A0
:104AB000636B2E0009480A4910B5401AC00804214A
:104AC00001EB004007A104F073F80C4900200870C6
:104AD000BDE810400A4802F06BBE000010D8070085
:104AE000C0D70700526573657474696E6720626F82
:104AF0006F746C6F616465722E000000B8570020FF
:104B0000C1AD07002DE9FC410646C0074FF0000586
:104B10000ED0104F00240122385D0095002311466D
:104B2000019503F099FD641C042CF4D300F064F8A3
:104B3000B0070DD5074E0024361D0022305D03233B
:104B400000951146019503F087FD641C042CF4D3F5
:104B5000BDE8FC8126C1070010B50446042803D334
:104B600005A12120FFF7D6F90E480121005DBDE81F
:104B7000104003F0CFBD00002E2E5C2E2E5C2E2E9A
:104B80005C2E2E5C2E2E5C636F6D706F6E656E7486
:104B9000735C626F617264735C626F617264732EC6
:104BA0006300000026C1070010B50446042803D3A3
:104BB00005A11B20FFF7AEF90E480021005DBDE8FE
:104BC000104003F0A7BD00002E2E5C2E2E5C2E2E72
:104BD0005C2E2E5C2E2E5C636F6D706F6E656E7436
:104BE000735C626F617264735C626F617264732E76
:104BF0006300000026C1070010B500242046FFF71F
:104C0000ABFF641C042CF9D310BD00002DE9F84360
:104C10000546861C00208DF8000090460F464FF098
:104C200001096846FFF7E6F81B4C20683860D4E9B4
:104C30000001401AA168081A41F21C0167180EE031
:104C40000121384601F015F800F082FE0146384691
:104C500001F00FF8D4E90001401AA168081A401CBD
:104C60008642EDD8B8F1000F03D0052065F3891016
:104C700002E0062065F39F50A2682168114004EB12
:104C80008101C8602068304420609DF80000FFF773
:104C9000FDF84846BDE8F8832479002010B5436844
:104CA0009C18446021B905E013F8010B01F8010BD1
:104CB000521EF9D2012010BD30B482680468531C22
:104CC0008360A154D0E901128A4202D330BC03F0C0
:104CD000CBB930BC70470000034803C8814201D102
:104CE00001207047002070472479002010B504008F
:104CF00003D10549C520FFF70DF90448C16B616078
:104D0000006CA06010BD0000ACCA0700F870002065
:104D1000F0B54FF0FF3622B11268D24300230A4D9E
:104D20000DE03246FAE7C45C62400824D70700D0A1
:104D300037462F4087EA5202641EF7D15B1C8B4234
:104D4000F1D3D043F0BD00002083B8ED10B5044688
:104D50000068401C07D0204606F0CEFA2168814248
:104D600001D1012010BD002010BDF0B51469064628
:104D70008DB020681546271DE0B1022920D00A20F9
:104D800000906B4609AA304605F0E8FF00280FD0D6
:104D900009A901A8009A05F0E9FD01AE96E80F0007
:104DA00005AE86E80F00236869683A4605A898476B
:104DB0000DB0F0BD0DB03046BDE8F04005F04ABE84
:104DC0006946304605F0DCFD0028F1D023686968AB
:104DD0003A46684698470028EAD002980028F5D15C
:104DE000019870600120E3E753685B7813F0C0031B
:104DF00003D0402B03D00020704700F003B8FFF72A
:104E0000B4BF00002DE9FF410B4651680646144629
:104E10004878334D00F00F0210F0300055F8225062
:104E200006D0102806D0202808D0302856D13EE0E1
:104E300022694DE061690120087047E0022B28D10A
:104E4000042A26D84FF0010869463046676905F004
:104E500097FD00281AD009E00B79226913FB002284
:104E60006846A84770B13878401C3870029820B165
:104E7000616838784A799042EED301987060029860
:104E800060BB02E04FF00008F7E7404604B0BDE821
:104E9000F081D4E904300F79027817FB02334979A5
:104EA0008A421BD2521C02701A46616810E00878D0
:104EB0006169072A087009D1606801792069FDF7E6
:104EC000CCFA60682169806805F075FD2269616827
:104ED00004B03046AC46BDE8F04160470020D5E75D
:104EE00078C7070038B51C4901200A68D20301D5EC
:104EF000000407E019490A6812F0A90F04D00868F5
:104F000000F056000860002001F038FD1449154AF1
:104F1000891AC908042202EB0144B8B1102000909C
:104F2000684603F0D5FBD0F810050099C84010F092
:104F3000010F0ED00948001F006810F0B10004D026
:104F4000204609A103F034FE012038BD20460FA100
:104F5000F8E7204616A1F5E70004004020050040D0
:104F600010D80700C0D70700444655206D6F646510
:104F70002072657175657374656420766961204778
:104F8000505245475245542E0000000044465520DB
:104F90006D6F646520626563617573652061707013
:104FA000206973206E6F742076616C69642E000036
:104FB000444655206D6F6465207265717565737424
:104FC00065642076696120627574746F6E2E0000CE
:104FD000FEB519490446086808B1401E0860174824
:104FE000174AD4E90153801AC008042202EB00409A
:104FF00022789DB10E6821690296CDE900312B46D9
:10500000012A16D00FA211A103F0F8FD6169002951
:1050100011D0E06803B0BDE8F0400847096800918E
:10502000012A04D007A218A103F0D5FDEEE720A2C3
:10503000F9E71FA2E7E7FEBD10580020D0D7070010
:10504000C0D707006572617365000000466C61732C
:1050500068202573206661696C6564202830782596
:1050600078293A20616464723D25702C206C656E4D
:105070003D307825782062797465732C2070656ED8
:1050800064696E6720256400466C6173682025732F
:1050900020737563636573733A20616464723D25A0
:1050A000702C2070656E64696E67202564000000B6
:1050B000777269746500000010B508281BD2DFE81C
:1050C00000F004121A1A1A041A040120FFF71AFD3C
:1050D0000020FFF769FD0120FFF766FDBDE81040E5
:1050E0000220FFF739BD0120FFF736FDBDE8104073
:1050F0000220FFF759BD10BD10B50446032806D0A5
:10510000042C04D0062C08D0072C08D105E008494F
:105110004FF4701000F0C4FF01E0FFF7CBFC05482E
:105120004168002903D02046BDE81040084710BD63
:10513000D1560700B857002010B50446062802D102
:10514000002002F033FC04480168002903D0204607
:10515000BDE81040084710BDF457002010B50021ED
:10516000024800F09CFD80F3100010BD4089002033
:105170002DE9FC4180461F4615460E4600240D4889
:1051800000F074FD38B11120BDE8FC8106EB04305D
:1051900003F0F4FE641CAC42F8D1064800F05DFD5B
:1051A000CDE90057334600220221404600F02AF89C
:1051B0000020E9E74C5800202DE9F843104D0F4638
:1051C00080461E4691466946286800F01AFD040094
:1051D00014D01C21FDF741F901202071C4F814906E
:1051E000380BC4F80080C4E902606946286800F002
:1051F00029FD05F093FD0020BDE8F8830420FBE7BE
:1052000044C407002DE9F04387B00446DDE90E8968
:1052100080681D4616460F4600280BD018216846A8
:10522000FDF71BF902A88DF8007080E86003A16803
:105230006846884707B0BDE8F08330B5044600688B
:1052400087B00D46806800281FD018216846FDF7FA
:1052500004F90195A0680590207910B1012810D1BA
:1052600007E001208DF8000020690290E0680390BB
:1052700005E002208DF80000E068000302906069FC
:105280000490206881686846884707B030BD0B28C5
:1052900003D30B38C0B200F009B8704702490022AE
:1052A00008780A70704700001458002001490870FF
:1052B0000B207047145800200149012008707047E6
:1052C000B85700200149012008707047F0570020AE
:1052D0002DE9F0438BB004004FF0200016468846BD
:1052E0004FF001050A9004D12A494FF4FC70FEF7F3
:1052F00011FE04F16F012022894602A801F0D0FAC4
:10530000254826493346401AC708042000EB0740C9
:105310000446424622A103F056FC0AA92F48CDE9D3
:105320000001334642462E49A0F5987001F0F8F985
:10533000020006D0012000EB07402AA103F03CFC4C
:1053400022E0202202A92548FDF799F8E8B10220C1
:1053500000EB074030A103F02BFC204635A103F001
:1053600027FC20462022494603F0CEFB204636A1EA
:1053700003F01EFC20462022184903F0C5FB00BFA5
:1053800003F0A8FA0028FBD100250BB02846BDE8A1
:10539000F083000044CE0700F0D70700C0D7070015
:1053A0004861736820766572696669636174696FC4
:1053B0006E2E204669726D7761726520737461721A
:1053C0007420616464726573733A20307825782C98
:1053D0002073697A653A203078257800607500205E
:1053E00068C10700436F756C64206E6F742072751E
:1053F0006E2068617368207665726966696361749E
:10540000696F6E20286572725F636F646520307803
:105410002578292E000000004861736820766572A7
:10542000696669636174696F6E206661696C656441
:105430002E0000004578706563746564204657202F
:10544000686173683A00000041637475616C2046BE
:105450005720686173683A003EB59DF8080020F057
:105460000F00401C20F0F00010308DF80800684656
:105470006DDF00282BD19DF80100401C8DF8010044
:1054800068466CDF002822D111481349007A820750
:105490001048A0EB01004FEAD0004FF0040101EBEF
:1054A000004008D50D4C0EA1221DA36903F08BFB13
:1054B000211DA06904E013A103F07AFB19A10720C4
:1054C00082B202A87CDF002801D118487ADF3EBDF5
:1054D000F8570020C8D70700C0D70700105D00208C
:1054E00053657474696E6720616476206E616D65C2
:1054F0003A2025732C206C656E6774683A20256409
:10550000000000005573696E672064656661756C04
:1055100074206164766572746973696E67206E6168
:105520006D6500004466755465737400C6C207005B
:105530002DE9FC5F0F4606463D483E499846401A15
:1055400004214FEAD00A01EB0A4015468346B742D0
:1055500007D133463A4638A103F035FB0020BDE8B9
:10556000FC9F04D240494FF02900FEF7D3FCB8F16C
:10557000000F03D13C492A20FEF7CCFC300503D0B4
:1055800039492B20FEF7C6FCB81B040B03D1364962
:105590002E20FEF7BFFC0020009005F6FF704FEABA
:1055A000103900F0CDFF4046A04500D20446A04689
:1055B00039E0C14503D82C46CDF8049003E04FEA0A
:1055C0000834CDF8048000223046019901F0DCFC5B
:1055D0000028C4D1584633463A4624A1009403F02B
:1055E000FAFA601E00F00300221A00233946304602
:1055F000D21C01F07FFD0028B1D101992448A9EB0C
:1056000001092D1B016B264421440163274400201E
:1056100002F0B8F9009030B1012101EB0A401DA160
:1056200003F0C6FA01E0002DC3D1009897E700000F
:1056300010D80700C0D707004E6F20636F70792025
:105640006E6565646564207372635F616464723A59
:1056500020307825782C206473745F616464723A1A
:10566000203078257800000070C80700436F7079FB
:10567000696E67203078257820746F20307825781F
:105680002C2073697A653A20307825780000000074
:10569000F87000204661696C656420746F20777231
:1056A00069746520696D61676520636F7079696EE3
:1056B000672070726F677265737320746F207365F3
:1056C0007474696E677320706167652E0000000056
:1056D0000748084910B5401AC008032101EB0040F3
:1056E00005A103F065FABDE81040FFF7E3B900003B
:1056F00010D80700C0D70700496E616374697669E6
:1057000074792074696D656F75742E00014941606C
:105710000020704718C4070010B50B4941600B48C2
:1057200000F0A4FA68B903F071FE08491C234FF495
:10573000EE7208740448A1F5EE71001F006800F0D5
:105740004DFA002010BD000048C407007877002003
:105750002DE9FC5F0E008346DDE90C47C6F1000031
:1057600098469246814600D40846012503E000BFD2
:1057700090FBFAF06D1C5045FADAA84500D9454671
:1057800024B1002E01DB780700D5641EB80702D5CE
:10579000B8F1000F0AD0F80708D13CB1A54205D2F4
:1057A00020215846641EFFF787FAF6E7002E02DA3A
:1057B0004E462D2102E0780703D52B215846FFF7EE
:1057C0007BFA07F0030002280BD1B8F1000F08D1D3
:1057D0003CB1A54205D230215846641EFFF76CFA51
:1057E000F6E7CDE90047434652463146584606F0B3
:1057F000CBFABDE8FC9F024600201268530713D580
:1058000002F00300012802D002280CD105E0C2F307
:1058100083100B68801C184404E00223086803EB23
:10582000925210440860012070470000024800684E
:10583000002800D0012070474C5800200248007A10
:10584000002800D0012070477877002038B54FF449
:1058500040521B49536800F500508B4204D0446805
:105860008C4201D1012400E000248B4226D1436800
:105870008B4223D11178142901D9526900E000220A
:105880001049B2FBF1F30278142A01D9406900E013
:105890000020B0FBF1F0834203D001240AA2009063
:1058A00002E000240AA200900B480C49401AC008EC
:1058B000032101EB00400AA103F08DF9204638BD19
:1058C000DBE5B15140420F006D616A6F720000006C
:1058D0006D696E6F72000000F0D70700C0D7070037
:1058E000536F66744465766963652075706461748E
:1058F0006520697320612025732076657273696F56
:105900006E207570646174652E2043757272656EC9
:10591000743A2025642E204E65773A2025642E00A7
:1059200070B5054608680C464A68866828463146C0
:1059300004F062FF6068286104F10C00686170780F
:105940000221B1EB901F01D1241D2C6170BD00001C
:105950002DE9FF410026264800F085F92448001F64
:10596000074600F080F9234C60680090A56800E0CD
:1059700000986946284004EB80000C30FFF73BFF9D
:105980000028F5D101AA009901EA050304EB83037D
:10599000491CDB6842F82030401C00910228F2D3F9
:1059A000019800F0030001281AD002280ED012A19D
:1059B0004FF4AC70FEF7AEFA384600F051F908B17A
:1059C0000098606004B03046BDE8F0810198032182
:1059D00001EB90500099BDF80A6001EB900005E0E2
:1059E0000198BDF80A60C0F3831008440090E3E713
:1059F0003C890020247900202E2E5C2E2E5C2E2E39
:105A00005C2E2E5C2E2E5C636F6D706F6E656E74F7
:105A1000735C6C69627261726965735C6C6F675C00
:105A20007372635C6E72665F6C6F675F66726F6ED7
:105A300074656E642E63000010B500224FF480512F
:105A4000104600F04DFBD8B912480022C0F5FC21E9
:105A500000F046FBA0B900210F4803F033F902F033
:105A600023FF0E480E49401AC108032000EB0140F5
:105A700004460CA103F09CF80D4800F049FC08B165
:105A8000FEF712F900F01EFA20460AA103F090F882
:105A9000002010BD00200700C960070010D80700D3
:105AA000C0D70700496E73696465206D61696E0037
:105AB000B95007004166746572206D61696E00001F
:105AC0002DE9F05F1E46DDF828B091468A460400B5
:105AD00003D124A19020FEF71DFAB4F80680607966
:105AE00008FB00F8A8F10408464503D31DA19E2039
:105AF000FEF710FAE788301DB0FBF7F1B0FBF7F2C4
:105B000007FB1200D9F80050AA19424501D9A8EBA9
:105B10000605C9F8005001E02468491E0029FBD1A0
:105B20003E1A8846AE4215D817E000BF2044001D3B
:105B30000AEB0803BBF1000F324602D001461846BB
:105B400000E01946FCF770FC00202468AD1BB0444F
:105B5000AF4201D92E4600E03E46002DE6D1BDE819
:105B6000F09F00002E2E5C2E2E5C2E2E5C2E2E5CC6
:105B70002E2E5C636F6D706F6E656E74735C6C69F6
:105B8000627261726965735C6D656D6F626A5C6E8D
:105B900072665F6D656D6F626A2E630030B5024696
:105BA00051B103F0ADF80021074C08E034F8213082
:105BB0001568AB4202D11160002030BD491C814202
:105BC000F4D3052030BD00000000000010B5FCF744
:105BD00070FB08B1002010BD112010BD10B531B10F
:105BE000B2FBF3F403FB14241CB1092010BD0E20FA
:105BF00010BD01600021416081608281C38108463F
:105C000010BD70B50C460546FCF708FB002802D015
:105C100021882868084470BD10B50A8849888A42DE
:105C200003D1FCF73DFB012010BD002010BD70B575
:105C30000C460546FCF717FB002802D0618828684F
:105C4000084470BD10B50A8849888A4203D1FCF720
:105C500001FB012010BD002010BD002100F00FB895
:105C6000002100F012B8012100F01EB8012100F05F
:105C700011B808B56A46FCF768FB009808BD08B57E
:105C80006A46FCF748FB009808BD08B56A46FCF771
:105C900042FB08BD08B56A46FCF730FB08BD08B5F5
:105CA0006A46FCF71FFB08BD08B56A46FCF726FBF1
:105CB000009808BD08B56A46FCF754FB009808BD7B
:105CC00038B5040003D115A1FE20FEF723F9002505
:105CD0008DF800506846FEF78DF82068626801680C
:105CE000914214D9491E01600D781CB919A1C22036
:105CF000FEF710F9208AE16805FB00152068217A7B
:105D00000278891A0279C9B28A4200D201719DF8DB
:105D10000000FEF7BBF8284638BD00002E2E5C2E92
:105D20002E5C2E2E5C2E2E5C2E2E5C636F6D706FA3
:105D30006E656E74735C6C69627261726965735CC6
:105D400062616C6C6F635C6E72665F62616C6C6FDB
:105D5000632E63002E2E5C2E2E5C2E2E5C2E2E5C6F
:105D60002E2E5C636F6D706F6E656E74735C6C6904
:105D7000627261726965735C62616C6C6F635C6EA8
:105D800072665F62616C6C6F632E630038B50C469F
:105D9000050004D112A140F22110FEF7BBF824B98E
:105DA0000FA14FF49170FEF7B5F800208DF80000B8
:105DB0006846FEF71FF81DB91749CF20FEF7AAF86D
:105DC000E8682A68211A288AB1FBF0F11068431CA0
:105DD000136001709DF80000FEF758F838BD000010
:105DE0002E2E5C2E2E5C2E2E5C2E2E5C2E2E5C63B8
:105DF0006F6D706F6E656E74735C6C6962726172E8
:105E00006965735C62616C6C6F635C6E72665F6225
:105E1000616C6C6F632E6300545D070010B5040065
:105E200002D0206830B901E00E2010BD17A1D920A2
:105E3000FEF770F8606818B914A1DA20FEF76AF866
:105E4000A06818B911A1DB20FEF764F8E06818B962
:105E50000EA1DC20FEF75EF8208A18B90BA1DD2028
:105E6000FEF758F8207A61682268401AC0B21160C3
:105E700004E0226811684B1C13600870401EC0B219
:105E8000F7D221680020087110BD00002E2E5C2E74
:105E90002E5C2E2E5C2E2E5C2E2E5C636F6D706F32
:105EA0006E656E74735C6C69627261726965735C55
:105EB00062616C6C6F635C6E72665F62616C6C6F6A
:105EC000632E63002DE9F041184819494FF48052C0
:105ED000401AC708042000EB0745164615A12846BE
:105EE00002F06AFE4FF0E024D4F8802128461FA17A
:105EF00004F5C07402F060FE60172060C4F8000171
:105F00006060C4F8040101F0C9F928B1012000EB78
:105F1000074021A102F04CFE02F0DCFC0028FBD17E
:105F20003046BDE8F04100F053B8000010D807003B
:105F3000C0D7070052756E6E696E67206E72665F1D
:105F4000626F6F746C6F616465725F6170705F73B4
:105F50007461727420776974682061646472657317
:105F6000733A203078253038780000004469736136
:105F7000626C696E6720696E746572727570747395
:105F80002E204E5649432D3E494345525B305D3AE3
:105F900020307825780000004661696C65642072C5
:105FA000756E6E696E67206E72665F6466755F6D92
:105FB00062725F6972715F666F72776172645F614E
:105FC0006464726573735F73657428290000000050
:105FD00070B50646204888B0C0F5FE21002200F0CA
:105FE0007FF8021E4FF0FF3509D01C481C49401AAB
:105FF000C008012101EB00401AA102F0DDFDEFF322
:106000000580D6E90046C005C00D4FF0000181F3C0
:10601000148881F3108881F3118881F3138813D0D9
:1060200020221E496846FCF7FFF9203C20226946E1
:1060300020460696FCF7F8F96FF00602294620463E
:10604000FCF7E8F808B070BD08B032462946204693
:10605000BDE87040FCF7DEB80020070010D807004C
:10606000C0D70700436F756C64206E6F7420707228
:106070006F7465637420626F6F746C6F61646572B6
:1060800020616E642073657474696E67732070613B
:106090006765732C20307825782E000038C1070002
:1060A00070B5084D04460E46686805F025FE002CC4
:1060B00006D0324621466868BDE8704005F00EBE45
:1060C00070BD0000C05700200348D0F80405034904
:1060D000097B00EB0160704700400240C057002080
:1060E000F0B50A0502D1B0F5FE2F01D90720F0BDA9
:1060F000134D000B491E124F01222E1D103700EBCD
:10610000113407F1040C17E04309C3F1000100EB5F
:10611000411E02FA0EF106D0012B06D0022B06D04A
:10612000032B08D105E0296005E0316003E0396008
:1061300001E0CCF80010401CA042E5D90020F0BDE1
:10614000000600402DE9F0413A483B49384E401ADC
:10615000C508042000EB05400027044637A102F0E3
:1061600027FDB06801280ED0A52813D0AA2818D082
:10617000AC281ED0032000EB054039A102F018FD29
:106180000020BDE8F08120463CA102F011FDFDF7A2
:10619000D7FC0CE020463CA102F00AFD04F060FEB2
:1061A0000DE020463BA102F003FDFDF7BFFE0246D5
:1061B00007E020463AA102F0FBFC04F01FFF024674
:1061C00001271D491B4B0120591AC90800EB014545
:1061D00022B1284636A1B36802F0F5FC304600F043
:1061E00063FCDFF80081002188F800103E4801F0D0
:1061F000C9FB064698F8000020B93C4940F27D10E2
:10620000FDF788FE36B1284639A102F0D1FC0325FE
:106210002846B6E70125002FFAD0012000F0AEFB9A
:106220000028F5D02046394902F0C2FC0225EFE7EC
:106230001C71002010D80700C0D70700456E746598
:1062400072206E72665F626F6F746C6F61646572EC
:106250005F66775F61637469766174650000000052
:106260004E6F206669726D7761726520746F206170
:10627000637469766174652E0000000056616C6974
:10628000642041707000000056616C6964205344C2
:106290000000000056616C696420424C0000000060
:1062A00056616C6964205344202B20424C0000004E
:1062B00041637469766174696F6E206661696C65AB
:1062C000642077697468206572726F72202564207B
:1062D0002862616E6B20636F64653A2030782578A0
:1062E00029000000F0570020C552070070C80700C1
:1062F000436F756C64206E6F7420777269746520CB
:1063000073657474696E67732E00000008C9070016
:106310002DE9F843044641484149401AC108042088
:1063200000EB014005463FA102F042FC434F102024
:106330007C600090684602F0CBF9009A404900EB7F
:1063400082004FF00008C0F80017404601F036FA0E
:1063500000284CD1FFF7F6FE314A304B01219A1A42
:10636000D20801EB024420B1012821D002283ED1FD
:1063700005E04FF47016FEF7B5FD10B934E04FF4A8
:10638000A02600F0DDF82F4A20211820FDF71CFD83
:1063900008B1FDF789FC2C48016811F0B10F03D05A
:1063A000016801F04E01016000F040FFF8B904E01F
:1063B000FEF780FB204625A12CE031493046FFF74F
:1063C0006FFE304800F0E6FE88B928462EA102F0A4
:1063D000EFFB00BF00F0A0F8FDF7D6FC02F07AFA60
:1063E0000028F7D141DFF5E701F06EF910B1032085
:1063F000BDE8F88387F80080274801F0D9F938789C
:1064000020B926A14FF4B970FDF784FDFFF75AFDBE
:10641000204632A102F0CCFBE9E7000010D80700CB
:10642000C0D70700496E206E72665F626F6F746C32
:106430006F616465725F696E69740000B85700200F
:106440000C000300D05800201C05004053686F75F5
:106450006C64206E6576657220636F6D652068657B
:1064600072653A20416674657220626F6F746C6F5A
:10647000616465725F7265736574282900000000AD
:10648000D1560700F9500700456E746572206D61A2
:10649000696E206C6F6F7000B95207002E2E5C2E53
:1064A0002E5C2E2E5C2E2E5C2E2E5C636F6D706F1C
:1064B0006E656E74735C6C69627261726965735C3F
:1064C000626F6F746C6F616465725C6E72665F623E
:1064D0006F6F746C6F616465722E630053686F75C3
:1064E0006C64206E6576657220636F6D65206865EB
:1064F00072653A204166746572206E72665F626FE3
:106500006F746C6F616465725F6170705F737461EA
:10651000727428290000000010B503F0A7F80028C5
:1065200003D0BDE8104005F047BD10BD034A936895
:106530000A4601469860184605F0D0BBC0570020B7
:106540002DE9F0411A4E307800282ED103F08EF854
:106550001849194A0127891AC908032202EB014583
:1065600000281DD0154804682846224614A102F0D0
:1065700023FBA4F54864962C00DA962405F01CFD54
:106580002846224615A102F017FB21492046FFF7B5
:10659000CDFF4FF0E0214FF48030C1F8000103E05F
:1065A00028461CA102F004FB3770BDE8F081000012
:1065B000F1570020C0D70700C0D7070004050140ED
:1065C00057445420656E61626C6564204352563AAC
:1065D0002564207469636B7300000000537461725A
:1065E00074696E6720612074696D65722028256466
:1065F000207469636B732920666F72206665656419
:10660000696E67207761746368646F672E000000AD
:10661000F5BF0700574454206973206E6F742065DE
:106620006E61626C6564000040688068004710B568
:1066300042680830527900F0F7F8002010BD2DE9CB
:10664000F04399B01C4690460D460846DDF8809010
:10665000FFF7EAFF6E6807467079A04200D804464B
:106660002246414611A800F01BF97279494601A85B
:1066700000F0DAF801AB224611A905F108000097F5
:10668000FCF7A8F818B1002019B0BDE8F08348F273
:106690004250F9E770B516460C46054600F0E8F89A
:1066A00000280ED1AA791946304600F0EEF80028ED
:1066B00007D131462046FFF7BAFF002801D1014932
:1066C000216070BD7052464D2DE9F84F6C460D4665
:1066D000D4E90A688246994617461049284600F0D0
:1066E000BBF80028A54613D16868414640794200AE
:1066F000304600F0CAF80028A54609D157B182B04B
:106700004B463A46294650460096FFF798FFA54665
:10671000BDE8F88F48F21050A546F9E77052464D93
:106720002DE9F0411D46DDE906871646044600F0D6
:106730002DF800280DD12A463146204600F03CF8BD
:10674000002806D13A4641462046BDE8F04100F017
:1067500002B8BDE8F08170B515460E46044605F056
:106760001BFC002807D13EB160682968C2689142CD
:1067700005D248F2145070BD48F2135070BD8368C2
:106780002A4631462046BDE87040184710B550B142
:1067900061B14160096804468847002802D1054874
:1067A0002060002010BD48F2015010BD48F210508A
:1067B00010BD00006E52464870B515460E460446A0
:1067C00005F0EAFB00280BD146B155B160682A46B6
:1067D000314643682046BDE87040184748F21050E3
:1067E00070BD002070BD00002DE9F0410B480C4D3C
:1067F0000C4F401BC60801203870002406E000BF83
:1068000055F834008047002805D1641CB442F7D302
:10681000022038700020BDE8F08100000000000078
:1068200000000000F357002070B514460D460646E0
:1068300000F036F8291930192246BDE8704000F002
:106840002FB870B50C46054600F064F828192146AB
:10685000BDE8704000F05EB828B10068884205D0FD
:1068600048F24050704748F210507047002070477F
:1068700028B139B10022C1E900201046704748F222
:106880001050704748F21350704720B1914205D024
:1068900048F21150704748F210507047002070477E
:1068A00070B516460C46050003D10AA11F20FDF75E
:1068B00031FB1CB907A12020FDF72CFBA919491EAB
:1068C00004E000BF14F8010B01F80109A942F9D254
:1068D00070BD00002E2E5C2E2E5C2E2E5C2E2E5CAB
:1068E0002E2E5C636F6D706F6E656E74735C6C6979
:1068F000627261726965735C63727970746F5C6EE9
:1069000072665F63727970746F5F736861726564D9
:106910002E63000070B50D46040003D107A10D20C1
:10692000FDF7F8FA6019401E05E02178027804F8B6
:10693000012B00F80119A042F7D270BD2E2E5C2E5B
:106940002E5C2E2E5C2E2E5C2E2E5C636F6D706F77
:106950006E656E74735C6C69627261726965735C9A
:1069600063727970746F5C6E72665F637279707453
:106970006F5F7368617265642E63000070B50646D0
:1069800016481749401AC108042000EB014004468C
:1069900014A102F00DF91A4D286A012805D02046ED
:1069A00018A102F005F9002070BD8EB1E86978B138
:1069B00000F056F80022A969FEF7AAF9E9698142B8
:1069C00006D02046012215A102F0F6F8012070BD84
:1069D00020461BA102F0ECF8F8E7000010D80700F1
:1069E000C0D70700456E746572206E72665F64667C
:1069F000755F6170705F69735F76616C69640000D8
:106A0000F87000204E6F2076616C696420617070B0
:106A100020746F20626F6F742E0000004352432079
:106A2000636865636B206F662061707020666169C2
:106A30006C65642E2052657475726E2025640000AA
:106A400052657475726E20747275652E2041707077
:106A5000207761732076616C69640000AFF3008079
:106A60004FF44050074A4168914207D18068411E67
:106A7000C1F30B01401A00F6FF7070474FF48050CD
:106A800070470000DBE5B15100B5FFF7E9FF0549AC
:106A900089690A18401E0844C0F30B00101A00F65A
:106AA000FF7000BDF870002000210160416081602E
:106AB0000148016370470000F87000202DE9FF4F86
:106AC00083466E496E4881B0081AC108042000EB65
:106AD000014400916BA1204602F06AF820465A4614
:106AE00070A102F069F8029808B174A200E075A2E2
:106AF000204676A102F060F8039808B16FA200E08A
:106B000070A2204676A102F057F8049808B16BA253
:106B100000E06CA2204676A102F04EF84FF44050FF
:106B200041687948814201D164A200E065A2204613
:106B300076A102F041F8204678A102F039F87B4DA9
:106B400020467BA1AB692A6A02F03DF8204680A16D
:106B50006B6AEA6A02F037F84FF00009DFF810A21A
:106B60000CE0012650B1012812D0B9F1020F1ED05D
:106B70008049A420FDF7CEF900201AE0FFF784FF3A
:106B80008046039888B16948006A01280BD00CE060
:106B9000FFF766FF8046049828B94FF440504168DB
:106BA0005948814201D0012604E0002602E04FF45A
:106BB00080508046D04503D96E49A920FDF7AAF937
:106BC0006D48A0EB0800A0F54050584501D20127C0
:106BD00000E0002702984A4647EA0005204667A1E0
:106BE00001F0EAFF2046424667A101F0E5FF0FB140
:106BF00032A200E033A2204669A101F0DDFF0EB110
:106C00002EA200E02FA220466BA101F0D5FF0DB10E
:106C10002AA200E02BA220466CA101F0CDFFB543D3
:106C200008D0B9F1020F05D209F10100C0B28146C6
:106C3000022896D957B10098022101EB004068A1C3
:106C400001F0B6FF042005B0BDE8F08FB9F1000FE8
:106C500007D020466DA101F0ABFF34481830FFF794
:106C600023FF324A002010610120506102F124000C
:106C7000FFF71AFF0020C2F824B0E4E710D807009D
:106C8000C0D70700456E746572206E72665F6466D9
:106C9000755F63616368655F7072657061726528B6
:106CA0002900000072657175697265645F73697AA5
:106CB000653A20307825782E0000000074727565E2
:106CC0000000000066616C736500000073696E6708
:106CD0006C655F62616E6B3A2025732E00000000C8
:106CE0006B6565705F6170703A2025732E0000003F
:106CF0006B6565705F736F66746465766963653A2A
:106D00002025732E00000000DBE5B15153445F5095
:106D1000524553454E543A2025732E0042616E6B06
:106D200020636F6E74656E74733A0000F870002013
:106D300042616E6B203020636F64653A20307825A5
:106D40003032783A2053697A653A203078257800D5
:106D500042616E6B203120636F64653A2030782584
:106D60003032783A2053697A653A203078257800B5
:106D700000F00600B8CC07000020070070617373B4
:106D80003A2025642E00000063616368655F6164DA
:106D900064726573733A20307825782E0000000005
:106DA00063616368655F746F6F5F736D616C6C3A8C
:106DB0002025732E000000006B6565705F666972A8
:106DC0006D776172653A2025732E000064656C65ED
:106DD00074655F6D6F72653A2025732E00000000A8
:106DE00041626F7274696E672E2043616E6E6F74BC
:106DF00020666974206E6577206669726D776172AE
:106E000065206F6E2064657669636500496E766102
:106E10006C69646174696E67206170702E00000097
:106E200070B50C46050004D1214940F22D10FDF744
:106E300071F824B91E494FF49770FDF76BF81D489F
:106E40001D4B2978C01A0422C00802EB0040092912
:106E500027D2DFE801F02605260B15261B260F009A
:106E600021462846BDE8704002F008BC13A101F09D
:106E70009FFE11E021462846BDE8704002F0A0BC0C
:106E800021462846BDE8704002F038BC14A101F04C
:106E90008FFE4FF48070E0602046BDE87040FDF743
:106EA00025BFBDE87040024940F24D10FDF732B8F1
:106EB000ACCA0700D8D70700C0D7070048616E6486
:106EC0006C65204E52465F4446555F4F505F4352BB
:106ED000435F4745542028636F6D6D616E642900E0
:106EE00048616E646C65204E52465F4446555F4F64
:106EF000505F4F424A4543545F53454C45435420ED
:106F000028636F6D6D616E642900000070B50E46D8
:106F1000040004D11B4940F24120FCF7FBFF26B9D5
:106F2000184940F24220FCF7F5FF20780125092896
:106F300020D2DFE800F01F051F0F141F1A1F0A00E0
:106F40003146204602F018FD19E03146204602F095
:106F500069FF14E03146204602F0D0FC0FE03146D4
:106F6000204602F013FE054609E03146204602F0B5
:106F70000DFF04E0034940F26320FCF7CBFF2846F5
:106F800070BD0000ACCA07002DE9F843134C07465A
:106F90000D4620680090124812499046401AC608D3
:106FA000042000EB06402B463A460FA101F013FEE9
:106FB00043462A4639461C4801F0AAF9050009D083
:106FC000022000EB06402A4618A101F0F5FD2846F4
:106FD000BDE8F8832068401C2060F8E710580020C6
:106FE000D0D70700C0D707006E72665F6673746FF4
:106FF000726167655F657261736528616464723D83
:10700000307825702C206C656E3D2564207061679A
:107010006573292C207175657565207573616765C9
:107020003A20256400000000BC5800206E72665FA4
:107030006673746F726167655F6572617365282935
:10704000206661696C656420776974682065727276
:107050006F7220307825782E000000000C490D4A10
:1070600010B5891AC908042202EB01420028104613
:1070700004D009A101F09CFD114903E011A101F028
:1070800097FD1A49BDE810400022194801F0A0B947
:10709000D0D70700C0D70700496E697469616C6971
:1070A0007A696E67206E72665F6673746F7261676D
:1070B000655F7364206261636B656E642E0000001F
:1070C00054C40700496E697469616C697A696E67B6
:1070D000206E72665F6673746F726167655F6E764D
:1070E0006D63206261636B656E642E0024C40700CB
:1070F000BC5800202DE9FC47154C80460F462068FF
:107100001549CDE9002013489946401AC60815468E
:10711000042000EB06403B464246104901F064FD66
:107120002B463A4641460E48CDF8009001F018FA39
:10713000050009D0022000EB06402A4609A101F013
:107140003BFD2846BDE8FC872068401C2060F8E72E
:1071500010580020D0D70700C0D70700F4C9070097
:10716000BC5800206E72665F6673746F72616765EB
:107170005F77726974652829206661696C6564208F
:1071800077697468206572726F7220307825782E66
:107190000000000070B51149086011481149401AFB
:1071A000C508032000EB05400FA101F001FD002000
:1071B000FDF7C2FF114800F057FC040008D0012081
:1071C00000EB054022460EA101F0F6FC204670BD02
:1071D000BDE87040094800F0D7B80000F45700201F
:1071E00010D80700C0D70700456E746572696E67D6
:1071F00020444655206D6F64652E0000395107000C
:10720000436F756C64206E6F7420696E6974616C75
:10721000697A6520444655207472616E73706F728E
:10722000743A203078253038780000000648074945
:1072300010B5401AC008042101EB004004A101F080
:10724000B7FC002010BD000010D80700C0D7070011
:10725000696E207765616B206E72665F6466755F2C
:10726000696E69745F757365720000001FB58908E7
:10727000002201AB009283E80700684618DF04B0E3
:1072800010BD00001FB5044B0FCB8DE80F00684602
:1072900018DF04B010BD0000C8C307000B480C493C
:1072A00070B5401AC108042000EB01404FF480552E
:1072B000044608A101F07CFC68040CA105600025CF
:1072C000204601F075FC284670BD000010D807006C
:1072D000C0D7070072756E6E696E67206972712083
:1072E0007461626C652073657400000041667465AA
:1072F000722072756E6E696E67206972712074619A
:10730000626C65207365740070B50E460178134C8D
:10731000062901D0012901D1017C217021780125A4
:10732000012911D0022913D00D480E49401AC00876
:10733000012101EB00400CA101F03AFC002020707B
:1073400005207070284670BD3146FFF769FDF9E7EA
:107350003146FFF7DBFD0546F4E700001858002032
:10736000D8D70700C0D70700496E76616C696420E2
:107370006F626A656374207479706520696E20722B
:107380006571756573742E0010B5040011D001206D
:10739000FFF764FE00280BD100F0C2FB00F0E0FC18
:1073A00048B10949081F00F053FC012803D003200D
:1073B00010BD072010BD04480838C4600020FDF748
:1073C00075FF002010BD00002058002010B5816816
:1073D00089B10A4A1821FCF787FC040009D0084843
:1073E0000849401AC008022101EB004006A101F043
:1073F000DFFB204610BD072010BD000025740700EC
:10740000D8D70700C0D707005363686564756C65FB
:10741000722072616E206F7574206F6620737061C8
:1074200063652100AFF3008070B50546806886B0C3
:1074300020B9414940F29B20FCF76CFD18223F49DE
:107440006846FAF7F1FF28788DF800003C483D4B7C
:107450002A78181A0421C0083B4E01EB00440D2A7B
:107460004ED2DFE802F007463146464D4636462901
:107470000D243E00204635A101F09AFB012020E0BA
:1074800020463BA101F094FB4FF08050D0F8001152
:107490000191D0F804110291D0F80C1189020491E5
:1074A000D0F81011890203910069059031E0694616
:1074B000284602F0AFFD2CE0204636A101F078FB13
:1074C000287C8DF8040024E0204638A101F070FBF0
:1074D0001FE020463EA101F06BFB288AADF80400B6
:1074E00017E0204641A101F063FBF16807208847BF
:1074F0000FE069462846FFF707FF50B906B070BD98
:10750000032101EB00403FA101F056FB02208DF862
:1075100001009DF80120204642A101F04DFBD5E974
:107520000112684690479DF801000128E6D0F168F5
:1075300005208847E2E70000ACCA0700F0C3070057
:10754000C0D70700D8D707001858002048616E64DC
:107550006C65204E52465F4446555F4F505F505217
:107560004F544F434F4C5F56455253494F4E0000C6
:1075700048616E646C65204E52465F4446555F4FCD
:10758000505F48415244574152455F564552534916
:107590004F4E000048616E646C65204E52465F4459
:1075A00046555F4F505F50494E47000048616E643A
:1075B0006C65204E52465F4446555F4F505F5245C2
:1075C00043454950545F4E4F5449465F534554001C
:1075D00048616E646C65204E52465F4446555F4F6D
:1075E000505F4D54555F47455400000048616E643C
:1075F0006C65204E52465F4446555F4F505F414296
:107600004F525400496E76616C6964206F70636FED
:1076100064652072656365697665643A2030782513
:10762000782E0000526571756573742068616E6410
:107630006C696E6720636F6D706C6574652E205287
:107640006573756C743A20307825780038B1054937
:1076500001600549416001210172002070470E2040
:10766000704700006D760700A576070010B50C0086
:1076700001464FF0110007D02278052A05D2DFE835
:1076800002F00F050D0F0F000E2010BD084600F090
:1076900073F80028F9D10221217010BD112010BD0E
:1076A000082010BD0246082041B10B78022B04D1FE
:1076B000022A05D0032A00D1112070470E207047FE
:1076C000002003220A70704770B510480024D0F8DB
:1076D0005C11491C03D1D0F89C01401C13D00C480C
:1076E0000C49401AC008042101EB00400AA101F036
:1076F0005FFA4FF4FE25284601F040FC572203496B
:10770000284601F053FC204670BD0000F8700020B0
:10771000E8D70700C0D7070045726173696E67201C
:1077200073657474696E6773207061676520616446
:10773000646974696F6E616C20646174612E00000D
:1077400010B528B11C220349FAF76EFE002010BDC7
:107750000E2010BD9CF1070010B5064C0022182128
:10776000201DFDF7D5FA2168814201D1012010BD0D
:10777000002010BD9CF1070070B50C4D0400D5F839
:107780009C0105F5CE7503D0401C03D0082070BDC8
:107790000E2070BD00221821201DFDF7B9FA2060CF
:1077A00007222146284629DF70BD000000F00700AF
:1077B000014903F037BD000000F007002DE9F84F44
:1077C00004463D483D49401AC708042000EB0740E5
:1077D00082463BA101F0ECF92046FFF73FFC020096
:1077E0004FF0010000EB074502D028463DA15BE0C9
:1077F00003F088FDDFF818818146D8F80000FDF716
:10780000A5FA2E4A2C4B0646A3EB02024FF00201CA
:107810004FEAD20219EA060F01EB024414D03D48A8
:10782000582183460246042003F072FD00905A4618
:107830004FF4AE715C2003F06BFD014600980842E6
:1078400002D12046344912E0B9F1000F0AD0504667
:1078500032A101F0ADF94FF4DC722E493248FAF74B
:10786000E3FD26E06EB1032000EB07402F4901F055
:107870009FF94FF4DC722C48D8F80010FAF7D4FDC9
:107880000BE020462A4901F093F94FF4DC712648B9
:10789000FAF7E3FD244901204860002000F05EF87B
:1078A000020006D0284623A101F086F90320BDE896
:1078B000F88F0020FBE70000E0D70700C0D70700E3
:1078C00043616C6C696E67206E72665F6466755F9B
:1078D00073657474696E67735F696E697428292EA5
:1078E0002E2E00006E72665F6466755F666C617353
:1078F000685F696E69742829206661696C65642017
:1079000077697468206572726F723A20257800007A
:107910002858002000F00700B8CB070053657474A6
:10792000696E6773204F4B00F87000205CCB070036
:10793000F8CA070073657474696E67735F7772695C
:1079400074652829206661696C65642077697468AC
:10795000206572726F723A202578000010B50446D7
:10796000064803F0C9FC05492246A1F55C7308608E
:10797000BDE81040024803F0E5BC0000F8700020AC
:1079800000F0070070B505460020FFF7E7FF040090
:1079900003D10349284603F045FC204670BD000092
:1079A000F87000204FF48050704700002DE9F04738
:1079B0001449DFF854808146A1EB0800C70813483A
:1079C00013490026401AC108042000EB0140054677
:1079D0003A4610A101F0F0F800240EE008EBC400D4
:1079E000416848468847060006D028463346224666
:1079F00012A101F0E8F802E0641CBC42EED330466C
:107A0000BDE8F087B0D70700A8D7070010D8070057
:107A1000C0D707005368757474696E6720646F7708
:107A20006E207472616E73706F7274732028666F4B
:107A3000756E643A20256429000000004661696C77
:107A4000656420746F2073687574646F776E20743A
:107A500072616E73706F72742025642C206572726F
:107A60006F722025640000002DE9F0471449DFF80B
:107A700054808146A1EB0800C7081348134900262B
:107A8000401AC108042000EB014005463A4610A107
:107A900001F092F800240DE058F834104846884769
:107AA000060006D028463346224612A101F08BF884
:107AB00002E0641CBC42EFD33046BDE8F087000012
:107AC000B0D70700A8D7070010D80700C0D7070015
:107AD000496E697469616C697A696E672074726154
